:1000000071C0000090C000008EC000008CC00000D5
:100010008AC0000088C0000086C0000084C00000C4
:1000200082C0000080C000007EC000007CC00000D4
:100030007AC0000078C0000076C0000074C00000E4
:1000400072C00000C5C300006EC000006CC000009C
:100050006AC0000068C0000066C0000064C0000004
:1000600062C0000060C000005EC000005CC0000014
:100070005AC0000058C0000056C0000054C0000024
:1000800052C0000050C000004EC000004CC0000034
:100090004AC0000048C0000046C0000044C0000044
:1000A00042C0000040C000003EC000003CC0000054
:1000B0003AC0000038C0000036C0000034C0000064
:1000C00032C0000030C000002EC000002CC0000074
:1000D0002AC0000028C0000026C0000024C0000084
:1000E00022C0000011241FBECFEFD1E2DEBFCDBF82
:1000F00000E00CBF13E0A0E0B2E0ECEBF1E200E0C6
:100100000BBF02C007900D92AE32B107D9F72BE1B9
:10011000AEE2B3E001C01D92AA33B207E1F70E943C
:10012000F50B0C94DC106CCFFC0103969283818359
:100130004FEF5FEFBA0143835483658376839087E3
:1001400087839287818710820895FC011386128627
:100150000895CF93DF939C01FB01DC011196CD91B3
:10016000DC911297D583C4838E819F819783868388
:100170008E819F81DC0115967C936E9314977F830B
:100180006E8333872287F90180818F5F8083DF91BF
:10019000CF9108950F931F93CF93DF93EB010881C5
:1001A00019812A813B810F3F4FEF14072407340741
:1001B00021F4FC01A185B28511C0DC01139601C0B8
:1001C000DF011496ED91FC91159740815181628178
:1001D0007381041715072607370790F71496ED91DA
:1001E000FC911597FD83EC83D783C683BF83AE83D1
:1001F0001596DC93CE9314979B878A87FC01208108
:100200002F5F2083DF91CF911F910F910895CF939E
:10021000DF93FC01A285B385C481D5818681978156
:100220009F838E83C681D781848195819D838C83B2
:1002300011968D919C911297E817F90731F48681F8
:10024000978112969C938E931197138612868C91A8
:1002500081508C93DF91CF910895CF93DF93EAE3A0
:10026000F3E0A6E3B3E01196FC93EE9313961C9291
:100270001E921297CF010F2E000CAA0BBB0B8459B4
:10028000984EAF4FBF4FEC019093350380933403EA
:100290001B821A82198218829C012A5333403383AD
:1002A00022839183808330933103209330033093F2
:1002B00033032093320380E090E890932F038093E0
:1002C0002E03DF91CF910895CF93DF93EC01A6E346
:1002D000B3E001C0DF01ED91FC911197EC17FD0730
:1002E000C8F312968D919C9113979D01280F391F89
:1002F000C217D30749F42A813B81820F931F1396BB
:100300009C938E931297ED018A819B819E01280F09
:10031000391FE217F307C1F42091340330913503FC
:10032000E217F30771F022813381820F931F9B83C1
:100330008A83ED91FC9111978081918199838883C3
:1003400005C03983288302C0F983E883CA17DB0715
:1003500011F0CD93DC93DF91CF910895EF92FF924E
:100360000F931F93CF93DF938C01E7D680913403D3
:1003700090913503892B09F470DF80912E039091C1
:100380002F0380239123892B09F066C001151105E5
:1003900011F00C5F1F4F0115110509F460C0809129
:1003A0003203909133038017910708F45BC0C0912A
:1003B0003603D0913703E6E3F3E002C0FE01EC011F
:1003C0008A819B818017910720F488819981009709
:1003D000A9F78091340390913503C817D90709F420
:1003E00044C0E080F18084E0E80EF11C88819981AE
:1003F000918380832A813B81201B310B2930310579
:1004000048F0CE01800F911FFC01338322831B83B0
:100410000A835ADF2A813B81809132039091330312
:10042000821B930B909333038093320340913003EC
:10043000509131038417950720F4909331038093F2
:10044000300380912E0390912F03282B392B3B836F
:100450002A83198218820BC0E12CF12C08C0E12CF0
:10046000F12C05C0E12CF12C02C0E12CF12C3AD783
:10047000C701DF91CF911F910F91FF90EF900895E9
:100480000F931F93CF93DF93009739F1EC012497DB
:100490004A815B8120912E0330912F03BA016223A0
:1004A0007323672BD1F068817981672BB1F4209594
:1004B0003095242335233B832A833FD68A819B8131
:1004C0002091320330913303820F931F90933303B3
:1004D00080933203CE01F8DE05D7DF91CF911F91D3
:1004E0000F9108951092890089EF809388001092EF
:1004F00080008BE080938100EFE6F0E080818260F5
:100500008083089531E1FC013083319722E220831A
:100510003197A3E3A083319760833197708331973C
:10052000108231971082319760E860833197108292
:100530003197108231971082319762E06083319752
:1005400063E06083319764E06083319765E06083A6
:10055000319766E06083319767E06083319768E0A8
:100560006083319769E06083319760E16083319700
:100570003083319732E13083319733E130833197E3
:1005800034E13083319735E13083319736E1308380
:10059000319737E13083319738E13083319739E152
:1005A0003083319730E23083319731E230833197B5
:1005B0002083319723E22083319740833197508302
:1005C000319726E22083319727E22083319728E272
:1005D0002083319729E22083319720E320833197CC
:1005E00021E32083899708957DDFA0912F1BB0918F
:1005F000301BCD91CDBFDD91DEBFFF91EF91DF913B
:10060000CF91BF91AF919F918F917F916F915F91AA
:100610004F913F912F911F910F91FF90EF90DF909D
:10062000CF90BF90AF909F908F907F906F905F9092
:100630004F903F902F901F900F900CBE0F900BBECD
:100640000F900FBE0F90089581E008950F920FB69E
:10065000F8940F920BB60F920CB60F921F921124C2
:100660002F923F924F925F926F927F928F929F92C2
:10067000AF92BF92CF92DF92EF92FF920F931F93B0
:100680002F933F934F935F936F937F938F939F939A
:10069000AF93BF93CF93DF93EF93FF93A0912F1B63
:1006A000B091301B0DB60D920EB60D92D0D6A09122
:1006B0002F1BB091301BCD91CDBFDD91DEBFFF91DF
:1006C000EF91DF91CF91BF91AF919F918F917F91EA
:1006D0006F915F914F913F912F911F910F91FF90DB
:1006E000EF90DF90CF90BF90AF909F908F907F90D2
:1006F0006F905F904F903F902F901F900F900CBE87
:100700000F900BBE0F900FBE0F9008950F920FB673
:10071000F8940F920BB60F920CB60F921F92112401
:100720002F923F924F925F926F927F928F929F9201
:10073000AF92BF92CF92DF92EF92FF920F931F93EF
:100740002F933F934F935F936F937F938F939F93D9
:10075000AF93BF93CF93DF93EF93FF93A0912F1BA2
:10076000B091301B0DB60D920EB60D92ECD48111E6
:100770006ED6A0912F1BB091301BCD91CDBFDD91D6
:10078000DEBFFF91EF91DF91CF91BF91AF919F912C
:100790008F917F916F915F914F913F912F911F9119
:1007A0000F91FF90EF90DF90CF90BF90AF909F9010
:1007B0008F907F906F905F904F903F902F901F9001
:1007C0000F900CBE0F900BBE0F900FBE0F900895B0
:1007D0009DDF18950FB6F8940F92FC01868D81115C
:1007E00002C081E001C080E00F900FBE08950FB6F7
:1007F000F8940F92FC01268D878D281302C081E0AA
:1008000001C080E00F900FBE08950F931F93CF9308
:10081000DF93EC01042F1E8D48A141110BC088818C
:100820009981892B09F041C08A819B818CD71B82D9
:100830001A8242C0011117C050E08C819D810E9434
:10084000F80D28A18C819D81820F911D9D838C8341
:100850002A813B818217930750F1888199819D837A
:100860008C8380E029C050E08E819F810E94F80D2A
:1008700088A190E09195819591092E813F81280F63
:10088000391F3F832E83488159812417350730F45F
:100890002A813B81820F931F9F838E83023049F40C
:1008A000112349F0115080E007C080E005C080E0CE
:1008B00003C080E001C080E01F5F1E8FDF91CF91F9
:1008C0001F910F910895FC0140A14423A9F050E02D
:1008D00026813781240F351F3783268382819381B8
:1008E0002817390720F08081918197838683CB0177
:1008F000668177810C94F80D08951F93CF93DF9351
:10090000EC010FB6F8940F921AA109C08B898823C5
:1009100041F0CE014396FCD58111B3D6115011168A
:10092000ACF38FEF8AA30F900FBE0FB6F8940F921F
:1009300019A109C08885882341F0CE010896E8D521
:1009400081119FD611501116ACF38FEF89A30F9030
:100950000FBEDF91CF911F910895CF93DF93EC01EC
:100960000FB6F8940F92E881F9818F8D90E028A15D
:1009700030E0829FA001839F500D929F500D112463
:100980004E0F5F1F5B834A831E8EFD83EC830197AE
:10099000289FA001299F500D389F500D1124CF0191
:1009A000840F951F9F838E838FEF89A38AA3611184
:1009B0000AC08885882369F0CE010896A9D58823C6
:1009C00041F044DE06C0CE010896AEDBCE01439670
:1009D000ABDB0F900FBE81E0DF91CF9108950F93B5
:1009E0001F93F801611103C01183008302C051837A
:1009F0004083878F60A361E0CF01AFDF1F910F912C
:100A00000895DF92EF92FF920F931F93CF93DF939E
:100A1000E82EF62ED42E662321F0869FC0011124E5
:100A200002C080E090E0839699DCEC01009741F0F1
:100A30008C012D2DAC014D5D5F4F6F2D8E2DCFDFC5
:100A4000CE01DF91CF911F910F91FF90EF90DF903A
:100A50000895CF92DF92EF92FF920F931F93CF935F
:100A6000DF93CDB7DEB729970FB6F894DEBF0FBE80
:100A7000CDBF7C016B012E833F834887598710E0EF
:100A80000FB6F8940F92F701968D878D981710F096
:100A90000230A9F4402FB601C701B7DEF7019389F0
:100AA000992339F0C701439633D5882321F0CEDD51
:100AB00002C08111CBDD0F900FBE81E046C08E8158
:100AC0009F81A885B985892B8A2B8B2B21F40F90C8
:100AD0000FBE80E03AC0111104C0CE0101965AD574
:100AE00011E00F900FBE29D30FB6F8940F92F701C3
:100AF00081A18F3F09F411A2F70182A18F3F09F470
:100B000012A20F900FBEBE016A5F7F4FCE01019609
:100B100052D5811116C0C7016ADE882371F04E815B
:100B20005F8168857985C7010896DBD4C701E5DE5A
:100B3000D9D38111A5CF8ADDA3CFC701DEDED2D301
:100B40009FCFC701DADECED380E029960FB6F894A6
:100B5000DEBF0FBECDBFDF91CF911F910F91FF90F0
:100B6000EF90DF90CF9008950F93009769F0FC010C
:100B70001382128211821082168200E020E030E09F
:100B8000A90160E070E065DF0F910895CF93DF93D6
:100B9000482F60E081E035DFEC01E6DFCE01DF9138
:100BA000CF9108958F929F92BF92CF92DF92EF9252
:100BB000FF920F931F93CF93DF93CDB7DEB72997A3
:100BC0000FB6F894DEBF0FBECDBF7C016B012E8344
:100BD0003F8348875987B02E00E00FB6F8940F92F4
:100BE000F701168D112361F186809780B601C70148
:100BF0006ADEB11016C01150F701168F8081918105
:100C0000892B21F4E0D5F70193838283F701808556
:100C1000882391F0C70108967BD4882369F016DDFC
:100C20000BC0F701978286828389882329F0C70148
:100C300043966ED481110ADD0F900FBE81E058C03B
:100C40008E819F81A885B985892B8A2B8B2B21F4D6
:100C50000F900FBE80E04CC0011104C0CE01019680
:100C600099D401E00F900FBE68D20FB6F8940F929E
:100C7000F70181A18F3F09F411A2F70182A18F3FF3
:100C800009F412A20F900FBEBE016A5F7F4FCE0122
:100C9000019691D4811123C0C7019CDD8823D9F02E
:100CA000F70180819181892B41F40FB6F8940F925E
:100CB00082819381EAD40F900FBE4E815F81688557
:100CC0007985C70143960DD4C70117DE0BD3811177
:100CD00084CFBCDC82CFC70110DE04D37ECFC70136
:100CE0000CDE00D3C70176DD882309F476CF80E0DF
:100CF00029960FB6F894DEBF0FBECDBFDF91CF911E
:100D00001F910F91FF90EF90DF90CF90BF909F9039
:100D10008F900895E091E01AF091E11A808181119D
:100D20000CC08FEF9FEFDC018093AD1A9093AE1A49
:100D3000A093AF1AB093B01A0895E091E01AF09121
:100D4000E11A0780F085E02D0084F185E02D828195
:100D50009381A481B5818093AD1A9093AE1AA0932C
:100D6000AF1AB093B01A0895CF93DF93EC018B8D37
:100D70009C8D86DBCE0184DBDF91CF9108956F924D
:100D80007F928F929F92AF92BF92CF92DF92EF921B
:100D90000F931F93CF93DF93CDB7DEB74C01F501CF
:100DA000838D948D215031093C01620E731E20E029
:100DB0000FC0822F90E0FB01E80FF91F3081D501B1
:100DC000A80FB91F5D963C938081882319F02F5F8F
:100DD000243178F3F50110AAF4E0FE1518F46894B4
:100DE000EE24E2F8F501E28EE1AA12AAC50102960C
:100DF000ACD9C5010E96A9D9F501B386A28685E0C6
:100E000090E0A0E0B0E08E199109A109B1098687B0
:100E10009787A08BB18BB78AA68A13AA14AA15AAA2
:100E200016AA17AAA801B401C3016CDBF5019183CE
:100E30008083C114D10419F0F601B182A082DF9140
:100E4000CF911F910F91EF90DF90CF90BF90AF9017
:100E50009F908F907F906F900895CF93C0E008C0CF
:100E60002BE0C29FC00111248850954E5DD9CF5F01
:100E7000C530B0F38DEE9AE157D982EE9AE154D99C
:100E800083ED9AE151D988EC9AE14ED98CEB9AE145
:100E90004BD98DEE9AE19093E11A8093E01A82EE9D
:100EA0009AE19093DF1A8093DE1ACF910895CF9341
:100EB000DF93EC010FB6F8940F928091BB1A8F5F0D
:100EC0008093BB1A80912F1B9091301B892B51F47A
:100ED000D093301BC0932F1B8091BB1A813091F4AB
:100EE000BCDF10C08091B51A81110CC0E0912F1B9E
:100EF000F091301B928D8A8D891720F0D093301B92
:100F0000C0932F1B8091B11A8F5F8093B11A8A8D85
:100F10009091B61A981710F48093B61A2BE0829F1E
:100F2000C0011124BE016E5F7F4F8850954E11D9CC
:100F30000F900FBE8091B51A882349F0E0912F1BC6
:100F4000F091301B928D8A8D981708F47FDBDF912A
:100F5000CF9108958F929F92AF92BF92CF92DF92DE
:100F6000EF92FF92CF936B017C01C42F8090B71A50
:100F70009090B81AA090B91AB090BA1A80912F1B0D
:100F80009091301B029643D98FEFC816D806E80619
:100F9000F80661F4CC2351F060912F1B7091301B47
:100FA0006E5F7F4F8CEB9AE1D4D83DC0C80CD91C42
:100FB000EA1CFB1CE0912F1BF091301BC282D382F4
:100FC000E482F582C814D904EA04FB0460F4609159
:100FD0002F1B7091301B8091DE1A9091DF1A6E5F8B
:100FE0007F4FD8D820C060912F1B7091301B80910B
:100FF000E01A9091E11A6E5F7F4FCCD88091AD1AC4
:101000009091AE1AA091AF1AB091B01AC816D90635
:10101000EA06FB0640F4C092AD1AD092AE1AE092F6
:10102000AF1AF092B01ACF91FF90EF90DF90CF906F
:10103000BF90AF909F908F9008952F923F924F92C4
:101040005F926F927F928F929F92AF92BF92CF9258
:10105000DF92EF92FF920F931F93CF93DF933C01A8
:101060001B015A012901CA0179D96C01892B61F050
:1010700088E390E073D9EC01892B19F0DC8ECB8EDC
:1010800005C0C601FDD902C0C0E0D0E0209781F0C4
:10109000950140E050E0812C912C5E016701E02E2B
:1010A0008201B101C3016BDECE0101DF81E001C02D
:1010B0008FEFDF91CF911F910F91FF90EF90DF9015
:1010C000CF90BF90AF909F908F907F906F905F90E8
:1010D0004F903F902F900895EF92FF920F930F2E15
:1010E000FBEAEF2EFAE1FF2EF02D00E020E030E0E9
:1010F00040E054E062E072E080E29AE09EDF8130FE
:10110000C1F4F8948FEF9FEFDC018093AD1A9093B8
:10111000AE1AA093AF1AB093B01A81E08093B51ABB
:101120001092B71A1092B81A1092B91A1092BA1AED
:101130005BDA0F91FF90EF9008958091AA1A8F5F6C
:101140008093AA1A0895BF92CF92DF92EF92FF92F6
:101150000F931F93CF93DF938091AA1A8111A8C098
:10116000C090B71AD090B81AE090B91AF090BA1A95
:101170002FEFC21AD20AE20AF20AC092B71AD0922C
:10118000B81AE092B91AF092BA1AC114D104E10463
:10119000F104B1F48091E01A9091E11A2091DE1AE5
:1011A0003091DF1A3093E11A2093E01A9093DF1AFE
:1011B0008093DE1A8091B21A8F5F8093B21AAADDF3
:1011C0008091AD1A9091AE1AA091AF1AB091B01A59
:1011D000C816D906EA06FB0628F4B12C5AC0BB246F
:1011E000B39401C0B12CE091E01AF091E11A808132
:1011F00081110CC08FEF9FEFDC018093AD1A9093AB
:10120000AE1AA093AF1AB093B01A43C0E091E01A9F
:10121000F091E11A0780F085E02DC085D1858A81A3
:101220009B81AC81BD81C816D906EA06FB0648F44D
:101230008093AD1A9093AE1AA093AF1AB093B01AE0
:1012400028C08E010E5F1F4FC8010E940701888DC4
:10125000998D892B21F0CE010E960E9407018A8D6F
:101260009091B61A981710F48093B61A2BE0829FCB
:10127000C0011124B8018850954E0E94A9009A8D92
:10128000E0912F1BF091301B828D981708F0A7CFAB
:10129000AACFE0912F1BF091301BE28D8BE0E89FED
:1012A000F0011124E850F54E8081823040F409C0ED
:1012B0008091B41A8F5F8093B41AB12C02C0BB2402
:1012C000B3948091B31A882311F0BB24B3948B2D6F
:1012D000DF91CF911F910F91FF90EF90DF90CF9012
:1012E000BF9008950F931F93CF93DF930FB6F89499
:1012F0000F928091AA1A81508093AA1A8091AA1AFB
:1013000081114FC08091BB1A81112DC04DC0E09159
:10131000DA1AF091DB1AC085D185CE010E960E94B3
:1013200007018E010E5F1F4FC8010E9407018A8DC1
:101330009091B61A981710F48093B61A2BE0829FFA
:10134000C0011124B8018850954E0E94A9009A8DC1
:10135000E0912F1BF091301B828D981730F081E0C7
:101360008093B31A02C0C0E0D0E08091D31A8111FB
:10137000CECFCD2B09F0CEDCC091B41ACC2351F0E6
:10138000E2DE882319F081E08093B31AC150C1F7DF
:101390001092B41A8091B31A882329F057D981E0AA
:1013A00003C080E001C080E00F900FBEDF91CF91BD
:1013B0001F910F910895CF92DF92EF92FF926B01F0
:1013C0007C01672B682B692B39F0B7DE40E0C70141
:1013D000B601C0DD87DF01C080E0811101C036D9D0
:1013E000FF90EF90DF90CF900895CF93DF9321C0CF
:1013F000A4DEC091C81A76DFCC23D9F00FB6F894DA
:101400000F92E091CF1AF091D01AC085D185CE010C
:1014100002960E9407018091BB1A81508093BB1AEB
:101420008091C71A81508093C71A0F900FBECE01CA
:101430009BDC8091C71A8111DBCFDF91CF9108959A
:10144000D4DF8091F81A8230D8F300D9F9CF809197
:10145000AA1A882321F081E08093B31A089510928C
:10146000B31A8091B61A01C08150282F30E09BE05A
:10147000929FF001939FF00D1124E850F54E90815A
:10148000992391F39BE0929FA001939F500D11240B
:10149000DF010180F281E02D0480F581E02D1296BC
:1014A000FC93EE9311974550554EE417F50729F438
:1014B00044815581FD01528341839BE0929FF0015D
:1014C000939FF00D1124E850F54E0180F281E02D3C
:1014D000208531853093301B20932F1B8093B61AC3
:1014E0000895CF92DF92EF92FF926A017B016091A3
:1014F0002F1B7091301B625F7F4F0E94CA0041E03A
:10150000C701B60127DDFF90EF90DF90CF900895DF
:101510000F931F93CF93DF93DC011796ED91FC910E
:101520001897C085D1858E01025F1F4FC8010E94A8
:1015300007018091AA1A811116C00C501109C80127
:101540000E9407018A8D9091B61A981710F4809323
:10155000B61ABBE08B9FC0011124B8018850954E8C
:101560000E94A90005C0B80183ED9AE10E94A9007C
:101570009A8DE0912F1BF091301B828D891720F4FA
:1015800081E08093B31A01C080E0DF91CF911F9179
:101590000F9108952091B21AFC0120834091B71A4F
:1015A0005091B81A6091B91A7091BA1A4183528356
:1015B0006383748308958F929F92AF92BF92CF926C
:1015C000DF92EF92FF920F931F93CF93DF93FB0174
:1015D0000FB6F8940F920091B71A1091B81A209193
:1015E000B91A3091BA1A40815181628173814F3F9B
:1015F000AFEF5A076A077A0781F1EC01B881A09131
:10160000B21ABA1749F0C980DA80EB80FC800C1559
:101610001D052E053F0518F5DC011196CD90DD90D6
:10162000ED90FC901497480159018C189D08AE0864
:10163000BF0884169506A606B70698F4C01AD10A04
:10164000E20AF30A4C0D5D1D6E1D7F1D4083518320
:10165000628373839FDF80E005C080E003C081E088
:1016600001C081E00F900FBEDF91CF911F910F91CC
:10167000FF90EF90DF90CF90BF90AF909F908F90B2
:10168000089581E08093B31A08950F931F93CF9329
:10169000DF93FC01892B09F451C0828DA0912F1B8F
:1016A000B091301B5A969C91891708F047C0468527
:1016B000578560897189772394F0A0912F1BB09191
:1016C000301B5A969C9145E050E060E070E0491B69
:1016D00051096109710946875787608B718B248591
:1016E00035854BE0849FC00111248850954E281702
:1016F0003907E9F48F01EF012296CE010E9407011C
:10170000E0912F1BF091301B828DF801828F909118
:10171000B61A981710F48093B61AFBE08F9FC00199
:101720001124BE018850954E0E94A90007C0A091C7
:101730002F1BB091301B5A968C91828FDF91CF91E5
:101740001F910F9108950F931F93CF93DF93FC0187
:10175000892B79F182A9815082AB228D91A9291719
:1017600051F181112AC0EF018F010E5F1F4FC80197
:101770000E94070189A98A8F45E050E060E070E08F
:10178000481B5109610971094E875F87688B798B06
:101790009091B61A981710F48093B61A2BE0829F96
:1017A000C0011124B8018850954E0E94A90081E023
:1017B00005C080E003C080E001C080E0DF91CF91F0
:1017C0001F910F91089580912F1B9091301B892BB1
:1017D00039F0E0912F1BF091301B82A98F5F82AB13
:1017E00080912F1B9091301B089587E690E040D1A7
:1017F00037D081E0CBD99093321B8093311B40E0EE
:1018000061E08AE0FED89093391B8093381BE12C6D
:10181000F12C02E020E030E044E650E067E072E0C6
:101820008EE79CE00ADC20E030E048EC50E06DE41C
:1018300072E081EC9CE001DC20E030E048EC50E01C
:101840006EE672E084E09DE0F8DB20E030E044E604
:1018500050E063E972E08CE59CE0EFDB3DDCFFCF1C
:1018600087E084B981E58CBD85B1816085B9089533
:1018700095B121E030E002C0220F331F8A95E2F7D4
:101880002095292325B9089595B121E030E002C0C3
:10189000220F331F8A95E2F7292B25B908958EBDB3
:1018A0000DB407FEFDCF8EB5089581E08093361B01
:1018B0008DEA92E005C10895CF93DF931F92CDB7D3
:1018C000DEB7E3E3FBE11282138200E02FEF3FEF8C
:1018D000A901BE016F5F7F4F8091381B9091391B2A
:1018E00061D9813091F7E981F0E0EE0FFF1FE05000
:1018F000FE4F0190F081E02D1995E7CF41D1C82F1F
:1019000000E02FEF3FEFA90160E070E08091311B14
:101910009091321B47D9E3E3FBE18DE68083C183DD
:1019200020E030E0A90160E070E08091311B9091EF
:10193000321B8FD887EB92E0C3D060ED77E080E078
:1019400090E039DDDBCFAC0120E030E080E007C083
:10195000FA01E20FF31F908189272F5F3F4F211576
:101960003105B1F320E030E008C0FA013196E20F12
:10197000F31F908189272F5F3F4F21153105A9F370
:101980000895CF93DF931F921F92CDB7DEB78FEFED
:1019900089838AE08A8300E02FEF3FEFA90160E0AE
:1019A00070E08091311B9091321BFCD883E39BE166
:1019B000CADF8093371B61E070E0CE0101968CD0C6
:1019C00061E070E083E39BE187D061E070E084E355
:1019D0009BE182D061E070E087E39BE17DD061E034
:1019E00070E0CE01029678D020E030E0A90160E0FE
:1019F00070E08091311B9091321B2BD860ED77E025
:101A000080E090E0D8DCC7CFCF93DF93CDB7DEB7CF
:101A1000A9970FB6F894DEBF0FBECDBF86EC92E05B
:101A20004FD089D08823F1F080EE92E049D0CE01EA
:101A3000019665D08DEE92E043D08981813079F4B2
:101A400019A600E02FEF3FEFA901BE01675D7F4FB0
:101A50008091381B9091391B0E94290503C083E0B7
:101A600093E02ED060ED77E080E090E0A4DCD6CF6C
:101A70009093C5008093C40038E13093C10026E004
:101A80002093C2009093CD008093CC003093C90086
:101A90002093CA0008959091C00095FFFCCF8093D9
:101AA000C60008959091C80095FFFCCF8093CE00AA
:101AB00008958091C8008823E4F78091CE000895AE
:101AC000CF93DF93EC0102C0E6DF2196888181117C
:101AD000FBCFDF91CF9108950F931F93CF93DF93A7
:101AE000EC018C01060F171F02C08991DBDFC017C4
:101AF000D107D8F3DF91CF911F910F9108950F93E4
:101B00001F93CF93DF938C01D4DF8F3F79F4D1DF24
:101B1000C0E0D0E006C0F801EC0FFD1F8083C9DFF4
:101B200021968A30C1F7C00FD11F1882DF91CF9163
:101B30001F910F9108958091C80080780895EF92C9
:101B4000FF920F931F93CF93DF937C018B01EA01E8
:101B500080E08EDE8FE9A3DE80E0A1DEF7018083E6
:101B600080E09DDEF801808380E099DE888380E05C
:101B70008BDEDF91CF911F910F91FF90EF90089531
:101B8000CF93DF93CDB7DEB7A1970FB6F894DEBF42
:101B90000FBECDBFAE014D5F5F4FBE016E5F7F4F89
:101BA000CE010196CCDF8B811F928F938A811F9289
:101BB0008F9389811F928F938BE193E09F938F93F3
:101BC000CE0104969F938F931CD081E00FB6F894BA
:101BD000DEBF0FBECDBF99819F3E09F080E0A19688
:101BE0000FB6F894DEBF0FBECDBFDF91CF91089541
:101BF000FB01DC0102C001900D9241505040D8F72A
:101C000008950F931F93CF93DF93CDB7DEB72E9731
:101C10000FB6F894DEBF0FBECDBF0E891F8986E0D8
:101C20008C831A8309838FEF9FE79E838D83AE0198
:101C3000465E5F4F688D798DCE01019610D0EF81A1
:101C4000F885E00FF11F10822E960FB6F894DEBFD4
:101C50000FBECDBFDF91CF911F910F9108952F92AD
:101C60003F924F925F926F927F928F929F92AF922C
:101C7000BF92CF92DF92EF92FF920F931F93CF9379
:101C8000DF93CDB7DEB72B970FB6F894DEBF0FBE4C
:101C9000CDBF6C017B018A01FC0117821682838112
:101CA00081FFBFC1CE0101963C01F6019381F7018E
:101CB00093FD859193FF81917F01882309F4ADC144
:101CC000853239F493FD859193FF81917F018532AF
:101CD00021F4B60190E0D6D1E8CF912C212C312C03
:101CE000FFE1F315D8F08B3279F038F4803279F0D7
:101CF0008332A1F4232D20611DC08D3261F0803329
:101D000069F4232D216016C0832D8260382EE32DC7
:101D1000E4603E2E2AC0F32DF8601DC037FC2DC0B4
:101D200020ED280F2A3040F08E32B9F436FC75C110
:101D3000232D2064322E19C036FE06C08AE0989EFC
:101D4000200D1124922E11C0EAE02E9E200D1124A8
:101D5000222EF32DF0623F2E08C08C3621F4832D05
:101D60008068382E02C0883641F4F70193FD8591D2
:101D700093FF81917F018111B3CF982F9F7D95545F
:101D8000933028F40C5F1F4F9FE399830DC0833677
:101D900031F0833771F0833509F055C020C0F80168
:101DA000808189830E5F1F4F88248394912C530177
:101DB00012C02801F2E04F0E511CF801A080B18042
:101DC00036FE03C0692D70E002C06FEF7FEFC501E2
:101DD0004ED14C018201F32DFF773F2E15C0280113
:101DE00022E0420E511CF801A080B18036FE03C0F3
:101DF000692D70E002C06FEF7FEFC5012DD14C015E
:101E0000F32DF0683F2E820133FC19C0822D90E043
:101E100088169906A0F4B60180E290E033D12A94A6
:101E2000F5CFF50137FC859137FE81915F01B60151
:101E300090E028D121102A9421E0821A910881147F
:101E4000910479F7E1C0843611F0893639F5F8014B
:101E500037FE07C060817181828193810C5F1F4FC3
:101E600008C060817181072E000C880B990B0E5FF2
:101E70001F4FF32DFF763F2E97FF09C09095809559
:101E8000709561957F4F8F4F9F4FF0683F2E2AE0EE
:101E900030E0A30133D1882E861844C0853731F451
:101EA000232D2F7EB22E2AE030E025C0932D997F7E
:101EB000B92E8F36C1F018F4883579F0AEC080376E
:101EC00019F0883721F0A9C0E92FE061BE2EB4FED9
:101ED0000DC0FB2DF460BF2E09C034FE0AC0292FAF
:101EE0002660B22E06C028E030E005C020E130E0D8
:101EF00002C020E132E0F801B7FE07C060817181C5
:101F0000828193810C5F1F4F06C06081718180E0E8
:101F100090E00E5F1F4FA301F1D0882E8618FB2D95
:101F2000FF773F2E36FE0DC0232D2E7FA22E891463
:101F300058F434FE0BC032FC09C0832D8E7EA82ECF
:101F400005C0B82CA32C03C0B82C01C0B92CA4FE2A
:101F50000FC0FE01E80DF11D8081803321F49A2D20
:101F6000997EA92E09C0A2FE06C0B394B39404C002
:101F70008A2D867809F0B394A3FC10C0A0FE06C099
:101F8000B21480F4280C922C9B180DC0B21458F493
:101F9000B60180E290E076D0B394F8CFB21418F492
:101FA0002B1802C0982C212CA4FE0FC0B60180E390
:101FB00090E068D0A2FE16C0A1FC03C088E790E0C4
:101FC00002C088E590E0B6010CC08A2D867851F0F9
:101FD000A1FE02C08BE201C080E2A7FC8DE2B60147
:101FE00090E050D0891430F4B60180E390E04AD0FC
:101FF0009A94F8CF8A94F301E80DF11D8081B6011F
:1020000090E040D08110F6CF222009F44ECEB601E8
:1020100080E290E037D02A94F7CFF601868197814D
:1020200002C08FEF9FEF2B960FB6F894DEBF0FBE66
:10203000CDBFDF91CF911F910F91FF90EF90DF9077
:10204000CF90BF90AF909F908F907F906F905F9058
:102050004F903F902F900895FC0105906150704083
:102060000110D8F7809590958E0F9F1F0895FC0161
:102070006150704001900110D8F7809590958E0FB7
:102080009F1F08950F931F93CF93DF93FB0123812D
:1020900021FD03C08FEF9FEF2CC022FF16C04681A9
:1020A0005781248135814217530744F4A081B181BF
:1020B0009D012F5F3F4F318320838C932681378191
:1020C0002F5F3F4F3783268314C08B01EC01FB0148
:1020D0000084F185E02D1995892BE1F6D80116963B
:1020E0008D919C911797019617969C938E931697B6
:1020F000CE01DF91CF911F910F910895FA01AA2788
:10210000283051F1203181F1E8946F936E7F6E5F3A
:102110007F4F8F4F9F4FAF4FB1E03ED0B4E03CD0E8
:10212000670F781F891F9A1FA11D680F791F8A1FCB
:10213000911DA11D6A0F711D811D911DA11D20D032
:1021400009F468943F912AE0269F11243019305DEC
:102150003193DEF6CF010895462F4770405D4193DD
:10216000B3E00FD0C9F7F6CF462F4F70405D4A332A
:1021700018F0495D31FD4052419302D0A9F7EACFF2
:10218000B4E0A6959795879577956795BA95C9F721
:1021900000976105710508959B01AC010A2E069414
:1021A0005795479537952795BA95C9F7620F731FCD
:0C21B000841F951FA01D0895F894FFCF18
:1021BC00550C49444C45005461736B20746F20736B
:1021CC00696D756C6174652072656164696E6720F8
:1021DC00646174612066726F6D20573235513332F1
:1021EC002C2077696C6C20696E636C756465206F4C
:1021FC00746865722073656E736F727300546173CB
:10220C006B20746F2073656E642074656C656D65EE
:10221C0074727920746F2067726F756E64005461EC
:10222C00736B20746F207265636569766520636FCC
:10223C006D6D616E64732066726F6D2067726F7561
:10224C006E64005461736B20746F2068616E646CF3
:10225C006520616C6C206576656E7473004C6175DD
:10226C006E636865642100526561642053656E730A
:10227C006F72730D0A004C697374656E696E67201A
:10228C00666F7220436F6D6D616E6473210D0A0071
:10229C005265616420736D7468210D0A00436F7080
:1022AC0069656420696E746F20627566666572215B
:1022BC000D0A00536F6D657468696E672077656EE3
:1022CC00742077726F6E67210D0A004A45444543AE
:0E22DC002049443A20257820257820257800D6
:00000001FF
