S00B00006F62632E73726563E5
S113000071C000008EC000008CC000008AC00000D7
S113001088C0000086C0000084C0000082C00000C8
S113002080C000007EC000007CC000007AC00000D8
S113003078C0000076C0000074C0000072C00000E8
S113004070C00000C3C300006CC000006AC00000A0
S113005068C0000066C0000064C0000062C0000008
S113006060C000005EC000005CC000005AC0000018
S113007058C0000056C0000054C0000052C0000028
S113008050C000004EC000004CC000004AC0000038
S113009048C0000046C0000044C0000042C0000048
S11300A040C000003EC000003CC000003AC0000058
S11300B038C0000036C0000034C0000032C0000068
S11300C030C000002EC000002CC000002AC0000078
S11300D028C0000026C0000024C0000022C0000088
S11300E020C0000011241FBECFEFD1E2DEBFCDBF80
S11300F000E00CBF12E0A0E0B2E0EEECFFE000E0B4
S11301000BBF02C007900D92AE31B107D9F72AE1B7
S1130110AEE1B2E001C01D92A132B207E1F738D7D7
S113012054C76ECFFC010396928381834FEF5FEF38
S1130130BA01438354836583768390878783928748
S1130140818710820895FC01138612860895CF9347
S1130150DF939C01FB01DC011196CD91DC91129798
S1130160D583C4838E819F81978386838E819F816B
S1130170DC0115967C936E9314977F836E8333878B
S11301802287F90180818F5F8083DF91CF91089569
S11301900F931F93CF93DF93EB01088119812A8179
S11301A03B810F3F4FEF14072407340721F4FC0170
S11301B0A185B28511C0DC01139601C0DF0114963C
S11301C0ED91FC91159740815181628173810417EF
S11301D015072607370790F71496ED91FC911597AC
S11301E0FD83EC83D783C683BF83AE831596DC93EC
S11301F0CE9314979B878A87FC0120812F5F2083ED
S1130200DF91CF911F910F910895CF93DF93FC015C
S1130210A285B385C481D581868197819F838E838E
S1130220C681D781848195819D838C8311968D911C
S11302309C911297E817F90731F4868197811296F9
S11302409C938E931197138612868C9181508C9374
S1130250DF91CF910895CF93DF93EAE2F2E0A6E233
S1130260B2E01196FC93EE9313961C921E92129791
S1130270CF010F2E000CAA0BBB0B8459984EAF4F25
S1130280BF4FEC0190932502809324021B821A82B3
S1130290198218829C012A5232403383228391832B
S11302A080833093210220932002309323022093F1
S11302B0220280E090E890931F0280931E02DF9157
S11302C0CF910895CF93DF93EC01A6E2B2E001C091
S11302D0DF01ED91FC911197EC17FD07C8F312961D
S11302E08D919C9113979D01280F391FC217D30735
S11302F049F42A813B81820F931F13969C938E931A
S11303001297ED018A819B819E01280F391FE21704
S1130310F307C1F42091240230912502E217F30778
S113032071F022813381820F931F9B838A83ED9125
S1130330FC911197808191819983888305C03983C9
S1130340288302C0F983E883CA17DB0711F0CD9331
S1130350DC93DF91CF910895EF92FF920F931F9357
S1130360CF93DF938C0147D480912402909125028E
S1130370892B09F470DF80911E0290911F02802363
S11303809123892B09F066C00115110511F00C5F4A
S11303901F4F0115110509F460C08091220290914C
S11303A023028017910708F45BC0C0912602D09104
S11303B02702E6E2F2E002C0FE01EC018A819B81A1
S11303C08017910720F4888199810097A9F780917B
S11303D0240290912502C817D90709F444C0E0808B
S11303E0F18084E0E80EF11C8881998191838083F7
S11303F02A813B81201B310B2930310548F0CE0185
S1130400800F911FFC01338322831B830A835ADFED
S11304102A813B818091220290912302821B930BBB
S11304209093230280932202409120025091210252
S11304308417950720F490932102809320028091E1
S11304401E0290911F02282B392B3B832A83198289
S113045018820BC0E12CF12C08C0E12CF12C05C052
S1130460E12CF12C02C0E12CF12C97D4C701DF91CF
S1130470CF911F910F91FF90EF9008950F931F93C9
S1130480CF93DF93009739F1EC0124974A815B8184
S113049020911E0230911F02BA0162237323672B3D
S11304A0D1F068817981672BB1F4209530952423AC
S11304B035233B832A839FD38A819B812091220207
S11304C030912302820F931F909323028093220280
S11304D0CE01F8DE62D4DF91CF911F910F91089580
S11304E01092890089EF80938800109280008BE03D
S11304F080938100EFE6F0E080818260808308953C
S113050031E1FC013083319722E220833197A3E368
S1130510A08331976083319770833197108231972C
S11305201082319760E8608331971082319710828E
S113053031971082319762E06083319763E0608382
S1130540319764E06083319765E06083319766E0BA
S11305506083319767E06083319768E06083319707
S113056069E06083319760E160833197308331972C
S113057032E13083319733E13083319734E1308392
S1130580319735E13083319736E13083319737E164
S11305903083319738E13083319739E130833197B3
S11305A030E23083319731E23083319720833197C1
S11305B023E220833197408331975083319726E299
S11305C02083319727E22083319728E220833197D3
S11305D029E22083319720E32083319721E320838C
S11305E0899708957DDFA0911F1AB091201ACD91AB
S11305F0CDBFDD91DEBFFF91EF91DF91CF91BF9130
S1130600AF919F918F917F916F915F914F913F91A6
S11306102F911F910F91FF90EF90DF90CF90BF909B
S1130620AF909F908F907F906F905F904F903F908E
S11306302F901F900F900CBE0F900BBE0F900FBE0B
S11306400F90089581E008950F920FB6F8940F92D9
S11306500BB60F920CB60F921F9211242F923F9259
S11306604F925F926F927F928F929F92AF92BF92BE
S1130670CF92DF92EF92FF920F931F932F933F93AA
S11306804F935F936F937F938F939F93AF93BF9396
S1130690CF93DF93EF93FF93A0911F1AB091201A89
S11306A00DB60D920EB60D9229D4A0911F1AB091D9
S11306B0201ACD91CDBFDD91DEBFFF91EF91DF9187
S11306C0CF91BF91AF919F918F917F916F915F91E6
S11306D04F913F912F911F910F91FF90EF90DF90D9
S11306E0CF90BF90AF909F908F907F906F905F90CE
S11306F04F903F902F901F900F900CBE0F900BBE09
S11307000F900FBE0F9008950F920FB6F8940F92AA
S11307100BB60F920CB60F921F9211242F923F9298
S11307204F925F926F927F928F929F92AF92BF92FD
S1130730CF92DF92EF92FF920F931F932F933F93E9
S11307404F935F936F937F938F939F93AF93BF93D5
S1130750CF93DF93EF93FF93A0911F1AB091201AC8
S11307600DB60D920EB60D924CD28111C7D3A09145
S11307701F1AB091201ACD91CDBFDD91DEBFFF913C
S1130780EF91DF91CF91BF91AF919F918F917F9125
S11307906F915F914F913F912F911F910F91FF9016
S11307A0EF90DF90CF90BF90AF909F908F907F900D
S11307B06F905F904F903F902F901F900F900CBEC2
S11307C00F900BBE0F900FBE0F9008959DDF1895EC
S11307D0E091D019F091D119808181110CC08FEF73
S11307E09FEFDC0180939D1990939E19A0939F190C
S11307F0B093A0190895E091D019F091D119078010
S1130800F085E02D0084F185E02D82819381A4811F
S1130810B58180939D1990939E19A0939F19B093CD
S1130820A0190895CF93DF93EC018B8D9C8D26DE68
S1130830CE0124DEDF91CF9108956F927F928F9243
S11308409F92AF92BF92CF92DF92EF920F931F933A
S1130850CF93DF93CDB7DEB74C01F501838D948D33
S1130860215031093C01620E731E20E00FC0822F1B
S113087090E0FB01E80FF91F3081D501A80FB91FE3
S11308805D963C938081882319F02F5F243178F39F
S1130890F50110AAF4E0FE1518F46894EE24E2F8C9
S11308A0F501E28EE1AA12AAC50102964CDCC5014B
S11308B00E9649DCF501B386A28685E090E0A0E0BF
S11308C0B0E08E199109A109B10986879787A08B99
S11308D0B18BB78AA68A13AA14AA15AA16AA17AAAC
S11308E0A801B401C3010CDEF50191838083C11416
S11308F0D10419F0F601B182A082DF91CF911F914A
S11309000F91EF90DF90CF90BF90AF909F908F901A
S11309107F906F900895CF93C0E008C02BE0C29FF2
S1130920C00111248851964EFDDBCF5FC530B0F372
S11309308DED99E1F7DB82ED99E1F4DB83EC99E14C
S1130940F1DB88EB99E1EEDB8CEA99E1EBDB8DEDF1
S113095099E19093D1198093D01982ED99E1909304
S1130960CF198093CE19CF910895CF93DF93EC01E3
S11309700FB6F8940F928091AB198F5F8093AB19E7
S113098080911F1A9091201A892B51F4D093201A28
S1130990C0931F1A8091AB19813091F4BCDF10C051
S11309A08091A51981110CC0E0911F1AF091201AB1
S11309B0928D8A8D891720F0D093201AC0931F1A24
S11309C08091A1198F5F8093A1198A8D9091A619A6
S11309D0981710F48093A6192BE0829FC00111246C
S11309E0BE016E5F7F4F8851964EB1DB0F900FBEF4
S11309F08091A519882349F0E0911F1AF091201ADB
S1130A00928D8A8D981708F41FDEDF91CF91089597
S1130A108F929F92AF92BF92CF92DF92EF92FF920A
S1130A20CF936B017C01C42F8090A7199090A819D3
S1130A30A090A919B090AA1980911F1A9091201A18
S1130A400296E3DB8FEFC816D806E806F80661F4D1
S1130A50CC2351F060911F1A7091201A6E5F7F4F62
S1130A608CEA99E174DB3DC0C80CD91CEA1CFB1C60
S1130A70E0911F1AF091201AC282D382E482F58297
S1130A80C814D904EA04FB0460F460911F1A70913D
S1130A90201A8091CE199091CF196E5F7F4F78DB29
S1130AA020C060911F1A7091201A8091D0199091E2
S1130AB0D1196E5F7F4F6CDB80919D1990919E19C7
S1130AC0A0919F19B091A019C816D906EA06FB0691
S1130AD040F4C0929D19D0929E19E0929F19F09211
S1130AE0A019CF91FF90EF90DF90CF90BF90AF907F
S1130AF09F908F9008952F923F924F925F926F92A2
S1130B007F928F929F92AF92BF92CF92DF92EF9299
S1130B10FF920F931F93CF93DF933C011B015A0164
S1130B202901CA0119DC6C01892B61F088E390E08A
S1130B3013DCEC01892B19F0DC8ECB8E05C0C601C9
S1130B409DDC02C0C0E0D0E0209781F0950140E038
S1130B5050E0812C912C5E016701E02E8201B101ED
S1130B60C3016BDECE0101DF81E001C08FEFDF91B5
S1130B70CF911F910F91FF90EF90DF90CF90BF9096
S1130B80AF909F908F907F906F905F904F903F9029
S1130B902F900895EF92FF920F930F2EFBE9EF2E03
S1130BA0F9E1FF2EF02D00E020E030E040E054E0D9
S1130BB060E072E087E797E09EDF8130C1F4F8944B
S1130BC08FEF9FEFDC0180939D1990939E19A09362
S1130BD09F19B093A01981E08093A5191092A719C9
S1130BE01092A8191092A9191092AA19FBDC0F915E
S1130BF0FF90EF90089580919A198F5F80939A19CE
S1130C000895BF92CF92DF92EF92FF920F931F93BA
S1130C10CF93DF9380919A198111A5C0C090A71931
S1130C20D090A819E090A919F090AA192FEFC21A30
S1130C30D20AE20AF20AC092A719D092A819E09245
S1130C40A919F092AA19C114D104E104F104B1F470
S1130C508091D0199091D1192091CE193091CF194A
S1130C603093D1192093D0199093CF198093CE1932
S1130C708091A2198F5F8093A219AADD80919D199A
S1130C8090919E19A0919F19B091A019C816D906E8
S1130C90EA06FB0628F4B12C57C0BB24B39401C068
S1130CA0B12CE091D019F091D119808181110CC03F
S1130CB08FEF9FEFDC0180939D1990939E19A09371
S1130CC09F19B093A01940C0E091D019F091D119A7
S1130CD00780F085E02DC085D1858A819B81AC8118
S1130CE0BD81C816D906EA06FB0648F480939D190F
S1130CF090939E19A0939F19B093A01925C08E01BB
S1130D000E5F1F4FC80181DA888D998D892B19F0E8
S1130D10CE010E967ADA8A8D9091A619981710F45E
S1130D208093A6192BE0829FC0011124B801885139
S1130D30964E0DDA9A8DE0911F1AF091201A828D49
S1130D40981708F0AACFADCFE0911F1AF091201A9E
S1130D50E28D8BE0E89FF0011124E851F64E80818A
S1130D60823040F409C08091A4198F5F8093A41944
S1130D70B12C02C0BB24B3948091A319882311F031
S1130D80BB24B3948B2DDF91CF911F910F91FF90D2
S1130D90EF90DF90CF90BF9008950F931F93CF9360
S1130DA0DF930FB6F8940F9280919A198150809333
S1130DB09A1980919A1981114CC08091AB198111B3
S1130DC02AC04AC0E091CA19F091CB19C085D185D7
S1130DD0CE010E961ADA8E010E5F1F4FC80115DA86
S1130DE08A8D9091A619981710F48093A6192BE078
S1130DF0829FC0011124B8018851964EA8D99A8DBA
S1130E00E0911F1AF091201A828D981730F081E03A
S1130E108093A31902C0C0E0D0E08091C31981116E
S1130E20D1CFCD2B09F0D4DCC091A419CC2351F03F
S1130E30E8DE882319F081E08093A319C150C1F73B
S1130E401092A4198091A319882329F0FDDB81E075
S1130E5003C080E001C080E00F900FBEDF91CF910E
S1130E601F910F910895CF92DF92EF92FF926B0141
S1130E707C01672B682B692B39F0BDDE40E0C7018C
S1130E80B601C6DD8ADF01C080E0811101C0DCDB70
S1130E90FF90EF90DF90CF900895CF93DF9320C021
S1130EA0AADEC091B81979DFCC23D1F00FB6F8943B
S1130EB00F92E091BF19F091C019C085D185CE0180
S1130EC00296A3D98091AB1981508093AB1980917C
S1130ED0B71981508093B7190F900FBECE01A2DCD1
S1130EE08091B7198111DCCFDF91CF910895D5DFBF
S1130EF08091E8198230D8F3A7DBF9CF80919A1951
S1130F00882321F081E08093A31908951092A319F6
S1130F108091A61901C08150282F30E09BE0929F58
S1130F20F001939FF00D1124E851F64E908199231E
S1130F3091F39BE0929FA001939F500D1124DF0138
S1130F400180F281E02D0480F581E02D1296FC935E
S1130F50EE9311974551564EE417F50729F4448151
S1130F605581FD01528341839BE0929FF001939F41
S1130F70F00D1124E851F64E0180F281E02D208518
S1130F8031853093201A20931F1A8093A61908954F
S1130F90E12CF12C02E020E030E044E650E065E092
S1130FA072E086ED97E0A7DDF5DDFFCF84B18068C0
S1130FB084B985B1806885B985B1805885B960EDFB
S1110FC077E080E090E04FDFF7CFF894FFCFAA
S1130FCE49444C45005461736B20746F20626C6904
S1110FDE6E6B206C65642070696E2037000015
S9030000FC
