:1000000071C0000090C000008EC000008CC00000D5
:100010008AC0000088C0000086C0000084C00000C4
:1000200082C0000080C000007EC000007CC00000D4
:100030007AC0000078C0000076C0000074C00000E4
:1000400072C00000C5C300006EC000006CC000009C
:100050006AC0000068C0000066C0000064C0000004
:1000600062C0000060C000005EC000005CC0000014
:100070005AC0000058C0000056C0000054C0000024
:1000800052C0000050C000004EC000004CC0000034
:100090000C94120E48C0000046C0000044C000008E
:1000A00042C0000040C000003EC000003CC0000054
:1000B0003AC0000038C0000036C0000034C0000064
:1000C00032C0000030C000002EC000002CC0000074
:1000D0002AC0000028C0000026C0000024C0000084
:1000E00022C0000011241FBECFEFD1E2DEBFCDBF82
:1000F00000E00CBF12E0A0E0B2E0E4ECFCE100E0C4
:100100000BBF02C007900D92A03DB107D9F72AE1BD
:10011000A0EDB2E001C01D92A63EB207E1F70E9439
:100120002D0C0C94600E6CCFFC010396928381839E
:100130004FEF5FEFBA0143835483658376839087E3
:1001400087839287818710820895FC011386128627
:100150000895CF93DF939C01FB01DC011196CD91B3
:10016000DC911297D583C4838E819F819783868388
:100170008E819F81DC0115967C936E9314977F830B
:100180006E8333872287F90180818F5F8083DF91BF
:10019000CF9108950F931F93CF93DF93EB010881C5
:1001A00019812A813B810F3F4FEF14072407340741
:1001B00021F4FC01A185B28511C0DC01139601C0B8
:1001C000DF011496ED91FC91159740815181628178
:1001D0007381041715072607370790F71496ED91DA
:1001E000FC911597FD83EC83D783C683BF83AE83D1
:1001F0001596DC93CE9314979B878A87FC01208108
:100200002F5F2083DF91CF911F910F910895CF939E
:10021000DF93FC01A285B385C481D5818681978156
:100220009F838E83C681D781848195819D838C83B2
:1002300011968D919C911297E817F90731F48681F8
:10024000978112969C938E931197138612868C91A8
:1002500081508C93DF91CF910895CF93DF93ECED94
:10026000F2E0A8EDB2E01196FC93EE9313961C9287
:100270001E921297CF010F2E000CAA0BBB0B8459B4
:10028000984EAF4FBF4FEC019093D7028093D602A8
:100290001B821A82198218829C012C5D32403383A2
:1002A0002283918380833093D3022093D2023093B0
:1002B000D5022093D40280E090E89093D1028093FD
:1002C000D002DF91CF910895CF93DF93EC01A8ED99
:1002D000B2E001C0DF01ED91FC911197EC17FD0731
:1002E000C8F312968D919C9113979D01280F391F89
:1002F000C217D30749F42A813B81820F931F1396BB
:100300009C938E931297ED018A819B819E01280F09
:10031000391FE217F307C1F42091D6023091D702BA
:10032000E217F30771F022813381820F931F9B83C1
:100330008A83ED91FC9111978081918199838883C3
:1003400005C03983288302C0F983E883CA17DB0715
:1003500011F0CD93DC93DF91CF910895EF92FF924E
:100360000F931F93CF93DF938C011FD78091D602F9
:100370009091D702892B09F470DF8091D00290917F
:10038000D10280239123892B09F066C00115110544
:1003900011F00C5F1F4F0115110509F460C0809129
:1003A000D4029091D5028017910708F45BC0C091E8
:1003B000D802D091D902E8EDF2E002C0FE01EC01D2
:1003C0008A819B818017910720F488819981009709
:1003D000A9F78091D6029091D702C817D90709F4DE
:1003E00044C0E080F18084E0E80EF11C88819981AE
:1003F000918380832A813B81201B310B2930310579
:1004000048F0CE01800F911FFC01338322831B83B0
:100410000A835ADF2A813B818091D4029091D502D0
:10042000821B930B9093D5028093D4024091D20209
:100430005091D3028417950720F49093D3028093B0
:10044000D2028091D0029091D102282B392B3B838C
:100450002A83198218820BC0E12CF12C08C0E12CF0
:10046000F12C05C0E12CF12C02C0E12CF12C72D74B
:10047000C701DF91CF911F910F91FF90EF900895E9
:100480000F931F93CF93DF93009739F1EC012497DB
:100490004A815B812091D0023091D102BA0162235E
:1004A0007323672BD1F068817981672BB1F4209594
:1004B0003095242335233B832A8377D68A819B81F9
:1004C0002091D4023091D502820F931F9093D502D0
:1004D0008093D402CE01F8DE3DD7DF91CF911F91FA
:1004E0000F9108951092890089EF809388001092EF
:1004F00080008BE080938100EFE6F0E080818260F5
:100500008083089531E1FC013083319722E220831A
:100510003197A3E3A083319760833197708331973C
:10052000108231971082319760E860833197108292
:100530003197108231971082319762E06083319752
:1005400063E06083319764E06083319765E06083A6
:10055000319766E06083319767E06083319768E0A8
:100560006083319769E06083319760E16083319700
:100570003083319732E13083319733E130833197E3
:1005800034E13083319735E13083319736E1308380
:10059000319737E13083319738E13083319739E152
:1005A0003083319730E23083319731E230833197B5
:1005B0002083319723E22083319740833197508302
:1005C000319726E22083319727E22083319728E272
:1005D0002083319729E22083319720E320833197CC
:1005E00021E32083899708957DDFA091D11AB091EE
:1005F000D21ACD91CDBFDD91DEBFFF91EF91DF919A
:10060000CF91BF91AF919F918F917F916F915F91AA
:100610004F913F912F911F910F91FF90EF90DF909D
:10062000CF90BF90AF909F908F907F906F905F9092
:100630004F903F902F901F900F900CBE0F900BBECD
:100640000F900FBE0F90089581E008950F920FB69E
:10065000F8940F920BB60F920CB60F921F921124C2
:100660002F923F924F925F926F927F928F929F92C2
:10067000AF92BF92CF92DF92EF92FF920F931F93B0
:100680002F933F934F935F936F937F938F939F939A
:10069000AF93BF93CF93DF93EF93FF93A091D11AC2
:1006A000B091D21A0DB60D920EB60D9208D7A09148
:1006B000D11AB091D21ACD91CDBFDD91DEBFFF919D
:1006C000EF91DF91CF91BF91AF919F918F917F91EA
:1006D0006F915F914F913F912F911F910F91FF90DB
:1006E000EF90DF90CF90BF90AF909F908F907F90D2
:1006F0006F905F904F903F902F901F900F900CBE87
:100700000F900BBE0F900FBE0F9008950F920FB673
:10071000F8940F920BB60F920CB60F921F92112401
:100720002F923F924F925F926F927F928F929F9201
:10073000AF92BF92CF92DF92EF92FF920F931F93EF
:100740002F933F934F935F936F937F938F939F93D9
:10075000AF93BF93CF93DF93EF93FF93A091D11A01
:10076000B091D21A0DB60D920EB60D9224D581110C
:10077000A6D6A091D11AB091D21ACD91CDBFDD915C
:10078000DEBFFF91EF91DF91CF91BF91AF919F912C
:100790008F917F916F915F914F913F912F911F9119
:1007A0000F91FF90EF90DF90CF90BF90AF909F9010
:1007B0008F907F906F905F904F903F902F901F9001
:1007C0000F900CBE0F900BBE0F900FBE0F900895B0
:1007D0009DDF18950FB6F8940F92FC01868D81115C
:1007E00002C081E001C080E00F900FBE08950FB6F7
:1007F000F8940F92FC01268D878D281302C081E0AA
:1008000001C080E00F900FBE08950F931F93CF9308
:10081000DF93EC01042F1E8D48A141110BC088818C
:100820009981892B09F041C08A819B81C4D71B82A1
:100830001A8242C0011117C050E08C819D810E9434
:10084000570E28A18C819D81820F911D9D838C83E1
:100850002A813B818217930750F1888199819D837A
:100860008C8380E029C050E08E819F810E94570ECA
:1008700088A190E09195819591092E813F81280F63
:10088000391F3F832E83488159812417350730F45F
:100890002A813B81820F931F9F838E83023049F40C
:1008A000112349F0115080E007C080E005C080E0CE
:1008B00003C080E001C080E01F5F1E8FDF91CF91F9
:1008C0001F910F910895FC0140A14423A9F050E02D
:1008D00026813781240F351F3783268382819381B8
:1008E0002817390720F08081918197838683CB0177
:1008F000668177810C94570E08951F93CF93DF93F1
:10090000EC010FB6F8940F921AA109C08B898823C5
:1009100041F0CE01439634D68111EBD61150111619
:10092000ACF38FEF8AA30F900FBE0FB6F8940F921F
:1009300019A109C08885882341F0CE01089620D6E8
:100940008111D7D611501116ACF38FEF89A30F90F8
:100950000FBEDF91CF911F910895CF93DF93EC01EC
:100960000FB6F8940F92E881F9818F8D90E028A15D
:1009700030E0829FA001839F500D929F500D112463
:100980004E0F5F1F5B834A831E8EFD83EC830197AE
:10099000289FA001299F500D389F500D1124CF0191
:1009A000840F951F9F838E838FEF89A38AA3611184
:1009B0000AC08885882369F0CE010896E1D588238E
:1009C00041F044DE06C0CE010896AEDBCE01439670
:1009D000ABDB0F900FBE81E0DF91CF9108950F93B5
:1009E0001F93F801611103C01183008302C051837A
:1009F0004083878F60A361E0CF01AFDF1F910F912C
:100A00000895DF92EF92FF920F931F93CF93DF939E
:100A1000E82EF62ED42E662321F0869FC0011124E5
:100A200002C080E090E0839699DCEC01009741F0F1
:100A30008C012D2DAC014D5D5F4F6F2D8E2DCFDFC5
:100A4000CE01DF91CF911F910F91FF90EF90DF903A
:100A50000895CF92DF92EF92FF920F931F93CF935F
:100A6000DF93CDB7DEB729970FB6F894DEBF0FBE80
:100A7000CDBF7C016B012E833F834887598710E0EF
:100A80000FB6F8940F92F701968D878D981710F096
:100A90000230A9F4402FB601C701B7DEF7019389F0
:100AA000992339F0C70143966BD5882321F0CEDD19
:100AB00002C08111CBDD0F900FBE81E046C08E8158
:100AC0009F81A885B985892B8A2B8B2B21F40F90C8
:100AD0000FBE80E03AC0111104C0CE01019692D53C
:100AE00011E00F900FBE61D30FB6F8940F92F7018B
:100AF00081A18F3F09F411A2F70182A18F3F09F470
:100B000012A20F900FBEBE016A5F7F4FCE01019609
:100B10008AD5811116C0C7016ADE882371F04E8123
:100B20005F8168857985C701089613D5C701E5DE21
:100B300011D48111A5CF8ADDA3CFC701DEDE0AD48F
:100B40009FCFC701DADE06D480E029960FB6F8946D
:100B5000DEBF0FBECDBFDF91CF911F910F91FF90F0
:100B6000EF90DF90CF9008950F93009769F0FC010C
:100B70001382128211821082168200E020E030E09F
:100B8000A90160E070E065DF0F910895CF93DF93D6
:100B9000482F60E081E035DFEC01E6DFCE01DF9138
:100BA000CF910895EF92FF920F931F93CF93DF930E
:100BB0008A01FC01568D378D531710F02230E1F475
:100BC000422F7801EC011AA120DE1F3F79F48B89B6
:100BD0008823A1F0CE014396D3D4882389F0E11471
:100BE000F10481F081E0F70180830DC0FF24F394CC
:100BF000F10EFAA281E007C080E005C081E003C0E9
:100C000081E001C081E0DF91CF911F910F91FF90B2
:100C1000EF9008958F929F92BF92CF92DF92EF92C2
:100C2000FF920F931F93CF93DF93CDB7DEB7299732
:100C30000FB6F894DEBF0FBECDBF7C016B012E83D3
:100C40003F8348875987B02E00E00FB6F8940F9283
:100C5000F701168D112361F186809780B601C701D7
:100C600032DEB11016C01150F701168F80819181CC
:100C7000892B21F4E0D5F70193838283F7018085E6
:100C8000882391F0C70108967BD4882369F0DEDCC5
:100C90000BC0F701978286828389882329F0C701D8
:100CA00043966ED48111D2DC0F900FBE81E058C004
:100CB0008E819F81A885B985892B8A2B8B2B21F466
:100CC0000F900FBE80E04CC0011104C0CE01019610
:100CD00099D401E00F900FBE68D20FB6F8940F922E
:100CE000F70181A18F3F09F411A2F70182A18F3F83
:100CF00009F412A20F900FBEBE016A5F7F4FCE01B2
:100D0000019691D4811123C0C70164DD8823D9F0F5
:100D1000F70180819181892B41F40FB6F8940F92ED
:100D200082819381EAD40F900FBE4E815F816885E6
:100D30007985C70143960DD4C701DFDD0BD381113F
:100D400084CF84DC82CFC701D8DD04D37ECFC70136
:100D5000D4DD00D3C7013EDD882309F476CF80E0DF
:100D600029960FB6F894DEBF0FBECDBFDF91CF91AD
:100D70001F910F91FF90EF90DF90CF90BF909F90C9
:100D80008F900895E091821AF091831A80818111E9
:100D90000CC08FEF9FEFDC0180934F1A9093501A95
:100DA000A093511AB093521A0895E091821AF091CB
:100DB000831A0780F085E02D0084F185E02D828183
:100DC0009381A481B58180934F1A9093501AA09378
:100DD000511AB093521A0895CF93DF93EC018B8D83
:100DE0009C8D4EDBCE014CDBDF91CF9108956F924D
:100DF0007F928F929F92AF92BF92CF92DF92EF92AB
:100E00000F931F93CF93DF93CDB7DEB74C01F5015E
:100E1000838D948D215031093C01620E731E20E0B8
:100E20000FC0822F90E0FB01E80FF91F3081D50140
:100E3000A80FB91F5D963C938081882319F02F5F1E
:100E4000243178F3F50110AAF4E0FE1518F4689443
:100E5000EE24E2F8F501E28EE1AA12AAC50102969B
:100E600074D9C5010E9671D9F501B386A28685E0C5
:100E700090E0A0E0B0E08E199109A109B109868740
:100E80009787A08BB18BB78AA68A13AA14AA15AA32
:100E900016AA17AAA801B401C30134DBF501918396
:100EA0008083C114D10419F0F601B182A082DF91D0
:100EB000CF911F910F91EF90DF90CF90BF90AF90A7
:100EC0009F908F907F906F900895CF93C0E008C05F
:100ED0002BE0C29FC00111248656954E25D9CF5FC5
:100EE000C530B0F38FE89AE11FD984E89AE11CD9A4
:100EF00085E79AE119D98AE69AE116D98EE59AE151
:100F000013D98FE89AE19093831A8093821A84E828
:100F10009AE19093811A8093801ACF910895CF938C
:100F2000DF93EC010FB6F8940F9280915D1A8F5FFA
:100F300080935D1A8091D11A9091D21A892B51F425
:100F4000D093D21AC093D11A80915D1A813091F456
:100F5000BCDF10C08091571A81110CC0E091D11AEA
:100F6000F091D21A928D8A8D891720F0D093D21ADF
:100F7000C093D11A8091531A8F5F8093531A8A8D30
:100F80009091581A981710F48093581A2BE0829F6A
:100F9000C0011124BE016E5F7F4F8656954ED9D891
:100FA0000F900FBE8091571A882349F0E091D11A13
:100FB000F091D21A928D8A8D981708F447DBDF9151
:100FC000CF9108958F929F92AF92BF92CF92DF926E
:100FD000EF92FF92CF936B017C01C42F8090591A3E
:100FE00090905A1AA0905B1AB0905C1A8091D11A16
:100FF0009091D21A02960BD98FEFC816D806E80640
:10100000F80661F4CC2351F06091D11A7091D21A94
:101010006E5F7F4F8EE59AE19CD83DC0C80CD91C0D
:10102000EA1CFB1CE091D11AF091D21AC282D38241
:10103000E482F582C814D904EA04FB0460F46091E8
:10104000D11A7091D21A8091801A9091811A6E5F94
:101050007F4FA0D820C06091D11A7091D21A809190
:10106000821A9091831A6E5F7F4F94D880914F1AA5
:101070009091501AA091511AB091521AC816D906DF
:10108000EA06FB0640F4C0924F1AD092501AE09242
:10109000511AF092521ACF91FF90EF90DF90CF90BB
:1010A000BF90AF909F908F9008952F923F924F9254
:1010B0005F926F927F928F929F92AF92BF92CF92E8
:1010C000DF92EF92FF920F931F93CF93DF933C0138
:1010D0001B015A012901CA0141D96C01892B61F018
:1010E00088E390E03BD9EC01892B19F0DC8ECB8EA4
:1010F00005C0C601C5D902C0C0E0D0E0209781F08C
:10110000950140E050E0812C912C5E016701E02EBA
:101110008201B101C3016BDECE0101DF81E001C0BC
:101120008FEFDF91CF911F910F91FF90EF90DF90A4
:10113000CF90BF90AF909F908F907F906F905F9077
:101140004F903F902F900895EF92FF920F930F2EA4
:10115000FDE4EF2EFAE1FF2EF02D00E020E030E07C
:1011600040E054E062E072E088E59AE09EDF813082
:10117000C1F4F8948FEF9FEFDC0180934F1A9093A6
:10118000501AA093511AB093521A81E08093571AC3
:101190001092591A10925A1A10925B1A10925C1AF5
:1011A00023DA0F91FF90EF90089580914C1A8F5F92
:1011B00080934C1A0895BF92CF92DF92EF92FF92E4
:1011C0000F931F93CF93DF9380914C1A8111A8C086
:1011D000C090591AD0905A1AE0905B1AF0905C1A9D
:1011E0002FEFC21AD20AE20AF20AC092591AD0921A
:1011F0005A1AE0925B1AF0925C1AC114D104E1040D
:10120000F104B1F48091821A9091831A2091801A8E
:101210003091811A3093831A2093821A9093811A05
:101220008093801A8091541A8F5F8093541AAADD9C
:1012300080914F1A9091501AA091511AB091521A60
:10124000C816D906EA06FB0628F4B12C5AC0BB24FE
:10125000B39401C0B12CE091821AF091831A80817D
:1012600081110CC08FEF9FEFDC0180934F1A909398
:10127000501AA093511AB093521A43C0E091821AA7
:10128000F091831A0780F085E02DC085D1858A8191
:101290009B81AC81BD81C816D906EA06FB0648F4DD
:1012A00080934F1A9093501AA093511AB093521AE8
:1012B00028C08E010E5F1F4FC8010E940701888D54
:1012C000998D892B21F0CE010E960E9407018A8DFF
:1012D0009091581A981710F48093581A2BE0829F17
:1012E000C0011124B8018656954E0E94A9009A8D1E
:1012F000E091D11AF091D21A828D981708F0A7CFF9
:10130000AACFE091D11AF091D21AE28D8BE0E89F3A
:10131000F0011124E656F54E8081823040F409C078
:101320008091561A8F5F8093561AB12C02C0BB244D
:10133000B3948091551A882311F0BB24B3948B2D5C
:10134000DF91CF911F910F91FF90EF90DF90CF90A1
:10135000BF9008950F931F93CF93DF930FB6F89428
:101360000F9280914C1A815080934C1A80914C1AA4
:1013700081114FC080915D1A81112DC04DC0E09147
:101380007C1AF0917D1AC085D185CE010E960E94FF
:1013900007018E010E5F1F4FC8010E9407018A8D51
:1013A0009091581A981710F48093581A2BE0829F46
:1013B000C0011124B8018656954E0E94A9009A8D4D
:1013C000E091D11AF091D21A828D981730F081E015
:1013D0008093551A02C0C0E0D0E08091751A811147
:1013E000CECFCD2B09F0CEDCC091561ACC2351F0D4
:1013F000E2DE882319F081E08093551AC150C1F7CD
:101400001092561A8091551A882329F01FD981E02D
:1014100003C080E001C080E00F900FBEDF91CF914C
:101420001F910F910895CF92DF92EF92FF926B017F
:101430007C01672B682B692B39F0B7DE40E0C701D0
:10144000B601C0DD87DF01C080E0811101C0FED898
:10145000FF90EF90DF90CF900895CF93DF9321C05E
:10146000A4DEC0916A1A76DFCC23D9F00FB6F894C7
:101470000F92E091711AF091721AC085D185CE0158
:1014800002960E94070180915D1A815080935D1A37
:101490008091691A81508093691A0F900FBECE0116
:1014A0009BDC8091691A8111DBCFDF91CF91089588
:1014B000D4DF80919A1A8230D8F3C8D8F9CF8091BE
:1014C0004C1A882321F081E08093551A08951092D8
:1014D000551A8091581A01C08150282F30E09BE0A6
:1014E000929FF001939FF00D1124E656F54E9081E6
:1014F000992391F39BE0929FA001939F500D11249B
:10150000DF010180F281E02D0480F581E02D12964B
:10151000FC93EE9311974356554EE417F50729F4C3
:1015200044815581FD01528341839BE0929FF001EC
:10153000939FF00D1124E656F54E0180F281E02DC7
:10154000208531853093D21A2093D11A8093581A6E
:101550000895CF92DF92EF92FF926A017B01609132
:10156000D11A7091D21A625F7F4F0E94CA0041E087
:10157000C701B60127DDFF90EF90DF90CF9008956F
:101580000F931F93CF93DF93DC011796ED91FC919E
:101590001897C085D1858E01025F1F4FC8010E9438
:1015A000070180914C1A811116C00C501109C80115
:1015B0000E9407018A8D9091581A981710F4809311
:1015C000581ABBE08B9FC0011124B8018656954E76
:1015D0000E94A90005C0B80185E79AE10E94A90010
:1015E0009A8DE091D11AF091D21A828D891720F448
:1015F00081E08093551A01C080E0DF91CF911F9167
:101600000F9108952091541AFC0120834091591A9A
:1016100050915A1A60915B1A70915C1A41835283FF
:101620006383748308958F929F92AF92BF92CF92FB
:10163000DF92EF92FF920F931F93CF93DF93FB0103
:101640000FB6F8940F920091591A10915A1A2091DE
:101650005B1A30915C1A40815181628173814F3FE6
:10166000AFEF5A076A077A0781F1EC01B881A091C0
:10167000541ABA1749F0C980DA80EB80FC800C1547
:101680001D052E053F0518F5DC011196CD90DD9066
:10169000ED90FC901497480159018C189D08AE08F4
:1016A000BF0884169506A606B70698F4C01AD10A94
:1016B000E20AF30A4C0D5D1D6E1D7F1D40835183B0
:1016C000628373839FDF80E005C080E003C081E018
:1016D00001C081E00F900FBEDF91CF911F910F915C
:1016E000FF90EF90DF90CF90BF90AF909F908F9042
:1016F000089581E08093551A08950F931F93CF9317
:10170000DF93FC01892B09F451C0828DA091D11A7D
:10171000B091D21A5A969C91891708F047C0468515
:10172000578560897189772394F0A091D11AB0917F
:10173000D21A5A969C9145E050E060E070E0491B57
:1017400051096109710946875787608B718B248520
:1017500035854BE0849FC00111248656954E28178D
:101760003907E9F48F01EF012296CE010E940701AB
:10177000E091D11AF091D21A828DF801828F909166
:10178000581A981710F48093581AFBE08F9FC001E5
:101790001124BE018656954E0E94A90007C0A09153
:1017A000D11AB091D21A5A968C91828FDF91CF9133
:1017B0001F910F9108950F931F93CF93DF93FC0117
:1017C000892B79F182A9815082AB228D91A92917A9
:1017D00051F181112AC0EF018F010E5F1F4FC80127
:1017E0000E94070189A98A8F45E050E060E070E01F
:1017F000481B5109610971094E875F87688B798B96
:101800009091581A981710F48093581A2BE0829FE1
:10181000C0011124B8018656954E0E94A90081E0AE
:1018200005C080E003C080E001C080E0DF91CF917F
:101830001F910F9108958091D11A9091D21A892BFE
:1018400039F0E091D11AF091D21A82A98F5F82AB60
:101850008091D11A9091D21A0895789487E690E0F9
:101860005CD147D081E092D99093D41A8093D31A57
:1018700040E061E08EE1C5D89093E51A8093E41AC8
:1018800040E061E08AE0BDD89093E11A8093E01ACD
:1018900040E064E08AE0B5D89093E31A8093E21ABE
:1018A000E12CF12C02E020E030E044E650E067E07B
:1018B00072E08AEA9CE0F9DB20E030E048EC50E09E
:1018C0006DE472E088E09DE0F0DB20E030E048EC81
:1018D00050E06EE672E08CE49DE0E7DB20E030E073
:1018E00044E650E063E972E088E89CE0DEDB2CDC53
:1018F000FFCF87E084B981E58CBD85B1816085B972
:10190000089581E08093DE1A8DEA92E028C108955F
:10191000CF93DF931F92CDB7DEB7E5EDFAE11086E6
:10192000118600E02FEF3FEFA901BE016F5F7F4FEF
:101930008091E01A9091E11A6DD9813091F7E98197
:10194000F0E0EE0FFF1FE050FE4F0190F081E02D20
:101950001995E7CFCF93DF9300D01F92CDB7DEB7B5
:1019600000E02FEF3FEFA901BE016F5F7F4F809135
:10197000E21A9091E31A4ED9813031F52FEF3FEF03
:10198000A90160E070E08091D31A9091D41A42D9F5
:10199000E5EDFAE189819A81AB81BC8180839183F5
:1019A000A283B38380E090E0A0E2B1E484839583D6
:1019B000A683B78320E030E0A90160E070E0809169
:1019C000D31A9091D41A45D860ED77E080E090E08A
:1019D0002ADDC6CFAC0120E030E080E007C0FA018C
:1019E000E20FF31F908189272F5F3F4F243031058D
:1019F000B0F320E030E008C0FA013496E20FF31FA4
:101A0000908189272F5F3F4F24303105A8F3089537
:101A1000CF93DF931F921F92CDB7DEB78FEF8983ED
:101A20008AE08A8300E02FEF3FEFA90160E070E0D9
:101A30008091D31A9091D41AEDD885ED9AE1CADF3E
:101A40008093DF1A61E070E0CE01019694D064E0EB
:101A500070E085ED9AE18FD064E070E089ED9AE165
:101A60008AD061E070E08FED9AE185D061E070E0AE
:101A7000CE01029680D020E030E0A90160E070E065
:101A80008091D31A9091D41A0E94290560ED77E0D5
:101A900080E090E0C8DCC6CFCF93DF93CDB7DEB750
:101AA00068970FB6F894DEBF0FBECDBFCE0101968A
:101AB00075D08981813019F0823081F025C01D8A6E
:101AC00000E02FEF3FEFA901BE016B5E7F4F8091D9
:101AD000E01A9091E11A0E94290519C08A819B8120
:101AE000AC81BD818D8B9E8BAF8BB88F00E02FEFCB
:101AF0003FEFA901BE016B5E7F4F8091E21A90918A
:101B0000E31A0E94290503C087EB92E028D060ED1C
:101B100077E080E090E087DCC9CF9093C5008093A8
:101B2000C40028E12093C10026E02093C2009093D6
:101B3000CD008093CC0088E98093C9002093CA002F
:101B400008959091C00095FFFCCF8093C600089542
:101B50009091C80095FFFCCF8093CE000895CF935D
:101B6000DF93EC0102C0EDDF219688818111FBCF6C
:101B7000DF91CF9108950F931F93CF93DF93EC01E3
:101B80008C01060F171F02C08991E2DFC017D10731
:101B9000D8F3DF91CF911F910F910895CF92DF92EB
:101BA000EF92FF920F93CF93DF931F92CDB7DEB7E3
:101BB0006C0100E02FEF3FEFA901BE016F5F7F4F87
:101BC0008091E41A9091E51A25D8813091F78981A6
:101BD0008F3F79F7E12CF12C00E02FEF3FEFA901C7
:101BE000BE016F5F7F4F8091E41A9091E51A12D881
:101BF00089818A3039F0F601EE0DFF1D8083C7011F
:101C000001967C0189818A3039F7F601EE0DFF1DBE
:101C100010820F90DF91CF910F91FF90EF90DF90A6
:101C2000CF9008951F920F920FB60F9211240BB60A
:101C30000F922F933F934F935F936F937F938F9365
:101C40009F93AF93BF93EF93FF93CF93DF931F9235
:101C50001F92CDB7DEB78091CE0089831A8220E033
:101C6000AE014E5F5F4FBE016F5F7F4F8091E41A00
:101C70009091E51A0E94D2058A8181110E94260363
:101C80000F900F90DF91CF91FF91EF91BF91AF91A6
:101C90009F918F917F916F915F914F913F912F9184
:101CA0000F900BBE0F900FBE0F901F901895FB0169
:101CB000DC0102C001900D9241505040D8F70895C8
:041CC000F894FFCFC6
:101CC400810C49444C45005461736B20746F20733C
:101CD400696D756C6174652072656164696E6720F5
:101CE400646174612066726F6D20573235513332EE
:101CF4002C2077696C6C20696E636C756465206F49
:101D0400746865722073656E736F727300546173C7
:101D14006B20746F2073656E642074656C656D65EB
:101D240074727920746F2067726F756E64005461E9
:101D3400736B20746F207265636569766520636FC9
:101D44006D6D616E64732066726F6D2067726F755E
:101D54006E64005461736B20746F2068616E646CF0
:101D64006520616C6C206576656E7473004C6175DA
:101D74006E636865642100536F6D657468696E678E
:101D84002077656E742077726F6E67210D0A0000EC
:00000001FF
