:10000000B2C00000D1C00000CFC00000CDC00000D1
:10001000CBC00000C9C00000C7C00000C5C00000C0
:10002000C3C00000C1C00000BFC00000BDC00000D0
:10003000BBC00000B9C00000B7C00000B5C00000E0
:10004000B3C0000006C40000AFC00000ADC0000097
:10005000ABC00000A9C00000A7C00000A5C0000000
:10006000A3C00000A1C000009FC000009DC0000010
:100070009BC0000099C0000097C0000095C0000020
:1000800093C0000091C000008FC000008DC0000030
:100090000C94F41989C0000087C0000085C00000DE
:1000A00083C0000081C000007FC000007DC0000050
:1000B0007BC0000079C0000077C0000075C0000060
:1000C00073C0000071C000006FC000000C94391AAA
:1000D0006BC0000069C0000067C0000065C0000080
:1000E00063C0000007634236B79BD8A71A39685629
:1000F00018AEBAAB558C1D3CB7CC5763BD6DEDFD4A
:10010000753EF6177231BF000000803F0800000006
:10011000BE922449123EABAAAA2ABECDCCCC4C3EFC
:1001200000000080BEABAAAAAA3E00000000BF00EB
:100130000000803F0000000000084178D3BB4387E7
:10014000D1133D190E3CC3BD4282AD2B3E68EC82FB
:1001500076BED98FE1A93E4C80EFFFBE01C4FF7F80
:100160003F000000000011241FBECFEFD1E2DEBF30
:10017000CDBF00E00CBF13E0A0E0B2E0E4E3F2E4A6
:1001800000E00BBF02C007900D92AC3AB107D9F75F
:100190002CE1ACEAB3E001C01D92A93CB207E1F743
:1001A0000E94EA0C0C9418212BCFFC010396928339
:1001B00081834FEF5FEFBA01438354836583768376
:1001C000908787839287818710820895FC01138628
:1001D00012860895CF93DF939C01FB01DC011196F9
:1001E000CD91DC911297D583C4838E819F819783B3
:1001F00086838E819F81DC0115967C936E93149784
:100200007F836E8333872287F90180818F5F8083AC
:10021000DF91CF9108950F931F93CF93DF93EB015D
:10022000088119812A813B810F3F4FEF1407240772
:10023000340721F4FC01A185B28511C0DC011396BD
:1002400001C0DF011496ED91FC9115974081518119
:1002500062817381041715072607370790F71496F4
:10026000ED91FC911597FD83EC83D783C683BF8303
:10027000AE831596DC93CE9314979B878A87FC01F7
:1002800020812F5F2083DF91CF911F910F910895DF
:10029000CF93DF93FC01A285B385C481D58186818C
:1002A00097819F838E83C681D781848195819D8329
:1002B0008C8311968D919C911297E817F90731F470
:1002C0008681978112969C938E931197138612863E
:1002D0008C9181508C93DF91CF910895CF93DF93D0
:1002E000E8EBF3E0A4EBB3E01196FC93EE931396E6
:1002F0001C921E921297CF010F2E000CAA0BBB0B63
:100300008459984EAF4FBF4FEC019093B303809345
:10031000B2031B821A82198218829C01285B334027
:1003200033832283918380833093AF032093AE0382
:100330003093B1032093B00380E090E89093AD0335
:100340008093AC03DF91CF910895CF93DF93EC01BD
:10035000A4EBB3E001C0DF01ED91FC911197EC1724
:10036000FD07C8F312968D919C9113979D01280F5C
:10037000391FC217D30749F42A813B81820F931F8B
:1003800013969C938E931297ED018A819B819E0117
:10039000280F391FE217F307C1F42091B2033091FF
:1003A000B303E217F30771F022813381820F931FA9
:1003B0009B838A83ED91FC91119780819181998330
:1003C000888305C03983288302C0F983E883CA176C
:1003D000DB0711F0CD93DC93DF91CF910895EF927D
:1003E000FF920F931F93CF93DF938C011FD78091C0
:1003F000B2039091B303892B09F470DF8091AC03B1
:100400009091AD0380239123892B09F066C00115DB
:10041000110511F00C5F1F4F0115110509F460C0A3
:100420008091B0039091B1038017910708F45BC0ED
:10043000C091B403D091B503E4EBF3E002C0FE0138
:10044000EC018A819B818017910720F48881998132
:100450000097A9F78091B2039091B303C817D90709
:1004600009F444C0E080F18084E0E80EF11C88814A
:100470009981918380832A813B81201B310B293014
:10048000310548F0CE01800F911FFC013383228398
:100490001B830A835ADF2A813B818091B0039091AC
:1004A000B103821B930B9093B1038093B0034091EF
:1004B000AE035091AF038417950720F49093AF03D8
:1004C0008093AE038091AC039091AD03282B392B20
:1004D0003B832A83198218820BC0E12CF12C08C0BF
:1004E000E12CF12C05C0E12CF12C02C0E12CF12C07
:1004F00072D7C701DF91CF911F910F91FF90EF90BD
:1005000008950F931F93CF93DF93009739F1EC0178
:1005100024974A815B812091AC033091AD03BA01ED
:1005200062237323672BD1F068817981672BB1F443
:1005300020953095242335233B832A8377D68A81DF
:100540009B812091B0033091B103820F931F909350
:10055000B1038093B003CE01F8DE3DD7DF91CF9198
:100560001F910F9108951092890089EF8093880060
:10057000109280008BE080938100EFE6F0E08081B4
:1005800082608083089531E1FC013083319722E25B
:1005900020833197A3E3A0833197608331977083E1
:1005A0003197108231971082319760E860833197DC
:1005B00010823197108231971082319762E0608308
:1005C000319763E06083319764E06083319765E041
:1005D0006083319766E06083319767E0608331978D
:1005E00068E06083319769E06083319760E1608300
:1005F00031973083319732E13083319733E1308363
:10060000319734E13083319735E13083319736E1EA
:100610003083319737E13083319738E13083319738
:1006200039E13083319730E23083319731E23083E2
:1006300031972083319723E220833197408331978C
:100640005083319726E22083319727E22083319728
:1006500028E22083319729E22083319720E3208309
:10066000319721E32083899708957DDFA091AD1B09
:10067000B091AE1BCD91CDBFDD91DEBFFF91EF916B
:10068000DF91CF91BF91AF919F918F917F916F91AA
:100690005F914F913F912F911F910F91FF90EF909C
:1006A000DF90CF90BF90AF909F908F907F906F9092
:1006B0005F904F903F902F901F900F900CBE0F9027
:1006C0000BBE0F900FBE0F90089581E008950F921A
:1006D0000FB6F8940F920BB60F920CB60F921F92B2
:1006E00011242F923F924F925F926F927F928F923E
:1006F0009F92AF92BF92CF92DF92EF92FF920F93B1
:100700001F932F933F934F935F936F937F938F9399
:100710009F93AF93BF93CF93DF93EF93FF93A091FA
:10072000AD1BB091AE1B0DB60D920EB60D9208D753
:10073000A091AD1BB091AE1BCD91CDBFDD91DEBFC1
:10074000FF91EF91DF91CF91BF91AF919F918F91E9
:100750007F916F915F914F913F912F911F910F91D9
:10076000FF90EF90DF90CF90BF90AF909F908F90D1
:100770007F906F905F904F903F902F901F900F90C1
:100780000CBE0F900BBE0F900FBE0F9008950F92EE
:100790000FB6F8940F920BB60F920CB60F921F92F1
:1007A00011242F923F924F925F926F927F928F927D
:1007B0009F92AF92BF92CF92DF92EF92FF920F93F0
:1007C0001F932F933F934F935F936F937F938F93D9
:1007D0009F93AF93BF93CF93DF93EF93FF93A0913A
:1007E000AD1BB091AE1B0DB60D920EB60D9224D579
:1007F0008111A6D6A091AD1BB091AE1BCD91CDBFFE
:10080000DD91DEBFFF91EF91DF91CF91BF91AF916D
:100810009F918F917F916F915F914F913F912F9118
:100820001F910F91FF90EF90DF90CF90BF90AF900E
:100830009F908F907F906F905F904F903F902F9000
:100840001F900F900CBE0F900BBE0F900FBE0F901D
:1008500008959DDF18950FB6F8940F92FC01868DD0
:10086000811102C081E001C080E00F900FBE0895A9
:100870000FB6F8940F92FC01268D878D281302C0C5
:1008800081E001C080E00F900FBE08950F931F9389
:10089000CF93DF93EC01042F1E8D48A141110BC0B3
:1008A00088819981892B09F041C08A819B81C4D7B5
:1008B0001B821A8242C0011117C050E08C819D81B9
:1008C0000E941F1E28A18C819D81820F911D9D83F6
:1008D0008C832A813B818217930750F1888199810B
:1008E0009D838C8380E029C050E08E819F810E948F
:1008F0001F1E88A190E09195819591092E813F81DD
:10090000280F391F3F832E834881598124173507CB
:1009100030F42A813B81820F931F9F838E830230A4
:1009200049F4112349F0115080E007C080E005C070
:1009300080E003C080E001C080E01F5F1E8FDF9178
:10094000CF911F910F910895FC0140A14423A9F07C
:1009500050E026813781240F351F3783268382811B
:1009600093812817390720F08081918197838683AE
:10097000CB01668177810C941F1E08951F93CF933E
:10098000DF93EC010FB6F8940F921AA109C08B897E
:10099000882341F0CE01439634D68111EBD6115015
:1009A0001116ACF38FEF8AA30F900FBE0FB6F89419
:1009B0000F9219A109C08885882341F0CE010896BD
:1009C00020D68111D7D611501116ACF38FEF89A321
:1009D0000F900FBEDF91CF911F910895CF93DF93BA
:1009E000EC010FB6F8940F92E881F9818F8D90E0B9
:1009F00028A130E0829FA001839F500D929F500D4F
:100A000011244E0F5F1F5B834A831E8EFD83EC8390
:100A10000197289FA001299F500D389F500D112448
:100A2000CF01840F951F9F838E838FEF89A38AA3A5
:100A300061110AC08885882369F0CE010896E1D546
:100A4000882341F044DE06C0CE010896AEDBCE011D
:100A50004396ABDB0F900FBE81E0DF91CF910895FD
:100A60000F931F93F801611103C01183008302C02B
:100A700051834083878F60A361E0CF01AFDF1F9177
:100A80000F910895DF92EF92FF920F931F93CF93F0
:100A9000DF93E82EF62ED42E662321F0869FC00128
:100AA000112402C080E090E0839699DCEC0100976D
:100AB00041F08C012D2DAC014D5D5F4F6F2D8E2DC2
:100AC000CFDFCE01DF91CF911F910F91FF90EF907B
:100AD000DF900895CF92DF92EF92FF920F931F93D2
:100AE000CF93DF93CDB7DEB729970FB6F894DEBF6B
:100AF0000FBECDBF7C016B012E833F834887598792
:100B000010E00FB6F8940F92F701968D878D981725
:100B100010F00230A9F4402FB601C701B7DEF7018B
:100B20009389992339F0C70143966BD5882321F027
:100B3000CEDD02C08111CBDD0F900FBE81E046C03B
:100B40008E819F81A885B985892B8A2B8B2B21F4D7
:100B50000F900FBE80E03AC0111104C0CE01019683
:100B600092D511E00F900FBE61D30FB6F8940F929B
:100B7000F70181A18F3F09F411A2F70182A18F3FF4
:100B800009F412A20F900FBEBE016A5F7F4FCE0123
:100B900001968AD5811116C0C7016ADE882371F0DB
:100BA0004E815F8168857985C701089613D5C70195
:100BB000E5DE11D48111A5CF8ADDA3CFC701DEDE2A
:100BC0000AD49FCFC701DADE06D480E029960FB69B
:100BD000F894DEBF0FBECDBFDF91CF911F910F9173
:100BE000FF90EF90DF90CF9008950F93009769F0FA
:100BF000FC011382128211821082168200E020E032
:100C000030E0A90160E070E065DF0F910895CF93B7
:100C1000DF93482F60E081E035DFEC01E6DFCE01B5
:100C2000DF91CF910895EF92FF920F931F93CF938F
:100C3000DF938A01FC01568D378D531710F0223057
:100C4000E1F4422F7801EC011AA120DE1F3F79F474
:100C50008B898823A1F0CE014396D3D4882389F0D1
:100C6000E114F10481F081E0F70180830DC0FF24DD
:100C7000F394F10EFAA281E007C080E005C081E0A4
:100C800003C081E001C081E0DF91CF911F910F91FE
:100C9000FF90EF9008958F929F92BF92CF92DF9234
:100CA000EF92FF920F931F93CF93DF93CDB7DEB7F1
:100CB00029970FB6F894DEBF0FBECDBF7C016B0144
:100CC0002E833F8348875987B02E00E00FB6F894F3
:100CD0000F92F701168D112361F186809780B6017E
:100CE000C70132DEB11016C01150F701168F808196
:100CF0009181892B21F4E0D5F70193838283F70159
:100D00008085882391F0C70108967BD4882369F0F9
:100D1000DEDC0BC0F701978286828389882329F065
:100D2000C70143966ED48111D2DC0F900FBE81E0D3
:100D300058C08E819F81A885B985892B8A2B8B2BE2
:100D400021F40F900FBE80E04CC0011104C0CE0111
:100D5000019699D401E00F900FBE68D20FB6F894B7
:100D60000F92F70181A18F3F09F411A2F70182A12F
:100D70008F3F09F412A20F900FBEBE016A5F7F4F32
:100D8000CE01019691D4811123C0C70164DD88236F
:100D9000D9F0F70180819181892B41F40FB6F89445
:100DA0000F9282819381EAD40F900FBE4E815F81B2
:100DB00068857985C70143960DD4C701DFDD0BD364
:100DC000811184CF84DC82CFC701D8DD04D37ECFEC
:100DD000C701D4DD00D3C7013EDD882309F476CFF7
:100DE00080E029960FB6F894DEBF0FBECDBFDF912D
:100DF000CF911F910F91FF90EF90DF90CF90BF9018
:100E00009F908F900895E0915E1BF0915F1B808111
:100E100081110CC08FEF9FEFDC0180932B1B90930F
:100E20002C1BA0932D1BB0932E1B0895E0915E1BED
:100E3000F0915F1B0780F085E02D0084F185E02DA7
:100E400082819381A481B58180932B1B90932C1B6D
:100E5000A0932D1BB0932E1B0895CF93DF93EC012D
:100E60008B8D9C8D4EDBCE014CDBDF91CF910895B5
:100E70006F927F928F929F92AF92BF92CF92DF92AA
:100E8000EF920F931F93CF93DF93CDB7DEB74C0153
:100E9000F501838D948D215031093C01620E731E42
:100EA00020E00FC0822F90E0FB01E80FF91F308196
:100EB000D501A80FB91F5D963C938081882319F056
:100EC0002F5F243178F3F50110AAF4E0FE1518F431
:100ED0006894EE24E2F8F501E28EE1AA12AAC501B7
:100EE000029674D9C5010E9671D9F501B386A28612
:100EF00085E090E0A0E0B0E08E199109A109B10968
:100F000086879787A08BB18BB78AA68A13AA14AA63
:100F100015AA16AA17AAA801B401C30134DBF5016A
:100F200091838083C114D10419F0F601B182A082AB
:100F3000DF91CF911F910F91EF90DF90CF90BF90F5
:100F4000AF909F908F907F906F900895CF93C0E067
:100F500008C02BE0C29FC00111248A58944E25D9A5
:100F6000CF5FC530B0F38BE69BE11FD980E69BE1F4
:100F70001CD981E59BE119D986E49BE116D98AE366
:100F80009BE113D98BE69BE190935F1B80935E1BE3
:100F900080E69BE190935D1B80935C1BCF9108954D
:100FA000CF93DF93EC010FB6F8940F928091391B29
:100FB0008F5F8093391B8091AD1B9091AE1B892B65
:100FC00051F4D093AE1BC093AD1B8091391B81307F
:100FD00091F4BCDF10C08091331B81110CC0E091F3
:100FE000AD1BF091AE1B928D8A8D891720F0D093A6
:100FF000AE1BC093AD1B80912F1B8F5F80932F1B67
:101000008A8D9091341B981710F48093341B2BE039
:10101000829FC0011124BE016E5F7F4F8A58944E9B
:10102000D9D80F900FBE8091331B882349F0E091EF
:10103000AD1BF091AE1B928D8A8D981708F447DB9B
:10104000DF91CF9108958F929F92AF92BF92CF92EE
:10105000DF92EF92FF92CF936B017C01C42F8090BF
:10106000351B9090361BA090371BB090381B809199
:10107000AD1B9091AE1B02960BD98FEFC816D80608
:10108000E806F80661F4CC2351F06091AD1B709135
:10109000AE1B6E5F7F4F8AE39BE19CD83DC0C80CBE
:1010A000D91CEA1CFB1CE091AD1BF091AE1BC28267
:1010B000D382E482F582C814D904EA04FB0460F404
:1010C0006091AD1B7091AE1B80915C1B90915D1B7C
:1010D0006E5F7F4FA0D820C06091AD1B7091AE1B9A
:1010E00080915E1B90915F1B6E5F7F4F94D88091C3
:1010F0002B1B90912C1BA0912D1BB0912E1BC81661
:10110000D906EA06FB0640F4C0922B1BD0922C1B9A
:10111000E0922D1BF0922E1BCF91FF90EF90DF906D
:10112000CF90BF90AF909F908F9008952F923F9255
:101130004F925F926F927F928F929F92AF92BF92E7
:10114000CF92DF92EF92FF920F931F93CF93DF9393
:101150003C011B015A012901CA0141D96C01892BAB
:1011600061F088E390E03BD9EC01892B19F0DC8E2B
:10117000CB8E05C0C601C5D902C0C0E0D0E0209723
:1011800081F0950140E050E0812C912C5E016701D7
:10119000E02E8201B101C3016BDECE0101DF81E0EF
:1011A00001C08FEFDF91CF911F910F91FF90EF90D2
:1011B000DF90CF90BF90AF909F908F907F906F9077
:1011C0005F904F903F902F900895EF92FF920F9372
:1011D0000F2EF9E2EF2EFBE1FF2EF02D00E020E0D4
:1011E00030E040E054E06CE072E089E99AE09EDF94
:1011F0008130C1F4F8948FEF9FEFDC0180932B1BBB
:1012000090932C1BA0932D1BB0932E1B81E08093F9
:10121000331B1092351B1092361B1092371B109205
:10122000381B23DA0F91FF90EF9008958091281BCF
:101230008F5F8093281B0895BF92CF92DF92EF9229
:10124000FF920F931F93CF93DF938091281B8111FF
:10125000A8C0C090351BD090361BE090371BF09093
:10126000381B2FEFC21AD20AE20AF20AC092351BCB
:10127000D092361BE092371BF092381BC114D10478
:10128000E104F104B1F480915E1B90915F1B209109
:101290005C1B30915D1B30935F1B20935E1B909312
:1012A0005D1B80935C1B8091301B8F5F8093301B94
:1012B000AADD80912B1B90912C1BA0912D1BB0912E
:1012C0002E1BC816D906EA06FB0628F4B12C5AC014
:1012D000BB24B39401C0B12CE0915E1BF0915F1B65
:1012E000808181110CC08FEF9FEFDC0180932B1B5D
:1012F00090932C1BA0932D1BB0932E1B43C0E09109
:101300005E1BF0915F1B0780F085E02DC085D185C5
:101310008A819B81AC81BD81C816D906EA06FB068D
:1013200048F480932B1B90932C1BA0932D1BB09300
:101330002E1B28C08E010E5F1F4FC8010E9448015E
:10134000888D998D892B21F0CE010E960E9448013F
:101350008A8D9091341B981710F48093341B2BE0E6
:10136000829FC0011124B8018A58944E0E94EA005D
:101370009A8DE091AD1BF091AE1B828D981708F00D
:10138000A7CFAACFE091AD1BF091AE1BE28D8BE011
:10139000E89FF0011124EA58F44E8081823040F435
:1013A00009C08091321B8F5F8093321BB12C02C029
:1013B000BB24B3948091311B882311F0BB24B394D8
:1013C0008B2DDF91CF911F910F91FF90EF90DF90C8
:1013D000CF90BF9008950F931F93CF93DF930FB6D5
:1013E000F8940F928091281B81508093281B809144
:1013F000281B81114FC08091391B81112DC04DC018
:10140000E091581BF091591BC085D185CE010E96F5
:101410000E9448018E010E5F1F4FC8010E944801C3
:101420008A8D9091341B981710F48093341B2BE015
:10143000829FC0011124B8018A58944E0E94EA008C
:101440009A8DE091AD1BF091AE1B828D981730F014
:1014500081E08093311B02C0C0E0D0E08091511B3D
:101460008111CECFCD2B09F0CEDCC091321BCC2325
:1014700051F0E2DE882319F081E08093311BC150E6
:10148000C1F71092321B8091311B882329F01FD99C
:1014900081E003C080E001C080E00F900FBEDF91CB
:1014A000CF911F910F910895CF92DF92EF92FF920B
:1014B0006B017C01672B682B692B39F0B7DE40E0AC
:1014C000C701B601C0DD87DF01C080E0811101C026
:1014D000FED8FF90EF90DF90CF900895CF93DF93E9
:1014E00021C0A4DEC091461B76DFCC23D9F00FB615
:1014F000F8940F92E0914D1BF0914E1BC085D18561
:10150000CE0102960E9448018091391B8150809340
:10151000391B8091451B81508093451B0F900FBE56
:10152000CE019BDC8091451B8111DBCFDF91CF91F8
:101530000895D4DF8091761B8230D8F3C8D8F9CFD4
:101540008091281B882321F081E08093311B08952E
:101550001092311B8091341B01C08150282F30E044
:101560009BE0929FF001939FF00D1124EA58F44EF6
:101570009081992391F39BE0929FA001939F500D3E
:101580001124DF010180F281E02D0480F581E02D3E
:101590001296FC93EE9311974758544EE417F507B3
:1015A00029F444815581FD01528341839BE0929F40
:1015B000F001939FF00D1124EA58F44E0180F2815E
:1015C000E02D208531853093AE1B2093AD1B809399
:1015D000341B0895CF92DF92EF92FF926A017B0154
:1015E0006091AD1B7091AE1B625F7F4F0E940B013B
:1015F00041E0C701B60127DDFF90EF90DF90CF906B
:1016000008950F931F93CF93DF93DC011796ED910D
:10161000FC911897C085D1858E01025F1F4FC801CC
:101620000E9448018091281B811116C00C5011099D
:10163000C8010E9448018A8D9091341B981710F4BC
:101640008093341BBBE08B9FC0011124B8018A58E2
:10165000944E0E94EA0005C0B80181E59BE10E941A
:10166000EA009A8DE091AD1BF091AE1B828D891737
:1016700020F481E08093311B01C080E0DF91CF91A5
:101680001F910F9108952091301BFC012083409100
:10169000351B5091361B6091371B7091381B41836D
:1016A00052836383748308958F929F92AF92BF9207
:1016B000CF92DF92EF92FF920F931F93CF93DF931E
:1016C000FB010FB6F8940F920091351B1091361B59
:1016D0002091371B3091381B408151816281738189
:1016E0004F3FAFEF5A076A077A0781F1EC01B881E3
:1016F000A091301BBA1749F0C980DA80EB80FC80DA
:101700000C151D052E053F0518F5DC011196CD9031
:10171000DD90ED90FC901497480159018C189D08BC
:10172000AE08BF0884169506A606B70698F4C01A38
:10173000D10AE20AF30A4C0D5D1D6E1D7F1D408328
:101740005183628373839FDF80E005C080E003C024
:1017500081E001C081E00F900FBEDF91CF911F911A
:101760000F91FF90EF90DF90CF90BF90AF909F9040
:101770008F90089581E08093311B08950F931F93FC
:10178000CF93DF93FC01892B09F451C0828DA09186
:10179000AD1BB091AE1B5A969C91891708F047C0BB
:1017A0004685578560897189772394F0A091AD1B98
:1017B000B091AE1B5A969C9145E050E060E070E01D
:1017C000491B51096109710946875787608B718BE5
:1017D000248535854BE0849FC00111248A58944E9E
:1017E00028173907E9F48F01EF012296CE010E94F4
:1017F0004801E091AD1BF091AE1B828DF801828F04
:101800009091341B981710F48093341BFBE08F9F4A
:10181000C0011124BE018A58944E0E94EA0007C0FC
:10182000A091AD1BB091AE1B5A968C91828FDF9127
:10183000CF911F910F9108950F931F93CF93DF9333
:10184000FC01892B79F182A9815082AB228D91A96B
:10185000291751F181112AC0EF018F010E5F1F4F2F
:10186000C8010E94480189A98A8F45E050E060E0E4
:1018700070E0481B5109610971094E875F87688BC9
:10188000798B9091341B981710F48093341B2BE0C4
:10189000829FC0011124B8018A58944E0E94EA0028
:1018A00081E005C080E003C080E001C080E0DF91FE
:1018B000CF911F910F9108958091AD1B9091AE1B18
:1018C000892B39F0E091AD1BF091AE1B82A98F5F9F
:1018D00082AB8091AD1B9091AE1B08950F931F9327
:1018E000CF93DF93CDB7DEB76E970FB6F894DEBF18
:1018F0000FBECDBF789434D7AFD6FBD43DD581E1B0
:1019000092E00E948B198AE192E00E948B198DE28D
:1019100092E00E948B190E948F1A1F928F938BE482
:1019200092E09F938F938E010F5F1F4F1F930F9332
:101930000E94281EC8010E948B1923D11F928F93E9
:1019400088E592E09F938F931F930F930E94281E28
:10195000C8010E948B191AD51F928F9385E692E0D9
:101960009F938F931F930F930E94281EC8010E947C
:101970008B19C0D65BD62FEF89E698E121508040C5
:101980009040E1F700C00000E5D65BD6CBD62FEF44
:1019900089E698E1215080409040E1F700C00000C6
:1019A000D9D62FEF83ED90E3215080409040E1F7AE
:1019B00000C000000FB6F894DEBF0FBECDBF6E961C
:1019C0000FB6F894DEBF0FBECDBFDF91CF911F9150
:1019D0000F910895CF93DF93CDB7DEB768970FB619
:1019E000F894DEBF0FBECDBF87E690E00E94691974
:1019F00080E090E00E94032169837A838B839C833B
:101A00009F938F937F936F9382E792E09F938F933F
:101A10008E010B5F1F4F1F930F930E94281EC8015A
:101A20000E948B195BDF81E0F2D89093871C809332
:101A3000861C40E061E08EE125D89093C81C80931D
:101A4000C71C40E061E08AE01DD89093C01C8093E1
:101A5000BF1C40E064E08AE015D89093C61C8093D8
:101A6000C51CE12CF12C02E020E030E048EC50E015
:101A70006EE772E081E198E159DB20E030E044EF6D
:101A800051E06FE972E080EB98E150DB20E030E05C
:101A900044E650E064EC72E08DEF94E147DB20E037
:101AA00030E040E951E06EED72E082E595E13EDB29
:101AB0009E012F5F3F4F44E650E06DEF72E080EBF8
:101AC00096E134DB83E293E00E948B197EDB0FB654
:101AD000F894DEBF0FBECDBFFFCFCF92DF92EF9263
:101AE000FF920F931F93CF93DF93C82F6B017A015F
:101AF00084E040D68C2F806854D680E052D6C0E077
:101B0000D0E008C086010C0F1D1F80E04AD6F80106
:101B100080832196CE15DF05A8F384E037D6DF91C8
:101B2000CF911F910F91FF90EF90DF90CF9008958C
:101B30001F93CF93DF93182FEB0184E01BD6812FE7
:101B400080682FD680E02DD680E02BD6888384E075
:101B50001DD6DF91CF911F910895CF93DF93D82F9A
:101B6000C62F84E007D68D2F8F771BD68C2F19D6E2
:101B700084E00CD6DF91CF910895BC0180E0D8CFEE
:101B80000895CF93DF931F92CDB7DEB7CE010196B4
:101B9000F4DF81E09981903609F080E00F90DF91C9
:101BA000CF910895EF92FF920F931F93CF93DF93FE
:101BB00000D000D0CDB7DEB77C018B01BE016F5FD6
:101BC0007F4F86E0FB0111928A95E9F746E050E0ED
:101BD00084E083DF8B8190E0A0E0B0E0BC0155277A
:101BE00044279A81892F90E0A0E0B0E0BA2FA92F76
:101BF000982F8827842B952BA62BB72B2981822BF6
:101C0000F70180839183A283B3838E8190E0A0E06B
:101C1000B0E0BC01552744279D81892F90E0A0E0CA
:101C2000B0E0BA2FA92F982F8827842B952BA62BAD
:101C3000B72B2C81822BF80180839183A283B383FD
:101C400026960FB6F894DEBF0FBECDBFDF91CF91C1
:101C50001F910F91FF90EF9008958F929F92AF92F6
:101C6000BF92CF92DF92EF92FF920F931F93CF9389
:101C7000DF938C016091351C7091361C8091371C6C
:101C80009091381C0E94791BCEE4DCE128813981D7
:101C90004A815B810E94A81A6B017C012C813D81E5
:101CA0004E815F810E942F1C4B015C01A7019601B0
:101CB000C701B6010E942F1C288539854A855B859E
:101CC0000E942F1C9B01AC01C501B4010E94A91AFE
:101CD000F8016083718382839383DF91CF911F9199
:101CE0000F91FF90EF90DF90CF90BF90AF909F90BB
:101CF0008F9008954F925F926F927F928F929F92F2
:101D0000AF92BF92CF92DF92EF92FF920F931F9309
:101D1000CF93DF93CDB7DEB760970FB6F894DEBFF1
:101D20000FBECDBF8C0149835A836B837C83609146
:101D30006E1C70916F1C8091701C9091711C298198
:101D40003A814B815C810E942F1C6D837E838F833F
:101D50009887C090721CD090731CE090741CF09017
:101D6000751C29813A814B815C81CA01B9010E94AD
:101D70002F1C2B013C019B01AC01C701B6010E9445
:101D80002F1C69877A878B879C878090761C909020
:101D9000771CA090781CB090791CA30192016981F6
:101DA0007A818B819C810E942F1C6B017C019B019D
:101DB000AC01C501B4010E942F1C4B015C012091B4
:101DC0006A1C30916B1C40916C1C50916D1C6D8194
:101DD0007E818F8198850E94A91A9B01AC0169853B
:101DE0007A858B859C850E94A91A9B01AC01C5014F
:101DF000B4010E94A91A69877A878B879C872091F2
:101E00005E1C30915F1C4091601C5091611C698187
:101E10007A818B819C810E942F1C4B015C01209157
:101E2000621C3091631C4091641C5091651CC3017D
:101E3000B2010E942F1C2B013C012091661C3091A5
:101E4000671C4091681C5091691CC701B6010E9433
:101E50002F1C6D877E878F87988BC090311CD09008
:101E6000321CE090331CF090341CC701B6010E9474
:101E7000791B6D837E838F83988720915A1C3091C4
:101E80005B1C40915C1C50915D1CC501B4010E941B
:101E9000A91A9B01AC01C301B2010E94A91A9B01BE
:101EA000AC016D857E858F8598890E94A91A9B015A
:101EB000AC016D817E818F8198850E942F1C6D877A
:101EC0007E878F87988BA7019601C701B6010E9474
:101ED000F71D6D837E838F8398870E94791B4B014A
:101EE0005C0140907A1C50907B1C60907C1C709030
:101EF0007D1C20917E1C30917F1C4091801C509154
:101F0000811C69817A818B819C810E942F1C9B019D
:101F1000AC01C301B2010E94A91A9B01AC01C50129
:101F2000B4010E942F1C4B015C01A70196016D8139
:101F30007E818F8198850E94F71DC090821CD09071
:101F4000831CE090841CF090851C0E94791BA701E3
:101F500096010E942F1C9B01AC01C501B4010E9497
:101F6000A91A6B017C012D853E854F8558896985AD
:101F70007A858B859C850E94A91A9B01AC01C701BB
:101F8000B6010E94A91A20E030E04CED53E40E9413
:101F9000A91AF801608371838283938360960FB6D8
:101FA000F894DEBF0FBECDBFDF91CF911F910F918F
:101FB000FF90EF90DF90CF90BF90AF909F908F9069
:101FC0007F906F905F904F9008950F931F93CF93E2
:101FD000DF93EC018B0165E37CE181E39CE1E2DDD1
:101FE000C8013BDEBC01CE0185DEDF91CF911F91A0
:101FF0000F910895EF92FF920F931F93CF93DF936A
:10200000EC01698170E0762F66278881682B0F2E9E
:10201000F9E3EF2EFCE1FF2EF02DF70171836083D1
:1020200080E090E00E94791B20E030E040E853E43B
:102030000E942F1C0EE41CE1F801608371838283EF
:1020400093836B8170E0762F66278A81682BF70176
:102050007383628380E090E00E94791B20E030E08F
:1020600040E850E30E942F1CF80164837583868347
:1020700097836C81F7016483062E000C770B880B25
:10208000990B0E947B1B20E030E040E857E20E9461
:102090002F1CF80160877187828793876E8170E0BB
:1020A000762F66278D81682BF701768365837054C0
:1020B000072E000C880B990B0E947B1B20E030E060
:1020C00040E855E30E942F1CF801648775878687D6
:1020D0009787688570E0762F66278F81682BF701D8
:1020E000708767837054072E000C880B990B0E9431
:1020F0007B1B20E030E040E051E30E942F1CF80100
:10210000608B718B828B938B6985F7016187062EBB
:10211000000C770B880B990B0E947B1B20E030E0B2
:1021200040E85FE20E942F1CF801648B758B868B60
:10213000978B6A85F7016287062E000C770B880B58
:10214000990B0E947B1B20E030E040E05DE20E94A2
:102150002F1CF801608F718F828F938F6C8570E0D8
:10216000762F66278B85682BF7017487638780E05D
:1021700090E00E94791B20E030E040E051E40E94B2
:102180002F1CF801648F758F868F978F6E8570E096
:10219000762F66278D85682BF7017687658780E027
:1021A00090E00E94791B20E030E040E85CE30E9470
:1021B0002F1CF80160A371A382A393A36F85F7017D
:1021C0006787062E000C770B880B990B0E947B1BF0
:1021D00020E030E040E85BE30E942F1CF80164A39C
:1021E00075A386A397A36889F701608B062E000C60
:1021F000770B880B990B0E947B1B20E030E040E0BE
:1022000058E30E942F1CF80160A771A782A793A72B
:102210006A8970E0762F66278989682BF701728BAF
:10222000618B072E000C880B990B0E947B1B20E012
:1022300030E040E857E20E942F1CF80164A775A720
:1022400086A797A76B89F701638B062E000C770B87
:10225000880B990B0E947B1B20E030E040E857E29E
:102260000E942F1CF80160AB71AB82AB93AB6C8901
:10227000F701648B062E000C770B880B990B0E94DC
:102280007B1B20E030E040E05FE10E942F1CF80162
:1022900064AB75AB86AB97ABDF91CF911F910F917C
:1022A000FF90EF9008950F931F93CF93DF93CDB7D7
:1022B000DEB765970FB6F894DEBF0FBECDBF8E01B7
:1022C0000F5F1F4F85E1F80111928A95E9F745E10B
:1022D00050E0B80181E301DCC8018CDE65960FB6E1
:1022E000F894DEBF0FBECDBFDF91CF911F910F914C
:1022F000089563E08CE131DC62E08DE12EDC63E384
:102300008BE12BDCD0CF0895EF92FF920F931F93B8
:10231000CF93DF93C82F8B017A01A5D189E2AFD18A
:102320008C2FC6D1A0D189E2B5D1C0E0D0E005C0E4
:10233000C8018C0F9D1FD2D12196C7010197C817E4
:10234000D907B0F3800F911FBDD195D1DF91CF9107
:102350001F910F91FF90EF900895CF93DF93D82FA7
:10236000C62F81D189E28BD18D2FA2D18C2FA0D104
:1023700082D1DF91CF9108956CE08DE3EECF089587
:1023800041E050E0BC0186E3BFCF0895CF93DF93D7
:102390001F92CDB7DEB7CE010196F2DF99819F7013
:1023A00081E09F3009F080E00F90DF91CF91089598
:1023B000CF92DF92EF92FF920F931F93CF93DF9311
:1023C00000D000D0CDB7DEB78C0146E050E0BE01B2
:1023D0006F5F7F4F88E098DF6A8170E0762F662715
:1023E0008981682B8C8190E0982F88272B816C0144
:1023F000C22A8E8190E0982F88272D817C01E22AC5
:10240000072E000C880B990B0E947B1B20E030E00C
:1024100048EC52E40E94111BF801608371838283AF
:102420009383B601DD0C880B990B0E947B1B20E087
:1024300030E048EC52E40E94111BF801648375837C
:1024400086839783B701FF0C880B990B0E947B1B37
:1024500020E030E048EC52E40E94111BF801608754
:1024600071878287938726960FB6F894DEBF0FBEDA
:10247000CDBFDF91CF911F910F91FF90EF90DF9033
:10248000CF900895CF92DF92EF92FF920F931F9318
:10249000CF93DF9300D000D0CDB7DEB78C0146E0FC
:1024A00050E0BE016F5F7F4F8EE02EDF6A8170E0EB
:1024B000762F66278981682B8C8190E0982F88275A
:1024C0002B816C01C22A8E8190E0982F88272D8164
:1024D0007C01E22A072E000C880B990B0E947B1BC3
:1024E00020E030E040E85DE30E942F1CF8016083AB
:1024F000718382839383B601DD0C880B990B0E9454
:102500007B1B20E030E040E85DE30E942F1CF801D7
:102510006483758386839783B701FF0C880B990BBF
:102520000E947B1B20E030E040E85DE30E942F1C0E
:10253000F801608771878287938726960FB6F89493
:10254000DEBF0FBECDBFDF91CF911F910F91FF90E6
:10255000EF90DF90CF900895CF92DF92EF92FF92AD
:102560000F931F93CF93DF9300D000D0CDB7DEB78A
:102570008C0146E050E0BE016F5F7F4F84E1C4DE16
:102580006A8170E0762F66278981682B8C8190E0C4
:10259000982F88272B816C01C22A8E8190E0982F7A
:1025A00088272D817C01E22A072E000C880B990BCD
:1025B0000E947B1B20E030E040E85DE30E942F1C7E
:1025C000F8016083718382839383B601DD0C880BED
:1025D000990B0E947B1B20E030E040E85DE30E9405
:1025E0002F1CF8016483758386839783B701FF0CE2
:1025F000880B990B0E947B1B20E030E040E85DE3F4
:102600000E942F1CF8016087718782879387269626
:102610000FB6F894DEBF0FBECDBFDF91CF911F91F3
:102620000F91FF90EF90DF90CF900895EAE0F1E0F6
:10263000808180628083EBE0F1E080818062808332
:102640000895EAE0F1E080818F7D8083EBE0F1E0A6
:1026500080818F7D808308958CE08093B80084E032
:102660008093BC00089584EA8093BC008091BC00F4
:102670008823E4F7089584E98093BC000895880FC7
:102680008093BB0084E88093BC008091BC008823C9
:10269000E4F7089590E0880F991F81608093BB0054
:1026A00084E88093BC008091BC008823E4F70895FF
:1026B0008093BB0084E88093BC008091BC00882399
:1026C000E4F70895FC0184E88093BC009091BC007D
:1026D0009923E4F78091BB0080830895FC0184EC8A
:1026E0008093BC009091BC009923E4F78091BB00DB
:1026F00080830895EAE0F1E080818061808382E256
:10270000809320018BE18093210187E893E19093EE
:102710002701809326018AEF90E090932B0180930C
:102720002A010895EAE0F1E080818061808382E2FD
:10273000809320018BE18093210187E893E19093BE
:1027400027018093260184EF91E090932B018093E1
:102750002A010895EAE0F1E080818F7E8083089568
:1027600087E084B988E181B981E58CBD82B1886157
:1027700082B9089592B121E030E002C0220F331FE8
:102780008A95E2F72095292322B9089592B121E094
:1027900030E002C0220F331F8A95E2F7292B22B9BD
:1027A00008958EBD0DB407FEFDCF8EB508950F932D
:1027B00000E02FEF3FEFA90160E070E08091861C00
:1027C0009091871C0E944B0680918A1C811106C043
:1027D00081E080938A1C81E393E09DD500E020E0B6
:1027E00030E0A90160E070E08091861C9091871C28
:1027F0000E946A050F9108950F93CF93DF9300E035
:102800002FEF3FEFA90160E070E08091861C90916E
:10281000871C0E944B0680918A1C8130C9F4C8E84D
:10282000DCE182E08A838DE393E075D56B817C8166
:102830008D819E8120E030E040E45FE30E942F1C08
:102840006093AF1B7093B01B8093B11B9093B21B2E
:1028500000E020E030E0A90160E070E08091861C9B
:102860009091871C0E946A05DF91CF910F91089586
:102870000F9300E02FEF3FEFA90160E070E080913F
:10288000861C9091871C0E944B0680918A1C833085
:1028900081F484E080938A1C88E493E03CD5EAE0EC
:1028A000F1E0808180628083EBE0F1E080818062F2
:1028B000808300E020E030E0A90160E070E08091DA
:1028C000861C9091871C0E946A050F9108950F93B2
:1028D00000E02FEF3FEFA90160E070E08091861CDF
:1028E0009091871C0E944B068091891C8111109247
:1028F000891C00E020E030E0A90160E070E08091F8
:10290000861C9091871C0E946A050F9108950F9371
:1029100000E02FEF3FEFA90160E070E08091861C9E
:102920009091871C0E944B0680918A1C8230A1F4F2
:1029300082E593E0F0D483E080938A1C84E693E000
:10294000EAD4D8DE2FE38DE093E021508040904020
:10295000E1F700C00000FEDE00E020E030E0A90169
:1029600060E070E08091861C9091871C0E946A054F
:102970000F910895CF93DF93CDB7DEB728970FB6A9
:10298000F894DEBF0FBECDBFBE016B5F7F4FCE019F
:1029900001961BDB1092C11C1092C21C1092C31C2A
:1029A0001092C41C69817A818B819C8120E032E184
:1029B00045EC57E436D621E03EED42E45EE3B2D783
:1029C0009B01AC0160E070E080E89FE3C1D520E0AE
:1029D0003AE24DE257E443D76093B31B7093B41BC4
:1029E0008093B51B9093B61B28960FB6F894DEBF64
:1029F0000FBECDBFDF91CF910895CF93DF931F928C
:102A0000CDB7DEB7E8E8FCE181E08183128200E027
:102A10002FEF3FEFA901BE016F5F7F4F8091BF1C79
:102A20009091C01C0E944B06813089F7E981F0E04B
:102A3000EE0FFF1FE050FE4F0190F081E02D199541
:102A4000E6CFCF939B01AC016091C11C7091C21C79
:102A50008091C31C9091C41C7BD5C1E020E030E084
:102A600040EA50E4F8D618160CF0C0E08C2FCF9155
:102A70000895CF939B01AC016091C11C7091C21C61
:102A80008091C31C9091C41C63D59F77C1E020E066
:102A900030E040E05FE3C1D588230CF0C0E08C2F2C
:102AA000CF9108950F931F93CF93DF93CDB7DEB7E8
:102AB000AD970FB6F894DEBF0FBECDBF1092C11C0C
:102AC0001092C21C1092C31C1092C41C00E02FEF85
:102AD0003FEFA90160E070E08091861C9091871C17
:102AE0000E944B0687EA91E60197F1F700C00000CB
:102AF000BE016B5F7F4FCE01019667DA8091891C22
:102B0000811125C020E030E0A90160E070E08091F3
:102B1000861C9091871C0E946A052FEF3FEFA90148
:102B2000BE016F5F7F4F8091C51C9091C61C0E94B3
:102B30004B06813009F009C12FEF3FEFA90160E09A
:102B400070E08091861C9091871C0E944B066981E1
:102B50007A818B819C8108E81CE1F801678370878A
:102B60008187928720E032E145EC57E45AD521E095
:102B70003EED42E45EE3D6D69B01AC0160E070E03E
:102B800080E89FE3E5D420E03AE24DE257E467D6DF
:102B90002091B31B3091B41B4091B51B5091B61BD3
:102BA000D7D4F80163837483858396838D819E8156
:102BB000AF81B88583879487A587B687CE010996AC
:102BC000F7DBCE0145965EDCCE018196C5DC8985BA
:102BD0009A85AB85BC85F8018787908BA18BB28BDA
:102BE0008D859E85AF85B889838B948BA58BB68B9D
:102BF00089899A89AB89BC89878B908FA18FB28F85
:102C00008D899E89AF89B88D838F948FA58FB68F5C
:102C1000898D9A8DAB8DBC8D878F90A3A1A3B2A314
:102C20008D8D9E8DAF8DB8A183A394A3A5A3B6A3CC
:102C300089A19AA1ABA1BCA187A390A7A1A7B2A784
:102C40008DA19EA1AFA1B8A583A794A7A5A7B6A75C
:102C500089A59AA5ABA5BCA587A790ABA1ABB2AB44
:102C60006381748185819681ECDE882379F081E02F
:102C70008DA700E02FEF3FEFA901BE01635D7F4FFD
:102C80008091BF1C9091C01C0E946A0560918B1CB2
:102C900070918C1C80918D1C90918E1C2091AF1B8B
:102CA0003091B01B4091B11B5091B21BB6D4882318
:102CB0007CF482E08DA700E02FEF3FEFA901BE0179
:102CC000635D7F4F8091BF1C9091C01C0E946A057C
:102CD00060918B1C70918C1C80918D1C90918E1C2E
:102CE000C8DE882379F083E08DA700E02FEF3FEF67
:102CF000A901BE01635D7F4F8091BF1C9091C01CF4
:102D00000E946A0580918B1C90918C1CA0918D1C57
:102D1000B0918E1C8093C11C9093C21CA093C31CC5
:102D2000B093C41C00E020E030E0A90160E070E056
:102D30008091861C9091871C0E946A0568EE73E062
:102D400080E090E00E94540AC1CEAD960FB6F89490
:102D5000DEBF0FBECDBFDF91CF911F910F910895C0
:102D6000CF93DF931F92CDB7DEB7FC0180809180B7
:102D7000A280B380C12CD12C760110E01FC0C114F9
:102D8000D104F1E0EF06F10458F0EBBEF6018791B3
:102D9000898361E070E0CE01019635D0182709C023
:102DA000F6018491898361E070E0CE0101962BD019
:102DB0001827FFEFCF1ADF0AEF0AFF0AC814D90459
:102DC000EA04FB04E0F200E02FEF3FEFA90160E02E
:102DD00070E08091861C9091871C0E944B06109396
:102DE000BC1C20E030E0A90160E070E08091861C0E
:102DF0009091871C0E946A0568EE73E080E090E085
:102E00000E94540AB7CFAC0120E030E080E007C058
:102E1000FA01E20FF31F908189272F5F3F4F26179A
:102E20003707B0F308959C0140E050E080E007C010
:102E3000F901E40FF51F908189274F5F5F4F41151E
:102E40005105B1F340E050E008C0F9013196E40FBC
:102E5000F51F908189274F5F5F4F41155105A9F3F9
:102E600040E050E008C0F9013296E40FF51F908170
:102E700089274F5F5F4F41155105A9F340E050E0AE
:102E800008C0F9013396E40FF51F908189274F5F41
:102E90005F4F44305105A8F340E050E008C0F9010D
:102EA0003796E40FF51F908189274F5F5F4F4430BD
:102EB0005105A8F340E050E008C0F9013B96E40F4B
:102EC000F51F908189274F5F5F4F44305105A8F36C
:102ED00040E050E008C0F9013F96E40FF51F9081F3
:102EE00089274F5F5F4F44305105A8F340E050E021
:102EF00008C0F9017396E40FF51F908189274F5F91
:102F00005F4F44305105A8F340E050E008C0F9019C
:102F10007796E40FF51F908189274F5F5F4F44300C
:102F20005105A8F340E050E008C0F9017B96E40F9A
:102F3000F51F908189274F5F5F4F44305105A8F3FB
:102F400040E050E008C0F9017F96E40FF51F908142
:102F500089274F5F5F4F44305105A8F340E050E0B0
:102F600008C0F901B396E40FF51F908189274F5FE0
:102F70005F4F44305105A8F340E050E008C0F9012C
:102F8000B796E40FF51F908189274F5F5F4F44305C
:102F90005105A8F340E050E008C0F901BB96E40FEA
:102FA000F51F908189274F5F5F4F44305105A8F38B
:102FB00040E050E008C0F901BF96E40FF51F908192
:102FC00089274F5F5F4F44305105A8F340E050E040
:102FD00008C0F901F396E40FF51F908189274F5F30
:102FE0005F4F41155105A9F340E050E008C0F901D9
:102FF000F496E40FF51F908189274F5F5F4F4115CD
:103000005105A9F340E050E008C0F901F596E40F3E
:10301000F51F908189274F5F5F4F41155105A9F337
:103020000895CF93DF931F921F92CDB7DEB78FEF36
:10303000898300E02FEF3FEFA90160E070E080910D
:10304000861C9091871C0E944B0680911B1C91E06E
:10305000980F90931B1C08E81CE1F8018083C801BD
:10306000E2DEF80186AB61E070E0CE0101965FD14F
:1030700087E38A8361E070E0CE01029658D161E077
:1030800070E0C80154D161E070E089E89CE14FD163
:1030900061E070E08AE89CE14AD164E070E08BE88E
:1030A0009CE145D164E070E08FE89CE140D164E0B0
:1030B00070E083E99CE13BD164E070E087E99CE14A
:1030C00036D164E070E08BE99CE131D164E070E0DE
:1030D0008FE99CE12CD164E070E083EA9CE127D188
:1030E00064E070E087EA9CE122D164E070E08BEA62
:1030F0009CE11DD164E070E08FEA9CE118D164E0AE
:1031000070E083EB9CE113D164E070E087EB9CE11D
:103110000ED161E070E08BEB9CE109D161E070E0E1
:103120008CEB9CE104D161E070E08DEB9CE1FFD081
:1031300061E070E08EEB9CE1FAD000E020E030E04E
:10314000A90160E070E08091861C9091871C0E942C
:103150006A0568EE73E080E090E00E94540A69CF4F
:10316000CF93DF9300D01F92CDB7DEB787EB9BE103
:10317000F1D0E7EBFBE1E080F12C1181B70188EBA6
:103180009BE141DEF701E854F44E908189137CC045
:103190001330C9F128F4113069F01230D1F06AC04F
:1031A000173009F450C0163409F459C0143009F02E
:1031B00061C039C0198200E02FEF3FEFA901BE01C5
:1031C0006F5F7F4F8091BF1C9091C01C0E946A0569
:1031D0005EC08091B91B9091BA1BA091BB1BB091AE
:1031E000BC1B89839A83AB83BC8300E02FEF3FEF46
:1031F000A901BE016F5F7F4F8091C51C9091C61CD5
:103200000E946A0544C084E0898300E02FEF3FEF0D
:10321000A901BE016F5F7F4F8091BF1C9091C01CC0
:103220000E946A0534C085E0898300E02FEF3FEFFC
:10323000A901BE016F5F7F4F8091BF1C9091C01CA0
:103240000E946A0524C056DA2FE38DE093E02150F6
:1032500080409040E1F700C000007CDA18C09CE09C
:1032600088E10FB6F894A895809360000FBE909304
:103270006000FFCF86E793E04ED064E170E087EB1B
:103280009BE119D11FEF03C08EE893E044D01F3FAC
:10329000C9F000E02FEF3FEFA90160E070E08091FE
:1032A000861C9091871C0E944B061093BB1C20E04B
:1032B00030E0A90160E070E08091861C9091871C4D
:1032C0000E946A056CE271E080E090E00E94540A7E
:1032D0004DCF9093C5008093C40028E12093C10096
:1032E00026E02093C2009093CD008093CC0088E923
:1032F0008093C9002093CA0008959091C00095FF63
:10330000FCCF8093C60008959091C80095FFFCCF34
:103310008093CE000895CF93DF93EC0102C0EDDFE0
:10332000219688818111FBCFDF91CF9108950F9372
:103330001F93CF93DF93EC018C01060F171F02C080
:103340008991E2DFC017D107D8F3DF91CF911F91A8
:103350000F910895CF92DF92EF92FF920F93CF9348
:10336000DF931F92CDB7DEB76C0100E02FEF3FEF88
:10337000A901BE016F5F7F4F8091C71C9091C81C4F
:103380000E944B06813089F789818F3F71F72FEFBB
:103390003FEFA901B6018091C71C9091C81C0E9403
:1033A0004B06E12CF12C10C08FEFE81AF80AB60199
:1033B0006E0D7F1D00E02FEF3FEFA9018091C71C2C
:1033C0009091C81C0E944B06F601808190E0019606
:1033D000E816F90648F30F90DF91CF910F91FF9017
:1033E000EF90DF90CF9008951F920F920FB60F923B
:1033F00011240BB60F922F933F934F935F936F93CC
:103400007F938F939F93AF93BF93EF93FF93CF934C
:10341000DF931F921F92CDB7DEB78091CE008983D4
:103420001A8220E0AE014E5F5F4FBE016F5F7F4F9B
:103430008091C71C9091C81C0E9413068A8181113B
:103440000E9467030F900F90DF91CF91FF91EF9152
:10345000BF91AF919F918F917F916F915F914F91AC
:103460003F912F910F900BBE0F900FBE0F901F90AA
:1034700018951F920F920FB60F9211240BB60F9250
:103480008F939F93EF93FF938091D600E0911C1C44
:1034900091E09E0F90931C1CF0E0E35EF34E80835E
:1034A000FF91EF919F918F910F900BBE0F900FBEE8
:1034B0000F901F9018950F931F93CF93DF93EC01FC
:1034C0008C01060F171F02C0899117DFC017D107A3
:1034D000D8F3DF91CF911F910F910895EF92FF9252
:1034E0000F931F93CF93DF937C018B01EA0183E05D
:1034F00041D98FE956D980E054D9F701808380E023
:1035000050D9F801808380E04CD9888383E03ED98C
:10351000DF91CF911F910F91FF90EF900895CF937E
:10352000DF9300D0CDB7DEB7AE014D5F5F4FBE0178
:103530006E5F7F4FCE010196D1DF81E099819F3E82
:1035400009F080E00F900F900F90DF91CF910895D8
:103550005058BB27AA270ED044C135D130F03AD1FC
:1035600020F031F49F3F11F41EF42AC10EF4E095CF
:10357000E7FB20C1E92F46D180F3BA176207730732
:103580008407950718F071F49EF55EC10EF4E0957E
:103590000B2EBA2FA02D0B01B90190010C01CA010D
:1035A000A0011124FF27591B99F0593F50F4503EB8
:1035B00068F11A16F040A22F232F342F4427585FAA
:1035C000F3CF469537952795A795F0405395C9F7C2
:1035D0007EF41F16BA0B620B730B840BBAF091507A
:1035E000A1F0FF0FBB1F661F771F881FC2F70EC019
:1035F000BA0F621F731F841F48F4879577956795EC
:10360000B795F7959E3F08F0B3CF9395880F08F0D4
:103610009927EE0F979587950895A8D008F481E033
:1036200008950CD0DEC0D6D040F0CDD030F021F4DB
:103630005F3F19F0BFC0511108C1C2C0E3D098F379
:103640009923C9F35523B1F3951B550BBB27AA2723
:1036500062177307840738F09F5F5F4F220F331F95
:10366000441FAA1FA9F333D00E2E3AF0E0E830D061
:1036700091505040E695001CCAF729D0FE2F27D064
:10368000660F771F881FBB1F261737074807AB0732
:10369000B0E809F0BB0B802DBF01FF2793585F4FA7
:1036A0002AF09E3F510568F085C0CFC05F3FECF324
:1036B000983EDCF3869577956795B795F7959F5F6C
:1036C000C9F7880F911D9695879597F90895E1E0C0
:1036D000660F771F881FBB1F621773078407BA071F
:1036E00020F0621B730B840BBA0BEE1F88F7E0957A
:1036F0000895E89409C097FB3EF4909580957095E5
:1037000061957F4F8F4F9F4F9923A9F0F92F96E92D
:10371000BB279395F695879577956795B795F111A2
:10372000F8CFFAF4BB0F11F460FF1BC06F5F7F4F3F
:103730008F4F9F4F16C0882311F096E911C0772351
:1037400021F09EE8872F762F05C0662371F096E85A
:10375000862F70E060E02AF09A95660F771F881F29
:10376000DAF7880F9695879597F90895990F0008CD
:10377000550FAA0BE0E8FEEF16161706E807F90743
:10378000C0F012161306E407F50798F0621B730BDE
:10379000840B950B39F40A2661F0232B242B252B5F
:1037A00021F408950A2609F4A140A6958FEF811D02
:1037B000811D089597F99F6780E870E060E00895A3
:1037C0009FEF80EC089500240A9416161706180639
:1037D0000906089500240A94121613061406050615
:1037E0000895092E0394000C11F4882352F0BB0FA6
:1037F00040F4BF2B11F460FF04C06F5F7F4F8F4F09
:103800009F4F089557FD9058440F551F59F05F3F43
:1038100071F04795880F97FB991F61F09F3F79F0F2
:1038200087950895121613061406551FF2CF469574
:10383000F1DF08C0161617061806991FF1CF8695F6
:103840007105610508940895E894BB2766277727DA
:10385000CB0197F908958ADF08F48FEF08950BD014
:10386000C0CFB1DF28F0B6DF18F0952309F0A2CF62
:10387000A7CF1124EACFC6DFA0F3959FD1F3950F10
:1038800050E0551F629FF001729FBB27F00DB11DE4
:10389000639FAA27F00DB11DAA1F649F6627B00D74
:1038A000A11D661F829F2227B00DA11D621F739F5D
:1038B000B00DA11D621F839FA00D611D221F749F6B
:1038C0003327A00D611D231F849F600D211D822FB2
:1038D000762F6A2F11249F5750408AF0E1F08823F9
:1038E0004AF0EE0FFF1FBB1F661F771F881F915006
:1038F0005040A9F79E3F510570F05CCFA6CF5F3FC7
:10390000ECF3983EDCF3869577956795B795F79538
:10391000E7959F5FC1F7FE2B880F911D96958795C0
:1039200097F90895FA01EE0FFF1F30962105310532
:1039300099F16115710561F48038BFE39B0749F186
:1039400068949038810561F08038BFEF9B0741F0A3
:10395000992342F5FF3FE1053105210511F1E89476
:103960000894E795D901AA2329F4AB2FBE2FF85F5D
:10397000D0F310C0FF5F70F4A695E0F7F73950F070
:1039800019F0FF3A38F49F779F930CD00F9007FC03
:10399000905808953EF014CF60E070E080E89FE317
:1039A00008954FE79F775F934F933F932F939ED058
:1039B0002F913F914F915F9152DF05C019F40EF0A6
:1039C000F9CE42CFFDCE26DFC8F39638C0F707F810
:1039D0000F92E8942BE33AEA48EB5FE74EDF0F9251
:1039E0000F920F924DB75EB70F92C0D0E4EEF0E0A9
:1039F00016D04F915F91EF91FF91E595EE1FFF1F5C
:103A000049F0FE57E0684427EE0F441FFA95E1F7AE
:103A10004195550B32D00F9007FE26C00895DF93D5
:103A2000CF931F930F93FF92EF92DF927B018C0154
:103A3000689405C0DA2EEF011EDFFE01E894A5911F
:103A40002591359145915591AEF3EF0193DDFE013E
:103A50009701A801DA9479F7DF90EF90FF900F912A
:103A60001F91CF91DF9108959B01AC0160E070E060
:103A700080E89FE3D6CD9ECEACC0CCDEE8F39923A0
:103A8000D9F3940F511DBBF39150504094F059F06D
:103A9000882332F0660F771F881F91505040C1F77E
:103AA0009E3F510544F7880F911D9695879597F98C
:103AB00008955F3FACF0983E9CF0BB2786957795C4
:103AC0006795B79508F4B1609395C1F7BB0F58F7A8
:103AD00011F460FFE8CF6F5F7F4F8F4F9F4FE3CFB1
:103AE000B4CE0EF076C06CCE689464CE93DEC8F38C
:103AF0009923D1F3C6F3DF93CF931F930F93FF92D4
:103B0000C92FDD2788232AF02197660F771F881F8A
:103B1000DAF720E030E040E85FEB9FE3883920F0FF
:103B2000803E30F021968F7714DDECE0F1E003C0A9
:103B300010DDE9E3F1E073DF8B01BE01EC01FB2E48
:103B40006F5771097595771F880B990BD4DD28E1A4
:103B500032E741E35FE38FDEAF2D9801AE01FF90C6
:103B60000F911F91CF91DF9105DD3BCEFA01DC0172
:103B7000AA0FBB1F9B01AC01BF5728F42227332794
:103B8000442750781FC0B75188F4AB2F00244695C6
:103B900037952795011CA395D2F3002069F0220FD9
:103BA000331F441FB395DAF30DD0D2CC61307105C9
:103BB000A0E88A07B94630F49B01AC016627772755
:103BC00088279078309621F0208331834283538375
:103BD00008959F3F31F0915020F487957795679530
:103BE000B795880F911D9695879597F90895DB01F4
:103BF0008F939F930BD0BF91AF91A29F800D911D8A
:103C0000A39F900DB29F900D1124089509D0A59FF8
:103C1000900DB49F900DA49F800D911D11240895C7
:103C2000A29FB001B39FC001A39F700D811D1124FD
:103C3000911DB29F700D811D1124911D0895FB01EE
:103C4000DC0102C001900D9241505040D8F7089518
:103C50000F931F93CF93DF93CDB7DEB72E970FB699
:103C6000F894DEBF0FBECDBF0E891F8986E08C831E
:103C70001A8309838FEF9FE79E838D83AE01465E93
:103C80005F4F688D798DCE01019610D0EF81F88558
:103C9000E00FF11F10822E960FB6F894DEBF0FBE14
:103CA000CDBFDF91CF911F910F9108952F923F9239
:103CB0004F925F926F927F928F929F92AF92BF923C
:103CC000CF92DF92EF92FF920F931F93CF93DF93E8
:103CD000CDB7DEB72B970FB6F894DEBF0FBECDBFC2
:103CE0006C017B018A01FC0117821682838181FFAE
:103CF000BFC1CE0101963C01F6019381F70193FD0E
:103D0000859193FF81917F01882309F4ADC18532AC
:103D100039F493FD859193FF81917F01853221F4E0
:103D2000B60190E0D6D1E8CF912C212C312CFFE1C7
:103D3000F315D8F08B3279F038F4803279F0833291
:103D4000A1F4232D20611DC08D3261F0803369F410
:103D5000232D216016C0832D8260382EE32DE46070
:103D60003E2E2AC0F32DF8601DC037FC2DC020ED7B
:103D7000280F2A3040F08E32B9F436FC75C1232D5D
:103D80002064322E19C036FE06C08AE0989E200DAF
:103D90001124922E11C0EAE02E9E200D1124222E15
:103DA000F32DF0623F2E08C08C3621F4832D8068FD
:103DB000382E02C0883641F4F70193FD859193FFB8
:103DC00081917F018111B3CF982F9F7D95549330BE
:103DD00028F40C5F1F4F9FE399830DC0833631F0A9
:103DE000833771F0833509F055C020C0F801808118
:103DF00089830E5F1F4F88248394912C530112C036
:103E00002801F2E04F0E511CF801A080B18036FE6F
:103E100003C0692D70E002C06FEF7FEFC5014ED186
:103E20004C018201F32DFF773F2E15C0280122E0BF
:103E3000420E511CF801A080B18036FE03C0692DEE
:103E400070E002C06FEF7FEFC5012DD14C01F32D63
:103E5000F0683F2E820133FC19C0822D90E0881655
:103E60009906A0F4B60180E290E033D12A94F5CF10
:103E7000F50137FC859137FE81915F01B60190E035
:103E800028D121102A9421E0821A910881149104EA
:103E900079F7E1C0843611F0893639F5F80137FE3B
:103EA00007C060817181828193810C5F1F4F08C0C0
:103EB00060817181072E000C880B990B0E5F1F4FDC
:103EC000F32DFF763F2E97FF09C090958095709552
:103ED00061957F4F8F4F9F4FF0683F2E2AE030E073
:103EE000A30133D1882E861844C0853731F4232DA1
:103EF0002F7EB22E2AE030E025C0932D997FB92E77
:103F00008F36C1F018F4883579F0AEC0803719F0DB
:103F1000883721F0A9C0E92FE061BE2EB4FE0DC0A4
:103F2000FB2DF460BF2E09C034FE0AC0292F266085
:103F3000B22E06C028E030E005C020E130E002C02B
:103F400020E132E0F801B7FE07C060817181828113
:103F500093810C5F1F4F06C06081718180E090E00B
:103F60000E5F1F4FA301F1D0882E8618FB2DFF771F
:103F70003F2E36FE0DC0232D2E7FA22E891458F41D
:103F800034FE0BC032FC09C0832D8E7EA82E05C0E6
:103F9000B82CA32C03C0B82C01C0B92CA4FE0FC0B0
:103FA000FE01E80DF11D8081803321F49A2D997E68
:103FB000A92E09C0A2FE06C0B394B39404C08A2DF2
:103FC000867809F0B394A3FC10C0A0FE06C0B2141A
:103FD00080F4280C922C9B180DC0B21458F4B60132
:103FE00080E290E076D0B394F8CFB21418F42B1896
:103FF00002C0982C212CA4FE0FC0B60180E390E0F3
:1040000068D0A2FE16C0A1FC03C088E790E002C001
:1040100088E590E0B6010CC08A2D867851F0A1FEAB
:1040200002C08BE201C080E2A7FC8DE2B60190E005
:1040300050D0891430F4B60180E390E04AD09A94CD
:10404000F8CF8A94F301E80DF11D8081B60190E06C
:1040500040D08110F6CF222009F44ECEB60180E286
:1040600090E037D02A94F7CFF6018681978102C07D
:104070008FEF9FEF2B960FB6F894DEBF0FBECDBF2C
:10408000DF91CF911F910F91FF90EF90DF90CF9034
:10409000BF90AF909F908F907F906F905F904F9068
:1040A0003F902F900895FC010590615070400110E1
:1040B000D8F7809590958E0F9F1F0895FC01615051
:1040C000704001900110D8F7809590958E0F9F1F3A
:1040D00008950F931F93CF93DF93FB01238121FD5D
:1040E00003C08FEF9FEF2CC022FF16C0468157817F
:1040F000248135814217530744F4A081B1819D0189
:104100002F5F3F4F318320838C93268137812F5F30
:104110003F4F3783268314C08B01EC01FB010084E1
:10412000F185E02D1995892BE1F6D80116968D9130
:104130009C911797019617969C938E931697CE0194
:10414000DF91CF911F910F910895FA01AA2728308E
:1041500051F1203181F1E8946F936E7F6E5F7F4F54
:104160008F4F9F4FAF4FB1E03ED0B4E03CD0670FD0
:10417000781F891F9A1FA11D680F791F8A1F911D23
:10418000A11D6A0F711D811D911DA11D20D009F473
:1041900068943F912AE0269F11243019305D3193B5
:1041A000DEF6CF010895462F4770405D4193B3E09E
:1041B0000FD0C9F7F6CF462F4F70405D4A3318F045
:1041C000495D31FD4052419302D0A9F7EACFB4E0F6
:1041D000A6959795879577956795BA95C9F70097AE
:1041E0006105710508959B01AC010A2E069457954F
:1041F000479537952795BA95C9F7620F731F841FA6
:10420000951FA01D0895A6E1B0E044E050E002C073
:10421000DC01CB01FC01F999FECF06C0F2BDE1BD86
:10422000F89A319600B40D9241505040B8F7089575
:04423000F894FFCF30
:10423400D713FC13871438146714BA1449444C4533
:10424400004361745361740D0A002D2D2D2D2D2D05
:104254002D2D2D2D2D2D2D2D2D2D0D0A00496E6961
:104264007469616C697A696E6720616E6420546553
:104274007374696E672E2E2E0D0A00573235513332
:10428400323A2025640D0A00424D503339303A2029
:1042940025640D0A00424E4F3035353A2025640D11
:1042A4000A0073697A653A20256C750D0A00546119
:1042B400736B20746F2073656E642074656C656D18
:1042C4006574727920746F2067726F756E64005420
:1042D40061736B20746F2072656365697665206312
:1042E4006F6D6D616E64732066726F6D2067726F9F
:1042F400756E64005461736B20746F2068616E6422
:104304006C6520616C6C206576656E747300546115
:10431400736B20746F207265616420646174612022
:1043240066726F6D2073656E736F72730054617380
:104334006B20746F2063616C63756C6174652063BA
:104344006865636B73756D206F66207468652061A2
:104354007070005374617274696E672E2E2E0D0A8C
:10436400004C61756E63686564210D0A0046616CDA
:104374006C696E67210D0A004C616E646564210DE1
:104384000A0072656C656173652068616E646C65B2
:10439400720D0A0050726F62652052656C6561731C
:1043A4006564210D0A00536F6D657468696E67203A
:1043B40077656E742077726F6E67210D0A00447200
:1043C4006F7070656420616E20696E76616C6964DB
:0C43D400207061636B65742E0D0A000000
:00000001FF
