:10000000B2C00000D1C00000CFC00000CDC00000D1
:10001000CBC00000C9C00000C7C00000C5C00000C0
:10002000C3C00000C1C00000BFC00000BDC00000D0
:10003000BBC00000B9C00000B7C00000B5C00000E0
:10004000B3C0000006C40000AFC00000ADC0000097
:10005000ABC00000A9C00000A7C00000A5C0000000
:10006000A3C00000A1C000009FC000009DC0000010
:100070009BC0000099C0000097C0000095C0000020
:1000800093C0000091C000008FC000008DC0000030
:100090000C941F1789C0000087C0000085C00000B5
:1000A00083C0000081C000007FC000007DC0000050
:1000B0007BC0000079C0000077C0000075C0000060
:1000C00073C0000071C000006FC000000C94641782
:1000D0006BC0000069C0000067C0000065C0000080
:1000E00063C0000007634236B79BD8A71A39685629
:1000F00018AEBAAB558C1D3CB7CC5763BD6DEDFD4A
:10010000753EF6177231BF000000803F0800000006
:10011000BE922449123EABAAAA2ABECDCCCC4C3EFC
:1001200000000080BEABAAAAAA3E00000000BF00EB
:100130000000803F0000000000084178D3BB4387E7
:10014000D1133D190E3CC3BD4282AD2B3E68EC82FB
:1001500076BED98FE1A93E4C80EFFFBE01C4FF7F80
:100160003F000000000011241FBECFEFD1E2DEBF30
:10017000CDBF00E00CBF13E0A0E0B2E0EEE0FDE395
:1001800000E00BBF02C007900D92A638B107D9F767
:100190002CE1A6E8B3E001C01D92AC33B207E1F751
:1001A0000E94CB0C0C94851E2BCFFC0103969283EE
:1001B00081834FEF5FEFBA01438354836583768376
:1001C000908787839287818710820895FC01138628
:1001D00012860895CF93DF939C01FB01DC011196F9
:1001E000CD91DC911297D583C4838E819F819783B3
:1001F00086838E819F81DC0115967C936E93149784
:100200007F836E8333872287F90180818F5F8083AC
:10021000DF91CF9108950F931F93CF93DF93EB015D
:10022000088119812A813B810F3F4FEF1407240772
:10023000340721F4FC01A185B28511C0DC011396BD
:1002400001C0DF011496ED91FC9115974081518119
:1002500062817381041715072607370790F71496F4
:10026000ED91FC911597FD83EC83D783C683BF8303
:10027000AE831596DC93CE9314979B878A87FC01F7
:1002800020812F5F2083DF91CF911F910F910895DF
:10029000CF93DF93FC01A285B385C481D58186818C
:1002A00097819F838E83C681D781848195819D8329
:1002B0008C8311968D919C911297E817F90731F470
:1002C0008681978112969C938E931197138612863E
:1002D0008C9181508C93DF91CF910895CF93DF93D0
:1002E000E2E9F3E0AEE8B3E01196FC93EE931396E7
:1002F0001C921E921297CF010F2E000CAA0BBB0B63
:100300008459984EAF4FBF4FEC0190938D0380936B
:100310008C031B821A82198218829C012259334055
:1003200033832283918380833093890320938803CE
:1003300030938B0320938A0380E090E890938703A7
:1003400080938603DF91CF910895CF93DF93EC01E3
:10035000AEE8B3E001C0DF01ED91FC911197EC171D
:10036000FD07C8F312968D919C9113979D01280F5C
:10037000391FC217D30749F42A813B81820F931F8B
:1003800013969C938E931297ED018A819B819E0117
:10039000280F391FE217F307C1F420918C03309125
:1003A0008D03E217F30771F022813381820F931FCF
:1003B0009B838A83ED91FC91119780819181998330
:1003C000888305C03983288302C0F983E883CA176C
:1003D000DB0711F0CD93DC93DF91CF910895EF927D
:1003E000FF920F931F93CF93DF938C011FD78091C0
:1003F0008C0390918D03892B09F470DF8091860323
:100400009091870380239123892B09F066C0011501
:10041000110511F00C5F1F4F0115110509F460C0A3
:1004200080918A0390918B038017910708F45BC039
:10043000C0918E03D0918F03EEE8F3E002C0FE017D
:10044000EC018A819B818017910720F48881998132
:100450000097A9F780918C0390918D03C817D90755
:1004600009F444C0E080F18084E0E80EF11C88814A
:100470009981918380832A813B81201B310B293014
:10048000310548F0CE01800F911FFC013383228398
:100490001B830A835ADF2A813B8180918A039091D2
:1004A0008B03821B930B90938B0380938A03409161
:1004B0008803509189038417950720F4909389034A
:1004C000809388038091860390918703282B392B92
:1004D0003B832A83198218820BC0E12CF12C08C0BF
:1004E000E12CF12C05C0E12CF12C02C0E12CF12C07
:1004F00072D7C701DF91CF911F910F91FF90EF90BD
:1005000008950F931F93CF93DF93009739F1EC0178
:1005100024974A815B812091860330918703BA0139
:1005200062237323672BD1F068817981672BB1F443
:1005300020953095242335233B832A8377D68A81DF
:100540009B8120918A0330918B03820F931F90939C
:100550008B0380938A03CE01F8DE3DD7DF91CF91E4
:100560001F910F9108951092890089EF8093880060
:10057000109280008BE080938100EFE6F0E08081B4
:1005800082608083089531E1FC013083319722E25B
:1005900020833197A3E3A0833197608331977083E1
:1005A0003197108231971082319760E860833197DC
:1005B00010823197108231971082319762E0608308
:1005C000319763E06083319764E06083319765E041
:1005D0006083319766E06083319767E0608331978D
:1005E00068E06083319769E06083319760E1608300
:1005F00031973083319732E13083319733E1308363
:10060000319734E13083319735E13083319736E1EA
:100610003083319737E13083319738E13083319738
:1006200039E13083319730E23083319731E23083E2
:1006300031972083319723E220833197408331978C
:100640005083319726E22083319727E22083319728
:1006500028E22083319729E22083319720E3208309
:10066000319721E32083899708957DDFA091871B2F
:10067000B091881BCD91CDBFDD91DEBFFF91EF9191
:10068000DF91CF91BF91AF919F918F917F916F91AA
:100690005F914F913F912F911F910F91FF90EF909C
:1006A000DF90CF90BF90AF909F908F907F906F9092
:1006B0005F904F903F902F901F900F900CBE0F9027
:1006C0000BBE0F900FBE0F90089581E008950F921A
:1006D0000FB6F8940F920BB60F920CB60F921F92B2
:1006E00011242F923F924F925F926F927F928F923E
:1006F0009F92AF92BF92CF92DF92EF92FF920F93B1
:100700001F932F933F934F935F936F937F938F9399
:100710009F93AF93BF93CF93DF93EF93FF93A091FA
:10072000871BB091881B0DB60D920EB60D9208D79F
:10073000A091871BB091881BCD91CDBFDD91DEBF0D
:10074000FF91EF91DF91CF91BF91AF919F918F91E9
:100750007F916F915F914F913F912F911F910F91D9
:10076000FF90EF90DF90CF90BF90AF909F908F90D1
:100770007F906F905F904F903F902F901F900F90C1
:100780000CBE0F900BBE0F900FBE0F9008950F92EE
:100790000FB6F8940F920BB60F920CB60F921F92F1
:1007A00011242F923F924F925F926F927F928F927D
:1007B0009F92AF92BF92CF92DF92EF92FF920F93F0
:1007C0001F932F933F934F935F936F937F938F93D9
:1007D0009F93AF93BF93CF93DF93EF93FF93A0913A
:1007E000871BB091881B0DB60D920EB60D9224D5C5
:1007F0008111A6D6A091871BB091881BCD91CDBF4A
:10080000DD91DEBFFF91EF91DF91CF91BF91AF916D
:100810009F918F917F916F915F914F913F912F9118
:100820001F910F91FF90EF90DF90CF90BF90AF900E
:100830009F908F907F906F905F904F903F902F9000
:100840001F900F900CBE0F900BBE0F900FBE0F901D
:1008500008959DDF18950FB6F8940F92FC01868DD0
:10086000811102C081E001C080E00F900FBE0895A9
:100870000FB6F8940F92FC01268D878D281302C0C5
:1008800081E001C080E00F900FBE08950F931F9389
:10089000CF93DF93EC01042F1E8D48A141110BC0B3
:1008A00088819981892B09F041C08A819B81C4D7B5
:1008B0001B821A8242C0011117C050E08C819D81B9
:1008C0000E94A11B28A18C819D81820F911D9D8377
:1008D0008C832A813B818217930750F1888199810B
:1008E0009D838C8380E029C050E08E819F810E948F
:1008F000A11B88A190E09195819591092E813F815E
:10090000280F391F3F832E834881598124173507CB
:1009100030F42A813B81820F931F9F838E830230A4
:1009200049F4112349F0115080E007C080E005C070
:1009300080E003C080E001C080E01F5F1E8FDF9178
:10094000CF911F910F910895FC0140A14423A9F07C
:1009500050E026813781240F351F3783268382811B
:1009600093812817390720F08081918197838683AE
:10097000CB01668177810C94A11B08951F93CF93BF
:10098000DF93EC010FB6F8940F921AA109C08B897E
:10099000882341F0CE01439634D68111EBD6115015
:1009A0001116ACF38FEF8AA30F900FBE0FB6F89419
:1009B0000F9219A109C08885882341F0CE010896BD
:1009C00020D68111D7D611501116ACF38FEF89A321
:1009D0000F900FBEDF91CF911F910895CF93DF93BA
:1009E000EC010FB6F8940F92E881F9818F8D90E0B9
:1009F00028A130E0829FA001839F500D929F500D4F
:100A000011244E0F5F1F5B834A831E8EFD83EC8390
:100A10000197289FA001299F500D389F500D112448
:100A2000CF01840F951F9F838E838FEF89A38AA3A5
:100A300061110AC08885882369F0CE010896E1D546
:100A4000882341F044DE06C0CE010896AEDBCE011D
:100A50004396ABDB0F900FBE81E0DF91CF910895FD
:100A60000F931F93F801611103C01183008302C02B
:100A700051834083878F60A361E0CF01AFDF1F9177
:100A80000F910895DF92EF92FF920F931F93CF93F0
:100A9000DF93E82EF62ED42E662321F0869FC00128
:100AA000112402C080E090E0839699DCEC0100976D
:100AB00041F08C012D2DAC014D5D5F4F6F2D8E2DC2
:100AC000CFDFCE01DF91CF911F910F91FF90EF907B
:100AD000DF900895CF92DF92EF92FF920F931F93D2
:100AE000CF93DF93CDB7DEB729970FB6F894DEBF6B
:100AF0000FBECDBF7C016B012E833F834887598792
:100B000010E00FB6F8940F92F701968D878D981725
:100B100010F00230A9F4402FB601C701B7DEF7018B
:100B20009389992339F0C70143966BD5882321F027
:100B3000CEDD02C08111CBDD0F900FBE81E046C03B
:100B40008E819F81A885B985892B8A2B8B2B21F4D7
:100B50000F900FBE80E03AC0111104C0CE01019683
:100B600092D511E00F900FBE61D30FB6F8940F929B
:100B7000F70181A18F3F09F411A2F70182A18F3FF4
:100B800009F412A20F900FBEBE016A5F7F4FCE0123
:100B900001968AD5811116C0C7016ADE882371F0DB
:100BA0004E815F8168857985C701089613D5C70195
:100BB000E5DE11D48111A5CF8ADDA3CFC701DEDE2A
:100BC0000AD49FCFC701DADE06D480E029960FB69B
:100BD000F894DEBF0FBECDBFDF91CF911F910F9173
:100BE000FF90EF90DF90CF9008950F93009769F0FA
:100BF000FC011382128211821082168200E020E032
:100C000030E0A90160E070E065DF0F910895CF93B7
:100C1000DF93482F60E081E035DFEC01E6DFCE01B5
:100C2000DF91CF910895EF92FF920F931F93CF938F
:100C3000DF938A01FC01568D378D531710F0223057
:100C4000E1F4422F7801EC011AA120DE1F3F79F474
:100C50008B898823A1F0CE014396D3D4882389F0D1
:100C6000E114F10481F081E0F70180830DC0FF24DD
:100C7000F394F10EFAA281E007C080E005C081E0A4
:100C800003C081E001C081E0DF91CF911F910F91FE
:100C9000FF90EF9008958F929F92BF92CF92DF9234
:100CA000EF92FF920F931F93CF93DF93CDB7DEB7F1
:100CB00029970FB6F894DEBF0FBECDBF7C016B0144
:100CC0002E833F8348875987B02E00E00FB6F894F3
:100CD0000F92F701168D112361F186809780B6017E
:100CE000C70132DEB11016C01150F701168F808196
:100CF0009181892B21F4E0D5F70193838283F70159
:100D00008085882391F0C70108967BD4882369F0F9
:100D1000DEDC0BC0F701978286828389882329F065
:100D2000C70143966ED48111D2DC0F900FBE81E0D3
:100D300058C08E819F81A885B985892B8A2B8B2BE2
:100D400021F40F900FBE80E04CC0011104C0CE0111
:100D5000019699D401E00F900FBE68D20FB6F894B7
:100D60000F92F70181A18F3F09F411A2F70182A12F
:100D70008F3F09F412A20F900FBEBE016A5F7F4F32
:100D8000CE01019691D4811123C0C70164DD88236F
:100D9000D9F0F70180819181892B41F40FB6F89445
:100DA0000F9282819381EAD40F900FBE4E815F81B2
:100DB00068857985C70143960DD4C701DFDD0BD364
:100DC000811184CF84DC82CFC701D8DD04D37ECFEC
:100DD000C701D4DD00D3C7013EDD882309F476CFF7
:100DE00080E029960FB6F894DEBF0FBECDBFDF912D
:100DF000CF911F910F91FF90EF90DF90CF90BF9018
:100E00009F908F900895E091381BF091391B80815D
:100E100081110CC08FEF9FEFDC018093051B909335
:100E2000061BA093071BB093081B0895E091381B85
:100E3000F091391B0780F085E02D0084F185E02DCD
:100E400082819381A481B5818093051B9093061BB9
:100E5000A093071BB093081B0895CF93DF93EC0179
:100E60008B8D9C8D4EDBCE014CDBDF91CF910895B5
:100E70006F927F928F929F92AF92BF92CF92DF92AA
:100E8000EF920F931F93CF93DF93CDB7DEB74C0153
:100E9000F501838D948D215031093C01620E731E42
:100EA00020E00FC0822F90E0FB01E80FF91F308196
:100EB000D501A80FB91F5D963C938081882319F056
:100EC0002F5F243178F3F50110AAF4E0FE1518F431
:100ED0006894EE24E2F8F501E28EE1AA12AAC501B7
:100EE000029674D9C5010E9671D9F501B386A28612
:100EF00085E090E0A0E0B0E08E199109A109B10968
:100F000086879787A08BB18BB78AA68A13AA14AA63
:100F100015AA16AA17AAA801B401C30134DBF5016A
:100F200091838083C114D10419F0F601B182A082AB
:100F3000DF91CF911F910F91EF90DF90CF90BF90F5
:100F4000AF909F908F907F906F900895CF93C0E067
:100F500008C02BE0C29FC0011124805B944E25D9AC
:100F6000CF5FC530B0F385E49BE11FD98AE39BE1F5
:100F70001CD98BE29BE119D980E29BE116D984E16F
:100F80009BE113D985E49BE19093391B8093381B37
:100F90008AE39BE19093371B8093361BCF91089592
:100FA000CF93DF93EC010FB6F8940F928091131B4F
:100FB0008F5F8093131B8091871B9091881B892BD7
:100FC00051F4D093881BC093871B8091131B8130F1
:100FD00091F4BCDF10C080910D1B81110CC0E09119
:100FE000871BF091881B928D8A8D891720F0D093F2
:100FF000881BC093871B8091091B8F5F8093091BFF
:101000008A8D90910E1B981710F480930E1B2BE085
:10101000829FC0011124BE016E5F7F4F805B944EA2
:10102000D9D80F900FBE80910D1B882349F0E09115
:10103000871BF091881B928D8A8D981708F447DBE7
:10104000DF91CF9108958F929F92AF92BF92CF92EE
:10105000DF92EF92FF92CF936B017C01C42F8090BF
:101060000F1B9090101BA090111BB090121B809131
:10107000871B9091881B02960BD98FEFC816D80654
:10108000E806F80661F4CC2351F06091871B70915B
:10109000881B6E5F7F4F84E19BE19CD83DC0C80CEC
:1010A000D91CEA1CFB1CE091871BF091881BC282B3
:1010B000D382E482F582C814D904EA04FB0460F404
:1010C0006091871B7091881B8091361B9091371B14
:1010D0006E5F7F4FA0D820C06091871B7091881BE6
:1010E0008091381B9091391B6E5F7F4F94D880910F
:1010F000051B9091061BA091071BB091081BC816F9
:10110000D906EA06FB0640F4C092051BD092061BE6
:10111000E092071BF092081BCF91FF90EF90DF90B9
:10112000CF90BF90AF909F908F9008952F923F9255
:101130004F925F926F927F928F929F92AF92BF92E7
:10114000CF92DF92EF92FF920F931F93CF93DF9393
:101150003C011B015A012901CA0141D96C01892BAB
:1011600061F088E390E03BD9EC01892B19F0DC8E2B
:10117000CB8E05C0C601C5D902C0C0E0D0E0209723
:1011800081F0950140E050E0812C912C5E016701D7
:10119000E02E8201B101C3016BDECE0101DF81E0EF
:1011A00001C08FEFDF91CF911F910F91FF90EF90D2
:1011B000DF90CF90BF90AF909F908F907F906F9077
:1011C0005F904F903F902F900895EF92FF920F9372
:1011D0000F2EF3E0EF2EFBE1FF2EF02D00E020E0DC
:1011E00030E040E054E06CE072E089E99AE09EDF94
:1011F0008130C1F4F8948FEF9FEFDC018093051BE1
:101200009093061BA093071BB093081B81E080936B
:101210000D1B10920F1B1092101B1092111B10929D
:10122000121B23DA0F91FF90EF9008958091021B1B
:101230008F5F8093021B0895BF92CF92DF92EF924F
:10124000FF920F931F93CF93DF938091021B811125
:10125000A8C0C0900F1BD090101BE090111BF09005
:10126000121B2FEFC21AD20AE20AF20AC0920F1B17
:10127000D092101BE092111BF092121BC114D104EA
:10128000E104F104B1F48091381B9091391B209155
:10129000361B3091371B3093391B2093381B9093AA
:1012A000371B8093361B80910A1B8F5F80930A1B2C
:1012B000AADD8091051B9091061BA091071BB091A0
:1012C000081BC816D906EA06FB0628F4B12C5AC03A
:1012D000BB24B39401C0B12CE091381BF091391BB1
:1012E000808181110CC08FEF9FEFDC018093051B83
:1012F0009093061BA093071BB093081B43C0E0917B
:10130000381BF091391B0780F085E02DC085D18511
:101310008A819B81AC81BD81C816D906EA06FB068D
:1013200048F48093051B9093061BA093071BB09372
:10133000081B28C08E010E5F1F4FC8010E94480184
:10134000888D998D892B21F0CE010E960E9448013F
:101350008A8D90910E1B981710F480930E1B2BE032
:10136000829FC0011124B801805B944E0E94EA0064
:101370009A8DE091871BF091881B828D981708F059
:10138000A7CFAACFE091871BF091881BE28D8BE05D
:10139000E89FF0011124E05BF44E8081823040F43C
:1013A00009C080910C1B8F5F80930C1BB12C02C075
:1013B000BB24B39480910B1B882311F0BB24B394FE
:1013C0008B2DDF91CF911F910F91FF90EF90DF90C8
:1013D000CF90BF9008950F931F93CF93DF930FB6D5
:1013E000F8940F928091021B81508093021B809190
:1013F000021B81114FC08091131B81112DC04DC064
:10140000E091321BF091331BC085D185CE010E9641
:101410000E9448018E010E5F1F4FC8010E944801C3
:101420008A8D90910E1B981710F480930E1B2BE061
:10143000829FC0011124B801805B944E0E94EA0093
:101440009A8DE091871BF091881B828D981730F060
:1014500081E080930B1B02C0C0E0D0E080912B1B89
:101460008111CECFCD2B09F0CEDCC0910C1BCC234B
:1014700051F0E2DE882319F081E080930B1BC1500C
:10148000C1F710920C1B80910B1B882329F01FD9E8
:1014900081E003C080E001C080E00F900FBEDF91CB
:1014A000CF911F910F910895CF92DF92EF92FF920B
:1014B0006B017C01672B682B692B39F0B7DE40E0AC
:1014C000C701B601C0DD87DF01C080E0811101C026
:1014D000FED8FF90EF90DF90CF900895CF93DF93E9
:1014E00021C0A4DEC091201B76DFCC23D9F00FB63B
:1014F000F8940F92E091271BF091281BC085D185AD
:10150000CE0102960E9448018091131B8150809366
:10151000131B80911F1B815080931F1B0F900FBEC8
:10152000CE019BDC80911F1B8111DBCFDF91CF911E
:101530000895D4DF8091501B8230D8F3C8D8F9CFFA
:101540008091021B882321F081E080930B1B08957A
:1015500010920B1B80910E1B01C08150282F30E090
:101560009BE0929FF001939FF00D1124E05BF44EFD
:101570009081992391F39BE0929FA001939F500D3E
:101580001124DF010180F281E02D0480F581E02D3E
:101590001296FC93EE9311974D5A544EE417F507AB
:1015A00029F444815581FD01528341839BE0929F40
:1015B000F001939FF00D1124E05BF44E0180F28165
:1015C000E02D208531853093881B2093871B8093E5
:1015D0000E1B0895CF92DF92EF92FF926A017B017A
:1015E0006091871B7091881B625F7F4F0E940B0187
:1015F00041E0C701B60127DDFF90EF90DF90CF906B
:1016000008950F931F93CF93DF93DC011796ED910D
:10161000FC911897C085D1858E01025F1F4FC801CC
:101620000E9448018091021B811116C00C501109C3
:10163000C8010E9448018A8D90910E1B981710F4E2
:1016400080930E1BBBE08B9FC0011124B801805B0F
:10165000944E0E94EA0005C0B8018BE29BE10E9413
:10166000EA009A8DE091871BF091881B828D891783
:1016700020F481E080930B1B01C080E0DF91CF91CB
:101680001F910F91089520910A1BFC012083409126
:101690000F1B5091101B6091111B7091121B418305
:1016A00052836383748308958F929F92AF92BF9207
:1016B000CF92DF92EF92FF920F931F93CF93DF931E
:1016C000FB010FB6F8940F9200910F1B1091101BA5
:1016D0002091111B3091121B4081518162817381D5
:1016E0004F3FAFEF5A076A077A0781F1EC01B881E3
:1016F000A0910A1BBA1749F0C980DA80EB80FC8000
:101700000C151D052E053F0518F5DC011196CD9031
:10171000DD90ED90FC901497480159018C189D08BC
:10172000AE08BF0884169506A606B70698F4C01A38
:10173000D10AE20AF30A4C0D5D1D6E1D7F1D408328
:101740005183628373839FDF80E005C080E003C024
:1017500081E001C081E00F900FBEDF91CF911F911A
:101760000F91FF90EF90DF90CF90BF90AF909F9040
:101770008F90089581E080930B1B08950F931F9322
:10178000CF93DF93FC01892B09F451C0828DA09186
:10179000871BB091881B5A969C91891708F047C007
:1017A0004685578560897189772394F0A091871BBE
:1017B000B091881B5A969C9145E050E060E070E043
:1017C000491B51096109710946875787608B718BE5
:1017D000248535854BE0849FC0011124805B944EA5
:1017E00028173907E9F48F01EF012296CE010E94F4
:1017F0004801E091871BF091881B828DF801828F50
:1018000090910E1B981710F480930E1BFBE08F9F96
:10181000C0011124BE01805B944E0E94EA0007C003
:10182000A091871BB091881B5A968C91828FDF9173
:10183000CF911F910F9108950F931F93CF93DF9333
:10184000FC01892B79F182A9815082AB228D91A96B
:10185000291751F181112AC0EF018F010E5F1F4F2F
:10186000C8010E94480189A98A8F45E050E060E0E4
:1018700070E0481B5109610971094E875F87688BC9
:10188000798B90910E1B981710F480930E1B2BE010
:10189000829FC0011124B801805B944E0E94EA002F
:1018A00081E005C080E003C080E001C080E0DF91FE
:1018B000CF911F910F9108958091871B9091881B64
:1018C000892B39F0E091871BF091881B82A98F5FEB
:1018D00082AB8091871B9091881B08950F931F9373
:1018E000CF93DF93CDB7DEB76E970FB6F894DEBF18
:1018F0000FBECDBF0E94BA171F928F9381E192E075
:101900009F938F938E010F5F1F4F1F930F930E9422
:10191000AA1BC8010E94BA16FAD01F928F938EE1BB
:1019200092E09F938F931F930F930E94AA1BC8016D
:101930000E94BA16BED4A7D42FEF89E698E12150B1
:1019400080409040E1F700C00000E3D4A7D4C9D4A0
:101950002FEF89E698E1215080409040E1F700C0E8
:101960000000D7D42FEF83ED90E3215080409040CA
:10197000E1F700C000000FB6F894DEBF0FBECDBF88
:101980006E960FB6F894DEBF0FBECDBFDF91CF913C
:101990001F910F910895789487E690E00E94981621
:1019A000BED466D42FEF83ED90E321508040904069
:1019B000E1F700C000008BE292E00E94BA1684E3D7
:1019C00092E00E94BA1687E492E00E94BA1686DF7F
:1019D00081E01DD99093FD1B8093FC1B40E061E0EA
:1019E0008EE150D890933B1C80933A1C40E061E01C
:1019F0008AE048D89093331C8093321C40E064E026
:101A00008AE040D89093391C8093381CE12CF12C4B
:101A100002E020E030E048EC50E069E572E081E867
:101A200095E184DB20E030E048EC50E06AE772E0CA
:101A300081E196E17BDB20E030E044E650E06FE9B5
:101A400072E08BED92E172DB20E030E040E951E0A2
:101A500069EB72E080E393E169DB88ED92E00E943C
:101A6000BA16B3DBFFCFCF92DF92EF92FF920F93C4
:101A70001F93CF93DF93C82F6B017A0184E059D471
:101A80008C2F80686DD480E06BD4C0E0D0E008C0BB
:101A900086010C0F1D1F80E063D4F801808321961E
:101AA000CE15DF05A8F384E050D4DF91CF911F91CC
:101AB0000F91FF90EF90DF90CF9008951F93CF93F9
:101AC000DF93182FEB0184E034D4812F806848D451
:101AD00080E046D480E044D4888384E036D4DF912B
:101AE000CF911F910895CF93DF93D82FC62F84E015
:101AF00020D48D2F8F7734D48C2F32D484E025D40A
:101B0000DF91CF910895BC0180E0D8CF0895CF93A5
:101B1000DF931F92CDB7DEB7CE010196F4DF81E0EF
:101B20009981903609F080E00F90DF91CF91089570
:101B3000EF92FF920F931F93CF93DF9300D000D0CB
:101B4000CDB7DEB77C018B01BE016F5F7F4F86E0B2
:101B5000FB0111928A95E9F746E050E084E083DFCB
:101B60008B8190E0A0E0B0E0BC01552744279A812A
:101B7000892F90E0A0E0B0E0BA2FA92F982F8827F6
:101B8000842B952BA62BB72B2981822BF7018083E1
:101B90009183A283B3838E8190E0A0E0B0E0BC018A
:101BA000552744279D81892F90E0A0E0B0E0BA2F0F
:101BB000A92F982F8827842B952BA62BB72B2C8108
:101BC000822BF80180839183A283B38326960FB67C
:101BD000F894DEBF0FBECDBFDF91CF911F910F9163
:101BE000FF90EF9008958F929F92AF92BF92CF9205
:101BF000DF92EF92FF920F931F93CF93DF938C01AD
:101C00006091AB1B7091AC1B8091AD1B9091AE1B92
:101C10000E94FB18C4ECDBE1288139814A815B8199
:101C20000E94F9176B017C012C813D814E815F81FF
:101C30000E94B1194B015C01A7019601C701B601D1
:101C40000E94B119288539854A855B850E94B119A2
:101C50009B01AC01C501B4010E94FA17F801608331
:101C6000718382839383DF91CF911F910F91FF90B6
:101C7000EF90DF90CF90BF90AF909F908F9008959E
:101C80004F925F926F927F928F929F92AF92BF928C
:101C9000CF92DF92EF92FF920F931F93CF93DF9338
:101CA000CDB7DEB760970FB6F894DEBF0FBECDBFDD
:101CB0008C0149835A836B837C836091E41B709110
:101CC000E51B8091E61B9091E71B29813A814B81AE
:101CD0005C810E94B1196D837E838F839887C09049
:101CE000E81BD090E91BE090EA1BF090EB1B2981E8
:101CF0003A814B815C81CA01B9010E94B1192B0163
:101D00003C019B01AC01C701B6010E94B119698772
:101D10007A878B879C878090EC1B9090ED1BA0901E
:101D2000EE1BB090EF1BA301920169817A818B8138
:101D30009C810E94B1196B017C019B01AC01C50122
:101D4000B4010E94B1194B015C012091E01B30915C
:101D5000E11B4091E21B5091E31B6D817E818F81DD
:101D600098850E94FA179B01AC0169857A858B855D
:101D70009C850E94FA179B01AC01C501B4010E9429
:101D8000FA1769877A878B879C872091D41B3091BB
:101D9000D51B4091D61B5091D71B69817A818B81CD
:101DA0009C810E94B1194B015C012091D81B30919C
:101DB000D91B4091DA1B5091DB1BC301B2010E9479
:101DC000B1192B013C012091DC1B3091DD1B4091AE
:101DD000DE1B5091DF1BC701B6010E94B1196D8750
:101DE0007E878F87988BC090A71BD090A81BE09010
:101DF000A91BF090AA1BC701B6010E94FB186D83B6
:101E00007E838F8398872091D01B3091D11B409186
:101E1000D21B5091D31BC501B4010E94FA179B013C
:101E2000AC01C301B2010E94FA179B01AC016D85A0
:101E30007E858F8598890E94FA179B01AC016D8180
:101E40007E818F8198850E94B1196D877E878F87EB
:101E5000988BA7019601C701B6010E94791B6D837B
:101E60007E838F8398870E94FB184B015C01409012
:101E7000F01B5090F11B6090F21B7090F31B2091AF
:101E8000F41B3091F51B4091F61B5091F71B6981B3
:101E90007A818B819C810E94B1199B01AC01C301A5
:101EA000B2010E94FA179B01AC01C501B4010E9466
:101EB000B1194B015C01A70196016D817E818F8173
:101EC00098850E94791BC090F81BD090F91BE09078
:101ED000FA1BF090FB1B0E94FB18A70196010E94C1
:101EE000B1199B01AC01C501B4010E94FA176B0145
:101EF0007C012D853E854F85588969857A858B853E
:101F00009C850E94FA179B01AC01C701B6010E9493
:101F1000FA17F801608371838283938360960FB60A
:101F2000F894DEBF0FBECDBFDF91CF911F910F910F
:101F3000FF90EF90DF90CF90BF90AF909F908F90E9
:101F40007F906F905F904F9008950F931F93CF9362
:101F5000DF93EC018B016BEA7BE187EA9BE1E8DD33
:101F6000C80141DEBC01CE018BDEDF91CF911F9114
:101F70000F910895EF92FF920F931F93CF93DF93EA
:101F8000EC01698170E0762F66278881682B0F2E1F
:101F9000FFEAEF2EFBE1FF2EF02DF7017183608346
:101FA00080E090E00E94FB1820E030E040E853E43D
:101FB0000E94B11904EC1BE1F801608371838283F4
:101FC00093836B8170E0762F66278A81682BF701F7
:101FD0007383628380E090E00E94FB1820E030E091
:101FE00040E850E30E94B119F80164837583868349
:101FF00097836C81F7016483062E000C770B880BA6
:10200000990B0E94FD1820E030E040E857E20E9462
:10201000B119F80160877187828793876E8170E0BC
:10202000762F66278D81682BF70176836583705440
:10203000072E000C880B990B0E94FD1820E030E061
:1020400040E855E30E94B119F801648775878687D7
:102050009787688570E0762F66278F81682BF70158
:10206000708767837054072E000C880B990B0E94B1
:10207000FD1820E030E040E051E30E94B119F80182
:10208000608B718B828B938B6985F7016187062E3C
:10209000000C770B880B990B0E94FD1820E030E0B4
:1020A00040E85FE20E94B119F801648B758B868B62
:1020B000978B6A85F7016287062E000C770B880BD9
:1020C000990B0E94FD1820E030E040E05DE20E94A4
:1020D000B119F801608F718F828F938F6C8570E0DA
:1020E000762F66278B85682BF7017487638780E0DE
:1020F00090E00E94FB1820E030E040E051E40E94B4
:10210000B119F801648F758F868F978F6E8570E097
:10211000762F66278D85682BF7017687658780E0A7
:1021200090E00E94FB1820E030E040E85CE30E9471
:10213000B119F80160A371A382A393A36F85F7017E
:102140006787062E000C770B880B990B0E94FD18F1
:1021500020E030E040E85BE30E94B119F80164A39D
:1021600075A386A397A36889F701608B062E000CE0
:10217000770B880B990B0E94FD1820E030E040E0BF
:1021800058E30E94B119F80160A771A782A793A72D
:102190006A8970E0762F66278989682BF701728B30
:1021A000618B072E000C880B990B0E94FD1820E014
:1021B00030E040E857E20E94B119F80164A775A722
:1021C00086A797A76B89F701638B062E000C770B08
:1021D000880B990B0E94FD1820E030E040E857E2A0
:1021E0000E94B119F80160AB71AB82AB93AB6C8903
:1021F000F701648B062E000C770B880B990BFDD72B
:1022000020E030E040E05FE10E94B119F80164ABEA
:1022100075AB86AB97ABDF91CF911F910F91FF907C
:10222000EF9008950F931F93CF93DF93CDB7DEB751
:1022300065970FB6F894DEBF0FBECDBF8E010F5F5E
:102240001F4F85E1F80111928A95E9F745E150E0C9
:10225000B80181E308DCC8018DDE65960FB6F894FD
:10226000DEBF0FBECDBFDF91CF911F910F910895BB
:1022700063E08CE138DC62E08DE135DC63E38BE127
:1022800032DCD0CF0895EAE0F1E080818062808383
:10229000EBE0F1E08081806280830895EAE0F1E084
:1022A00080818F7D8083EBE0F1E080818F7D808372
:1022B0000895EAE0F1E080818061808382E280938A
:1022C00020018BE18093210187E893E1909327011E
:1022D000809326018AEF90E090932B0180932A014E
:1022E0000895EAE0F1E080818061808382E280935A
:1022F00020018BE18093210187E893E190932701EE
:102300008093260184EF91E090932B0180932A0122
:102310000895EAE0F1E080818F7E8083089587E070
:1023200084B988E181B981E58CBD82B1886182B9C7
:10233000089592B121E030E002C0220F331F8A9548
:10234000E2F72095292322B9089592B121E030E0E7
:1023500002C0220F331F8A95E2F7292B22B9089574
:102360008EBD0DB407FEFDCF8EB508950F9300E02E
:102370002FEF3FEFA90160E070E08091FC1B90918E
:10238000FD1B0E944B068091001C811106C081E05C
:102390008093001C86EE92E0EDD400E020E030E077
:1023A000A90160E070E08091FC1B9091FD1B0E94F0
:1023B0006A050F9108950F93CF93DF9300E02FEFFD
:1023C0003FEFA90160E070E08091FC1B9091FD1B44
:1023D0000E944B068091001C8130C1F4CEEFDBE1FE
:1023E00082E08A8382E393E0C5D46B817C818D8116
:1023F0009E8120E030E040E45FE3B3D76093891B27
:1024000070938A1B80938B1B90938C1B00E020E0C1
:1024100030E0A90160E070E08091FC1B9091FD1B11
:102420000E946A05DF91CF910F9108950F9300E00C
:102430002FEF3FEFA90160E070E08091FC1B9091CD
:10244000FD1B0E944B068091001C833081F484E0C8
:102450008093001C82EF92E08DD4EAE0F1E080816D
:1024600080628083EBE0F1E080818062808300E025
:1024700020E030E0A90160E070E08091FC1B9091C9
:10248000FD1B0E946A050F9108950F9300E02FEF46
:102490003FEFA90160E070E08091FC1B9091FD1B73
:1024A0000E944B068091FF1B81111092FF1B00E0E0
:1024B00020E030E0A90160E070E08091FC1B909189
:1024C000FD1B0E946A050F9108950F9300E02FEF06
:1024D0003FEFA90160E070E08091FC1B9091FD1B33
:1024E0000E944B068091001C8230A1F48CEF92E098
:1024F00041D483E08093001C8EE093E03BD4D9DE8E
:102500002FE38DE093E0215080409040E1F700C040
:102510000000FFDE00E020E030E0A90160E070E0B4
:102520008091FC1B9091FD1B0E946A050F910895FC
:10253000CF93DF93CDB7DEB728970FB6F894DEBF01
:102540000FBECDBFBE016B5F7F4FCE010196FDDC9C
:102550001092341C1092351C1092361C1092371CAD
:1025600069817A818B819C8120E836EE45EC57E4C5
:10257000A9D521E03EED42E45EE356D79B01AC01D4
:1025800060E070E080E89FE334D520E03AE24DE27D
:1025900057E4E7D660938D1B70938E1B80938F1B3F
:1025A0009093901B28960FB6F894DEBF0FBECDBF58
:1025B000DF91CF910895CF93DF931F92CDB7DEB710
:1025C000EEEFFBE181E08183128200E02FEF3FEF2D
:1025D000A901BE016F5F7F4F8091321C9091331C27
:1025E0000E944B06813089F7E981F0E0EE0FFF1F72
:1025F000E050FE4F0190F081E02D1995E6CFCF938A
:102600009B01AC016091341C7091351C8091361C8B
:102610009091371CEED4C1E020E030E040EA50E475
:102620009CD618160CF0C0E08C2FCF910895CF9354
:102630009B01AC016091341C7091351C8091361C5B
:102640009091371CD6D49F77C1E020E030E040E085
:102650005FE334D588230CF0C0E08C2FCF91089530
:10266000CF92DF92EF92FF920F931F93CF93DF935E
:10267000CDB7DEB7C154D1090FB6F894DEBF0FBE97
:10268000CDBF1092341C1092351C1092361C109243
:10269000371C00E02FEF3FEFA90160E070E0809170
:1026A000FC1B9091FD1B0E944B0687EA91E6019767
:1026B000F1F700C00000BE016B5F7F4FCE010196B5
:1026C00044DC8091FF1B81111AC02FEF3FEFA9015D
:1026D000BE016F5F7F4F8091381C9091391C0E9422
:1026E0004B06813061F020E030E0A90160E070E04D
:1026F0008091FC1B9091FD1B0E946A050EC16981AF
:102700007A818B819C810EEF1BE1F80167837087D2
:102710008187928720E836EE45EC57E4D3D421E058
:102720003EED42E45EE380D69B01AC0160E070E0E8
:1027300080E89FE35ED420E03AE24DE257E411D610
:1027400020918D1B30918E1B40918F1B5091901BBF
:1027500050D4F8016383748385839683CD80DE80B3
:10276000EF80F884C386D486E586F686C984DA8449
:10277000EB84FC84C786D08AE18AF28ACD84DE8429
:10278000EF84F888C38AD48AE58AF68AC988DA8809
:10279000EB88FC88C78AD08EE18EF28ECD88DE88E9
:1027A000EF88F88CC38ED48EE58EF68EC98CDA8CC9
:1027B000EB8CFC8CC78ED0A2E1A2F2A2CD8CDE8C79
:1027C000EF8CF8A0C3A2D4A2E5A2F6A2C9A0DAA019
:1027D000EBA0FCA0C7A2D0A6E1A6F2A6CDA0DEA0E9
:1027E000EFA0F8A4C3A6D4A6E5A6F6A6C9A4DAA4C9
:1027F000EBA4FCA4C7A6D0AAE1AAF2AACBD47F93EB
:102800006F9380E293E09F938F937E01FEE2EF0E41
:10281000F11CFF92EF929ED7C701ACD2F801638101
:10282000748185819681EBDE0F900F900F900F9051
:102830000F900F90882391F08FE293E09BD281E07C
:102840008DA700E02FEF3FEFA901BE01635D7F4F31
:102850008091321C9091331C0E946A056091011C8A
:102860007091021C8091031C9091041C2091891B83
:1028700030918A1B40918B1B50918C1B1FD4882355
:102880007CF482E08DA700E02FEF3FEFA901BE01AD
:10289000635D7F4F8091321C9091331C0E946A05CA
:1028A0006091011C7091021C8091031C9091041C8A
:1028B000BEDE882379F083E08DA700E02FEF3FEFA5
:1028C000A901BE01635D7F4F8091321C9091331C42
:1028D0000E946A058091011C9091021CA091031C2A
:1028E000B091041C8093341C9093351CA093361C2B
:1028F000B093371C00E020E030E0A90160E070E018
:102900008091FC1B9091FD1B0E946A0568EE73E0AC
:1029100080E090E00E94540ABCCECF5BDF4F0FB640
:10292000F894DEBF0FBECDBFDF91CF911F910F9105
:10293000FF90EF90DF90CF900895AC0120E030E061
:1029400080E007C0FA01E20FF31F908189272F5F13
:102950003F4F26173707B0F308959C0140E050E041
:1029600080E007C0F901E40FF51F908189274F5FD0
:102970005F4F41155105B1F340E050E008C0F90147
:102980003196E40FF51F908189274F5F5F4F411506
:102990005105A9F340E050E008C0F9013296E40F78
:1029A000F51F908189274F5F5F4F41155105A9F3AE
:1029B00040E050E008C0F9013396E40FF51F908124
:1029C00089274F5F5F4F44305105A8F340E050E046
:1029D00008C0F9013796E40FF51F908189274F5FF2
:1029E0005F4F44305105A8F340E050E008C0F901C2
:1029F0003B96E40FF51F908189274F5F5F4F44306E
:102A00005105A8F340E050E008C0F9013F96E40FFB
:102A1000F51F908189274F5F5F4F44305105A8F320
:102A200040E050E008C0F9017396E40FF51F908173
:102A300089274F5F5F4F44305105A8F340E050E0D5
:102A400008C0F9017796E40FF51F908189274F5F41
:102A50005F4F44305105A8F340E050E008C0F90151
:102A60007B96E40FF51F908189274F5F5F4F4430BD
:102A70005105A8F340E050E008C0F9017F96E40F4B
:102A8000F51F908189274F5F5F4F44305105A8F3B0
:102A900040E050E008C0F901B396E40FF51F9081C3
:102AA00089274F5F5F4F44305105A8F340E050E065
:102AB00008C0F901B796E40FF51F908189274F5F91
:102AC0005F4F44305105A8F340E050E008C0F901E1
:102AD000BB96E40FF51F908189274F5F5F4F44300D
:102AE0005105A8F340E050E008C0F901BF96E40F9B
:102AF000F51F908189274F5F5F4F44305105A8F340
:102B00000895CF93DF931F921F92CDB7DEB78FEF5B
:102B100089838AE08A8300E02FEF3FEFA90160E01C
:102B200070E08091FC1B9091FD1B0E944B068091F0
:102B3000911B91E0980F9093911B0EEF1BE1F80110
:102B40008083C8010ADFF80183AB61E070E0CE0149
:102B500001961CD161E070E0C80118D161E070E01D
:102B60008FEF9BE113D161E070E080E09CE10ED13A
:102B700064E070E081E09CE109D164E070E085E010
:102B80009CE104D164E070E089E09CE1FFD064E066
:102B900070E08DE09CE1FAD064E070E081E19CE1BE
:102BA000F5D064E070E085E19CE1F0D064E070E095
:102BB00089E19CE1EBD064E070E08DE19CE1E6D03E
:102BC00064E070E081E29CE1E1D064E070E085E2E5
:102BD0009CE1DCD064E070E089E29CE1D7D064E065
:102BE00070E08DE29CE1D2D061E070E081E39CE195
:102BF000CDD061E070E0CE010296C8D000E020E0C8
:102C000030E0A90160E070E08091FC1B9091FD1B19
:102C10000E946A0568EE73E080E090E00E94540A2A
:102C20007ACFCF93DF93CDB7DEB768970FB6F8941E
:102C3000DEBF0FBECDBFCE010196BBD0098110E033
:102C4000FA80B801CE01029678DE0F5F1F4FE1E0F7
:102C5000F0E0EC0FFD1FE00FF11F908189135EC0C3
:102C600082E0F816E1F08F1520F081E0F81641F0CF
:102C70004CC083E0F81649F184E0F816B1F145C084
:102C80001D8A00E02FEF3FEFA901BE016B5E7F4F71
:102C90008091321C9091331C0E946A0542C08B8146
:102CA0009C81AD81BE818D8B9E8BAF8BB88F00E0F8
:102CB0002FEF3FEFA901BE016B5E7F4F8091381C63
:102CC0009091391C0E946A052CC084E08D8B00E035
:102CD0002FEF3FEFA901BE016B5E7F4F8091321C49
:102CE0009091331C0E946A051CC085E08D8B00E02A
:102CF0002FEF3FEFA901BE016B5E7F4F8091321C29
:102D00009091331C0E946A050CC08DE393E032D091
:102D100064E170E0CE010196F9D003C085E593E04F
:102D200029D068EE73E080E090E00E94540A83CFDF
:102D30009093C5008093C40028E12093C10026E051
:102D40002093C2009093CD008093CC0088E98093BB
:102D5000C9002093CA0008959091C00095FFFCCF50
:102D60008093C60008959091C80095FFFCCF809392
:102D7000CE000895CF93DF93EC0102C0EDDF2196E2
:102D800088818111FBCFDF91CF9108950F931F931D
:102D9000CF93DF93EC018C01060F171F02C08991BE
:102DA000E2DFC017D107D8F3DF91CF911F910F91C8
:102DB0000895CF92DF92EF92FF920F93CF93DF931C
:102DC0001F92CDB7DEB76C0100E02FEF3FEFA901F6
:102DD000BE016F5F7F4F80913A1C90913B1C0E9417
:102DE0004B06813089F789818F3F71F7E12CF12CF7
:102DF00000E02FEF3FEFA901BE016F5F7F4F809191
:102E00003A1C90913B1C0E944B0689818A3039F014
:102E1000F601EE0DFF1D8083C70101967C018981BB
:102E20008A3031F7F601EE0DFF1D10820F90DF9111
:102E3000CF910F91FF90EF90DF90CF9008951F9268
:102E40000F920FB60F9211240BB60F922F933F9350
:102E50004F935F936F937F938F939F93AF93BF93A2
:102E6000EF93FF93CF93DF931F921F92CDB7DEB7FF
:102E70008091CE0089831A8220E0AE014E5F5F4FC1
:102E8000BE016F5F7F4F80913A1C90913B1C0E9466
:102E900013068A8181110E9467030F900F90DF91C2
:102EA000CF91FF91EF91BF91AF919F918F917F91C2
:102EB0006F915F914F913F912F910F900BBE0F90AB
:102EC0000FBE0F901F9018951F920F920FB60F9282
:102ED00011240BB60F928F939F93EF93FF938091E2
:102EE000D600E091921B91E09E0F9093921BF0E030
:102EF000ED56F44E8083FF91EF919F918F910F904B
:102F00000BBE0F900FBE0F901F9018950F931F933D
:102F1000CF93DF93EC018C01060F171F02C089913C
:102F20001BDFC017D107D8F3DF91CF911F910F910D
:102F30000895EF92FF920F931F93CF93DF937C013D
:102F40008B01EA0183E0F5D98FE90ADA80E008DA3B
:102F5000F701808380E004DAF801808380E000DA02
:102F6000888383E0F2D9DF91CF911F910F91FF9079
:102F7000EF9008950F931F93CF93DF93CDB7DEB7F4
:102F8000A1970FB6F894DEBF0FBECDBFAE014D5F67
:102F90005F4FBE016E5F7F4FCE010196CADF8B810E
:102FA0001F928F938A811F928F9389811F928F9393
:102FB00082E793E09F938F938E010C5F1F4F1F93C7
:102FC0000F93C8D3C801D6DE81E00FB6F894DEBFF8
:102FD0000FBECDBF99819F3E09F080E0A1960FB64C
:102FE000F894DEBF0FBECDBFDF91CF911F910F913F
:102FF00008955058BB27AA270ED075C166D130F06E
:103000006BD120F031F49F3F11F41EF45BC10EF43C
:10301000E095E7FB51C1E92F77D180F3BA1762073A
:1030200073078407950718F071F49EF58FC10EF4AD
:10303000E0950B2EBA2FA02D0B01B90190010C01C8
:10304000CA01A0011124FF27591B99F0593F50F4E0
:10305000503E68F11A16F040A22F232F342F442738
:10306000585FF3CF469537952795A795F040539530
:10307000C9F77EF41F16BA0B620B730B840BBAF000
:103080009150A1F0FF0FBB1F661F771F881FC2F76B
:103090000EC0BA0F621F731F841F48F4879577957F
:1030A0006795B795F7959E3F08F0B3CF9395880F36
:1030B00008F09927EE0F979587950895D9D008F4D1
:1030C00081E008950CD00FC107D140F0FED030F060
:1030D00021F45F3F19F0F0C0511139C1F3C014D190
:1030E00098F39923C9F35523B1F3951B550BBB27CF
:1030F000AA2762177307840738F09F5F5F4F220F7C
:10310000331F441FAA1FA9F333D00E2E3AF0E0E874
:1031100030D091505040E695001CCAF729D0FE2FC0
:1031200027D0660F771F881FBB1F26173707480752
:10313000AB07B0E809F0BB0B802DBF01FF27935808
:103140005F4F2AF09E3F510568F0B6C000C15F3F57
:10315000ECF3983EDCF3869577956795B795F795F0
:103160009F5FC9F7880F911D9695879597F90895E8
:10317000E1E0660F771F881FBB1F62177307840784
:10318000BA0720F0621B730B840BBA0BEE1F88F793
:10319000E095089504D06894B111D9C00895BCD0C9
:1031A00088F09F5790F0B92F9927B751A0F0D1F030
:1031B000660F771F881F991F1AF0BA95C9F712C0BA
:1031C000B13081F0C3D0B1E00895C0C0672F782F2F
:1031D0008827B85F39F0B93FCCF386957795679526
:1031E000B395D9F73EF490958095709561957F4F92
:1031F0008F4F9F4F0895E89409C097FB3EF4909538
:103200008095709561957F4F8F4F9F4F9923A9F0BF
:10321000F92F96E9BB279395F6958795779567954E
:10322000B795F111F8CFFAF4BB0F11F460FF1BC092
:103230006F5F7F4F8F4F9F4F16C0882311F096E925
:1032400011C0772321F09EE8872F762F05C06623D3
:1032500071F096E8862F70E060E02AF09A95660F8C
:10326000771F881FDAF7880F9695879597F9089545
:10327000990F0008550FAA0BE0E8FEEF1616170687
:10328000E807F907C0F012161306E407F50798F0EF
:10329000621B730B840B950B39F40A2661F0232B08
:1032A000242B252B21F408950A2609F4A140A69584
:1032B0008FEF811D811D089597F99F6780E870E069
:1032C00060E008959FEF80EC089500240A9416169C
:1032D000170618060906089500240A941216130604
:1032E000140605060895092E0394000C11F4882392
:1032F00052F0BB0F40F4BF2B11F460FF04C06F5FAE
:103300007F4F8F4F9F4F089557FD9058440F551F83
:1033100059F05F3F71F04795880F97FB991F61F057
:103320009F3F79F087950895121613061406551FCE
:10333000F2CF4695F1DF08C0161617061806991F3A
:10334000F1CF86957105610508940895E894BB272F
:1033500066277727CB0197F908958ADF08F48FEF66
:1033600008950BD0C0CFB1DF28F0B6DF18F0952359
:1033700009F0A2CFA7CF1124EACFC6DFA0F3959F13
:10338000D1F3950F50E0551F629FF001729FBB274C
:10339000F00DB11D639FAA27F00DB11DAA1F649FF8
:1033A0006627B00DA11D661F829F2227B00DA11DAB
:1033B000621F739FB00DA11D621F839FA00D611D31
:1033C000221F749F3327A00D611D231F849F600D52
:1033D000211D822F762F6A2F11249F5750408AF08B
:1033E000E1F088234AF0EE0FFF1FBB1F661F771F17
:1033F000881F91505040A9F79E3F510570F05CCF57
:10340000A6CF5F3FECF3983EDCF386957795679502
:10341000B795F795E7959F5FC1F7FE2B880F911D34
:103420009695879597F90895FA01EE0FFF1F30964C
:103430002105310599F16115710561F48038BFE30B
:103440009B0749F168949038810561F08038BFEF9F
:103450009B0741F0992342F5FF3FE1053105210526
:1034600011F1E8940894E795D901AA2329F4AB2F28
:10347000BE2FF85FD0F310C0FF5F70F4A695E0F7A1
:10348000F73950F019F0FF3A38F49F779F930CD03A
:103490000F9007FC905808953EF014CF60E070E064
:1034A00080E89FE308954FE79F775F934F933F93A3
:1034B0002F939ED02F913F914F915F9152DF05C086
:1034C00019F40EF0F9CE42CFFDCE26DFC8F39638C0
:1034D000C0F707F80F92E8942BE33AEA48EB5FE76E
:1034E0004EDF0F920F920F924DB75EB70F92C0D082
:1034F000E4EEF0E016D04F915F91EF91FF91E595EA
:10350000EE1FFF1F49F0FE57E0684427EE0F441FEF
:10351000FA95E1F74195550B32D00F9007FE26C082
:103520000895DF93CF931F930F93FF92EF92DF9253
:103530007B018C01689405C0DA2EEF011EDFFE01CD
:10354000E894A5912591359145915591AEF3EF0100
:1035500062DDFE019701A801DA9479F7DF90EF9020
:10356000FF900F911F91CF91DF9108959B01AC01C6
:1035700060E070E080E89FE3A5CD9ECEACC0CCDEDD
:10358000E8F39923D9F3940F511DBBF391505040A8
:1035900094F059F0882332F0660F771F881F9150FE
:1035A0005040C1F79E3F510544F7880F911D9695F5
:1035B000879597F908955F3FACF0983E9CF0BB2744
:1035C000869577956795B79508F4B1609395C1F79F
:1035D000BB0F58F711F460FFE8CF6F5F7F4F8F4F3D
:1035E0009F4FE3CFB4CE0EF076C06CCE689464CE1D
:1035F00093DEC8F39923D1F3C6F3DF93CF931F93E0
:103600000F93FF92C92FDD2788232AF02197660F99
:10361000771F881FDAF720E030E040E85FEB9FE398
:10362000883920F0803E30F021968F77E3DCECE0A3
:10363000F1E003C0DFDCE9E3F1E073DF8B01BE0101
:10364000EC01FB2E6F5771097595771F880B990B4D
:10365000D4DD28E132E741E35FE38FDEAF2D98014F
:10366000AE01FF900F911F91CF91DF91D4DC3BCE43
:10367000FA01DC01AA0FBB1F9B01AC01BF5728F464
:1036800022273327442750781FC0B75188F4AB2F27
:103690000024469537952795011CA395D2F3002069
:1036A00069F0220F331F441FB395DAF30DD0A1CC7C
:1036B00061307105A0E88A07B94630F49B01AC017E
:1036C0006627772788279078309621F020833183EA
:1036D0004283538308959F3F31F0915020F48795A2
:1036E00077956795B795880F911D9695879597F96A
:1036F0000895DB018F939F930BD0BF91AF91A29F51
:10370000800D911DA39F900DB29F900D11240895DF
:1037100009D0A59F900DB49F900DA49F800D911D81
:1037200011240895A29FB001B39FC001A39F700D03
:10373000811D1124911DB29F700D811D1124911DB9
:103740000895FB01DC0102C001900D9241505040F0
:10375000D8F708950F931F93CF93DF93CDB7DEB7BC
:103760002E970FB6F894DEBF0FBECDBF0E891F890E
:1037700086E08C831A8309838FEF9FE79E838D8376
:10378000AE01465E5F4F688D798DCE01019610D0F7
:10379000EF81F885E00FF11F10822E960FB6F89496
:1037A000DEBF0FBECDBFDF91CF911F910F91089566
:1037B0002F923F924F925F926F927F928F929F9241
:1037C000AF92BF92CF92DF92EF92FF920F931F932F
:1037D000CF93DF93CDB7DEB72B970FB6F894DEBF4C
:1037E0000FBECDBF6C017B018A01FC0117821682DE
:1037F000838181FFBFC1CE0101963C01F601938117
:10380000F70193FD859193FF81917F01882309F44E
:10381000ADC1853239F493FD859193FF81917F018C
:10382000853221F4B60190E0D6D1E8CF912C212C3D
:10383000312CFFE1F315D8F08B3279F038F4803277
:1038400079F08332A1F4232D20611DC08D3261F007
:10385000803369F4232D216016C0832D8260382EB9
:10386000E32DE4603E2E2AC0F32DF8601DC037FC26
:103870002DC020ED280F2A3040F08E32B9F436FCEE
:1038800075C1232D2064322E19C036FE06C08AE091
:10389000989E200D1124922E11C0EAE02E9E200D3C
:1038A0001124222EF32DF0623F2E08C08C3621F415
:1038B000832D8068382E02C0883641F4F70193FDCD
:1038C000859193FF81917F018111B3CF982F9F7DC7
:1038D0009554933028F40C5F1F4F9FE399830DC0DC
:1038E000833631F0833771F0833509F055C020C03D
:1038F000F801808189830E5F1F4F88248394912C67
:10390000530112C02801F2E04F0E511CF801A080B3
:10391000B18036FE03C0692D70E002C06FEF7FEF0B
:10392000C5014ED14C018201F32DFF773F2E15C00A
:10393000280122E0420E511CF801A080B18036FE21
:1039400003C0692D70E002C06FEF7FEFC5012DD17C
:103950004C01F32DF0683F2E820133FC19C0822DFB
:1039600090E088169906A0F4B60180E290E033D189
:103970002A94F5CFF50137FC859137FE81915F01DF
:10398000B60190E028D121102A9421E0821A9108F2
:103990008114910479F7E1C0843611F0893639F544
:1039A000F80137FE07C060817181828193810C5FCD
:1039B0001F4F08C060817181072E000C880B990B86
:1039C0000E5F1F4FF32DFF763F2E97FF09C0909596
:1039D0008095709561957F4F8F4F9F4FF0683F2E78
:1039E0002AE030E0A30133D1882E861844C0853701
:1039F00031F4232D2F7EB22E2AE030E025C0932D06
:103A0000997FB92E8F36C1F018F4883579F0AEC0A1
:103A1000803719F0883721F0A9C0E92FE061BE2E68
:103A2000B4FE0DC0FB2DF460BF2E09C034FE0AC0E9
:103A3000292F2660B22E06C028E030E005C020E124
:103A400030E002C020E132E0F801B7FE07C060813B
:103A50007181828193810C5F1F4F06C060817181EB
:103A600080E090E00E5F1F4FA301F1D0882E8618F2
:103A7000FB2DFF773F2E36FE0DC0232D2E7FA22E6D
:103A8000891458F434FE0BC032FC09C0832D8E7E9D
:103A9000A82E05C0B82CA32C03C0B82C01C0B92C8B
:103AA000A4FE0FC0FE01E80DF11D8081803321F4DA
:103AB0009A2D997EA92E09C0A2FE06C0B394B39494
:103AC00004C08A2D867809F0B394A3FC10C0A0FE30
:103AD00006C0B21480F4280C922C9B180DC0B214AE
:103AE00058F4B60180E290E076D0B394F8CFB214E7
:103AF00018F42B1802C0982C212CA4FE0FC0B6017C
:103B000080E390E068D0A2FE16C0A1FC03C088E765
:103B100090E002C088E590E0B6010CC08A2D86785E
:103B200051F0A1FE02C08BE201C080E2A7FC8DE251
:103B3000B60190E050D0891430F4B60180E390E0F3
:103B40004AD09A94F8CF8A94F301E80DF11D808150
:103B5000B60190E040D08110F6CF222009F44ECE7D
:103B6000B60180E290E037D02A94F7CFF601868143
:103B7000978102C08FEF9FEF2B960FB6F894DEBFB0
:103B80000FBECDBFDF91CF911F910F91FF90EF90AE
:103B9000DF90CF90BF90AF909F908F907F906F906D
:103BA0005F904F903F902F900895FC0105906150D9
:103BB00070400110D8F7809590958E0F9F1F089543
:103BC000FC016150704001900110D8F780959095EC
:103BD0008E0F9F1F08950F931F93CF93DF93FB01C9
:103BE000238121FD03C08FEF9FEF2CC022FF16C061
:103BF00046815781248135814217530744F4A081BF
:103C0000B1819D012F5F3F4F318320838C932681AB
:103C100037812F5F3F4F3783268314C08B01EC0120
:103C2000FB010084F185E02D1995892BE1F6D8017F
:103C300016968D919C911797019617969C938E934B
:103C40001697CE01DF91CF911F910F910895FA0140
:103C5000AA27283051F1203181F1E8946F936E7FCB
:103C60006E5F7F4F8F4F9F4FAF4FB1E03ED0B4E0BC
:103C70003CD0670F781F891F9A1FA11D680F791FFD
:103C80008A1F911DA11D6A0F711D811D911DA11D0E
:103C900020D009F468943F912AE0269F112430191E
:103CA000305D3193DEF6CF010895462F4770405DB9
:103CB0004193B3E00FD0C9F7F6CF462F4F70405D68
:103CC0004A3318F0495D31FD4052419302D0A9F7C3
:103CD000EACFB4E0A6959795879577956795BA95BD
:103CE000C9F700976105710508959B01AC010A2E83
:103CF00006945795479537952795BA95C9F7620F5A
:0E3D0000731F841F951FA01D0895F894FFCF18
:103D0E00B611DB11651216124512981249444C4534
:103D1E00005732355133323A2025640D0A00424D98
:103D2E00503339303A2025640D0A004361745361D3
:103D3E00740D0A002D2D2D2D2D2D2D2D2D2D2D2DCE
:103D4E002D2D2D2D0D0A00496E697469616C697AED
:103D5E00696E672E2E2E0D0A005461736B20746FE0
:103D6E002073656E642074656C656D657472792060
:103D7E00746F2067726F756E64005461736B20747C
:103D8E006F207265636569766520636F6D6D616E18
:103D9E0064732066726F6D2067726F756E64005467
:103DAE0061736B20746F2068616E646C6520616C4A
:103DBE006C206576656E7473005461736B20746F3E
:103DCE00207265616420646174612066726F6D207B
:103DDE0073656E736F7273005374617274696E677C
:103DEE002E2E2E0D0A004C61756E63686564210DD2
:103DFE000A004C616E646564210D0A0072656C6583
:103E0E006173652068616E646C65720D0A00507294
:103E1E006F62652052656C6561736564210D0A00E1
:103E2E00416C7469747564653A2025640D0A004905
:103E3E00732046616C6C696E67210D0A00536F6DBD
:103E4E00657468696E672077656E742077726F6E21
:103E5E0067210D0A0044726F7070656420616E20D8
:103E6E00696E76616C6964207061636B65742E0D8A
:103E7E000A004A454445432049443A2025782025E6
:063E8E00782025780000F9
:00000001FF
