S00B00006F62632E73726563E5
S1130000B2C00000D1C00000CFC00000CDC00000CD
S1130010CBC00000C9C00000C7C00000C5C00000BC
S1130020C3C00000C1C00000BFC00000BDC00000CC
S1130030BBC00000B9C00000B7C00000B5C00000DC
S1130040B3C0000006C40000AFC00000ADC0000093
S1130050ABC00000A9C00000A7C00000A5C00000FC
S1130060A3C00000A1C000009FC000009DC000000C
S11300709BC0000099C0000097C0000095C000001C
S113008093C0000091C000008FC000008DC000002C
S11300900C94D01989C0000087C0000085C00000FE
S11300A083C0000081C000007FC000007DC000004C
S11300B07BC0000079C0000077C0000075C000005C
S11300C073C0000071C000006FC000000C94151ACA
S11300D06BC0000069C0000067C0000065C000007C
S11300E063C0000007634236B79BD8A71A39685625
S11300F018AEBAAB558C1D3CB7CC5763BD6DEDFD46
S1130100753EF6177231BF000000803F0800000002
S1130110BE922449123EABAAAA2ABECDCCCC4C3EF8
S113012000000080BEABAAAAAA3E00000000BF00E7
S11301300000803F0000000000084178D3BB4387E3
S1130140D1133D190E3CC3BD4282AD2B3E68EC82F7
S113015076BED98FE1A93E4C80EFFFBE01C4FF7F7C
S11301603F000000000011241FBECFEFD1E2DEBF2C
S1130170CDBF00E00CBF14E0A0E0B2E0E8E7F7E494
S113018000E00BBF02C007900D92A433B107D9F76A
S11301902EE1A4E3B4E001C01D92A939B207E1F74E
S11301A00E94F00C0C94BA232BCFFC01039692838B
S11301B081834FEF5FEFBA01438354836583768372
S11301C0908787839287818710820895FC01138624
S11301D012860895CF93DF939C01FB01DC011196F5
S11301E0CD91DC911297D583C4838E819F819783AF
S11301F086838E819F81DC0115967C936E93149780
S11302007F836E8333872287F90180818F5F8083A8
S1130210DF91CF9108950F931F93CF93DF93EB0159
S1130220088119812A813B810F3F4FEF140724076E
S1130230340721F4FC01A185B28511C0DC011396B9
S113024001C0DF011496ED91FC9115974081518115
S113025062817381041715072607370790F71496F0
S1130260ED91FC911597FD83EC83D783C683BF83FF
S1130270AE831596DC93CE9314979B878A87FC01F3
S113028020812F5F2083DF91CF911F910F910895DB
S1130290CF93DF93FC01A285B385C481D581868188
S11302A097819F838E83C681D781848195819D8325
S11302B08C8311968D919C911297E817F90731F46C
S11302C08681978112969C938E931197138612863A
S11302D08C9181508C93DF91CF910895CF93DF93CC
S11302E0E0E4F4E0ACE3B4E01196FC93EE931396EF
S11302F01C921E921297CF010F2E000CAA0BBB0B5F
S11303008459984EAF4FBF4FEC0190933B048093B8
S11303103A041B821A82198218829C0120543440A8
S1130320338322839183808330933704209336046C
S1130330309339042093380480E090E89093350496
S113034080933404DF91CF910895CF93DF93EC0130
S1130350ACE3B4E001C0DF01ED91FC911197EC171F
S1130360FD07C8F312968D919C9113979D01280F58
S1130370391FC217D30749F42A813B81820F931F87
S113038013969C938E931297ED018A819B819E0113
S1130390280F391FE217F307C1F420913A04309172
S11303A03B04E217F30771F022813381820F931F1C
S11303B09B838A83ED91FC9111978081918199832C
S11303C0888305C03983288302C0F983E883CA1768
S11303D0DB0711F0CD93DC93DF91CF910895EF9279
S11303E0FF920F931F93CF93DF938C011FD78091BC
S11303F03A0490913B04892B09F470DF8091340412
S11304009091350480239123892B09F066C001154E
S1130410110511F00C5F1F4F0115110509F460C09F
S113042080913804909139048017910708F45BC0D7
S1130430C0913C04D0913D04ECE3F4E002C0FE0121
S1130440EC018A819B818017910720F4888199812E
S11304500097A9F780913A0490913B04C817D907F3
S113046009F444C0E080F18084E0E80EF11C888146
S11304709981918380832A813B81201B310B293010
S1130480310548F0CE01800F911FFC013383228394
S11304901B830A835ADF2A813B818091380490911F
S11304A03904821B930B9093390480933804409150
S11304B03604509137048417950720F49093370439
S11304C0809336048091340490913504282B392B81
S11304D03B832A83198218820BC0E12CF12C08C0BB
S11304E0E12CF12C05C0E12CF12C02C0E12CF12C03
S11304F072D7C701DF91CF911F910F91FF90EF90B9
S113050008950F931F93CF93DF93009739F1EC0174
S113051024974A815B812091340430913504BA01D7
S113052062237323672BD1F068817981672BB1F43F
S113053020953095242335233B832A8377D68A81DB
S11305409B812091380430913904820F931F90933A
S1130550390480933804CE01F8DE3DD7DF91CF9182
S11305601F910F9108951092890089EF809388005C
S1130570109280008BE080938100EFE6F0E08081B0
S113058082608083089531E1FC013083319722E257
S113059020833197A3E3A0833197608331977083DD
S11305A03197108231971082319760E860833197D8
S11305B010823197108231971082319762E0608304
S11305C0319763E06083319764E06083319765E03D
S11305D06083319766E06083319767E06083319789
S11305E068E06083319769E06083319760E16083FC
S11305F031973083319732E13083319733E130835F
S1130600319734E13083319735E13083319736E1E6
S11306103083319737E13083319738E13083319734
S113062039E13083319730E23083319731E23083DE
S113063031972083319723E2208331974083319788
S11306405083319726E22083319727E22083319724
S113065028E22083319729E22083319720E3208305
S1130660319721E32083899708957DDFA091351C7C
S1130670B091361CCD91CDBFDD91DEBFFF91EF91DE
S1130680DF91CF91BF91AF919F918F917F916F91A6
S11306905F914F913F912F911F910F91FF90EF9098
S11306A0DF90CF90BF90AF909F908F907F906F908E
S11306B05F904F903F902F901F900F900CBE0F9023
S11306C00BBE0F900FBE0F90089581E008950F9216
S11306D00FB6F8940F920BB60F920CB60F921F92AE
S11306E011242F923F924F925F926F927F928F923A
S11306F09F92AF92BF92CF92DF92EF92FF920F93AD
S11307001F932F933F934F935F936F937F938F9395
S11307109F93AF93BF93CF93DF93EF93FF93A091F6
S1130720351CB091361C0DB60D920EB60D9208D73D
S1130730A091351CB091361CCD91CDBFDD91DEBFAB
S1130740FF91EF91DF91CF91BF91AF919F918F91E5
S11307507F916F915F914F913F912F911F910F91D5
S1130760FF90EF90DF90CF90BF90AF909F908F90CD
S11307707F906F905F904F903F902F901F900F90BD
S11307800CBE0F900BBE0F900FBE0F9008950F92EA
S11307900FB6F8940F920BB60F920CB60F921F92ED
S11307A011242F923F924F925F926F927F928F9279
S11307B09F92AF92BF92CF92DF92EF92FF920F93EC
S11307C01F932F933F934F935F936F937F938F93D5
S11307D09F93AF93BF93CF93DF93EF93FF93A09136
S11307E0351CB091361C0DB60D920EB60D9224D563
S11307F08111A6D6A091351CB091361CCD91CDBFE8
S1130800DD91DEBFFF91EF91DF91CF91BF91AF9169
S11308109F918F917F916F915F914F913F912F9114
S11308201F910F91FF90EF90DF90CF90BF90AF900A
S11308309F908F907F906F905F904F903F902F90FC
S11308401F900F900CBE0F900BBE0F900FBE0F9019
S113085008959DDF18950FB6F8940F92FC01868DCC
S1130860811102C081E001C080E00F900FBE0895A5
S11308700FB6F8940F92FC01268D878D281302C0C1
S113088081E001C080E00F900FBE08950F931F9385
S1130890CF93DF93EC01042F1E8D48A141110BC0AF
S11308A088819981892B09F041C08A819B81C4D7B1
S11308B01B821A8242C0011117C050E08C819D81B5
S11308C00E94D62028A18C819D81820F911D9D8339
S11308D08C832A813B818217930750F18881998107
S11308E09D838C8380E029C050E08E819F810E948B
S11308F0D62088A190E09195819591092E813F8120
S1130900280F391F3F832E834881598124173507C7
S113091030F42A813B81820F931F9F838E830230A0
S113092049F4112349F0115080E007C080E005C06C
S113093080E003C080E001C080E01F5F1E8FDF9174
S1130940CF911F910F910895FC0140A14423A9F078
S113095050E026813781240F351F37832683828117
S113096093812817390720F08081918197838683AA
S1130970CB01668177810C94D62008951F93CF9381
S1130980DF93EC010FB6F8940F921AA109C08B897A
S1130990882341F0CE01439634D68111EBD6115011
S11309A01116ACF38FEF8AA30F900FBE0FB6F89415
S11309B00F9219A109C08885882341F0CE010896B9
S11309C020D68111D7D611501116ACF38FEF89A31D
S11309D00F900FBEDF91CF911F910895CF93DF93B6
S11309E0EC010FB6F8940F92E881F9818F8D90E0B5
S11309F028A130E0829FA001839F500D929F500D4B
S1130A0011244E0F5F1F5B834A831E8EFD83EC838C
S1130A100197289FA001299F500D389F500D112444
S1130A20CF01840F951F9F838E838FEF89A38AA3A1
S1130A3061110AC08885882369F0CE010896E1D542
S1130A40882341F044DE06C0CE010896AEDBCE0119
S1130A504396ABDB0F900FBE81E0DF91CF910895F9
S1130A600F931F93F801611103C01183008302C027
S1130A7051834083878F60A361E0CF01AFDF1F9173
S1130A800F910895DF92EF92FF920F931F93CF93EC
S1130A90DF93E82EF62ED42E662321F0869FC00124
S1130AA0112402C080E090E0839699DCEC01009769
S1130AB041F08C012D2DAC014D5D5F4F6F2D8E2DBE
S1130AC0CFDFCE01DF91CF911F910F91FF90EF9077
S1130AD0DF900895CF92DF92EF92FF920F931F93CE
S1130AE0CF93DF93CDB7DEB729970FB6F894DEBF67
S1130AF00FBECDBF7C016B012E833F83488759878E
S1130B0010E00FB6F8940F92F701968D878D981721
S1130B1010F00230A9F4402FB601C701B7DEF70187
S1130B209389992339F0C70143966BD5882321F023
S1130B30CEDD02C08111CBDD0F900FBE81E046C037
S1130B408E819F81A885B985892B8A2B8B2B21F4D3
S1130B500F900FBE80E03AC0111104C0CE0101967F
S1130B6092D511E00F900FBE61D30FB6F8940F9297
S1130B70F70181A18F3F09F411A2F70182A18F3FF0
S1130B8009F412A20F900FBEBE016A5F7F4FCE011F
S1130B9001968AD5811116C0C7016ADE882371F0D7
S1130BA04E815F8168857985C701089613D5C70191
S1130BB0E5DE11D48111A5CF8ADDA3CFC701DEDE26
S1130BC00AD49FCFC701DADE06D480E029960FB697
S1130BD0F894DEBF0FBECDBFDF91CF911F910F916F
S1130BE0FF90EF90DF90CF9008950F93009769F0F6
S1130BF0FC011382128211821082168200E020E02E
S1130C0030E0A90160E070E065DF0F910895CF93B3
S1130C10DF93482F60E081E035DFEC01E6DFCE01B1
S1130C20DF91CF910895EF92FF920F931F93CF938B
S1130C30DF938A01FC01568D378D531710F0223053
S1130C40E1F4422F7801EC011AA120DE1F3F79F470
S1130C508B898823A1F0CE014396D3D4882389F0CD
S1130C60E114F10481F081E0F70180830DC0FF24D9
S1130C70F394F10EFAA281E007C080E005C081E0A0
S1130C8003C081E001C081E0DF91CF911F910F91FA
S1130C90FF90EF9008958F929F92BF92CF92DF9230
S1130CA0EF92FF920F931F93CF93DF93CDB7DEB7ED
S1130CB029970FB6F894DEBF0FBECDBF7C016B0140
S1130CC02E833F8348875987B02E00E00FB6F894EF
S1130CD00F92F701168D112361F186809780B6017A
S1130CE0C70132DEB11016C01150F701168F808192
S1130CF09181892B21F4E0D5F70193838283F70155
S1130D008085882391F0C70108967BD4882369F0F5
S1130D10DEDC0BC0F701978286828389882329F061
S1130D20C70143966ED48111D2DC0F900FBE81E0CF
S1130D3058C08E819F81A885B985892B8A2B8B2BDE
S1130D4021F40F900FBE80E04CC0011104C0CE010D
S1130D50019699D401E00F900FBE68D20FB6F894B3
S1130D600F92F70181A18F3F09F411A2F70182A12B
S1130D708F3F09F412A20F900FBEBE016A5F7F4F2E
S1130D80CE01019691D4811123C0C70164DD88236B
S1130D90D9F0F70180819181892B41F40FB6F89441
S1130DA00F9282819381EAD40F900FBE4E815F81AE
S1130DB068857985C70143960DD4C701DFDD0BD360
S1130DC0811184CF84DC82CFC701D8DD04D37ECFE8
S1130DD0C701D4DD00D3C7013EDD882309F476CFF3
S1130DE080E029960FB6F894DEBF0FBECDBFDF9129
S1130DF0CF911F910F91FF90EF90DF90CF90BF9014
S1130E009F908F900895E091E61BF091E71B8081FD
S1130E1081110CC08FEF9FEFDC018093B31B909383
S1130E20B41BA093B51BB093B61B0895E091E61BC9
S1130E30F091E71B0780F085E02D0084F185E02D1B
S1130E4082819381A481B5818093B31B9093B41B59
S1130E50A093B51BB093B61B0895CF93DF93EC0119
S1130E608B8D9C8D4EDBCE014CDBDF91CF910895B1
S1130E706F927F928F929F92AF92BF92CF92DF92A6
S1130E80EF920F931F93CF93DF93CDB7DEB74C014F
S1130E90F501838D948D215031093C01620E731E3E
S1130EA020E00FC0822F90E0FB01E80FF91F308192
S1130EB0D501A80FB91F5D963C938081882319F052
S1130EC02F5F243178F3F50110AAF4E0FE1518F42D
S1130ED06894EE24E2F8F501E28EE1AA12AAC501B3
S1130EE0029674D9C5010E9671D9F501B386A2860E
S1130EF085E090E0A0E0B0E08E199109A109B10964
S1130F0086879787A08BB18BB78AA68A13AA14AA5F
S1130F1015AA16AA17AAA801B401C30134DBF50166
S1130F2091838083C114D10419F0F601B182A082A7
S1130F30DF91CF911F910F91EF90DF90CF90BF90F1
S1130F40AF909F908F907F906F900895CF93C0E063
S1130F5008C02BE0C29FC00111248250944E25D9B1
S1130F60CF5FC530B0F383EF9BE11FD988EE9BE1DF
S1130F701CD989ED9BE119D98EEC9BE116D982EC41
S1130F809BE113D983EF9BE19093E71B8093E61BCE
S1130F9088EE9BE19093E51B8093E41BCF91089529
S1130FA0CF93DF93EC010FB6F8940F928091C11B9D
S1130FB08F5F8093C11B8091351C9091361C892BC7
S1130FC051F4D093361CC093351C8091C11B8130E1
S1130FD091F4BCDF10C08091BB1B81110CC0E09167
S1130FE0351CF091361C928D8A8D891720F0D09390
S1130FF0361CC093351C8091B71B8F5F8093B71B41
S11310008A8D9091BC1B981710F48093BC1B2BE025
S1131010829FC0011124BE016E5F7F4F8250944EA7
S1131020D9D80F900FBE8091BB1B882349F0E09163
S1131030351CF091361C928D8A8D981708F447DB85
S1131040DF91CF9108958F929F92AF92BF92CF92EA
S1131050DF92EF92FF92CF936B017C01C42F8090BB
S1131060BD1B9090BE1BA090BF1BB090C01B809175
S1131070351C9091361C02960BD98FEFC816D806F2
S1131080E806F80661F4CC2351F06091351C7091A8
S1131090361C6E5F7F4F82EC9BE19CD83DC0C80C30
S11310A0D91CEA1CFB1CE091351CF091361CC28251
S11310B0D382E482F582C814D904EA04FB0460F400
S11310C06091351C7091361C8091E41B9091E51B56
S11310D06E5F7F4FA0D820C06091351C7091361C84
S11310E08091E61B9091E71B6E5F7F4F94D88091AF
S11310F0B31B9091B41BA091B51BB091B61BC8163D
S1131100D906EA06FB0640F4C092B31BD092B41B86
S1131110E092B51BF092B61BCF91FF90EF90DF9059
S1131120CF90BF90AF909F908F9008952F923F9251
S11311304F925F926F927F928F929F92AF92BF92E3
S1131140CF92DF92EF92FF920F931F93CF93DF938F
S11311503C011B015A012901CA0141D96C01892BA7
S113116061F088E390E03BD9EC01892B19F0DC8E27
S1131170CB8E05C0C601C5D902C0C0E0D0E020971F
S113118081F0950140E050E0812C912C5E016701D3
S1131190E02E8201B101C3016BDECE0101DF81E0EB
S11311A001C08FEFDF91CF911F910F91FF90EF90CE
S11311B0DF90CF90BF90AF909F908F907F906F9073
S11311C05F904F903F902F900895EF92FF920F936E
S11311D00F2EF1EBEF2EFBE1FF2EF02D00E020E0CF
S11311E030E040E054E06CE072E089E99AE09EDF90
S11311F08130C1F4F8948FEF9FEFDC018093B31B2F
S11312009093B41BA093B51BB093B61B81E080935D
S1131210BB1B1092BD1B1092BE1B1092BF1B1092E1
S1131220C01B23DA0F91FF90EF9008958091B01BBB
S11312308F5F8093B01B0895BF92CF92DF92EF929D
S1131240FF920F931F93CF93DF938091B01B811173
S1131250A8C0C090BD1BD090BE1BE090BF1BF090F7
S1131260C01B2FEFC21AD20AE20AF20AC092BD1BB7
S1131270D092BE1BE092BF1BF092C01BC114D104DC
S1131280E104F104B1F48091E61B9091E71B2091F5
S1131290E41B3091E51B3093E71B2093E61B9093EE
S11312A0E51B8093E41B8091B81B8F5F8093B81B70
S11312B0AADD8091B31B9091B41BA091B51BB09192
S11312C0B61BC816D906EA06FB0628F4B12C5AC088
S11312D0BB24B39401C0B12CE091E61BF091E71B51
S11312E0808181110CC08FEF9FEFDC018093B31BD1
S11312F09093B41BA093B51BB093B61B43C0E0916D
S1131300E61BF091E71B0780F085E02DC085D185B1
S11313108A819B81AC81BD81C816D906EA06FB0689
S113132048F48093B31B9093B41BA093B51BB09364
S1131330B61B28C08E010E5F1F4FC8010E944801D2
S1131340888D998D892B21F0CE010E960E9448013B
S11313508A8D9091BC1B981710F48093BC1B2BE0D2
S1131360829FC0011124B8018250944E0E94EA0069
S11313709A8DE091351CF091361C828D981708F0F7
S1131380A7CFAACFE091351CF091361CE28D8BE0FB
S1131390E89FF0011124E250F44E8081823040F441
S11313A009C08091BA1B8F5F8093BA1BB12C02C015
S11313B0BB24B3948091B91B882311F0BB24B3944C
S11313C08B2DDF91CF911F910F91FF90EF90DF90C4
S11313D0CF90BF9008950F931F93CF93DF930FB6D1
S11313E0F8940F928091B01B81508093B01B809130
S11313F0B01B81114FC08091C11B81112DC04DC004
S1131400E091E01BF091E11BC085D185CE010E96E1
S11314100E9448018E010E5F1F4FC8010E944801BF
S11314208A8D9091BC1B981710F48093BC1B2BE001
S1131430829FC0011124B8018250944E0E94EA0098
S11314409A8DE091351CF091361C828D981730F0FE
S113145081E08093B91B02C0C0E0D0E08091D91B29
S11314608111CECFCD2B09F0CEDCC091BA1BCC2399
S113147051F0E2DE882319F081E08093B91BC1505A
S1131480C1F71092BA1B8091B91B882329F01FD988
S113149081E003C080E001C080E00F900FBEDF91C7
S11314A0CF911F910F910895CF92DF92EF92FF9207
S11314B06B017C01672B682B692B39F0B7DE40E0A8
S11314C0C701B601C0DD87DF01C080E0811101C022
S11314D0FED8FF90EF90DF90CF900895CF93DF93E5
S11314E021C0A4DEC091CE1B76DFCC23D9F00FB689
S11314F0F8940F92E091D51BF091D61BC085D1854D
S1131500CE0102960E9448018091C11B81508093B4
S1131510C11B8091CD1B81508093CD1B0F900FBEBA
S1131520CE019BDC8091CD1B8111DBCFDF91CF916C
S11315300895D4DF8091FE1B8230D8F3C8D8F9CF48
S11315408091B01B882321F081E08093B91B08951A
S11315501092B91B8091BC1B01C08150282F30E030
S11315609BE0929FF001939FF00D1124E250F44E02
S11315709081992391F39BE0929FA001939F500D3A
S11315801124DF010180F281E02D0480F581E02D3A
S11315901296FC93EE9311974F5F534EE417F507A1
S11315A029F444815581FD01528341839BE0929F3C
S11315B0F001939FF00D1124E250F44E0180F2816A
S11315C0E02D208531853093361C2093351C809383
S11315D0BC1B0895CF92DF92EF92FF926A017B01C8
S11315E06091351C7091361C625F7F4F0E940B0125
S11315F041E0C701B60127DDFF90EF90DF90CF9067
S113160008950F931F93CF93DF93DC011796ED9109
S1131610FC911897C085D1858E01025F1F4FC801C8
S11316200E9448018091B01B811116C00C50110911
S1131630C8010E9448018A8D9091BC1B981710F430
S11316408093BC1BBBE08B9FC0011124B801825066
S1131650944E0E94EA0005C0B80189ED9BE10E9406
S1131660EA009A8DE091351CF091361C828D891721
S113167020F481E08093B91B01C080E0DF91CF9119
S11316801F910F9108952091B81BFC012083409174
S1131690BD1B5091BE1B6091BF1B7091C01B418349
S11316A052836383748308958F929F92AF92BF9203
S11316B0CF92DF92EF92FF920F931F93CF93DF931A
S11316C0FB010FB6F8940F920091BD1B1091BE1B45
S11316D02091BF1B3091C01B408151816281738175
S11316E04F3FAFEF5A076A077A0781F1EC01B881DF
S11316F0A091B81BBA1749F0C980DA80EB80FC804E
S11317000C151D052E053F0518F5DC011196CD902D
S1131710DD90ED90FC901497480159018C189D08B8
S1131720AE08BF0884169506A606B70698F4C01A34
S1131730D10AE20AF30A4C0D5D1D6E1D7F1D408324
S11317405183628373839FDF80E005C080E003C020
S113175081E001C081E00F900FBEDF91CF911F9116
S11317600F91FF90EF90DF90CF90BF90AF909F903C
S11317708F90089581E08093B91B08950F931F9370
S1131780CF93DF93FC01892B09F451C0828DA09182
S1131790351CB091361C5A969C91891708F047C0A5
S11317A04685578560897189772394F0A091351C0B
S11317B0B091361C5A969C9145E050E060E070E090
S11317C0491B51096109710946875787608B718BE1
S11317D0248535854BE0849FC00111248250944EAA
S11317E028173907E9F48F01EF012296CE010E94F0
S11317F04801E091351CF091361C828DF801828FEE
S11318009091BC1B981710F48093BC1BFBE08F9F36
S1131810C0011124BE018250944E0E94EA0007C008
S1131820A091351CB091361C5A968C91828FDF9111
S1131830CF911F910F9108950F931F93CF93DF932F
S1131840FC01892B79F182A9815082AB228D91A967
S1131850291751F181112AC0EF018F010E5F1F4F2B
S1131860C8010E94480189A98A8F45E050E060E0E0
S113187070E0481B5109610971094E875F87688BC5
S1131880798B9091BC1B981710F48093BC1B2BE0B0
S1131890829FC0011124B8018250944E0E94EA0034
S11318A081E005C080E003C080E001C080E0DF91FA
S11318B0CF911F910F9108958091351C9091361C02
S11318C0892B39F0E091351CF091361C82A98F5F89
S11318D082AB8091351C9091361C08950F931F9311
S11318E0CF93DF93CDB7DEB76E970FB6F894DEBF14
S11318F00FBECDBF789487E690E00E944519FFD6CD
S11319007AD6C6D408D50E94091B81E192E00E94D0
S113191067198AE192E00E9467198DE292E00E94C1
S113192067190E946B1A1F928F938BE492E09F9326
S11319308F938E010F5F1F4F1F930F930E94DF2021
S1131940C8010E946719ECD01F928F9388E592E03A
S11319509F938F931F930F930E94DF20C8010E94CF
S11319606719E3D41F928F9385E692E09F938F9338
S11319701F930F930E94DF20C8010E94671989D624
S113198024D62FEF89E698E1215080409040E1F77A
S113199000C00000AED624D694D62FEF89E698E195
S11319A0215080409040E1F700C00000A2D62FEF04
S11319B083ED90E3215080409040E1F700C00000A7
S11319C00FB6F894DEBF0FBECDBF6E960FB6F89477
S11319D0DEBF0FBECDBFDF91CF911F910F91089550
S11319E07DDF81E014D99093581D8093571D40E00A
S11319F061E08EE147D89093981D8093971D40E055
S1131A0061E08AE03FD89093901D80938F1D40E061
S1131A1064E08AE037D89093961D8093951DE12C5D
S1131A20F12C02E020E030E048EC50E062E772E0A4
S1131A308AEA97E17BDB20E030E044EF51E063E9A0
S1131A4072E084E498E172DB20E030E044E650E0A8
S1131A5068EB72E080ED94E169DB20E030E040E97E
S1131A6051E062ED72E089E295E160DB81EF92E0A2
S1131A700E946719AADBFFCFCF92DF92EF92FF9209
S1131A800F931F93CF93DF93C82F6B017A0184E0E8
S1131A9040D68C2F806854D680E052D6C0E0D0E087
S1131AA008C086010C0F1D1F80E04AD6F801808310
S1131AB02196CE15DF05A8F384E037D6DF91CF91C8
S1131AC01F910F91FF90EF90DF90CF9008951F9397
S1131AD0CF93DF93182FEB0184E01BD6812F80680E
S1131AE02FD680E02DD680E02BD6888384E01DD6C7
S1131AF0DF91CF911F910895CF93DF93D82FC62FF5
S1131B0084E007D68D2F8F771BD68C2F19D684E0CF
S1131B100CD6DF91CF910895BC0180E0D8CF089511
S1131B20CF93DF931F92CDB7DEB7CE010196F4DFDA
S1131B3081E09981903609F080E00F90DF91CF9198
S1131B400895EF92FF920F931F93CF93DF9300D0EA
S1131B5000D0CDB7DEB77C018B01BE016F5F7F4F34
S1131B6086E0FB0111928A95E9F746E050E084E0B3
S1131B7083DF8B8190E0A0E0B0E0BC0155274427CF
S1131B809A81892F90E0A0E0B0E0BA2FA92F982F76
S1131B908827842B952BA62BB72B2981822BF70121
S1131BA080839183A283B3838E8190E0A0E0B0E030
S1131BB0BC01552744279D81892F90E0A0E0B0E027
S1131BC0BA2FA92F982F8827842B952BA62BB72BB8
S1131BD02C81822BF80180839183A283B383269680
S1131BE00FB6F894DEBF0FBECDBFDF91CF911F912A
S1131BF00F91FF90EF9008958F929F92AF92BF92B2
S1131C00CF92DF92EF92FF920F931F93CF93DF93C4
S1131C108C016091061D7091071D8091081D9091A3
S1131C20091D0E94301ECFE1DDE1288139814A81FE
S1131C305B810E942E1D6B017C012C813D814E81B4
S1131C405F810E94E61E4B015C01A7019601C7015A
S1131C50B6010E94E61E288539854A855B850E9467
S1131C60E61E9B01AC01C501B4010E942F1DF801C1
S1131C706083718382839383DF91CF911F910F914E
S1131C80FF90EF90DF90CF90BF90AF909F908F9098
S1131C9008954F925F926F927F928F929F92AF922C
S1131CA0BF92CF92DF92EF92FF920F931F93CF9345
S1131CB0DF93CDB7DEB760970FB6F894DEBF0FBEE3
S1131CC0CDBF8C0149835A836B837C8360913F1D14
S1131CD07091401D8091411D9091421D29813A814E
S1131CE04B815C810E94E61E6D837E838F8398877F
S1131CF0C090431DD090441DE090451DF090461DBA
S1131D0029813A814B815C81CA01B9010E94E61E96
S1131D102B013C019B01AC01C701B6010E94E61EE8
S1131D2069877A878B879C878090471D9090481D90
S1131D30A090491DB0904A1DA301920169817A8146
S1131D408B819C810E94E61E6B017C019B01AC018E
S1131D50C501B4010E94E61E4B015C0120913B1DAC
S1131D6030913C1D40913D1D50913E1D6D817E8101
S1131D708F8198850E942F1D9B01AC0169857A850E
S1131D808B859C850E942F1D9B01AC01C501B4016C
S1131D900E942F1D69877A878B879C8720912F1D2E
S1131DA03091301D4091311D5091321D69817A81ED
S1131DB08B819C810E94E61E4B015C012091331DA6
S1131DC03091341D4091351D5091361DC301B2012F
S1131DD00E94E61E2B013C012091371D3091381DD5
S1131DE04091391D50913A1DC701B6010E94E61E6B
S1131DF06D877E878F87988BC090021DD090031DBE
S1131E00E090041DF090051DC701B6010E94301E2C
S1131E106D837E838F83988720912B1D30912C1D99
S1131E2040912D1D50912E1DC501B4010E942F1DFE
S1131E309B01AC01C301B2010E942F1D9B01AC01A7
S1131E406D857E858F8598890E942F1D9B01AC012D
S1131E506D817E818F8198850E94E61E6D877E87C5
S1131E608F87988BA7019601C701B6010E94AE2007
S1131E706D837E838F8398870E94301E4B015C01A3
S1131E8040904B1D50904C1D60904D1D70904E1D08
S1131E9020914F1D3091501D4091511D5091521D64
S1131EA069817A818B819C810E94E61E9B01AC0131
S1131EB0C301B2010E942F1D9B01AC01C501B401F5
S1131EC00E94E61E4B015C01A70196016D817E8193
S1131ED08F8198850E94AE20C090531DD090541DD0
S1131EE0E090551DF090561D0E94301EA7019601EA
S1131EF00E94E61E9B01AC01C501B4010E942F1D86
S1131F006B017C012D853E854F85588969857A85CD
S1131F108B859C850E942F1D9B01AC01C701B601D6
S1131F200E942F1D20E030E04CED53E40E942F1D51
S1131F30F801608371838283938360960FB6F8946B
S1131F40DEBF0FBECDBFDF91CF911F910F91FF90E8
S1131F50EF90DF90CF90BF90AF909F908F907F9045
S1131F606F905F904F9008950F931F93CF93DF93DB
S1131F70EC018B0166E07DE182E09DE1E2DDC801D8
S1131F803BDEBC01CE0185DEDF91CF911F910F9125
S1131F900895EF92FF920F931F93CF93DF93EC0179
S1131FA0698170E0762F66278881682B0F2EFAE00E
S1131FB0EF2EFDE1FF2EF02DF7017183608380E0A9
S1131FC090E00E94301E20E030E040E853E40E949C
S1131FD0E61E0FE11DE1F801608371838283938320
S1131FE06B8170E0762F66278A81682BF7017383F3
S1131FF0628380E090E00E94301E20E030E040E800
S113200050E30E94E61EF8016483758386839783F8
S11320106C81F7016483062E000C770B880B990BF7
S11320200E94321E20E030E040E857E20E94E61EA3
S1132030F80160877187828793876E8170E0762FBD
S113204066278D81682BF701768365837054072E8C
S1132050000C880B990B0E94321E20E030E040E80F
S113206055E30E94E61EF801648775878687978783
S1132070688570E0762F66278F81682BF70170875B
S113208067837054072E000C880B990B0E94321E34
S113209020E030E040E051E30E94E61EF801608B4E
S11320A0718B828B938B6985F7016187062E000CF7
S11320B0770B880B990B0E94321E20E030E040E839
S11320C05FE20E94E61EF801648B758B868B978B0A
S11320D06A85F7016287062E000C770B880B990B33
S11320E00E94321E20E030E040E05DE20E94E61EE5
S11320F0F801608F718F828F938F6C8570E0762FDB
S113210066278B85682BF7017487638780E090E0EE
S11321100E94301E20E030E040E051E40E94E61EC0
S1132120F801648F758F868F978F6E8570E0762F98
S113213066278D85682BF7017687658780E090E0B8
S11321400E94301E20E030E040E85CE30E94E61E7E
S1132150F80160A371A382A393A36F85F701678736
S1132160062E000C770B880B990B0E94321E20E080
S113217030E040E85BE30E94E61EF80164A375A327
S113218086A397A36889F701608B062E000C770B52
S1132190880B990B0E94321E20E030E040E058E3A7
S11321A00E94E61EF80160A771A782A793A76A8917
S11321B070E0762F66278989682BF701728B618B13
S11321C0072E000C880B990B0E94321E20E030E091
S11321D040E857E20E94E61EF80164A775A786A7A7
S11321E097A76B89F701638B062E000C770B880B7E
S11321F0990B0E94321E20E030E040E857E20E9432
S1132200E61EF80160AB71AB82AB93AB6C89F7014E
S1132210648B062E000C770B880B990B0E94321EE0
S113222020E030E040E05FE10E94E61EF80164AB8C
S113223075AB86AB97ABDF91CF911F910F91FF9058
S1132240EF9008950F931F93CF93DF93CDB7DEB72D
S113225065970FB6F894DEBF0FBECDBF8E010F5F3A
S11322601F4F85E1F80111928A95E9F745E150E0A5
S1132270B80181E301DCC8018CDE65960FB6F894E1
S1132280DEBF0FBECDBFDF91CF911F910F91089597
S113229063E08CE131DC62E08DE12EDC63E38BE111
S11322A02BDCD0CF0895EF92FF920F931F93CF931F
S11322B0DF93C82F8B017A01A5D189E2AFD18C2F8E
S11322C0C6D1A0D189E2B5D1C0E0D0E005C0C80133
S11322D08C0F9D1FD2D12196C7010197C817D9072A
S11322E0B0F3800F911FBDD195D1DF91CF911F9194
S11322F00F91FF90EF900895CF93DF93D82FC62FBF
S113230081D189E28BD18D2FA2D18C2FA0D182D102
S1132310DF91CF9108956CE08DE3EECF089541E015
S113232050E0BC0186E3BFCF0895CF93DF931F92A3
S1132330CDB7DEB7CE010196F2DF99819F7081E0BF
S11323409F3009F080E00F90DF91CF910895CF92F4
S1132350DF92EF92FF920F931F93CF93DF9300D0FE
S113236000D0CDB7DEB78C0146E050E0BE016F5F10
S11323707F4F88E098DF6A8170E0762F6627898135
S1132380682B8C8190E0982F88272B816C01C22ABE
S11323908E8190E0982F88272D817C01E22A072ED8
S11323A0000C880B990B0E94321E20E030E048ECB0
S11323B052E40E94971DF8016083718382839383A2
S11323C0B601DD0C880B990B0E94321E20E030E030
S11323D048EC52E40E94971DF80164837583868358
S11323E09783B701FF0C880B990B0E94321E20E0E3
S11323F030E048EC52E40E94971DF8016087718731
S11324008287938726960FB6F894DEBF0FBECDBFA2
S1132410DF91CF911F910F91FF90EF90DF90CF90BC
S11324200895CF92DF92EF92FF920F931F93CF9371
S1132430DF9300D000D0CDB7DEB78C0146E050E08A
S1132440BE016F5F7F4F8EE02EDF6A8170E0762FD2
S113245066278981682B8C8190E0982F88272B81AF
S11324606C01C22A8E8190E0982F88272D817C01EF
S1132470E22A072E000C880B990B0E94321E20E0E2
S113248030E040E85DE30E94E61EF801608371835A
S113249082839383B601DD0C880B990B0E94321E54
S11324A020E030E040E85DE30E94E61EF80164832A
S11324B0758386839783B701FF0C880B990B0E9461
S11324C0321E20E030E040E85DE30E94E61EF801A1
S11324D0608771878287938726960FB6F894DEBF4C
S11324E00FBECDBFDF91CF911F910F91FF90EF9061
S11324F0DF90CF900895CF92DF92EF92FF920F93E7
S11325001F93CF93DF9300D000D0CDB7DEB78C01FB
S113251046E050E0BE016F5F7F4F84E1C4DE6A8114
S113252070E0762F66278981682B8C8190E0982F44
S113253088272B816C01C22A8E8190E0982F8827EE
S11325402D817C01E22A072E000C880B990B0E9436
S1132550321E20E030E040E85DE30E94E61EF80110
S11325606083718382839383B601DD0C880B990B9E
S11325700E94321E20E030E040E85DE30E94E61E47
S1132580F8016483758386839783B701FF0C880BF6
S1132590990B0E94321E20E030E040E85DE30E9487
S11325A0E61EF801608771878287938726960FB6A7
S11325B0F894DEBF0FBECDBFDF91CF911F910F9175
S11325C0FF90EF90DF90CF900895EAE0F1E08081F2
S11325D080628083EBE0F1E08081806280830895F3
S11325E0EAE0F1E080818F7D8083EBE0F1E080819F
S11325F08F7D808308958CE08093B80084E080937D
S1132600BC00089584EA8093BC008091BC008823B8
S1132610E4F7089584E98093BC000895880F8093BB
S1132620BB0084E88093BC008091BC008823E4F75D
S1132630089590E0880F991F81608093BB0084E81F
S11326408093BC008091BC008823E4F708958093B4
S1132650BB0084E88093BC008091BC008823E4F72D
S11326600895FC0184E88093BC009091BC009923F8
S1132670E4F78091BB0080830895FC0184EC80938F
S1132680BC009091BC009923E4F78091BB00808347
S11326900895EAE0F1E080818061808382E28093A2
S11326A020018BE18093210187E893E19093270136
S11326B0809326018AEF90E090932B0180932A0166
S11326C00895EAE0F1E080818061808382E2809372
S11326D020018BE18093210187E893E19093270106
S11326E08093260184EF91E090932B0180932A013B
S11326F00895EAE0F1E080818F7E8083089587E089
S113270084B988E181B981E58CBD82B1886182B9DF
S1132710089592B121E030E002C0220F331F8A9560
S1132720E2F72095292322B9089592B121E030E0FF
S113273002C0220F331F8A95E2F7292B22B908958C
S11327408EBD0DB407FEFDCF8EB508950F9300E046
S11327502FEF3FEFA90160E070E08091571D909149
S1132760581D0E944B0680915B1D811106C081E0BB
S113277080935B1D8FEF92E0AAD500E020E030E06B
S1132780A90160E070E08091571D9091581D0E944E
S11327906A050F9108950F93CF93DF9300E02FEF15
S11327A03FEFA90160E070E08091571D9091581DA2
S11327B00E944B0680915B1D8130C9F4C9E5DDE1BF
S11327C082E08A838BE493E082D56B817C818D8166
S11327D09E8120E030E040E45FE30E94E61E6093C7
S11327E0371C7093381C8093391C90933A1C00E07A
S11327F020E030E0A90160E070E08091571D9091E5
S1132800581D0E946A05DF91CF910F9108950F938F
S113281000E02FEF3FEFA90160E070E08091571DC9
S11328209091581D0E944B0680915B1D833081F46A
S113283084E080935B1D8BE093E049D5EAE0F1E00E
S1132840808180628083EBE0F1E08081806280831C
S113285000E020E030E0A90160E070E08091571DC5
S11328609091581D0E946A050F9108950F9300E0FE
S11328702FEF3FEFA90160E070E08091571D909128
S1132880581D0E944B0680915A1D811110925A1DA9
S113289000E020E030E0A90160E070E08091571D85
S11328A09091581D0E946A050F9108950F9300E0BE
S11328B02FEF3FEFA90160E070E08091571D9091E8
S11328C0581D0E944B0680915B1D8230A1F485E166
S11328D093E0FDD483E080935B1D87E293E0F7D41B
S11328E0D8DE2FE38DE093E0215080409040E1F763
S11328F000C00000FEDE00E020E030E0A90160E05E
S113290070E08091571D9091581D0E946A050F91A7
S11329100895CF93DF93CDB7DEB728970FB6F89419
S1132920DEBF0FBECDBFBE016B5F7F4FCE010196F0
S11329301BDB1092911D1092921D1092931D109208
S1132940941D69817A818B819C8120E032E145EC80
S113295057E40E94971D21E03EED42E45EE30E94AD
S1132960491F9B01AC0160E070E080E89FE30E9496
S11329702E1D20E03AE24DE257E40E94E61E6093E9
S11329803B1C70933C1C80933D1C90933E1C2896EA
S11329900FB6F894DEBF0FBECDBFDF91CF9108957F
S11329A0CF93DF931F92CDB7DEB7E9E5FDE181E078
S11329B08183128200E02FEF3FEFA901BE016F5F18
S11329C07F4F80918F1D9091901D0E944B06813006
S11329D089F7E981F0E0EE0FFF1FE050FE4F019010
S11329E0F081E02D1995E6CFCF939B01AC01609166
S11329F0911D7091921D8091931D9091941D0E9440
S1132A002E1DC1E020E030E040EA50E40E94E21EC6
S1132A1018160CF0C0E08C2FCF910895CF939B0132
S1132A20AC016091911D7091921D8091931D9091C4
S1132A30941D0E942E1D9F77C1E020E030E040E00D
S1132A405FE30E94931D88230CF0C0E08C2FCF918C
S1132A500895EF92FF920F931F93CF93DF93CDB717
S1132A60DEB7C154D1090FB6F894DEBF0FBECDBF97
S1132A701092911D1092921D1092931D1092941D0C
S1132A8000E02FEF3FEFA90160E070E08091571D57
S1132A909091581D0E944B0687EA91E60197F1F741
S1132AA000C00000BE016B5F7F4FCE0101965CDA6F
S1132AB080915A1D81111AC02FEF3FEFA901BE0169
S1132AC06F5F7F4F8091951D9091961D0E944B06DC
S1132AD0813061F020E030E0A90160E070E0809195
S1132AE0571D9091581D0E946A0526C169817A81FB
S1132AF08B819C8109E51DE1F801678370878187DB
S1132B00928720E032E145EC57E40E94971D21E0D2
S1132B103EED42E45EE30E94491F9B01AC0160E08C
S1132B2070E080E89FE39AD720E03AE24DE257E470
S1132B300E94E61E20913B1C30913C1C40913D1CA0
S1132B4050913E1C8BD7F8016383748385839683ED
S1132B508D819E81AF81B88583879487A587B68749
S1132B60CE010996F4DBCE0145965BDCCE0181965D
S1132B70C2DC89859A85AB85BC85F8018787908BF3
S1132B80A18BB28B8D859E85AF85B889838B948B01
S1132B90A58BB68B89899A89AB89BC89878B908FE1
S1132BA0A18FB28F8D899E89AF89B88D838F948FC1
S1132BB0A58FB68F898D9A8DAB8DBC8D878F90A391
S1132BC0A1A3B2A38D8D9E8DAF8DB8A183A394A331
S1132BD0A5A3B6A389A19AA1ABA1BCA187A390A7E1
S1132BE0A1A7B2A78DA19EA1AFA1B8A583A794A7C1
S1132BF0A5A7B6A789A59AA5ABA5BCA587A790ABA1
S1132C00A1ABB2AB638174818581968120E030E011
S1132C1048EC52E40E94E61EF2D77F936F9389E357
S1132C2093E09F938F937E01FEE2EF0EF11CFF92DF
S1132C30EF920E94DF20C7014AD3F80163817481B7
S1132C4085819681D1DE0F900F900F900F900F9099
S1132C500F90882391F088E493E039D381E08DA725
S1132C6000E02FEF3FEFA901BE01635D7F4F80912C
S1132C708F1D9091901D0E946A0560915C1D70915A
S1132C805D1D80915E1D90915F1D2091371C3091D8
S1132C90381C4091391C50913A1C45D788237CF448
S1132CA082E08DA700E02FEF3FEFA901BE01635D35
S1132CB07F4F80918F1D9091901D0E946A056091B5
S1132CC05C1D70915D1D80915E1D90915F1DA6DE5F
S1132CD0882379F083E08DA700E02FEF3FEFA9016F
S1132CE0BE01635D7F4F80918F1D9091901D0E9466
S1132CF06A0580915C1D90915D1DA0915E1DB0914F
S1132D005F1D8093911D9093921DA093931DB0938A
S1132D10941D00E020E030E0A90160E070E08091C3
S1132D20571D9091581D0E946A0568EE73E080E07B
S1132D3090E00E94540AA4CECF5BDF4F0FB6F89404
S1132D40DEBF0FBECDBFDF91CF911F910F91FF90DA
S1132D50EF900895AC0120E030E080E007C0FA0174
S1132D60E20FF31F908189272F5F3F4F2617370704
S1132D70B0F308959C0140E050E080E007C0F90101
S1132D80E40FF51F908189274F5F5F4F411551056F
S1132D90B1F340E050E008C0F9013196E40FF51FAB
S1132DA0908189274F5F5F4F41155105A9F340E09A
S1132DB050E008C0F9013296E40FF51F908189278D
S1132DC04F5F5F4F41155105A9F340E050E008C043
S1132DD0F9013396E40FF51F908189274F5F5F4F08
S1132DE044305105A8F340E050E008C0F90137969B
S1132DF0E40FF51F908189274F5F5F4F44305105E1
S1132E00A8F340E050E008C0F9013B96E40FF51F39
S1132E10908189274F5F5F4F44305105A8F340E00C
S1132E2050E008C0F9013F96E40FF51F908189270F
S1132E304F5F5F4F44305105A8F340E050E008C0B5
S1132E40F9017396E40FF51F908189274F5F5F4F57
S1132E5044305105A8F340E050E008C0F9017796EA
S1132E60E40FF51F908189274F5F5F4F4430510570
S1132E70A8F340E050E008C0F9017B96E40FF51F89
S1132E80908189274F5F5F4F44305105A8F340E09C
S1132E9050E008C0F9017F96E40FF51F908189275F
S1132EA04F5F5F4F44305105A8F340E050E008C045
S1132EB0F901B396E40FF51F908189274F5F5F4FA7
S1132EC044305105A8F340E050E008C0F901B7963A
S1132ED0E40FF51F908189274F5F5F4F4430510500
S1132EE0A8F340E050E008C0F901BB96E40FF51FD9
S1132EF0908189274F5F5F4F44305105A8F340E02C
S1132F0050E008C0F901BF96E40FF51F90818927AE
S1132F104F5F5F4F44305105A8F340E050E008C0D4
S1132F20F901F396E40FF51F908189274F5F5F4FF6
S1132F3041155105A9F340E050E008C0F901F496A9
S1132F40E40FF51F908189274F5F5F4F41155105AD
S1132F50A9F30895CF93DF931F921F92CDB7DEB7E5
S1132F608FEF898300E02FEF3FEFA90160E070E06D
S1132F708091571D9091581D0E944B068091E41C2E
S1132F8091E0980F9093E41C09E51DE1F80180831A
S1132F90C801F0DEF80185AB61E070E0CE01019676
S1132FA0A2D186E38A8361E070E0CE0102969BD1D0
S1132FB061E070E0C80197D161E070E08AE59DE1CD
S1132FC092D161E070E08BE59DE18DD164E070E029
S1132FD08CE59DE188D164E070E080E69DE183D1D9
S1132FE064E070E084E69DE17ED164E070E088E610
S1132FF09DE179D164E070E08CE69DE174D164E0F8
S113300070E080E79DE16FD164E070E084E79DE1CA
S11330106AD164E070E088E79DE165D164E070E026
S11330208CE79DE160D164E070E080E89DE15BD1D4
S113303064E070E084E89DE156D164E070E088E8E3
S11330409DE151D161E070E08CE89DE14CD161E0FB
S113305070E08DE89DE147D161E070E08EE89DE18C
S113306042D100E020E030E0A90160E070E080910E
S1133070571D9091581D0E946A0568EE73E080E028
S113308090E00E94540A6ECFCF93DF93CDB7DEB7A2
S11330906E970FB6F894DEBF0FBECDBF80E89CE1FB
S11330A035D1E0E8FCE1E080F12C1181B70181E841
S11330B09CE150DEF701EF57F34E90818913C0C0B5
S11330C01330B9F128F4113059F01230C1F0AEC008
S11330D0153009F44EC0E8F1163009F475C0A6C0E5
S11330E0198200E02FEF3FEFA901BE016F5F7F4F10
S11330F080918F1D9091901D0E946A05A4C08091BB
S1133100821C9091831CA091841CB091851C89839E
S11331109A83AB83BC8300E02FEF3FEFA901BE018C
S11331206F5F7F4F8091951D9091961D0E946A0557
S11331308AC084E0898300E02FEF3FEFA901BE013C
S11331406F5F7F4F80918F1D9091901D0E946A0543
S11331507AC085E0898300E02FEF3FEFA901BE012B
S11331606F5F7F4F80918F1D9091901D0E946A0523
S11331706AC086E593E0ABD000E02FEF3FEFA901F2
S113318060E070E08091571D9091581D0E944B069D
S113319081E080938D1D20E030E0A90160E070E0C3
S11331A08091571D9091581D0E946A0581E0E81A8C
S11331B0F108A70162E87CE18FE39CE1F7D7B7014E
S11331C08FE39CE11ED33FC087E693E080D0670184
S11331D092E0C91AD108A60162E87CE18FE39CE180
S11331E0E5D7F701E058F34EF0801F92FF9286E78F
S11331F093E09F938F93CE0101965C019F938F93ED
S1133200DED7C50164D0B6018FE39CE1FAD28F2DDD
S11332109AD34CE251E060E070E0CB01FCD10F9016
S11332200F900F900F900F900F900DC080E993E0D6
S11332304ED064E170E080E89CE119D11FEF03C037
S113324088EA93E044D01F3FC9F000E02FEF3FEF3E
S1133250A90160E070E08091571D9091581D0E9473
S11332604B0610938C1D20E030E0A90160E070E073
S11332708091571D9091581D0E946A056CE271E07F
S113328080E090E00E94540A09CF9093C500809397
S1133290C40028E12093C10026E02093C20090934B
S11332A0CD008093CC0088E98093C9002093CA00A4
S11332B008959091C00095FFFCCF8093C6000895B7
S11332C09091C80095FFFCCF8093CE000895CF93D2
S11332D0DF93EC0102C0EDDF219688818111FBCFE1
S11332E0DF91CF9108950F931F93CF93DF93EC0158
S11332F08C01060F171F02C08991E2DFC017D107A6
S1133300D8F3DF91CF911F910F910895CF92DF925F
S1133310EF92FF920F93CF93DF931F92CDB7DEB757
S11333206C0100E02FEF3FEFA901BE016F5F7F4FFB
S11333308091971D9091981D0E944B06813089F7CA
S113334089818F3F71F72FEF3FEFA901B60180917B
S1133350971D9091981D0E944B06E12CF12C10C0F2
S11333608FEFE81AF80AB6016E0D7F1D00E02FEF0B
S11333703FEFA9018091971D9091981D0E944B06E3
S1133380F601808190E00196E816F90648F30F9063
S1133390DF91CF910F91FF90EF90DF90CF90089540
S11333A01F920F920FB60F9211240BB60F922F9308
S11333B03F934F935F936F937F938F939F93AF93B9
S11333C0BF93EF93FF93CF93DF931F921F92CDB7D9
S11333D0DEB78091CE0089831A8220E0AE014E5F71
S11333E05F4FBE016F5F7F4F8091971D9091981D35
S11333F00E9413068A8181110E9467030F900F9027
S1133400DF91CF91FF91EF91BF91AF919F918F91F8
S11334107F916F915F914F913F912F910F900BBED0
S11334200F900FBE0F901F9018951F920F920FB61A
S11334300F9211240BB60F928F939F93EF93FF93E8
S11334408091D600E091E51C91E09E0F9093E51CDD
S1133450F0E0E251F34E8083FF91EF919F918F91C1
S11334600F900BBE0F900FBE0F901F9018950F93E7
S11334701F93CF93DF93EC018C01060F171F02C03B
S1133480899117DFC017D107D8F3DF91CF911F912E
S11334900F910895EF92FF920F931F93CF93DF93B1
S11334A07C018B01EA0183E034D98FE949D980E0BA
S11334B047D9F701808380E043D9F801808380E015
S11334C03FD9888383E031D9DF91CF911F910F9148
S11334D0FF90EF900895CF93DF9300D0CDB7DEB780
S11334E0AE014D5F5F4FBE016E5F7F4FCE0101960F
S11334F0D1DF81E099819F3E09F080E00F900F9029
S11335000F90DF91CF910895CF92DF92EF92FF92C7
S11335100F931F93CF93DF93C62FD72F182F6A01D2
S1133520790183E0F6D883E00BD9812F09D98D2F57
S113353007D98C2F05D9C0E0D0E008C086010C0F54
S11335401D1F80E0FDD8F80180832196CE15DF058C
S1133550A8F383E0EAD8DF91CF911F910F91FF90F8
S1133560EF90DF90CF900895CF9383E0D2D885E099
S1133570E7D880E0E5D8C82F83E0D7D88C2FCF9147
S1133580089583E0C6D886E0DBD883E0CED8ECDFAC
S113359081FFFDCF0895DF92EF92FF920F931F9367
S11335A0CF93DF93C62FD72FD82E7A01890185ECCC
S11335B093E08DDEE6DF83E0ACD882E0C1D88D2DC8
S11335C0BFD88D2FBDD88C2FBBD8C0E0D0E006C0AB
S11335D0F701EC0FFD1F8081B3D82196C017D107E6
S11335E0B8F383E0A2D8C0DF80FDFDCFDF91CF9197
S11335F01F910F91FF90EF90DF900895C2DF83E059
S113360088D880E69DD883E090D8AEDF80FDFDCFDA
S11336100895F4CF08954F925F926F927F928F92A4
S11336209F92AF92BF92CF92DF92EF92FF920F934D
S11336301F93CF93DF93CDB7DEB7A8970FB6F89457
S1133640DEBF0FBECDBF162F072FF82EE92E3A018D
S11336504DB65EB68DB79EB7841B950B0FB6F89426
S11336609EBF0FBE8DBF4DB75EB74F5F5F4F5A0110
S113367093018F2D9E2D48DFEF92FF920F931F939E
S113368083ED93E09F938F938E010F5F1F4F1F93E2
S11336900F9395D5C8011BDE8DB79EB708960FB65C
S11336A0F8949EBF0FBE8DBF812C912CC12CD12CC0
S11336B046C0C401880F991F880F991F880F991F4E
S11336C09F938F9383EF93E09F938F938E010D5D70
S11336D01F4F1F930F9373D5C801F9DD0F900F90FF
S11336E00F900F900F900F90E12CF12C1EC0F5015C
S11336F0EC0DFD1D80811F928F938AEF93E09F93C1
S11337008F938E010D5D1F4F1F930F9358D59FEF1D
S1133710C91AD90AC801DBDD8FEFE81AF80A0F903D
S11337200F900F900F900F900F9098E0E916F1040E
S1133730F4F282E094E0CBDD8FEF881A980AC3019B
S11337400197969587959695879596958795019671
S11337508816990608F4ADCF0FB6F8945EBE0FBE76
S11337604DBEA8960FB6F894DEBF0FBECDBFDF9155
S1133770CF911F910F91FF90EF90DF90CF90BF906A
S1133780AF909F908F907F906F905F904F9008952F
S11337901F93CF93DF93C62FD72F182FF2DE83E02A
S11337A00E94891388ED0E94A013812F0E94A01308
S11337B08D2F0E94A0138C2F0E94A01383E00E94DF
S11337C09513D2DE80FDFDCFDF91CF911F91089537
S11337D0CF92DF92EF92FF92C12CD12C760106C0DA
S11337E0C701B601D5DF8FEFE81AF80AC114D10476
S11337F080E2E806F104A0F3FF90EF90DF90CF9011
S11338000895DF92EF92FF920F931F93CF93DF936C
S1133810EC018B019FDA9091E71C89278093E71CC8
S11338208091EC1C9091ED1C800F911F8130914090
S113383008F47CC086E094E04ADDD090EC1CD1947E
S113384020E030E013C08091EC1C9091ED1CFE014F
S1133850E20FF31F4081FC01E756F24E40830196CC
S11338609093ED1C8093EC1C2F5F3F4FED2CF12CBB
S113387080E091E08E199F092817390724F360919D
S1133880E81C7091E91C8091EA1C9091EB1C20E0EB
S113389031E049E95DE17FDE8091E81C9091E91C0B
S11338A0A091EA1CB091EB1C9F5FAF4FBF4F809378
S11338B0E81C9093E91CA093EA1CB093EB1C1092B3
S11338C0ED1C1092EC1C20E030E015C08091EC1C43
S11338D09091ED1CF901EE0DFF1DEC0FFD1F4081D1
S11338E0FC01E756F24E408301969093ED1C8093C1
S11338F0EC1C2F5F3F4FC8018D1991092817390718
S113390028F319C08091EC1C9091ED1CFE01E20F8C
S1133910F31F4081FC01E756F24E408301969093D9
S1133920ED1C8093EC1C2F5F3F4F02C020E030E081
S11339302017310738F3DF91CF911F910F91FF903A
S1133940EF90DF900895FF920F931F93CF93DF932F
S1133950CDB7DEB76E970FB6F894DEBF0FBECDBFFE
S1133960F82E2091EC1C3091ED1C2115310559F0F5
S11339706091E81C7091E91C8091EA1C9091EB1C09
S113398049E95DE108DE1092E81C1092E91C1092EE
S1133990EA1C1092EB1C1092ED1C1092EC1C80910E
S11339A0E71C1F928F9388E194E09F938F938E017D
S11339B00F5F1F4F1F930F9302D4C80188DC8091BF
S11339C0E71C0F900F900F900F900F900F908F1196
S11339D01EC081E08093E61C00E02FEF3FEFA901B9
S11339E060E070E08091571D9091581D0E944B0635
S11339F082E080938D1D20E030E0A90160E070E05A
S1133A008091571D9091581D0E946A051BC000E0CB
S1133A102FEF3FEFA90160E070E08091571D909176
S1133A20581D0E944B0683E080938D1D20E030E0FA
S1133A30A90160E070E08091571D9091581D0E948B
S1133A406A05C6DE6E960FB6F894DEBF0FBECDBF14
S1133A50DF91CF911F910F91FF9008955058BB278C
S1133A60AA270ED075C166D130F06BD120F031F4A5
S1133A709F3F11F41EF45BC10EF4E095E7FB51C1C6
S1133A80E92F77D180F3BA17620773078407950784
S1133A9018F071F49EF58FC10EF4E0950B2EBA2F39
S1133AA0A02D0B01B90190010C01CA01A001112440
S1133AB0FF27591B99F0593F50F4503E68F11A16EC
S1133AC0F040A22F232F342F4427585FF3CF46957D
S1133AD037952795A795F0405395C9F77EF41F169F
S1133AE0BA0B620B730B840BBAF09150A1F0FF0F69
S1133AF0BB1F661F771F881FC2F70EC0BA0F621F55
S1133B00731F841F48F4879577956795B795F79544
S1133B109E3F08F0B3CF9395880F08F09927EE0FD6
S1133B20979587950895D9D008F481E008950CD02D
S1133B300FC107D140F0FED030F021F45F3F19F0FF
S1133B40F0C0511139C1F3C014D198F39923C9F3CA
S1133B505523B1F3951B550BBB27AA27621773078F
S1133B60840738F09F5F5F4F220F331F441FAA1F43
S1133B70A9F333D00E2E3AF0E0E830D09150504003
S1133B80E695001CCAF729D0FE2F27D0660F771FB1
S1133B90881FBB1F261737074807AB07B0E809F093
S1133BA0BB0B802DBF01FF2793585F4F2AF09E3F28
S1133BB0510568F0B6C000C15F3FECF3983EDCF3FA
S1133BC0869577956795B795F7959F5FC9F7880FA1
S1133BD0911D9695879597F90895E1E0660F771FF3
S1133BE0881FBB1F621773078407BA0720F0621B84
S1133BF0730B840BBA0BEE1F88F7E095089504D07D
S1133C006894B111D9C00895BCD088F09F5790F042
S1133C10B92F9927B751A0F0D1F0660F771F881FED
S1133C20991F1AF0BA95C9F712C0B13081F0C3D008
S1133C30B1E00895C0C0672F782F8827B85F39F0A6
S1133C40B93FCCF3869577956795B395D9F73EF44C
S1133C5090958095709561957F4F8F4F9F4F0895F4
S1133C60E89409C097FB3EF4909580957095619512
S1133C707F4F8F4F9F4F9923A9F0F92F96E9BB27C8
S1133C809395F695879577956795B795F111F8CF44
S1133C90FAF4BB0F11F460FF1BC06F5F7F4F8F4FAF
S1133CA09F4F16C0882311F096E911C0772321F0A5
S1133CB09EE8872F762F05C0662371F096E8862F3D
S1133CC070E060E02AF09A95660F771F881FDAF794
S1133CD0880F9695879597F90895990F0008550FC1
S1133CE0AA0BE0E8FEEF16161706E807F907C0F07E
S1133CF012161306E407F50798F0621B730B840B86
S1133D00950B39F40A2661F0232B242B252B21F45F
S1133D1008950A2609F4A140A6958FEF811D811DFF
S1133D20089597F99F6780E870E060E008959FEF39
S1133D3080EC089500240A9416161706180609063E
S1133D40089500240A94121613061406050608950D
S1133D50092E0394000C11F4882352F0BB0F40F495
S1133D60BF2B11F460FF04C06F5F7F4F8F4F9F4FD5
S1133D70089557FD9058440F551F59F05F3F71F057
S1133D804795880F97FB991F61F09F3F79F08795BE
S1133D900895121613061406551FF2CF4695F1DF47
S1133DA008C0161617061806991FF1CF86957105D7
S1133DB0610508940895E894BB2766277727CB010B
S1133DC097F908958ADF08F48FEF08950BD0C0CFD8
S1133DD0B1DF28F0B6DF18F0952309F0A2CFA7CF02
S1133DE01124EACFC6DFA0F3959FD1F3950F50E0DD
S1133DF0551F629FF001729FBB27F00DB11D639F99
S1133E00AA27F00DB11DAA1F649F6627B00DA11D3E
S1133E10661F829F2227B00DA11D621F739FB00DE4
S1133E20A11D621F839FA00D611D221F749F332754
S1133E30A00D611D231F849F600D211D822F762FED
S1133E406A2F11249F5750408AF0E1F088234AF0EA
S1133E50EE0FFF1FBB1F661F771F881F9150504036
S1133E60A9F79E3F510570F05CCFA6CF5F3FECF3FE
S1133E70983EDCF3869577956795B795F795E79522
S1133E809F5FC1F7FE2B880F911D9695879597F933
S1133E900895FA01EE0FFF1F30962105310599F1BF
S1133EA06115710561F48038BFE39B0749F168949B
S1133EB09038810561F08038BFEF9B0741F099236A
S1133EC042F5FF3FE1053105210511F1E89408941D
S1133ED0E795D901AA2329F4AB2FBE2FF85FD0F3BD
S1133EE010C0FF5F70F4A695E0F7F73950F019F0B1
S1133EF0FF3A38F49F779F930CD00F9007FC9058AB
S1133F0008953EF014CF60E070E080E89FE30895E8
S1133F104FE79F775F934F933F932F939ED02F91BB
S1133F203F914F915F9152DF05C019F40EF0F9CE25
S1133F3042CFFDCE26DFC8F39638C0F707F80F92BC
S1133F40E8942BE33AEA48EB5FE74EDF0F920F92D7
S1133F500F924DB75EB70F92C0D0E4EEF0E016D0EA
S1133F604F915F91EF91FF91E595EE1FFF1F49F08F
S1133F70FE57E0684427EE0F441FFA95E1F7419598
S1133F80550B32D00F9007FE26C00895DF93CF93D0
S1133F901F930F93FF92EF92DF927B018C01689441
S1133FA005C0DA2EEF011EDFFE01E894A5912591EC
S1133FB0359145915591AEF3EF0162DDFE01970114
S1133FC0A801DA9479F7DF90EF90FF900F911F9199
S1133FD0CF91DF9108959B01AC0160E070E080E82F
S1133FE09FE3A5CD9ECEACC0CCDEE8F39923D9F3F4
S1133FF0940F511DBBF39150504094F059F0882315
S113400032F0660F771F881F91505040C1F79E3FD2
S1134010510544F7880F911D9695879597F9089552
S11340205F3FACF0983E9CF0BB27869577956795EB
S1134030B79508F4B1609395C1F7BB0F58F711F425
S113404060FFE8CF6F5F7F4F8F4F9F4FE3CFB4CEBA
S11340500EF076C06CCE689464CE93DEC8F39923D8
S1134060D1F3C6F3DF93CF931F930F93FF92C92F1E
S1134070DD2788232AF02197660F771F881FDAF738
S113408020E030E040E85FEB9FE3883920F0803E99
S113409030F021968F77E3DCECE0F1E003C0DFDC65
S11340A0E9E3F1E073DF8B01BE01EC01FB2E6F57F6
S11340B071097595771F880B990BD4DD28E132E7D8
S11340C041E35FE38FDEAF2D9801AE01FF900F91C6
S11340D01F91CF91DF91D4DC3BCEFA01DC01AA0F12
S11340E0BB1F9B01AC01BF5728F422273327442769
S11340F050781FC0B75188F4AB2F002446953795EC
S11341002795011CA395D2F3002069F0220F331FD9
S1134110441FB395DAF30DD0A1CC61307105A0E84A
S11341208A07B94630F49B01AC01662777278827B4
S11341309078309621F0208331834283538308950D
S11341409F3F31F0915020F4879577956795B79507
S1134150880F911D9695879597F90895DB018F93A4
S11341609F930BD0BF91AF91A29F800D911DA39FF0
S1134170900DB29F900D1124089509D0A59F900D24
S1134180B49F900DA49F800D911D11240895A29FAA
S1134190B001B39FC001A39F700D811D1124911D17
S11341A0B29F700D811D1124911D0895FB01DC0146
S11341B002C001900D9241505040D8F708950F93DA
S11341C01F93CF93DF93CDB7DEB72E970FB6F89436
S11341D0DEBF0FBECDBF0E891F8986E08C831A8394
S11341E009838FEF9FE79E838D83AE01465E5F4F09
S11341F0688D798DCE01019610D0EF81F885E00F9E
S1134200F11F10822E960FB6F894DEBF0FBECDBFFD
S1134210DF91CF911F910F9108952F923F924F926A
S11342205F926F927F928F929F92AF92BF92CF9242
S1134230DF92EF92FF920F931F93CF93DF93CDB74B
S1134240DEB72B970FB6F894DEBF0FBECDBF6C015F
S11342507B018A01FC0117821682838181FFBFC121
S1134260CE0101963C01F6019381F70193FD8591FE
S113427093FF81917F01882309F4ADC1853239F41C
S113428093FD859193FF81917F01853221F4B601DD
S113429090E0D6D1E8CF912C212C312CFFE1F315FD
S11342A0D8F08B3279F038F4803279F08332A1F48B
S11342B0232D20611DC08D3261F0803369F4232DDC
S11342C0216016C0832D8260382EE32DE4603E2EDB
S11342D02AC0F32DF8601DC037FC2DC020ED280F37
S11342E02A3040F08E32B9F436FC75C1232D206497
S11342F0322E19C036FE06C08AE0989E200D112485
S1134300922E11C0EAE02E9E200D1124222EF32DB0
S1134310F0623F2E08C08C3621F4832D8068382E3D
S113432002C0883641F4F70193FD859193FF819192
S11343307F018111B3CF982F9F7D9554933028F43A
S11343400C5F1F4F9FE399830DC0833631F0833791
S113435071F0833509F055C020C0F801808189834C
S11343600E5F1F4F88248394912C530112C028019F
S1134370F2E04F0E511CF801A080B18036FE03C05C
S1134380692D70E002C06FEF7FEFC5014ED14C0183
S11343908201F32DFF773F2E15C0280122E0420E43
S11343A0511CF801A080B18036FE03C0692D70E075
S11343B002C06FEF7FEFC5012DD14C01F32DF068E2
S11343C03F2E820133FC19C0822D90E08816990695
S11343D0A0F4B60180E290E033D12A94F5CFF50140
S11343E037FC859137FE81915F01B60190E028D1B9
S11343F021102A9421E0821A91088114910479F7FA
S1134400E1C0843611F0893639F5F80137FE07C06A
S113441060817181828193810C5F1F4F08C060812C
S11344207181072E000C880B990B0E5F1F4FF32D23
S1134430FF763F2E97FF09C0909580957095619502
S11344407F4F8F4F9F4FF0683F2E2AE030E0A3014B
S113445033D1882E861844C0853731F4232D2F7E1E
S1134460B22E2AE030E025C0932D997FB92E8F36E5
S1134470C1F018F4883579F0AEC0803719F0883768
S113448021F0A9C0E92FE061BE2EB4FE0DC0FB2DC2
S1134490F460BF2E09C034FE0AC0292F2660B22E54
S11344A006C028E030E005C020E130E002C020E191
S11344B032E0F801B7FE07C0608171818281938187
S11344C00C5F1F4F06C06081718180E090E00E5F39
S11344D01F4FA301F1D0882E8618FB2DFF773F2EA6
S11344E036FE0DC0232D2E7FA22E891458F434FEDF
S11344F00BC032FC09C0832D8E7EA82E05C0B82CBB
S1134500A32C03C0B82C01C0B92CA4FE0FC0FE011B
S1134510E80DF11D8081803321F49A2D997EA92E16
S113452009C0A2FE06C0B394B39404C08A2D867851
S113453009F0B394A3FC10C0A0FE06C0B21480F42A
S1134540280C922C9B180DC0B21458F4B60180E2CA
S113455090E076D0B394F8CFB21418F42B1802C0BC
S1134560982C212CA4FE0FC0B60180E390E068D003
S1134570A2FE16C0A1FC03C088E790E002C088E553
S113458090E0B6010CC08A2D867851F0A1FE02C0DD
S11345908BE201C080E2A7FC8DE2B60190E050D02E
S11345A0891430F4B60180E390E04AD09A94F8CFAD
S11345B08A94F301E80DF11D8081B60190E040D0AA
S11345C08110F6CF222009F44ECEB60180E290E0AD
S11345D037D02A94F7CFF6018681978102C08FEFF6
S11345E09FEF2B960FB6F894DEBF0FBECDBFDF91C1
S11345F0CF911F910F91FF90EF90DF90CF90BF90DC
S1134600AF909F908F907F906F905F904F903F906E
S11346102F900895FC010590615070400110D8F767
S1134620809590958E0F9F1F0895FC0161507040F6
S113463001900110D8F7809590958E0F9F1F0895D3
S11346400F931F93CF93DF93FB01238121FD03C0BD
S11346508FEF9FEF2CC022FF16C046815781248123
S113466035814217530744F4A081B1819D012F5F26
S11346703F4F318320838C93268137812F5F3F4FB7
S11346803783268314C08B01EC01FB010084F18580
S1134690E02D1995892BE1F6D80116968D919C9100
S11346A01797019617969C938E931697CE01DF91D8
S11346B0CF911F910F910895FA01AA27283051F143
S11346C0203181F1E8946F936E7F6E5F7F4F8F4F3F
S11346D09F4FAF4FB1E03ED0B4E03CD0670F781F9E
S11346E0891F9A1FA11D680F791F8A1F911DA11D83
S11346F06A0F711D811D911DA11D20D009F46894BC
S11347003F912AE0269F11243019305D3193DEF663
S1134710CF010895462F4770405D4193B3E00FD019
S1134720C9F7F6CF462F4F70405D4A3318F0495D04
S113473031FD4052419302D0A9F7EACFB4E0A695E7
S11347409795879577956795BA95C9F70097610509
S1134750710508959B01AC010A2E0694579547955F
S113476037952795BA95C9F7620F731F841F951F54
S10B4770A01D0895F894FFCF89
S1134778A613CB13561407143614891449444C450C
S1134788004361745361740D0A002D2D2D2D2D2DB8
S11347982D2D2D2D2D2D2D2D2D2D0D0A00496E6914
S11347A87469616C697A696E6720616E6420546506
S11347B87374696E672E2E2E0D0A005732355133E5
S11347C8323A2025640D0A00424D503339303A20DC
S11347D825640D0A00424E4F3035353A2025640DC4
S11347E80A005461736B20746F2073656E642074BF
S11347F8656C656D6574727920746F2067726F7566
S11348086E64005461736B20746F2072656365690C
S1134818766520636F6D6D616E64732066726F6D6B
S11348282067726F756E64005461736B20746F2017
S113483868616E646C6520616C6C206576656E7465
S113484873005461736B20746F2072656164206413
S11348586174612066726F6D2073656E736F727315
S1134868005374617274696E672E2E2E0D0A004C03
S113487861756E63686564210D0A004C616E646538
S113488864210D0A0072656C656173652068616E48
S1134898646C65720D0A0050726F62652052656C13
S11348A86561736564210D0A00416C7469747564EB
S11348B8653A2025640D0A0049732046616C6C69C9
S11348C86E67210D0A0075706C6F6164696E6720EC
S11348D8636F64650D0A0066696E616C20706163BC
S11348E86B65740D0A0052656365697665642043D7
S11348F86865636B73756D3A20253032780D0A004C
S1134908536F6D657468696E672077656E74207778
S1134918726F6E67210D0A0044726F7070656420AF
S1134928616E20696E76616C6964207061636B6581
S1134938742E0D0A0077726974696E672070616756
S11349486521005374617274696E672066726F6DB5
S113495820616464726573733A2030782530367840
S11349680D0A002B2530346420007C202530327851
S113497820007C0D0A0077726974696E67206E6581
S1134988772070616765210043616C63756C61749D
S1134998656420436865636B73756D3A202530320E
S10749A8780D0A0078
S9030000FC
