:100000002FC100004EC100004CC100004AC10000D9
:1000100048C1000046C1000044C1000042C10000C8
:1000200040C100003EC100003CC100003AC10000D8
:1000300038C1000036C1000034C1000032C10000E8
:1000400030C1000083C400002CC100002AC10000A0
:1000500028C1000026C1000024C1000022C1000008
:1000600020C100001EC100001CC100001AC1000018
:1000700018C1000016C1000014C1000012C1000028
:1000800010C100000EC100000CC100000AC1000038
:100090000C940B1106C1000004C1000002C1000055
:1000A00000C10000FEC00000FCC00000FAC000005B
:1000B000F8C00000F6C00000F4C00000F2C000006C
:1000C000F0C00000EEC00000ECC00000EAC000007C
:1000D000E8C00000E6C00000E4C00000E2C000008C
:1000E000E0C0000007634236B79BD8A71A396856AC
:1000F00018AEBAAB558C1D3CB7CC5763BD6DEDFD4A
:10010000753EF6177231BF000000803F0800000006
:10011000BE922449123EABAAAA2ABECDCCCC4C3EFC
:1001200000000080BEABAAAAAA3E00000000BF00EB
:100130000000803F0000000000084178D3BB4387E7
:10014000D1133D190E3CC3BD4282AD2B3E68EC82FB
:1001500076BED98FE1A93E4C80EFFFBE01C4FF7F80
:100160003F000000000000407A10F35A00A0724ED9
:1001700018090010A5D4E80000E87648170000E44C
:100180000B54020000CA9A3B000000E1F505000094
:1001900080969800000040420F000000A0860100F9
:1001A0000000102700000000E803000000006400C9
:1001B000000000000A000000000001000000000034
:1001C0002C76D888DC674F0823DFC1DFAE59E1B158
:1001D000B796E5E3E453C63AE651997696E8E6C267
:1001E0008426EB898C9B62ED407C6FFCEFBC9C9F6E
:1001F00040F2BAA56FA5F490055A2AF75C936B6C90
:10020000F9676DC11BFCE0E40D47FEF520E6B50083
:10021000D0ED902E0300943577050080841E0800F1
:1002200000204E0A000000C80C333333330F986EA1
:1002300012831141EF8D2114893BE65516CFFEE65E
:10024000DB18D1844B381BF77C1D901DA4BBE42424
:10025000203284725E228100C9F124ECA1E53D27A1
:1002600011241FBECFEFD1E2DEBFCDBF00E00CBF37
:1002700013E0A0E0B2E0EAE0F4E300E00BBF02C06C
:1002800007900D92AC36B107D9F72BE1ACE6B3E09D
:1002900001C01D92AC38B207E1F70E94EB0C0C9440
:1002A000031AAECEFC010396928381834FEF5FEF7A
:1002B000BA014383548365837683908787839287CB
:1002C000818710820895FC01138612860895CF93CA
:1002D000DF939C01FB01DC011196CD91DC9112971B
:1002E000D583C4838E819F81978386838E819F81EE
:1002F000DC0115967C936E9314977F836E8333870E
:100300002287F90180818F5F8083DF91CF910895EB
:100310000F931F93CF93DF93EB01088119812A81FB
:100320003B810F3F4FEF14072407340721F4FC01F2
:10033000A185B28511C0DC01139601C0DF011496BE
:10034000ED91FC9115974081518162817381041771
:1003500015072607370790F71496ED91FC9115972E
:10036000FD83EC83D783C683BF83AE831596DC936E
:10037000CE9314979B878A87FC0120812F5F20836F
:10038000DF91CF911F910F910895CF93DF93FC01DF
:10039000A285B385C481D581868197819F838E8311
:1003A000C681D781848195819D838C8311968D919F
:1003B0009C911297E817F90731F48681978112967C
:1003C0009C938E931197138612868C9181508C93F7
:1003D000DF91CF910895CF93DF93E8E7F3E0A4E7AF
:1003E000B3E01196FC93EE9313961C921E92129713
:1003F000CF010F2E000CAA0BBB0B8459984EAF4FA8
:10040000BF4FEC0190937303809372031B821A8297
:10041000198218829C0128573340338322839183A9
:10042000808330936F0320936E0330937103209386
:10043000700380E090E890936D0380936C03DF91EC
:10044000CF910895CF93DF93EC01A4E7B3E001C00F
:10045000DF01ED91FC911197EC17FD07C8F312969F
:100460008D919C9113979D01280F391FC217D307B7
:1004700049F42A813B81820F931F13969C938E939C
:100480001297ED018A819B819E01280F391FE21787
:10049000F307C1F42091720330917303E217F3075D
:1004A00071F022813381820F931F9B838A83ED91A8
:1004B000FC911197808191819983888305C039834C
:1004C000288302C0F983E883CA17DB0711F0CD93B4
:1004D000DC93DF91CF910895EF92FF920F931F93DA
:1004E000CF93DF938C011FD7809172039091730398
:1004F000892B09F470DF80916C0390916D03802348
:100500009123892B09F066C00115110511F00C5FCC
:100510001F4F0115110509F460C08091700390917F
:1005200071038017910708F45BC0C0917403D091E8
:100530007503E4E7F3E002C0FE01EC018A819B81D0
:100540008017910720F4888199810097A9F78091FD
:10055000720390917303C817D90709F444C0E0806F
:10056000F18084E0E80EF11C888199819183808379
:100570002A813B81201B310B2930310548F0CE0107
:10058000800F911FFC01338322831B830A835ADF70
:100590002A813B818091700390917103821B930BA0
:1005A000909371038093700340916E0350916F0399
:1005B0008417950720F490936F0380936E038091C6
:1005C0006C0390916D03282B392B3B832A8319826E
:1005D00018820BC0E12CF12C08C0E12CF12C05C0D5
:1005E000E12CF12C02C0E12CF12C72D7C701DF9174
:1005F000CF911F910F91FF90EF9008950F931F934C
:10060000CF93DF93009739F1EC0124974A815B8106
:1006100020916C0330916D03BA0162237323672B21
:10062000D1F068817981672BB1F42095309524232E
:1006300035233B832A8377D68A819B81209170035F
:1006400030917103820F931F909371038093700315
:10065000CE01F8DE3DD7DF91CF911F910F91089524
:100660001092890089EF80938800109280008BE0BF
:1006700080938100EFE6F0E08081826080830895BE
:1006800031E1FC013083319722E220833197A3E3EB
:10069000A0833197608331977083319710823197AF
:1006A0001082319760E86083319710823197108211
:1006B00031971082319762E06083319763E0608305
:1006C000319764E06083319765E06083319766E03D
:1006D0006083319767E06083319768E0608331978A
:1006E00069E06083319760E16083319730833197AF
:1006F00032E13083319733E13083319734E1308315
:10070000319735E13083319736E13083319737E1E6
:100710003083319738E13083319739E13083319735
:1007200030E23083319731E2308331972083319743
:1007300023E220833197408331975083319726E21B
:100740002083319727E22083319728E22083319755
:1007500029E22083319720E32083319721E320830E
:10076000899708957DDFA0916D1BB0916E1BCD918F
:10077000CDBFDD91DEBFFF91EF91DF91CF91BF91B2
:10078000AF919F918F917F916F915F914F913F9129
:100790002F911F910F91FF90EF90DF90CF90BF901E
:1007A000AF909F908F907F906F905F904F903F9011
:1007B0002F901F900F900CBE0F900BBE0F900FBE8E
:1007C0000F90089581E008950F920FB6F8940F925C
:1007D0000BB60F920CB60F921F9211242F923F92DC
:1007E0004F925F926F927F928F929F92AF92BF9241
:1007F000CF92DF92EF92FF920F931F932F933F932D
:100800004F935F936F937F938F939F93AF93BF9318
:10081000CF93DF93EF93FF93A0916D1BB0916E1B6D
:100820000DB60D920EB60D9208D7A0916D1BB0912A
:100830006E1BCD91CDBFDD91DEBFFF91EF91DF91BA
:10084000CF91BF91AF919F918F917F916F915F9168
:100850004F913F912F911F910F91FF90EF90DF905B
:10086000CF90BF90AF909F908F907F906F905F9050
:100870004F903F902F901F900F900CBE0F900BBE8B
:100880000F900FBE0F9008950F920FB6F8940F922D
:100890000BB60F920CB60F921F9211242F923F921B
:1008A0004F925F926F927F928F929F92AF92BF9280
:1008B000CF92DF92EF92FF920F931F932F933F936C
:1008C0004F935F936F937F938F939F93AF93BF9358
:1008D000CF93DF93EF93FF93A0916D1BB0916E1BAD
:1008E0000DB60D920EB60D9224D58111A6D6A0910B
:1008F0006D1BB0916E1BCD91CDBFDD91DEBFFF9121
:10090000EF91DF91CF91BF91AF919F918F917F91A7
:100910006F915F914F913F912F911F910F91FF9098
:10092000EF90DF90CF90BF90AF909F908F907F908F
:100930006F905F904F903F902F901F900F900CBE44
:100940000F900BBE0F900FBE0F9008959DDF18956E
:100950000FB6F8940F92FC01868D811102C081E0E0
:1009600001C080E00F900FBE08950FB6F8940F926B
:10097000FC01268D878D281302C081E001C080E034
:100980000F900FBE08950F931F93CF93DF93EC0149
:10099000042F1E8D48A141110BC088819981892B9C
:1009A00009F041C08A819B81C4D71B821A8242C050
:1009B000011117C050E08C819D810E94D11428A1A3
:1009C0008C819D81820F911D9D838C832A813B8127
:1009D0008217930750F1888199819D838C8380E0F1
:1009E00029C050E08E819F810E94D11488A190E09F
:1009F0009195819591092E813F81280F391F3F8361
:100A00002E83488159812417350730F42A813B8190
:100A1000820F931F9F838E83023049F4112349F084
:100A2000115080E007C080E005C080E003C080E096
:100A300001C080E01F5F1E8FDF91CF911F910F914A
:100A40000895FC0140A14423A9F050E0268137819C
:100A5000240F351F37832683828193812817390716
:100A600020F08081918197838683CB016681778195
:100A70000C94D11408951F93CF93DF93EC010FB61C
:100A8000F8940F921AA109C08B89882341F0CE01F6
:100A9000439634D68111EBD611501116ACF38FEF7B
:100AA0008AA30F900FBE0FB6F8940F9219A109C038
:100AB0008885882341F0CE01089620D68111D7D6AB
:100AC00011501116ACF38FEF89A30F900FBEDF9179
:100AD000CF911F910895CF93DF93EC010FB6F89457
:100AE0000F92E881F9818F8D90E028A130E0829FFC
:100AF000A001839F500D929F500D11244E0F5F1F38
:100B00005B834A831E8EFD83EC830197289FA0019F
:100B1000299F500D389F500D1124CF01840F951F30
:100B20009F838E838FEF89A38AA361110AC0888572
:100B3000882369F0CE010896E1D5882341F044DE90
:100B400006C0CE010896AEDBCE014396ABDB0F901C
:100B50000FBE81E0DF91CF9108950F931F93F801AD
:100B6000611103C01183008302C051834083878FCA
:100B700060A361E0CF01AFDF1F910F910895DF9275
:100B8000EF92FF920F931F93CF93DF93E82EF62EF1
:100B9000D42E662321F0869FC001112402C080E07C
:100BA00090E0839699DCEC01009741F08C012D2DAB
:100BB000AC014D5D5F4F6F2D8E2DCFDFCE01DF91EC
:100BC000CF911F910F91FF90EF90DF900895CF92FA
:100BD000DF92EF92FF920F931F93CF93DF93CDB7E6
:100BE000DEB729970FB6F894DEBF0FBECDBF7C01EC
:100BF0006B012E833F834887598710E00FB6F89426
:100C00000F92F701968D878D981710F00230A9F496
:100C1000402FB601C701B7DEF7019389992339F058
:100C2000C70143966BD5882321F0CEDD02C0811128
:100C3000CBDD0F900FBE81E046C08E819F81A885DD
:100C4000B985892B8A2B8B2B21F40F900FBE80E066
:100C50003AC0111104C0CE01019692D511E00F9057
:100C60000FBE61D30FB6F8940F92F70181A18F3FA9
:100C700009F411A2F70182A18F3F09F412A20F908B
:100C80000FBEBE016A5F7F4FCE0101968AD58111EA
:100C900016C0C7016ADE882371F04E815F816885C6
:100CA0007985C701089613D5C701E5DE11D48111F6
:100CB000A5CF8ADDA3CFC701DEDE0AD49FCFC7014F
:100CC000DADE06D480E029960FB6F894DEBF0FBEB8
:100CD000CDBFDF91CF911F910F91FF90EF90DF90EB
:100CE000CF9008950F93009769F0FC011382128250
:100CF00011821082168200E020E030E0A90160E05D
:100D000070E065DF0F910895CF93DF93482F60E087
:100D100081E035DFEC01E6DFCE01DF91CF91089570
:100D2000EF92FF920F931F93CF93DF938A01FC0101
:100D3000568D378D531710F02230E1F4422F780191
:100D4000EC011AA120DE1F3F79F48B898823A1F0E2
:100D5000CE014396D3D4882389F0E114F10481F0C5
:100D600081E0F70180830DC0FF24F394F10EFAA215
:100D700081E007C080E005C081E003C081E001C0E0
:100D800081E0DF91CF911F910F91FF90EF90089537
:100D90008F929F92BF92CF92DF92EF92FF920F932A
:100DA0001F93CF93DF93CDB7DEB729970FB6F89493
:100DB000DEBF0FBECDBF7C016B012E833F83488712
:100DC0005987B02E00E00FB6F8940F92F701168DF8
:100DD000112361F186809780B601C70132DEB11020
:100DE00016C01150F701168F80819181892B21F453
:100DF000E0D5F70193838283F7018085882391F002
:100E0000C70108967BD4882369F0DEDC0BC0F701AC
:100E1000978286828389882329F0C70143966ED4FE
:100E20008111D2DC0F900FBE81E058C08E819F816E
:100E3000A885B985892B8A2B8B2B21F40F900FBEA7
:100E400080E04CC0011104C0CE01019699D401E0AC
:100E50000F900FBE68D20FB6F8940F92F70181A1E0
:100E60008F3F09F411A2F70182A18F3F09F412A26A
:100E70000F900FBEBE016A5F7F4FCE01019691D4E5
:100E8000811123C0C70164DD8823D9F0F701808177
:100E90009181892B41F40FB6F8940F92828193814E
:100EA000EAD40F900FBE4E815F8168857985C701B6
:100EB00043960DD4C701DFDD0BD3811184CF84DCD1
:100EC00082CFC701D8DD04D37ECFC701D4DD00D3E4
:100ED000C7013EDD882309F476CF80E029960FB65E
:100EE000F894DEBF0FBECDBFDF91CF911F910F9160
:100EF000FF90EF90DF90CF90BF909F908F900895DC
:100F0000E0911E1BF0911F1B808181110CC08FEF9F
:100F10009FEFDC018093EB1A9093EC1AA093ED1AEB
:100F2000B093EE1A0895E0911E1BF0911F1B0780ED
:100F3000F085E02D0084F185E02D82819381A481EC
:100F4000B5818093EB1A9093EC1AA093ED1AB093AD
:100F5000EE1A0895CF93DF93EC018B8D9C8D4EDBC1
:100F6000CE014CDBDF91CF9108956F927F928F92EB
:100F70009F92AF92BF92CF92DF92EF920F931F9307
:100F8000CF93DF93CDB7DEB74C01F501838D948D00
:100F9000215031093C01620E731E20E00FC0822FE8
:100FA00090E0FB01E80FF91F3081D501A80FB91FB0
:100FB0005D963C938081882319F02F5F243178F36C
:100FC000F50110AAF4E0FE1518F46894EE24E2F896
:100FD000F501E28EE1AA12AAC501029674D9C501F3
:100FE0000E9671D9F501B386A28685E090E0A0E067
:100FF000B0E08E199109A109B10986879787A08B66
:10100000B18BB78AA68A13AA14AA15AA16AA17AA78
:10101000A801B401C30134DBF50191838083C114BD
:10102000D10419F0F601B182A082DF91CF911F9116
:101030000F91EF90DF90CF90BF90AF909F908F90E7
:101040007F906F900895CF93C0E008C02BE0C29FBF
:10105000C00111248A5C944E25D9CF5FC530B0F30E
:101060008BE29BE11FD980E29BE11CD981E19BE1EE
:1010700019D986E09BE116D98AEF9AE113D98BE260
:101080009BE190931F1B80931E1B80E29BE190933A
:101090001D1B80931C1BCF910895CF93DF93EC0110
:1010A0000FB6F8940F928091F91A8F5F8093F91A16
:1010B00080916D1B90916E1B892B51F4D0936E1B08
:1010C000C0936D1B8091F91A813091F4BCDF10C080
:1010D0008091F31A81110CC0E0916D1BF0916E1B91
:1010E000928D8A8D891720F0D0936E1BC0936D1B53
:1010F0008091EF1A8F5F8093EF1A8A8D9091F41A86
:10110000981710F48093F41A2BE0829FC0011124E9
:10111000BE016E5F7F4F8A5C944ED9D80F900FBE90
:101120008091F31A882349F0E0916D1BF0916E1BBA
:10113000928D8A8D981708F447DBDF91CF9108953F
:101140008F929F92AF92BF92CF92DF92EF92FF92D7
:10115000CF936B017C01C42F8090F51A9090F61A02
:10116000A090F71AB090F81A80916D1B90916E1BA9
:1011700002960BD98FEFC816D806E806F80661F478
:10118000CC2351F060916D1B70916E1B6E5F7F4F91
:101190008AEF9AE19CD83DC0C80CD91CEA1CFB1C04
:1011A000E0916D1BF0916E1BC282D382E482F582C6
:1011B000C814D904EA04FB0460F460916D1B7091BB
:1011C0006E1B80911C1B90911D1B6E5F7F4FA0D8E2
:1011D00020C060916D1B70916E1B80911E1B9091C1
:1011E0001F1B6E5F7F4F94D88091EB1A9091EC1A81
:1011F000A091ED1AB091EE1AC816D906EA06FB06C0
:1012000040F4C092EB1AD092EC1AE092ED1AF092F0
:10121000EE1ACF91FF90EF90DF90CF90BF90AF90FC
:101220009F908F9008952F923F924F925F926F926E
:101230007F928F929F92AF92BF92CF92DF92EF9266
:10124000FF920F931F93CF93DF933C011B015A0131
:101250002901CA0141D96C01892B61F088E390E032
:101260003BD9EC01892B19F0DC8ECB8E05C0C60171
:10127000C5D902C0C0E0D0E0209781F0950140E0E0
:1012800050E0812C912C5E016701E02E8201B101BA
:10129000C3016BDECE0101DF81E001C08FEFDF9182
:1012A000CF911F910F91FF90EF90DF90CF90BF9063
:1012B000AF909F908F907F906F905F904F903F90F6
:1012C0002F900895EF92FF920F930F2EF9EEEF2ECD
:1012D000FAE1FF2EF02D00E020E030E040E054E0A5
:1012E0006AE072E086E19BE09EDF8130C1F4F89411
:1012F0008FEF9FEFDC018093EB1A9093EC1AA09391
:10130000ED1AB093EE1A81E08093F31A1092F51A59
:101310001092F61A1092F71A1092F81A23DA0F9117
:10132000FF90EF9008958091E81A8F5F8093E81AFC
:101330000895BF92CF92DF92EF92FF920F931F9387
:10134000CF93DF938091E81A8111A8C0C090F51A5D
:10135000D090F61AE090F71AF090F81A2FEFC21A10
:10136000D20AE20AF20AC092F51AD092F61AE09274
:10137000F71AF092F81AC114D104E104F104B1F49F
:1013800080911E1B90911F1B20911C1B30911D1BD7
:1013900030931F1B20931E1B90931D1B80931C1BBF
:1013A0008091F01A8F5F8093F01AAADD8091EB1A7A
:1013B0009091EC1AA091ED1AB091EE1AC816D906C8
:1013C000EA06FB0628F4B12C5AC0BB24B39401C032
:1013D000B12CE0911E1BF0911F1B808181110CC06C
:1013E0008FEF9FEFDC018093EB1A9093EC1AA093A0
:1013F000ED1AB093EE1A43C0E0911E1BF0911F1B33
:101400000780F085E02DC085D1858A819B81AC81E4
:10141000BD81C816D906EA06FB0648F48093EB1A8C
:101420009093EC1AA093ED1AB093EE1A28C08E0197
:101430000E5F1F4FC8010E94C501888D998D892BB1
:1014400021F0CE010E960E94C5018A8D9091F41A6A
:10145000981710F48093F41A2BE0829FC001112496
:10146000B8018A5C944E0E9467019A8DE0916D1BD1
:10147000F0916E1B828D981708F0A7CFAACFE0914C
:101480006D1BF0916E1BE28D8BE0E89FF001112443
:10149000EA5CF44E8081823040F409C08091F21AF7
:1014A0008F5F8093F21AB12C02C0BB24B394809159
:1014B000F11A882311F0BB24B3948B2DDF91CF91C7
:1014C0001F910F91FF90EF90DF90CF90BF90089504
:1014D0000F931F93CF93DF930FB6F8940F928091E1
:1014E000E81A81508093E81A8091E81A81114FC060
:1014F0008091F91A81112DC04DC0E091181BF09117
:10150000191BC085D185CE010E960E94C5018E01A2
:101510000E5F1F4FC8010E94C5018A8D9091F41A79
:10152000981710F48093F41A2BE0829FC0011124C5
:10153000B8018A5C944E0E9467019A8DE0916D1B00
:10154000F0916E1B828D981730F081E08093F11A34
:1015500002C0C0E0D0E08091111B8111CECFCD2B15
:1015600009F0CEDCC091F21ACC2351F0E2DE8823E0
:1015700019F081E08093F11AC150C1F71092F21A6C
:101580008091F11A882329F01FD981E003C080E0FF
:1015900001C080E00F900FBEDF91CF911F910F919E
:1015A0000895CF92DF92EF92FF926B017C01672B3F
:1015B000682B692B39F0B7DE40E0C701B601C0DD0A
:1015C00087DF01C080E0811101C0FED8FF90EF905D
:1015D000DF90CF900895CF93DF9321C0A4DEC09118
:1015E000061B76DFCC23D9F00FB6F8940F92E0916A
:1015F0000D1BF0910E1BC085D185CE0102960E9475
:10160000C5018091F91A81508093F91A8091051BC8
:1016100081508093051B0F900FBECE019BDC809103
:10162000051B8111DBCFDF91CF910895D4DF80912D
:10163000361B8230D8F3C8D8F9CF8091E81A8823B6
:1016400021F081E08093F11A08951092F11A8091AF
:10165000F41A01C08150282F30E09BE0929FF001E6
:10166000939FF00D1124EA5CF44E9081992391F33D
:101670009BE0929FA001939F500D1124DF010180F8
:10168000F281E02D0480F581E02D1296FC93EE931B
:101690001197475C544EE417F50729F444815581AE
:1016A000FD01528341839BE0929FF001939FF00DD7
:1016B0001124EA5CF44E0180F281E02D2085318511
:1016C00030936E1B20936D1B8093F41A0895CF9274
:1016D000DF92EF92FF926A017B0160916D1B709126
:1016E0006E1B625F7F4F0E94880141E0C701B60117
:1016F00027DDFF90EF90DF90CF9008950F931F9319
:10170000CF93DF93DC011796ED91FC911897C0857C
:10171000D1858E01025F1F4FC8010E94C5018091D3
:10172000E81A811116C00C501109C8010E94C501A8
:101730008A8D9091F41A981710F48093F41ABBE0F4
:101740008B9FC0011124B8018A5C944E0E946701EE
:1017500005C0B80181E19BE10E9467019A8DE0918B
:101760006D1BF0916E1B828D891720F481E08093B0
:10177000F11A01C080E0DF91CF911F910F91089580
:101780002091F01AFC0120834091F51A5091F61A2D
:101790006091F71A7091F81A4183528363837483BE
:1017A00008958F929F92AF92BF92CF92DF92EF9265
:1017B000FF920F931F93CF93DF93FB010FB6F89423
:1017C0000F920091F51A1091F61A2091F71A3091A4
:1017D000F81A40815181628173814F3FAFEF5A0700
:1017E0006A077A0781F1EC01B881A091F01ABA1763
:1017F00049F0C980DA80EB80FC800C151D052E05B0
:101800003F0518F5DC011196CD90DD90ED90FC9030
:101810001497480159018C189D08AE08BF0884161A
:101820009506A606B70698F4C01AD10AE20AF30A8A
:101830004C0D5D1D6E1D7F1D40835183628373833C
:101840009FDF80E005C080E003C081E001C081E04F
:101850000F900FBEDF91CF911F910F91FF90EF90EE
:10186000DF90CF90BF90AF909F908F90089581E0D0
:101870008093F11A08950F931F93CF93DF93FC0188
:10188000892B09F451C0828DA0916D1BB0916E1B04
:101890005A969C91891708F047C0468557856089FC
:1018A0007189772394F0A0916D1BB0916E1B5A96AD
:1018B0009C9145E050E060E070E0491B51096109EE
:1018C000710946875787608B718B248535854BE07E
:1018D000849FC00111248A5C944E28173907E9F4CB
:1018E0008F01EF012296CE010E94C501E0916D1B90
:1018F000F0916E1B828DF801828F9091F41A9817E7
:1019000010F48093F41AFBE08F9FC0011124BE01F4
:101910008A5C944E0E94670107C0A0916D1BB09134
:101920006E1B5A968C91828FDF91CF911F910F91F0
:1019300008950F931F93CF93DF93FC01892B79F1C7
:1019400082A9815082AB228D91A9291751F1811171
:101950002AC0EF018F010E5F1F4FC8010E94C50111
:1019600089A98A8F45E050E060E070E0481B51098A
:10197000610971094E875F87688B798B9091F41AA2
:10198000981710F48093F41A2BE0829FC001112461
:10199000B8018A5C944E0E94670181E005C080E036
:1019A00003C080E001C080E0DF91CF911F910F91D3
:1019B000089580916D1B90916E1B892B39F0E091F9
:1019C0006D1BF0916E1B82A98F5F82AB80916D1BA6
:1019D00090916E1B0895789487E690E095D34AD055
:1019E0008FE092E0B3D388E192E0B0D38BE292E053
:1019F000ADD381E089D99093751B8093741B40E02F
:101A000061E08EE1BCD890938B1B80938A1B40E0F1
:101A100061E08AE0B4D89093831B8093821B40E0FE
:101A200064E08AE0ACD89093891B8093881BE12CFA
:101A3000F12C02E020E030E048EC50E06DE372E091
:101A400088EB9FE0F0DB20E030E048EC50E06EE512
:101A500072E085E190E1E7DB20E030E044E650E031
:101A600063E872E082E29EE0DEDB8DE992E06ED315
:101A700029DCFFCF87E084B981E58CBD85B1816029
:101A800085B908950F9300E02FEF3FEFA90160E0C3
:101A900070E08091741B9091751B7AD98091781BAE
:101AA000811106C081E08093781B8BEA92E04ED3CF
:101AB00000E020E030E0A90160E070E08091741B5C
:101AC0009091751B84D80F9108950F93CF93DF9356
:101AD00000E02FEF3FEFA90160E070E08091741B00
:101AE0009091751B55D98091781B8130C1F4C6E760
:101AF000DBE182E08A838BE293E028D36B817C81F7
:101B00008D819E8120E030E040E45FE326D5609344
:101B10006F1B7093701B8093711B9093721B00E07E
:101B200020E030E0A90160E070E08091741B9091AA
:101B3000751B4DD8DF91CF910F9108950F9300E061
:101B40002FEF3FEFA90160E070E08091741B90914E
:101B5000751B1ED98091781B823031F483E080930D
:101B6000781B87EB92E0F2D200E020E030E0A901A0
:101B700060E070E08091741B9091751B28D80F91E4
:101B800008950F9300E02FEF3FEFA90160E070E0B0
:101B90008091741B9091751BFBD88091781B8330CA
:101BA00081F484E08093781B89EC92E0CFD2E7E067
:101BB000F1E0808182608083E8E0F1E080818260F2
:101BC000808300E020E030E0A90160E070E08091D7
:101BD000741B9091751B0E94E7050F910895EF9279
:101BE000FF920F931F9300E02FEF3FEFA90160E0FA
:101BF00070E08091741B9091751BCAD88091771BFF
:101C0000882379F01092771BE12CF12C02E010E090
:101C100020E030E044E650E063ED72E086E79EE0CD
:101C200002DB00E020E030E0A90160E070E080919C
:101C3000741B9091751B0E94E7051F910F91FF90F7
:101C4000EF900895CF93DF931F92CDB7DEB7E6E70D
:101C5000FBE181E08183128200E02FEF3FEFA901D9
:101C6000BE016F5F7F4F8091821B9091831B90D844
:101C7000813091F7E981F0E0EE0FFF1FE050FE4F59
:101C80000190F081E02D1995E7CFCF939B01AC0136
:101C90006091841B7091851B8091861B9091871B9E
:101CA00012D3C1E020E030E040E050E452D41816F6
:101CB0000CF0C0E08C2FCF910895CF939B01AC0125
:101CC0006091841B7091851B8091861B9091871B6E
:101CD000FAD29F77C1E020E030E040E05FE358D3E4
:101CE00088230CF0C0E08C2FCF910895CF93DF9321
:101CF000CDB7DEB7A3970FB6F894DEBF0FBECDBF4A
:101D00001092841B1092851B1092861B1092871BC9
:101D100000E02FEF3FEFA901BE016F5F7F4F809181
:101D2000881B9091891B34D8813009F0C3C02FEFF4
:101D30003FEFA90160E070E08091741B9091751BEA
:101D400027D869817A818B819C810F2EF6E7EF2E4F
:101D5000FBE1FF2EF02DF701678370878187928763
:101D600020E836EE45EC57E417D321E03EED42E49F
:101D70005EE356D49B01AC0160E070E080E89FE335
:101D8000A2D220E03AE24DE257E4E7D3F7016383C1
:101D90007483858396836E01FAE1CF0ED11C860190
:101DA00022E030E046E050E0DDD5DF92CF9289E1DD
:101DB00093E09F938F93045111091F930F93FAD5CA
:101DC000C801C4D1F70163817481858196815DDF8B
:101DD0000F900F900F900F900F900F90882391F01D
:101DE00088E293E0B3D181E08D8300E02FEF3FEFF5
:101DF000A901BE016B5F7F4F8091821B9091831B75
:101E00000E94E7056091791B70917A1B80917B1B82
:101E100090917C1B20916F1B3091701B4091711B26
:101E20005091721BB5D288237CF482E08D8300E050
:101E30002FEF3FEFA901BE016B5F7F4F8091821BA7
:101E40009091831B0E94E7056091791B70917A1B2A
:101E500080917B1B90917C1B30DF882379F083E09D
:101E60008D8300E02FEF3FEFA901BE016B5F7F4F35
:101E70008091821B9091831B0E94E7058091791BC2
:101E800090917A1BA0917B1BB0917C1B8093841B4B
:101E90009093851BA093861BB093871B00E020E0E6
:101EA00030E0A90160E070E08091741B9091751B97
:101EB0000E94E70568EE73E080E090E072DB28CFD7
:101EC000AC0120E030E080E007C0FA01E20FF31F30
:101ED000908189272F5F3F4F26173707B0F308956A
:101EE000AC0120E030E080E007C0FA01E20FF31F10
:101EF000908189272F5F3F4F21153105B1F320E0F5
:101F000030E008C0FA013196E20FF31F9081892773
:101F10002F5F3F4F21153105A9F320E030E008C0C5
:101F2000FA013296E20FF31F908189272F5F3F4F0E
:101F300021153105A9F320E030E008C0FA013396FD
:101F4000E20FF31F908189272F5F3F4F2430310527
:101F5000A8F320E030E008C0FA013796E20FF31F43
:101F6000908189272F5F3F4F24303105A8F30895D2
:101F7000CF93DF931F921F92CDB7DEB78FEF898388
:101F80008AE08A8300E02FEF3FEFA90160E070E074
:101F90008091741B9091751B0E94C8068091731BE1
:101FA00091E0980F9093731B06E71BE1F801808383
:101FB000C80196DFF801838761E070E0CE010196E9
:101FC000D1D061E070E0C801CDD061E070E087E77A
:101FD0009BE1C8D061E070E088E79BE1C3D064E09A
:101FE00070E089E79BE1BED064E070E08DE79BE1A3
:101FF000B9D061E070E081E89BE1B4D061E070E0CD
:10200000CE010296AFD000E020E030E0A90160E010
:1020100070E08091741B9091751B0E94E70568EE3B
:1020200073E080E090E0BDDAADCFCF93DF93CDB722
:10203000DEB768970FB6F894DEBF0FBECDBFCE01F6
:102040000196A3D0098110E0FA80B801CE01029672
:1020500037DF0F5F1F4FE1E0F0E0EC0FFD1FE00FF7
:10206000F11F9081891347C082E0F816A9F083E040
:10207000F81641F181E0F81235C01D8A00E02FEF1B
:102080003FEFA901BE016B5E7F4F8091821B909153
:10209000831B0E94E70532C08B819C81AD81BE818C
:1020A0008D8B9E8BAF8BB88F00E02FEF3FEFA90198
:1020B000BE016B5E7F4F8091881B9091891B0E94AF
:1020C000E7051CC084E08D8B00E02FEF3FEFA901F6
:1020D000BE016B5E7F4F8091821B9091831B0E949B
:1020E000E7050CC086E393E031D064E170E0CE01F7
:1020F0000196D6D003C08EE493E028D068EE73E05A
:1021000080E090E04EDA9BCF9093C5008093C400AE
:1021100028E12093C10026E02093C2009093CD00D7
:102120008093CC0088E98093C9002093CA00089569
:102130009091C00095FFFCCF8093C60008959091C8
:10214000C80095FFFCCF8093CE000895CF93DF9316
:10215000EC0102C0EDDF219688818111FBCFDF9178
:10216000CF9108950F931F93CF93DF93EC018C01D0
:10217000060F171F02C08991E2DFC017D107D8F3FD
:10218000DF91CF911F910F910895CF92DF92EF923F
:10219000FF920F93CF93DF931F92CDB7DEB76C0101
:1021A00000E02FEF3FEFA901BE016F5F7F4F8091ED
:1021B0008A1B90918B1B0E94C806813089F7898108
:1021C0008F3F71F7E12CF12C00E02FEF3FEFA901D9
:1021D000BE016F5F7F4F80918A1B90918B1B0E9485
:1021E000C80689818A3039F0F601EE0DFF1D808323
:1021F000C70101967C0189818A3031F7F601EE0D25
:10220000FF1D10820F90DF91CF910F91FF90EF9003
:10221000DF90CF9008951F920F920FB60F92112466
:102220000BB60F922F933F934F935F936F937F93D0
:102230008F939F93AF93BF93EF93FF93CF93DF93CE
:102240001F921F92CDB7DEB78091CE0089831A828C
:1022500020E0AE014E5F5F4FBE016F5F7F4F809108
:102260008A1B90918B1B0E9490068A8181110E948B
:10227000E4030F900F90DF91CF91FF91EF91BF9109
:10228000AF919F918F917F916F915F914F913F910E
:102290002F910F900BBE0F900FBE0F901F901895AF
:1022A0000F931F93CF93DF93EC018C01060F171F41
:1022B00002C089913DDFC017D107D8F3DF91CF91DC
:1022C0001F910F9108955058BB27AA270ED007C120
:1022D000F8D030F0FDD020F031F49F3F11F41EF41F
:1022E000EDC00EF4E095E7FBE3C0E92F09D180F3E0
:1022F000BA17620773078407950718F071F49EF503
:1023000021C10EF4E0950B2EBA2FA02D0B01B901BF
:1023100090010C01CA01A0011124FF27591B99F05B
:10232000593F50F4503E68F11A16F040A22F232F67
:10233000342F4427585FF3CF469537952795A795B7
:10234000F0405395C9F77EF41F16BA0B620B730B5E
:10235000840BBAF09150A1F0FF0FBB1F661F771FCF
:10236000881FC2F70EC0BA0F621F731F841F48F484
:10237000879577956795B795F7959E3F08F0B3CF0A
:102380009395880F08F09927EE0F979587950895F4
:102390006BD008F481E008950CD0A1C099D040F032
:1023A00090D030F021F45F3F19F082C05111CBC0C2
:1023B00085C0A6D098F39923C9F35523B1F3951B93
:1023C000550BBB27AA2762177307840738F09F5F56
:1023D0005F4F220F331F441FAA1FA9F333D00E2EC5
:1023E0003AF0E0E830D091505040E695001CCAF732
:1023F00029D0FE2F27D0660F771F881FBB1F2617F7
:1024000037074807AB07B0E809F0BB0B802DBF01C9
:10241000FF2793585F4F2AF09E3F510568F048C050
:1024200092C05F3FECF3983EDCF386957795679515
:10243000B795F7959F5FC9F7880F911D969587957A
:1024400097F90895E1E0660F771F881FBB1F621799
:1024500073078407BA0720F0621B730B840BBA0B57
:10246000EE1F88F7E0950895990F0008550FAA0B05
:10247000E0E8FEEF16161706E807F907C0F0121697
:102480001306E407F50798F0621B730B840B950B9A
:1024900039F40A2661F0232B242B252B21F40895EF
:1024A0000A2609F4A140A6958FEF811D811D08958C
:1024B00097F99F6780E870E060E008959FEF80ECF7
:1024C000089500240A94161617061806090608959A
:1024D00000240A9412161306140605060895092E00
:1024E0000394000C11F4882352F0BB0F40F4BF2B6F
:1024F00011F460FF04C06F5F7F4F8F4F9F4F0895AF
:1025000057FD9058440F551F59F05F3F71F04795A4
:10251000880F97FB991F61F09F3F79F08795089589
:10252000121613061406551FF2CF4695F1DF08C0A8
:10253000161617061806991FF1CF869571056105C5
:1025400008940895E894BB2766277727CB0197F96D
:1025500008958ADF08F48FEF08950BD0C0CFB1DF64
:1025600028F0B6DF18F0952309F0A2CFA7CF1124E9
:10257000EACFC6DFA0F3959FD1F3950F50E0551F2A
:10258000629FF001729FBB27F00DB11D639FAA27C8
:10259000F00DB11DAA1F649F6627B00DA11D661F17
:1025A000829F2227B00DA11D621F739FB00DA11D38
:1025B000621F839FA00D611D221F749F3327A00DF2
:1025C000611D231F849F600D211D822F762F6A2F8E
:1025D00011249F5750408AF0E1F088234AF0EE0F13
:1025E000FF1FBB1F661F771F881F91505040A9F720
:1025F0009E3F510570F05CCFA6CF5F3FECF3983E55
:10260000DCF3869577956795B795F795E7959F5F86
:10261000C1F7FE2B880F911D9695879597F9089520
:10262000FA01EE0FFF1F30962105310599F1611572
:10263000710561F48038BFE39B0749F168949038D5
:10264000810561F08038BFEF9B0741F0992342F587
:10265000FF3FE1053105210511F1E8940894E79564
:10266000D901AA2329F4AB2FBE2FF85FD0F310C0F5
:10267000FF5F70F4A695E0F7F73950F019F0FF3AD4
:1026800038F49F779F930CD00F9007FC90580895D3
:102690003EF014CF60E070E080E89FE308954FE7DC
:1026A0009F775F934F933F932F939ED02F913F91AE
:1026B0004F915F9152DF05C019F40EF0F9CE42CF71
:1026C000FDCE26DFC8F39638C0F707F80F92E894DE
:1026D0002BE33AEA48EB5FE74EDF0F920F920F923F
:1026E0004DB75EB70F92C0D0E4EEF0E016D04F9138
:1026F0005F91EF91FF91E595EE1FFF1F49F0FE57A7
:10270000E0684427EE0F441FFA95E1F74195550B19
:1027100032D00F9007FE26C00895DF93CF931F930A
:102720000F93FF92EF92DF927B018C01689405C0BA
:10273000DA2EEF011EDFFE01E894A5912591359177
:1027400045915591AEF3EF01D0DDFE019701A8014F
:10275000DA9479F7DF90EF90FF900F911F91CF916E
:10276000DF9108959B01AC0160E070E080E89FE399
:1027700013CE9ECEE9C0CCDEE8F39923D9F3940FB3
:10278000511DBBF39150504094F059F0882332F022
:10279000660F771F881F91505040C1F79E3F51052B
:1027A00044F7880F911D9695879597F908955F3F97
:1027B000ACF0983E9CF0BB27869577956795B795CA
:1027C00008F4B1609395C1F7BB0F58F711F460FF9F
:1027D000E8CF6F5F7F4F8F4F9F4FE3CFB4CE0EF0A8
:1027E000B3C06CCE689464CE93DEC8F39923D1F362
:1027F000C6F3DF93CF931F930F93FF92C92FDD276B
:1028000088232AF02197660F771F881FDAF720E0C8
:1028100030E040E85FEB9FE3883920F0803E30F005
:1028200021968F7751DDECE0F1E003C04DDDE9E367
:10283000F1E073DF8B01BE01EC01FB2E6F577109D4
:102840007595771F880B990B44D028E132E741E357
:102850005FE38FDEAF2D9801AE01FF900F911F91C6
:10286000CF91DF9142DD3BCEFA01DC01AA0FBB1F05
:102870009B01AC01BF5728F4222733274427507807
:102880001FC0B75188F4AB2F002446953795279584
:10289000011CA395D2F3002069F0220F331F441FBF
:1028A000B395DAF30DD00FCD61307105A0E88A073A
:1028B000B94630F49B01AC016627772788279078CA
:1028C000309621F020833183428353830895E89426
:1028D00009C097FB3EF490958095709561957F4F68
:1028E0008F4F9F4F9923A9F0F92F96E9BB27939516
:1028F000F695879577956795B795F111F8CFFAF426
:10290000BB0F11F460FF1BC06F5F7F4F8F4F9F4F56
:1029100016C0882311F096E911C0772321F09EE8B4
:10292000872F762F05C0662371F096E8862F70E01A
:1029300060E02AF09A95660F771F881FDAF7880FF4
:102940009695879597F908959F3F31F0915020F41F
:10295000879577956795B795880F911D969587957B
:1029600097F90895EF920F931F93CF93DF93E801A8
:1029700047FD02C034E001C034E1042E000C550BC9
:1029800057FF03C0519541955109E32E022F242F83
:10299000AE013BD2CE01DF91CF911F910F91EF900D
:1029A0000895FB01DC0102C001900D92415050409E
:1029B000D8F708950F931F93CF93DF93CDB7DEB76A
:1029C0002E970FB6F894DEBF0FBECDBF0E891F89BC
:1029D00086E08C831A8309838FEF9FE79E838D8324
:1029E000AE01465E5F4F688D798DCE01019610D0A5
:1029F000EF81F885E00FF11F10822E960FB6F89444
:102A0000DEBF0FBECDBFDF91CF911F910F91089513
:102A10002F923F924F925F926F927F928F929F92EE
:102A2000AF92BF92CF92DF92EF92FF920F931F93DC
:102A3000CF93DF93CDB7DEB72B970FB6F894DEBFF9
:102A40000FBECDBF6C017B018A01FC01178216828B
:102A5000838181FFBFC1CE0101963C01F6019381C4
:102A6000F70193FD859193FF81917F01882309F4FC
:102A7000ADC1853239F493FD859193FF81917F013A
:102A8000853221F4B60190E024D4E8CF912C212C9A
:102A9000312CFFE1F315D8F08B3279F038F4803225
:102AA00079F08332A1F4232D20611DC08D3261F0B5
:102AB000803369F4232D216016C0832D8260382E67
:102AC000E32DE4603E2E2AC0F32DF8601DC037FCD4
:102AD0002DC020ED280F2A3040F08E32B9F436FC9C
:102AE00075C1232D2064322E19C036FE06C08AE03F
:102AF000989E200D1124922E11C0EAE02E9E200DEA
:102B00001124222EF32DF0623F2E08C08C3621F4C2
:102B1000832D8068382E02C0883641F4F70193FD7A
:102B2000859193FF81917F018111B3CF982F9F7D74
:102B30009554933028F40C5F1F4F9FE399830DC089
:102B4000833631F0833771F0833509F055C020C0EA
:102B5000F801808189830E5F1F4F88248394912C14
:102B6000530112C02801F2E04F0E511CF801A08061
:102B7000B18036FE03C0692D70E002C06FEF7FEFB9
:102B8000C5019CD34C018201F32DFF773F2E15C068
:102B9000280122E0420E511CF801A080B18036FECF
:102BA00003C0692D70E002C06FEF7FEFC5017BD3DA
:102BB0004C01F32DF0683F2E820133FC19C0822DA9
:102BC00090E088169906A0F4B60180E290E081D3E7
:102BD0002A94F5CFF50137FC859137FE81915F018D
:102BE000B60190E076D321102A9421E0821A910850
:102BF0008114910479F7E1C0843611F0893639F5F2
:102C0000F80137FE07C060817181828193810C5F7A
:102C10001F4F08C060817181072E000C880B990B33
:102C20000E5F1F4FF32DFF763F2E97FF09C0909543
:102C30008095709561957F4F8F4F9F4FF0683F2E25
:102C40002AE030E0A30181D3882E861844C085375E
:102C500031F4232D2F7EB22E2AE030E025C0932DB3
:102C6000997FB92E8F36C1F018F4883579F0AEC04F
:102C7000803719F0883721F0A9C0E92FE061BE2E16
:102C8000B4FE0DC0FB2DF460BF2E09C034FE0AC097
:102C9000292F2660B22E06C028E030E005C020E1D2
:102CA00030E002C020E132E0F801B7FE07C06081E9
:102CB0007181828193810C5F1F4F06C06081718199
:102CC00080E090E00E5F1F4FA3013FD3882E86184F
:102CD000FB2DFF773F2E36FE0DC0232D2E7FA22E1B
:102CE000891458F434FE0BC032FC09C0832D8E7E4B
:102CF000A82E05C0B82CA32C03C0B82C01C0B92C39
:102D0000A4FE0FC0FE01E80DF11D8081803321F487
:102D10009A2D997EA92E09C0A2FE06C0B394B39441
:102D200004C08A2D867809F0B394A3FC10C0A0FEDD
:102D300006C0B21480F4280C922C9B180DC0B2145B
:102D400058F4B60180E290E0C4D2B394F8CFB21444
:102D500018F42B1802C0982C212CA4FE0FC0B60129
:102D600080E390E0B6D2A2FE16C0A1FC03C088E7C3
:102D700090E002C088E590E0B6010CC08A2D86780C
:102D800051F0A1FE02C08BE201C080E2A7FC8DE2FF
:102D9000B60190E09ED2891430F4B60180E390E051
:102DA00098D29A94F8CF8A94F301E80DF11D8081AE
:102DB000B60190E08ED28110F6CF222009F44ECEDB
:102DC000B60180E290E085D22A94F7CFF6018681A1
:102DD000978102C08FEF9FEF2B960FB6F894DEBF5E
:102DE0000FBECDBFDF91CF911F910F91FF90EF905C
:102DF000DF90CF90BF90AF909F908F907F906F901B
:102E00005F904F903F902F9008958F929F92AF9236
:102E1000BF92CF92DF92EF92FF920F931F93CF93C7
:102E2000DF93CDB7DEB729970FB6F894DEBF0FBE9C
:102E3000CDBF6A01122FB02E2BE3201720F0FF2404
:102E4000F394F00E02C02CE3F22E0F2D27E0AE011A
:102E50004F5F5F4F50D1BC014981842F8970813011
:102E600031F0E1FC06C0E0FE06C090E205C09DE244
:102E700003C09BE201C090E05E2D507143FF3CC057
:102E8000911102C083E001C084E0811718F4212F62
:102E9000281B01C020E051110BC0F601822F30E247
:102EA000882319F031938150FBCFC20ED11C20E052
:102EB000992329F0D6019C93F60131966F01C60142
:102EC0000396E2FE0AC03EE4D6013C9341E411962B
:102ED0004C93119712963C9306C03EE6F601308360
:102EE00041E641833283FC01322F40E2332309F46F
:102EF00042C041933150FACF42FF44C0911102C009
:102F000083E001C084E0811718F4212F281B01C041
:102F100020E051110BC0F601822F30E2882319F016
:102F200031938150FBCFC20ED11C20E0992329F0B0
:102F3000D6019C93F60131966F01C6010396E2FE1D
:102F40000BC039E4D6013C933EE411963C931197B3
:102F500036E412963C9307C039E6F60130833EE62C
:102F6000318336E63283FC01322F40E2332319F0FD
:102F700041933150FBCFFC01E20FF11D10828EEF27
:102F80009FEFA6C021E030E0911102C020E030E0C8
:102F9000161617061CF4FB01319602C0E1E0F0E0C2
:102FA0002E0F3F1FBB2021F0EB2DF0E0319602C029
:102FB000E0E0F0E02E0F3F1FE12FF0E02E173F077B
:102FC0001CF4121B212F01C020E08E2D887159F4B2
:102FD000F601822F30E2882319F031938150FBCF24
:102FE000C20ED11C20E0992329F0D6019C93F60152
:102FF00031966F0151110BC0F601822F90E38823A7
:1030000019F091938150FBCFC20ED11C20E00F2DFF
:10301000060F9A81342F307144FF03C0913309F4B5
:103020000150101624F4093018F008E001C001E046
:10303000AB0177FF02C040E050E0FB01E41BF50B61
:10304000A1E0B0E0AC0FBD1FEA0FFB1F8EE2A82E7F
:103050004B01801A91080B2D10E011950195110973
:103060004F3FBFEF5B0721F4D601AC9211966D0183
:10307000641775072CF08416950614F4818101C03D
:1030800080E3415051093196D60111967D014017D8
:10309000510724F0D6018C936701E2CF64177507BE
:1030A00039F4963320F4953319F4311101C081E3DA
:1030B000F6018083F701822F90E2882319F0919323
:1030C0008150FBCFF701E20FF11D108280E090E00C
:1030D00029960FB6F894DEBF0FBECDBFDF91CF911A
:1030E0001F910F91FF90EF90DF90CF90BF90AF9026
:1030F0009F908F900895283008F027E03327DA0159
:10310000990F311D87FD916000966105710539F4B5
:1031100032602E5F3D9330E32A95E1F708959F3F9B
:1031200030F080387105610509F03C5F3C5F3D93EC
:10313000913008F08068911DDF93CF931F930F9318
:10314000FF92EF92192F987F9695E92F9695969575
:10315000E90FFF27E054FE4F99273327EE24FF2481
:10316000A701E70105900894079428F4360FE71E9D
:10317000F81E491F511D660F771F881F991F06945F
:10318000A1F70590079428F4E70EF81E491F561F73
:10319000C11D770F881F991F661F0694A1F7059020
:1031A000079428F4F80E491F561FC71FD11D880F1A
:1031B000991F661F771F0694A1F70590079420F4C6
:1031C000490F561FC71FD81F990F661F771F881FEB
:1031D0000694A9F784911095177041F0D695C7957C
:1031E00057954795F794E7941A95C1F7E6E6F1E00D
:1031F00068941590159135916591959105907FE2B0
:103200007395E118F10A430B560BC90BD009C0F7AF
:10321000E10CF11E431F561FC91FD01D7EF47033F1
:1032200011F48A95E6CFE894015030F0080F0AF4C3
:103230000027021708F4202F2395022F7A3328F055
:1032400079E37D932A95E9F710C07D932A9589F655
:10325000069497956795379517951794E118F10A95
:10326000430B560BC90BD00998F023957E917395AB
:103270007A3308F070E37C932013B8F77E91706185
:103280007D9330F0839571E37D9370E32A95E1F7A8
:103290001124EF90FF900F911F91CF91DF9199270B
:1032A00087FD90950895FC010590615070400110D4
:1032B000D8F7809590958E0F9F1F0895FC0161505F
:1032C000704001900110D8F7809590958E0F9F1F48
:1032D00008950F931F93CF93DF93FB01238121FD6B
:1032E00003C08FEF9FEF2CC022FF16C0468157818D
:1032F000248135814217530744F4A081B1819D0197
:103300002F5F3F4F318320838C93268137812F5F3E
:103310003F4F3783268314C08B01EC01FB010084EF
:10332000F185E02D1995892BE1F6D80116968D913E
:103330009C911797019617969C938E931697CE01A2
:10334000DF91CF911F910F910895FA01AA2728309C
:1033500051F1203181F1E8946F936E7F6E5F7F4F62
:103360008F4F9F4FAF4FB1E03ED0B4E03CD0670FDE
:10337000781F891F9A1FA11D680F791F8A1F911D31
:10338000A11D6A0F711D811D911DA11D20D009F481
:1033900068943F912AE0269F11243019305D3193C3
:1033A000DEF6CF010895462F4770405D4193B3E0AC
:1033B0000FD0C9F7F6CF462F4F70405D4A3318F053
:1033C000495D31FD4052419302D0A9F7EACFB4E004
:1033D000A6959795879577956795BA95C9F70097BC
:1033E0006105710508959B01AC010A2E069457955D
:1033F000479537952795BA95C9F7620F731F841FB4
:0A340000951FA01D0895F894FFCF5A
:10340A00420D650D9E0DC10DEF0D49444C4500431B
:10341A0061745361740D0A002D2D2D2D2D2D2D2D26
:10342A002D2D2D2D2D2D2D2D0D0A00496E69746916
:10343A00616C697A696E672E2E2E0D0A00546173CB
:10344A006B20746F2073656E642074656C656D659E
:10345A0074727920746F2067726F756E640054619C
:10346A00736B20746F207265636569766520636F7C
:10347A006D6D616E64732066726F6D2067726F7511
:10348A006E64005461736B20746F2068616E646CA3
:10349A006520616C6C206576656E74730053746187
:1034AA007274696E672E2E2E0D0A004C61756E635A
:1034BA00686564210D0A0050726F62652052656C5E
:1034CA006561736564210D0A004C616E646564214F
:1034DA000D0A005461736B20746F2073696D756CEB
:1034EA006174652072656164696E672064617461E4
:1034FA002066726F6D205732355133322C2077692E
:10350A006C6C20696E636C756465206F7468657293
:10351A002073656E736F727300416C74697475649D
:10352A00653A2025730D0A0049732046616C6C695F
:10353A006E67210D0A00536F6D657468696E6720A6
:10354A0077656E742077726F6E67210D0A00447278
:10355A006F7070656420616E20696E76616C696453
:0C356A00207061636B65742E0D0A000078
:00000001FF
