S00B00006F62632E73726563E5
S113000071C000008EC000008CC000008AC00000D7
S113001088C0000086C0000084C0000082C00000C8
S113002080C000007EC000007CC000007AC00000D8
S113003078C0000076C0000074C0000072C00000E8
S113004070C0000078C100006CC000006AC00000ED
S113005068C0000066C0000064C0000062C0000008
S113006060C000005EC000005CC000005AC0000018
S113007058C0000056C0000054C0000052C0000028
S113008050C000004EC000004CC000004AC0000038
S11300901AC4000046C0000044C0000042C0000072
S11300A040C000003EC000003CC000003AC0000058
S11300B038C0000036C0000034C0000032C0000068
S11300C030C000002EC000002CC000003FC400005F
S11300D028C0000026C0000024C0000022C0000088
S11300E020C0000011241FBECFEFD1E2DEBFCDBF80
S11300F000E00CBF12E0A0E0B2E0ECECF9E000E0BC
S11301000BBF02C007900D92A030B107D9F722E0CF
S1130110A0E0B2E001C01D92AC36B207E1F75DD3B6
S113012053C46ECFCF93DF939C01FB01DC01119686
S1130130CD91DC911297D583C4838E819F8197835F
S113014086838E819F81DC0115967C936E93149730
S11301507F836E8333872287F90180818F5F808359
S1130160DF91CF910895CF93DF93FC01A285B385EE
S1130170C481D581868197819F838E83C681D781EF
S1130180848195819D838C8311968D919C91129786
S1130190E817F90731F48681978112969C938E9320
S11301A01197138612868C9181508C93DF91CF9195
S11301B008950F920FB6F8940F920BB60F920CB6E7
S11301C00F921F9211242F923F924F925F926F923F
S11301D07F928F929F92AF92BF92CF92DF92EF92D3
S11301E0FF920F931F932F933F934F935F936F93BC
S11301F07F938F939F93AF93BF93CF93DF93EF93AB
S1130200FF93A0915302B09154020DB60D920EB615
S11302100D921DD2A0915302B0915402CD91CDBF45
S1130220DD91DEBFFF91EF91DF91CF91BF91AF914F
S11302309F918F917F916F915F914F913F912F91FA
S11302401F910F91FF90EF90DF90CF90BF90AF90F0
S11302509F908F907F906F905F904F903F902F90E2
S11302601F900F900CBE0F900BBE0F900FBE0F90FF
S113027008950F920FB6F8940F920BB60F920CB626
S11302800F921F9211242F923F924F925F926F927E
S11302907F928F929F92AF92BF92CF92DF92EF9212
S11302A0FF920F931F932F933F934F935F936F93FB
S11302B07F938F939F93AF93BF93CF93DF93EF93EA
S11302C0FF93A0915302B09154020DB60D920EB655
S11302D00D92F1D08111BBD1A0915302B09154027F
S11302E0CD91CDBFDD91DEBFFF91EF91DF91CF9135
S11302F0BF91AF919F918F917F916F915F914F913A
S11303003F912F911F910F91FF90EF90DF90CF902D
S1130310BF90AF909F908F907F906F905F904F9021
S11303203F902F901F900F900CBE0F900BBE0F901C
S11303300FBE0F9008959DDF18950F931F93CF93D1
S1130340DF93EC01042F1E8D48A141110BC088815D
S11303509981892B09F03FC08A819B8100D21B823D
S11303601A8240C0011116C050E08C819D8123D3B4
S113037028A18C819D81820F911D9D838C832A816C
S11303803B818217930748F1888199819D838C83EF
S113039080E028C050E08E819F810DD388A190E039
S11303A09195819591092E813F81280F391F3F83B3
S11303B02E83488159812417350730F42A813B81E3
S11303C0820F931F9F838E83023049F4112349F0D7
S11303D0115080E007C080E005C080E003C080E0E9
S11303E001C080E01F5F1E8FDF91CF911F910F919D
S11303F00895EF92FF920F931F93CF93DF938A0197
S1130400FC01568D378D531710F02230E1F4422F42
S11304107801EC011AA191DF1F3F79F48B898823BD
S1130420A1F0CE0143965DD1882389F0E114F10453
S113043081F081E0F70180830DC0FF24F394F10E75
S1130440FAA281E007C080E005C081E003C081E03A
S113045001C081E0DF91CF911F910F91FF90EF9048
S11304600895E0911A02F0911B02808181110CC061
S11304708FEF9FEFDC018093010290930202A0931F
S11304800302B09304020895E0911A02F0911B0252
S11304900780F085E02D0084F185E02D8281938131
S11304A0A481B5818093010290930202A093030278
S11304B0B09304020895BF92CF92DF92EF92FF921D
S11304C00F931F93CF93DF93809100028111A5C0F6
S11304D0C0900902D0900A02E0900B02F0900C0246
S11304E02FEFC21AD20AE20AF20AC0920902D0928B
S11304F00A02E0920B02F0920C02C114D104E1044E
S1130500F104B1F480911A0290911B022091180217
S11305103091190230931B0220931A02909319020E
S113052080931802809105028F5F8093050299DF02
S11305308091010290910202A0910302B091040201
S1130540C816D906EA06FB0628F4B12C57C0BB240A
S1130550B39401C0B12CE0911A02F0911B02808186
S113056081110CC08FEF9FEFDC0180930102909307
S11305700202A0930302B093040240C0E0911A0265
S1130580F0911B020780F085E02DC085D1858A811A
S11305909B81AC81BD81C816D906EA06FB0648F4E6
S11305A08093010290930202A0930302B093040289
S11305B025C08E010E5F1F4FC801D5DD888D998D32
S11305C0892B19F0CE010E96CEDD8A8D909108020A
S11305D0981710F4809308022BE0829FC001112425
S11305E0B801845E9D4F9EDD9A8DE0915302F09197
S11305F05402828D981708F0AACFADCFE091530230
S1130600F0915402E28D8BE0E89FF0011124E45E46
S1130610FD4F8081823040F409C0809107028F5FD2
S113062080930702B12C02C0BB24B39480910602CC
S1130630882311F0BB24B3948B2DDF91CF911F91AC
S11306400F91FF90EF90DF90CF90BF90089580912D
S11306500002882321F081E080930602089510921D
S113066006028091080201C08150282F30E09BE0EF
S1130670929FF001939FF00D1124E45EFD4F908151
S1130680992391F39BE0929FA001939F500D112415
S1130690DF010180F281E02D0480F581E02D1296C6
S11306A0FC93EE931197415E5D4FE417F50729F42F
S11306B044815581FD01528341839BE0929FF00167
S11306C0939FF00D1124E45EFD4F0180F281E02D33
S11306D0208531853093540220935302809308027D
S11306E008950F931F93CF93DF93DC011796ED9139
S11306F0FC911897C085D1858E01025F1F4FC801F8
S113070032DD80910002811114C00C501109C8011E
S11307102ADD8A8D90910802981710F480930802BC
S1130720BBE08B9FC0011124B801845E9D4FFADCAD
S113073004C0B8018DE092E0F5DC9A8DE09153029B
S1130740F0915402828D891720F481E0809306028F
S113075001C080E0DF91CF911F910F9108950F9315
S11307601F93CF93DF93FC01892B69F182A98150F8
S113077082AB228D91A9291741F1811128C0EF0183
S11307808F010E5F1F4FC801EEDC89A98A8F45E0F7
S113079050E060E070E0481B5109610971094E871F
S11307A05F87688B798B90910802981710F4809377
S11307B008022BE0829FC0011124B801845E9D4F82
S11307C0B1DC81E005C080E003C080E001C080E0CE
S11307D0DF91CF911F910F9108950F931F93CF93A2
S11307E0DF9300D01F92CDB7DEB7789487E690E010
S11307F035D02CD08AEA898381E08A831B828C835A
S113080006E512E087E6F801808364E070E0CE013B
S1130810019646D0FFEF23ED80E3F1502040804065
S1130820E1F700C00000F801808161E070E090E031
S1130830AFD01092550280E090E00F900F900F908F
S11308400F90DF91CF911F910F91089587E084B9A4
S113085081E58CBD85B1816085B908959093C5000B
S11308608093C40028E12093C10026E02093C200B5
S11308709093CD008093CC0088E98093C9002093A5
S1130880CA0008959091C00095FFFCCF8093C600E4
S113089008959091D00095FFFCCF8093D6000895E1
S11308A00F931F93CF93DF93EC018C01060F171F57
S11308B002C08991EEDFC017D107D8F3DF91CF9141
S11308C01F910F9108951F920F920FB60F9211244A
S11308D00BB60F922F933F934F935F936F937F9336
S11308E08F939F93AF93BF93EF93FF93CF93DF9334
S11308F01F921F92CDB7DEB78091CE0089831A82F2
S113090020E0AE014E5F5F4FBE016F5F7F4F80916D
S11309106A0290916B026DDD8A8181114ADC0F902D
S11309200F90DF91CF91FF91EF91BF91AF919F9184
S11309308F917F916F915F914F913F912F910F9084
S11309400BBE0F900FBE0F901F9018951F920F9221
S11309500FB60F9211240BB60F928F939F93EF93C0
S1130960FF938091D600E091550291E09E0F909301
S11309705502F0E0EA5AFD4F8083FF91EF919F9179
S11309808F910F900BBE0F900FBE0F901F90189574
S11309900F931F93CF93DF93EC018C01060F171F66
S11309A002C089916FDFC017D107D8F3DF91CF91CF
S11309B01F910F910895FB01DC0102C001900D927B
S10F09C041505040D8F70895F894FFCF40
S9030000FC
