S00B00006F62632E73726563E5
S113000071C000008FC000008DC000008BC00000D4
S113001089C0000087C0000085C0000083C00000C4
S113002081C000007FC000007DC000007BC00000D4
S113003079C0000077C0000075C0000073C00000E4
S113004071C0000079C100006DC000006BC00000E9
S113005069C0000067C0000065C0000063C0000004
S113006061C000005FC000005DC000005BC0000014
S113007059C0000057C0000055C0000053C0000024
S113008051C000004FC000004DC000004BC0000034
S11300906DC6000047C0000045C0000043C000001A
S11300A041C000003FC000003DC000003BC0000054
S11300B039C0000037C0000035C0000033C0000064
S11300C031C000002FC000002DC0000092C6000007
S11300D029C0000027C0000025C0000023C0000084
S11300E021C0000011241FBECFEFD1E2DEBFCDBF7F
S11300F000E00CBF12E0A0E0B2E0E6E3F7E100E0CC
S11301000BBF02C007900D92A432B107D9F722E0C9
S1130110A4E2B2E001C01D92A53EB207E1F75ED3AE
S11301200C94990B6DCFCF93DF939C01FB01DC0101
S11301301196CD91DC911297D583C4838E819F81D2
S1130140978386838E819F81DC0115967C936E93C1
S113015014977F836E8333872287F90180818F5FB1
S11301608083DF91CF910895CF93DF93FC01A28523
S1130170B385C481D581868197819F838E83C6810F
S1130180D781848195819D838C8311968D919C91D7
S11301901297E817F90731F48681978112969C9398
S11301A08E931197138612868C9181508C93DF91D4
S11301B0CF9108950F920FB6F8940F920BB60F9249
S11301C00CB60F921F9211242F923F924F925F927E
S11301D06F927F928F929F92AF92BF92CF92DF9253
S11301E0EF92FF920F931F932F933F934F935F933D
S11301F06F937F938F939F93AF93BF93CF93DF932B
S1130200EF93FF93A0917702B09178020DB60D920F
S11302100EB60D921DD2A0917702B0917802CD91C5
S1130220CDBFDD91DEBFFF91EF91DF91CF91BF9103
S1130230AF919F918F917F916F915F914F913F917A
S11302402F911F910F91FF90EF90DF90CF90BF906F
S1130250AF909F908F907F906F905F904F903F9062
S11302602F901F900F900CBE0F900BBE0F900FBEDF
S11302700F9008950F920FB6F8940F920BB60F9249
S11302800CB60F921F9211242F923F924F925F92BD
S11302906F927F928F929F92AF92BF92CF92DF9292
S11302A0EF92FF920F931F932F933F934F935F937C
S11302B06F937F938F939F93AF93BF93CF93DF936A
S11302C0EF93FF93A0917702B09178020DB60D924F
S11302D00EB60D92F1D08111BBD1A0917702B091ED
S11302E07802CD91CDBFDD91DEBFFF91EF91DF911B
S11302F0CF91BF91AF919F918F917F916F915F91BA
S11303004F913F912F911F910F91FF90EF90DF90AC
S1130310CF90BF90AF909F908F907F906F905F90A1
S11303204F903F902F901F900F900CBE0F900BBEDC
S11303300F900FBE0F9008959DDF18950F931F9394
S1130340CF93DF93EC01042F1E8D48A141110BC004
S113035088819981892B09F03FC08A819B8100D2D1
S11303601B821A8240C0011116C050E08C819D810D
S1130370FCD628A18C819D81820F911D9D838C8345
S11303802A813B818217930748F1888199819D8353
S11303908C8380E028C050E08E819F81E6D688A1BE
S11303A090E09195819591092E813F81280F391F05
S11303B03F832E83488159812417350730F42A81DD
S11303C03B81820F931F9F838E83023049F4112354
S11303D049F0115080E007C080E005C080E003C010
S11303E080E001C080E01F5F1E8FDF91CF911F91DD
S11303F00F910895EF92FF920F931F93CF93DF9382
S11304008A01FC01568D378D531710F02230E1F428
S1130410422F7801EC011AA191DF1F3F79F48B89F7
S11304208823A1F0CE0143965DD1882389F0E1149D
S1130430F10481F081E0F70180830DC0FF24F3947F
S1130440F10EFAA281E007C080E005C081E003C09C
S113045081E001C081E0DF91CF911F910F91FF9066
S1130460EF900895E0913E02F0913F028081811166
S11304700CC08FEF9FEFDC0180932502909326023E
S1130480A0932702B09328020895E0913E02F091D0
S11304903F020780F085E02D0084F185E02D828104
S11304A09381A481B5818093250290932602A09321
S11304B02702B09328020895BF92CF92DF92EF9261
S11304C0FF920F931F93CF93DF93809124028111A6
S11304D0A5C0C0902D02D0902E02E0902F02F09083
S11304E030022FEFC21AD20AE20AF20AC0922D0297
S11304F0D0922E02E0922F02F0923002C114D10465
S1130500E104F104B1F480913E0290913F02209104
S11305103C0230913D0230933F0220933E0290937F
S11305203D0280933C02809129028F5F80932902CF
S113053099DF8091250290912602A0912702B09123
S11305402802C816D906EA06FB0628F4B12C57C0BF
S1130550BB24B39401C0B12CE0913E02F0913F0260
S1130560808181110CC08FEF9FEFDC018093250205
S113057090932602A0932702B093280240C0E091F2
S11305803E02F0913F020780F085E02DC085D185C1
S11305908A819B81AC81BD81C816D906EA06FB0617
S11305A048F48093250290932602A0932702B093E7
S11305B0280225C08E010E5F1F4FC801D5DD888D2E
S11305C0998D892B19F0CE010E96CEDD8A8D9091EE
S11305D02C02981710F480932C022BE0829FC00108
S11305E01124B801805C9D4F9EDD9A8DE0917702C5
S11305F0F0917802828D981708F0AACFADCFE091E0
S11306007702F0917802E28D8BE0E89FF0011124EB
S1130610E05CFD4F8081823040F409C080912B0260
S11306208F5F80932B02B12C02C0BB24B3948091C2
S11306302A02882311F0BB24B3948B2DDF91CF9130
S11306401F910F91FF90EF90DF90CF90BF9008958E
S113065080912402882321F081E080932A02089566
S113066010922A0280912C0201C08150282F30E080
S11306709BE0929FF001939FF00D1124E05CFD4FED
S11306809081992391F39BE0929FA001939F500D39
S11306901124DF010180F281E02D0480F581E02D39
S11306A01296FC93EE9311974D5B5D4FE417F5079B
S11306B029F444815581FD01528341839BE0929F3B
S11306C0F001939FF00D1124E05CFD4F0180F28155
S11306D0E02D208531853093780220937702809332
S11306E02C0208950F931F93CF93DF93DC01179689
S11306F0ED91FC911897C085D1858E01025F1F4F43
S1130700C80132DD80912402811114C00C501109FA
S1130710C8012ADD8A8D90912C02981710F48093D9
S11307202C02BBE08B9FC0011124B801805C9D4F5B
S1130730FADC04C0B80181E392E0F5DC9A8DE09123
S11307407702F0917802828D891720F481E08093FA
S11307502A0201C080E0DF91CF911F910F9108958B
S11307600F931F93CF93DF93FC01892B69F182A927
S1130770815082AB228D91A9291741F1811128C0A2
S1130780EF018F010E5F1F4FC801EEDC89A98A8F2C
S113079045E050E060E070E0481B510961097109CF
S11307A04E875F87688B798B90912C02981710F491
S11307B080932C022BE0829FC0011124B801805C3D
S11307C09D4FB1DC81E005C080E003C080E001C042
S11307D080E0DF91CF911F910F910895CF93DF9324
S11307E0CDB7DEB7E7970FB6F894DEBF0FBECDBF27
S11307F0789487E690E093D26BD288D12FEF83ED83
S113080090E3215080409040E1F700C0000051D0B7
S1130810898361E070E0CE0101960DD380E092E01F
S113082099D2A1D1CE01C4960CD28CA99DA9AEA90E
S1130830BFA9BC01CD01905820E030E048EC52E45F
S11308400DD34B015C016CAB7DAB8EAB9FAB6BD31B
S11308506B017C01072E000C880B990B97D39B012D
S1130860AC01C501B401FAD220E030E048EC52E416
S113087019D459D37F936F93DF92CF928DE092E096
S11308809F938F938E010E5F1F4F1F930F9376D408
S1130890C80160D22FEF83ED90E321508040904057
S11308A0E1F700C000000FB6F894DEBF0FBECDBF65
S11308B0B8CFCF9384E016D280E82BD28FEF29D221
S11308C08FEF27D2C82F84E019D28C2FCF910895AF
S11308D00F931F93CF93DF9384E004D281EB19D25B
S11308E080E017D2C0E0D0E008C08E010A561D4F48
S11308F080E00FD2F80180832196C531D105A8F399
S113090084E0FCD1DF91CF911F910F9108950F9353
S11309101F93CF93DF93DCDF06E912E0F8016081D7
S1130920718180E090E030D320E030E040E853E48F
S1130930B9D3CBEAD2E0688379838A839B83F801B5
S11309406281738180E090E01FD320E030E040E8D2
S113095050E3A8D36C837D838E839F83F8016481E5
S1130960062E000C770B880B990B10D320E030E097
S113097040E857E297D3688779878A879B87F8018D
S113098065817681072E000C880B990BFFD220E03D
S113099030E040E856E462D220E030E040E855E33D
S11309A081D36C877D878E879F87F80167817085E7
S11309B0072E000C880B990BE9D220E030E040E8C8
S11309C056E44CD220E030E040E051E36BD3688B36
S11309D0798B8A8B9B8BF8016185062E000C770B33
S11309E0880B990BD3D220E030E040E85FE25AD381
S11309F06C8B7D8B8E8B9F8BF8016285062E000C91
S1130A00770B880B990BC2D220E030E040E05DE226
S1130A1049D3688F798F8A8F9B8FF801638574859A
S1130A2076956795769567957695679580E090E0DD
S1130A30ABD26C8F7D8F8E8F9F8FF8016585768505
S1130A4080E090E0A1D220E030E040E85CE32AD3EB
S1130A5068A379A38AA39BA3F8016785062E000CDB
S1130A60770B880B990B92D220E030E040E85BE3EF
S1130A7019D36CA37DA38EA39FA3F8016089062ECE
S1130A80000C770B880B990B81D220E030E040E01A
S1130A9058E308D368A779A78AA79BA7F8016189B7
S1130AA07289072E000C880B990B70D220E030E07D
S1130AB040E857E2F7D26CA77DA78EA79FA7F8015D
S1130AC06389062E000C770B880B990B5FD220E00C
S1130AD030E040E857E2E6D268AB79AB8AAB9BAB37
S1130AE0F8016489062E000C770B880B990B4ED203
S1130AF020E030E040E05FE1D5D26CAB7DAB8EAB63
S1130B009FABDF91CF911F910F91089584E0EAD0BC
S1130B108CE1FFD083E0FDD084E0F0D084E0E2D02B
S1130B208DE1F7D082E0F5D084E0E8D084E0DAD03B
S1130B308BE1EFD083E3EDD084E0E0D0E8DEEEE8B3
S1130B40F2E01482158216821782108211821282B8
S1130B5013822FE78AE196E0215080409040E1F72C
S1130B6000C0000008950F931F93CF93DF9300D02C
S1130B7000D0CDB7DEB7FE01319686E0DF011D92CD
S1130B808A95E9F784E0AED084E8C3D080E0C1D090
S1130B9000E010E00BC080E0BCD0E1E0F0E0EC0F3E
S1130BA0FD1FE00FF11F80830F5F1F4F06301105FB
S1130BB094F329818A8190E0982F8827822B2B81B6
S1130BC030E033272227822B932B092E000CAA0B0B
S1130BD0BB0B8093920290939302A0939402B093E0
S1130BE09502A7FF09C0BF6F80939202909393026E
S1130BF0A0939402B09395022C818D8190E0982F5C
S1130C008827822B2E8130E033272227822B932BB7
S1130C10092E000CAA0BBB0B80938E0290938F02BB
S1130C20A0939002B093910284E068D026960FB608
S1130C30F894DEBF0FBECDBFDF91CF911F910F910E
S1130C4008958F929F92AF92BF92CF92DF92EF92CC
S1130C50FF920F931F93CF93DF938C0160919202C5
S1130C607091930280919402909195028FD1CBEA76
S1130C70D2E0288139814A815B81F0D06B017C010B
S1130C802C813D814E815F810DD24B015C01A70116
S1130C909601C701B60106D2288539854A855B8548
S1130CA001D29B01AC01C501B401D9D0F801608324
S1130CB0718382839383DF91CF911F910F91FF9072
S1130CC0EF90DF90CF90BF90AF909F908F9008955A
S1130CD087E084B988E181B981E58CBD82B18861FE
S1130CE082B9089592B121E030E002C0220F331F8F
S1130CF08A95E2F72095292322B9089592B121E03B
S1130D0030E002C0220F331F8A95E2F7292B22B963
S1130D1008958EBD0DB407FEFDCF8EB50895909352
S1130D20C5008093C40028E12093C10026E02093ED
S1130D30C2009093CD008093CC0088E98093C900D1
S1130D402093CA0008959091C00095FFFCCF809332
S1130D50C6000895CF93DF93EC0102C0F4DF21961F
S1130D6088818111FBCFDF91CF9108951F920F925B
S1130D700FB60F9211240BB60F922F933F934F93FC
S1130D805F936F937F938F939F93AF93BF93EF93EF
S1130D90FF93CF93DF931F921F92CDB7DEB780915D
S1130DA0CE0089831A8220E0AE014E5F5F4FBE0100
S1130DB06F5F7F4F8091E3029091E4021BDB8A8195
S1130DC08111F8D90F900F90DF91CF91FF91EF919E
S1130DD0BF91AF919F918F917F916F915F914F914F
S1130DE03F912F910F900BBE0F900FBE0F901F904D
S1130DF018951F920F920FB60F9211240BB60F92F3
S1130E008F939F93EF93FF938091D600E0917902A3
S1130E1091E09E0F90937902F0E0E658FD4F8083B5
S1130E20FF91EF919F918F910F900BBE0F900FBE8A
S1130E300F901F9018950F931F93CF93DF93EC019E
S1130E408C01060F171F02C089917DDFC017D107DF
S1130E50D8F3DF91CF911F910F9108955058BB277C
S1130E60AA270ED0E5C0D6D030F0DBD020F031F484
S1130E709F3F11F41EF4CBC00EF4E095E7FBC1C014
S1130E80E92FE7D080F3BA17620773078407950741
S1130E9018F071F49EF5FFC00EF4E0950B2EBA2FF6
S1130EA0A02D0B01B90190010C01CA01A00111246C
S1130EB0FF27591B99F0593F50F4503E68F11A1618
S1130EC0F040A22F232F342F4427585FF3CF4695A9
S1130ED037952795A795F0405395C9F77EF41F16CB
S1130EE0BA0B620B730B840BBAF09150A1F0FF0F95
S1130EF0BB1F661F771F881FC2F70EC0BA0F621F81
S1130F00731F841F48F4879577956795B795F79570
S1130F109E3F08F0B3CF9395880F08F09927EE0F02
S1130F2097958795089504D06894B111B5C0089534
S1130F3098D088F09F5790F0B92F9927B751A0F017
S1130F40D1F0660F771F881F991F1AF0BA95C9F759
S1130F5012C0B13081F09FD0B1E008959CC0672FDA
S1130F60782F8827B85F39F0B93FCCF38695779509
S1130F706795B395D9F73EF49095809570956195F2
S1130F807F4F8F4F9F4F0895E89409C097FB3EF41D
S1130F9090958095709561957F4F8F4F9F4F9923C2
S1130FA0A9F0F92F96E9BB279395F6958795779540
S1130FB06795B795F111F8CFFAF4BB0F11F460FF00
S1130FC01BC06F5F7F4F8F4F9F4F16C0882311F058
S1130FD096E911C0772321F09EE8872F762F05C06C
S1130FE0662371F096E8862F70E060E02AF09A9507
S1130FF0660F771F881FDAF7880F9695879597F9FC
S1131000089597F99F6780E870E060E008959FEF86
S113101080EC089500240A9416161706180609068B
S1131020089500240A94121613061406050608955A
S1131030092E0394000C11F4882352F0BB0F40F4E2
S1131040BF2B11F460FF04C06F5F7F4F8F4F9F4F22
S1131050089557FD9058440F551F59F05F3F71F0A4
S11310604795880F97FB991F61F09F3F79F087950B
S11310700895121613061406551FF2CF4695F1DF94
S113108008C0161617061806991FF1CF8695710524
S1131090610508940895E894BB2766277727CB0158
S11310A097F908950BD0C4CFB5DF28F0BADF18F054
S11310B0952309F0A6CFABCF1124EECFCADFA0F35E
S11310C0959FD1F3950F50E0551F629FF001729FD9
S11310D0BB27F00DB11D639FAA27F00DB11DAA1FF8
S11310E0649F6627B00DA11D661F829F2227B00D45
S11310F0A11D621F739FB00DA11D621F839FA00DD0
S1131100611D221F749F3327A00D611D231F849F1F
S1131110600D211D822F762F6A2F11249F57504076
S11311208AF0E1F088234AF0EE0FFF1FBB1F661F11
S1131130771F881F91505040A9F79E3F510570F0CA
S113114060CFAACF5F3FECF3983EDCF386957795AA
S11311506795B795F795E7959F5FC1F7FE2B880FC5
S1131160911D9695879597F90895FB01DC0102C0BE
S113117001900D9241505040D8F708950F931F935A
S1131180CF93DF93CDB7DEB72E970FB6F894DEBFBB
S11311900FBECDBF0E891F8986E08C831A83098315
S11311A08FEF9FE79E838D83AE01465E5F4F688D10
S11311B0798DCE01019610D0EF81F885E00FF11FF3
S11311C010822E960FB6F894DEBF0FBECDBFDF910E
S11311D0CF911F910F9108952F923F924F925F925A
S11311E06F927F928F929F92AF92BF92CF92DF9233
S11311F0EF92FF920F931F93CF93DF93CDB7DEB798
S11312002B970FB6F894DEBF0FBECDBF6C017B01E8
S11312108A01FC0117821682838181FFBFC1CE013E
S113122001963C01F6019381F70193FD859193FFAB
S113123081917F01882309F4ADC1853239F493FD8E
S1131240859193FF81917F01853221F4B60190E06D
S1131250D6D1E8CF912C212C312CFFE1F315D8F015
S11312608B3279F038F4803279F08332A1F4232D73
S113127020611DC08D3261F0803369F4232D21601B
S113128016C0832D8260382EE32DE4603E2E2AC0E2
S1131290F32DF8601DC037FC2DC020ED280F2A3037
S11312A040F08E32B9F436FC75C1232D2064322E01
S11312B019C036FE06C08AE0989E200D1124922E95
S11312C011C0EAE02E9E200D1124222EF32DF0628F
S11312D03F2E08C08C3621F4832D8068382E02C03E
S11312E0883641F4F70193FD859193FF81917F0145
S11312F08111B3CF982F9F7D9554933028F40C5FC0
S11313001F4F9FE399830DC0833631F0833771F00B
S1131310833509F055C020C0F801808189830E5FB0
S11313201F4F88248394912C530112C02801F2E0AA
S11313304F0E511CF801A080B18036FE03C0692D08
S113134070E002C06FEF7FEFC5014ED14C01820106
S1131350F32DFF773F2E15C0280122E0420E511CC9
S1131360F801A080B18036FE03C0692D70E002C090
S11313706FEF7FEFC5012DD14C01F32DF0683F2EA7
S1131380820133FC19C0822D90E088169906A0F4DE
S1131390B60180E290E033D12A94F5CFF50137FC11
S11313A0859137FE81915F01B60190E028D121102B
S11313B02A9421E0821A91088114910479F7E1C0FA
S11313C0843611F0893639F5F80137FE07C060819B
S11313D07181828193810C5F1F4F08C0608171818C
S11313E0072E000C880B990B0E5F1F4FF32DFF7611
S11313F03F2E97FF09C090958095709561957F4F1A
S11314008F4F9F4FF0683F2E2AE030E0A30133D185
S1131410882E861844C0853731F4232D2F7EB22EB2
S11314202AE030E025C0932D997FB92E8F36C1F084
S113143018F4883579F0AEC0803719F0883721F078
S1131440A9C0E92FE061BE2EB4FE0DC0FB2DF460EF
S1131450BF2E09C034FE0AC0292F2660B22E06C052
S113146028E030E005C020E130E002C020E132E0B5
S1131470F801B7FE07C060817181828193810C5F9E
S11314801F4F06C06081718180E090E00E5F1F4FA6
S1131490A301F1D0882E8618FB2DFF773F2E36FE50
S11314A00DC0232D2E7FA22E891458F434FE0BC0B8
S11314B032FC09C0832D8E7EA82E05C0B82CA32C27
S11314C003C0B82C01C0B92CA4FE0FC0FE01E80D66
S11314D0F11D8081803321F49A2D997EA92E09C0B3
S11314E0A2FE06C0B394B39404C08A2D867809F092
S11314F0B394A3FC10C0A0FE06C0B21480F4280C60
S1131500922C9B180DC0B21458F4B60180E290E0FE
S113151076D0B394F8CFB21418F42B1802C0982CD8
S1131520212CA4FE0FC0B60180E390E068D0A2FE97
S113153016C0A1FC03C088E790E002C088E590E0F3
S1131540B6010CC08A2D867851F0A1FE02C08BE250
S113155001C080E2A7FC8DE2B60190E050D089146E
S113156030F4B60180E390E04AD09A94F8CF8A949C
S1131570F301E80DF11D8081B60190E040D08110A7
S1131580F6CF222009F44ECEB60180E290E037D0A7
S11315902A94F7CFF6018681978102C08FEF9FEFDF
S11315A02B960FB6F894DEBF0FBECDBFDF91CF915F
S11315B01F910F91FF90EF90DF90CF90BF90AF906D
S11315C09F908F907F906F905F904F903F902F905F
S11315D00895FC010590615070400110D8F7809582
S11315E090958E0F9F1F0895FC01615070400190EB
S11315F00110D8F7809590958E0F9F1F08950F9333
S11316001F93CF93DF93FB01238121FD03C08FEF51
S11316109FEF2CC022FF16C046815781248135815B
S11316204217530744F4A081B1819D012F5F3F4FBE
S1131630318320838C93268137812F5F3F4F3783FB
S1131640268314C08B01EC01FB010084F185E02D9D
S11316501995892BE1F6D80116968D919C911797CF
S1131660019617969C938E931697CE01DF91CF9196
S11316701F910F910895FA01AA27283051F12031C2
S113168081F1E8946F936E7F6E5F7F4F8F4F9F4F12
S1131690AF4FB1E03ED0B4E03CD0670F781F891F54
S11316A09A1FA11D680F791F8A1F911DA11D6A0F22
S11316B0711D811D911DA11D20D009F468943F91D5
S11316C02AE0269F11243019305D3193DEF6CF01D4
S11316D00895462F4770405D4193B3E00FD0C9F79A
S11316E0F6CF462F4F70405D4A3318F0495D31FD07
S11316F04052419302D0A9F7EACFB4E0A69597955A
S1131700879577956795BA95C9F70097610571052F
S113171008959B01AC010A2E069457954795379579
S11317202795BA95C9F7620F731F841F951FA01DD3
S10917300895F894FFCFB8
S11317360D0A2D2D2D2D2D2D2D2D0D0A0054656DE3
S113174670657261747572653A2025642E2530328F
S1071756640D0A0010
S9030000FC
