:10000000B2C00000D1C00000CFC00000CDC00000D1
:10001000CBC00000C9C00000C7C00000C5C00000C0
:10002000C3C00000C1C00000BFC00000BDC00000D0
:10003000BBC00000B9C00000B7C00000B5C00000E0
:10004000B3C0000006C40000AFC00000ADC0000097
:10005000ABC00000A9C00000A7C00000A5C0000000
:10006000A3C00000A1C000009FC000009DC0000010
:100070009BC0000099C0000097C0000095C0000020
:1000800093C0000091C000008FC000008DC0000030
:100090000C94E60F89C0000087C0000085C00000F6
:1000A00083C0000081C000007FC000007DC0000050
:1000B0007BC0000079C0000077C0000075C0000060
:1000C00073C0000071C000006FC000006DC0000070
:1000D0006BC0000069C0000067C0000065C0000080
:1000E00063C0000007634236B79BD8A71A39685629
:1000F00018AEBAAB558C1D3CB7CC5763BD6DEDFD4A
:10010000753EF6177231BF000000803F0800000006
:10011000BE922449123EABAAAA2ABECDCCCC4C3EFC
:1001200000000080BEABAAAAAA3E00000000BF00EB
:100130000000803F0000000000084178D3BB4387E7
:10014000D1133D190E3CC3BD4282AD2B3E68EC82FB
:1001500076BED98FE1A93E4C80EFFFBE01C4FF7F80
:100160003F000000000011241FBECFEFD1E2DEBF30
:10017000CDBF00E00CBF12E0A0E0B2E0EAE0F7E2A1
:1001800000E00BBF02C007900D92A83FB107D9F75E
:100190002BE1A8EFB2E001C01D92A431B207E1F754
:1001A0000E946E0C0C9483132BCFFC010396928358
:1001B00081834FEF5FEFBA01438354836583768376
:1001C000908787839287818710820895FC01138628
:1001D00012860895CF93DF939C01FB01DC011196F9
:1001E000CD91DC911297D583C4838E819F819783B3
:1001F00086838E819F81DC0115967C936E93149784
:100200007F836E8333872287F90180818F5F8083AC
:10021000DF91CF9108950F931F93CF93DF93EB015D
:10022000088119812A813B810F3F4FEF1407240772
:10023000340721F4FC01A185B28511C0DC011396BD
:1002400001C0DF011496ED91FC9115974081518119
:1002500062817381041715072607370790F71496F4
:10026000ED91FC911597FD83EC83D783C683BF8303
:10027000AE831596DC93CE9314979B878A87FC01F7
:1002800020812F5F2083DF91CF911F910F910895DF
:10029000CF93DF93FC01A285B385C481D58186818C
:1002A00097819F838E83C681D781848195819D8329
:1002B0008C8311968D919C911297E817F90731F470
:1002C0008681978112969C938E931197138612863E
:1002D0008C9181508C93DF91CF910895CF93DF93D0
:1002E000E4E0F3E0A0E0B3E01196FC93EE93139604
:1002F0001C921E921297CF010F2E000CAA0BBB0B63
:100300008459984EAF4FBF4FEC019093FF028093FA
:10031000FE021B821A82198218829C0124503340EB
:1003200033832283918380833093FB022093FA02EC
:100330003093FD022093FC0280E090E89093F90254
:100340008093F802DF91CF910895CF93DF93EC0172
:10035000A0E0B3E001C0DF01ED91FC911197EC1733
:10036000FD07C8F312968D919C9113979D01280F5C
:10037000391FC217D30749F42A813B81820F931F8B
:1003800013969C938E931297ED018A819B819E0117
:10039000280F391FE217F307C1F42091FE023091B4
:1003A000FF02E217F30771F022813381820F931F5E
:1003B0009B838A83ED91FC91119780819181998330
:1003C000888305C03983288302C0F983E883CA176C
:1003D000DB0711F0CD93DC93DF91CF910895EF927D
:1003E000FF920F931F93CF93DF938C011FD78091C0
:1003F000FE029091FF02892B09F470DF8091F802D0
:100400009091F90280239123892B09F066C0011590
:10041000110511F00C5F1F4F0115110509F460C0A3
:100420008091FC029091FD028017910708F45BC057
:10043000C0910003D0910103E0E0F3E002C0FE01AF
:10044000EC018A819B818017910720F48881998132
:100450000097A9F78091FE029091FF02C817D90773
:1004600009F444C0E080F18084E0E80EF11C88814A
:100470009981918380832A813B81201B310B293014
:10048000310548F0CE01800F911FFC013383228398
:100490001B830A835ADF2A813B818091FC02909161
:1004A000FD02821B930B9093FD028093FC0240910E
:1004B000FA025091FB028417950720F49093FB02F7
:1004C0008093FA028091F8029091F902282B392B3F
:1004D0003B832A83198218820BC0E12CF12C08C0BF
:1004E000E12CF12C05C0E12CF12C02C0E12CF12C07
:1004F00072D7C701DF91CF911F910F91FF90EF90BD
:1005000008950F931F93CF93DF93009739F1EC0178
:1005100024974A815B812091F8023091F902BA0157
:1005200062237323672BD1F068817981672BB1F443
:1005300020953095242335233B832A8377D68A81DF
:100540009B812091FC023091FD02820F931F9093BA
:10055000FD028093FC02CE01F8DE3DD7DF91CF9102
:100560001F910F9108951092890089EF8093880060
:10057000109280008BE080938100EFE6F0E08081B4
:1005800082608083089531E1FC013083319722E25B
:1005900020833197A3E3A0833197608331977083E1
:1005A0003197108231971082319760E860833197DC
:1005B00010823197108231971082319762E0608308
:1005C000319763E06083319764E06083319765E041
:1005D0006083319766E06083319767E0608331978D
:1005E00068E06083319769E06083319760E1608300
:1005F00031973083319732E13083319733E1308363
:10060000319734E13083319735E13083319736E1EA
:100610003083319737E13083319738E13083319738
:1006200039E13083319730E23083319731E23083E2
:1006300031972083319723E220833197408331978C
:100640005083319726E22083319727E22083319728
:1006500028E22083319729E22083319720E3208309
:10066000319721E32083899708957DDFA091F91ABE
:10067000B091FA1ACD91CDBFDD91DEBFFF91EF9120
:10068000DF91CF91BF91AF919F918F917F916F91AA
:100690005F914F913F912F911F910F91FF90EF909C
:1006A000DF90CF90BF90AF909F908F907F906F9092
:1006B0005F904F903F902F901F900F900CBE0F9027
:1006C0000BBE0F900FBE0F90089581E008950F921A
:1006D0000FB6F8940F920BB60F920CB60F921F92B2
:1006E00011242F923F924F925F926F927F928F923E
:1006F0009F92AF92BF92CF92DF92EF92FF920F93B1
:100700001F932F933F934F935F936F937F938F9399
:100710009F93AF93BF93CF93DF93EF93FF93A091FA
:10072000F91AB091FA1A0DB60D920EB60D9208D7BD
:10073000A091F91AB091FA1ACD91CDBFDD91DEBF2B
:10074000FF91EF91DF91CF91BF91AF919F918F91E9
:100750007F916F915F914F913F912F911F910F91D9
:10076000FF90EF90DF90CF90BF90AF909F908F90D1
:100770007F906F905F904F903F902F901F900F90C1
:100780000CBE0F900BBE0F900FBE0F9008950F92EE
:100790000FB6F8940F920BB60F920CB60F921F92F1
:1007A00011242F923F924F925F926F927F928F927D
:1007B0009F92AF92BF92CF92DF92EF92FF920F93F0
:1007C0001F932F933F934F935F936F937F938F93D9
:1007D0009F93AF93BF93CF93DF93EF93FF93A0913A
:1007E000F91AB091FA1A0DB60D920EB60D9224D5E3
:1007F0008111A6D6A091F91AB091FA1ACD91CDBF68
:10080000DD91DEBFFF91EF91DF91CF91BF91AF916D
:100810009F918F917F916F915F914F913F912F9118
:100820001F910F91FF90EF90DF90CF90BF90AF900E
:100830009F908F907F906F905F904F903F902F9000
:100840001F900F900CBE0F900BBE0F900FBE0F901D
:1008500008959DDF18950FB6F8940F92FC01868DD0
:10086000811102C081E001C080E00F900FBE0895A9
:100870000FB6F8940F92FC01268D878D281302C0C5
:1008800081E001C080E00F900FBE08950F931F9389
:10089000CF93DF93EC01042F1E8D48A141110BC0B3
:1008A00088819981892B09F041C08A819B81C4D7B5
:1008B0001B821A8242C0011117C050E08C819D81B9
:1008C0000E947A1328A18C819D81820F911D9D83A6
:1008D0008C832A813B818217930750F1888199810B
:1008E0009D838C8380E029C050E08E819F810E948F
:1008F0007A1388A190E09195819591092E813F818D
:10090000280F391F3F832E834881598124173507CB
:1009100030F42A813B81820F931F9F838E830230A4
:1009200049F4112349F0115080E007C080E005C070
:1009300080E003C080E001C080E01F5F1E8FDF9178
:10094000CF911F910F910895FC0140A14423A9F07C
:1009500050E026813781240F351F3783268382811B
:1009600093812817390720F08081918197838683AE
:10097000CB01668177810C947A1308951F93CF93EE
:10098000DF93EC010FB6F8940F921AA109C08B897E
:10099000882341F0CE01439634D68111EBD6115015
:1009A0001116ACF38FEF8AA30F900FBE0FB6F89419
:1009B0000F9219A109C08885882341F0CE010896BD
:1009C00020D68111D7D611501116ACF38FEF89A321
:1009D0000F900FBEDF91CF911F910895CF93DF93BA
:1009E000EC010FB6F8940F92E881F9818F8D90E0B9
:1009F00028A130E0829FA001839F500D929F500D4F
:100A000011244E0F5F1F5B834A831E8EFD83EC8390
:100A10000197289FA001299F500D389F500D112448
:100A2000CF01840F951F9F838E838FEF89A38AA3A5
:100A300061110AC08885882369F0CE010896E1D546
:100A4000882341F044DE06C0CE010896AEDBCE011D
:100A50004396ABDB0F900FBE81E0DF91CF910895FD
:100A60000F931F93F801611103C01183008302C02B
:100A700051834083878F60A361E0CF01AFDF1F9177
:100A80000F910895DF92EF92FF920F931F93CF93F0
:100A9000DF93E82EF62ED42E662321F0869FC00128
:100AA000112402C080E090E0839699DCEC0100976D
:100AB00041F08C012D2DAC014D5D5F4F6F2D8E2DC2
:100AC000CFDFCE01DF91CF911F910F91FF90EF907B
:100AD000DF900895CF92DF92EF92FF920F931F93D2
:100AE000CF93DF93CDB7DEB729970FB6F894DEBF6B
:100AF0000FBECDBF7C016B012E833F834887598792
:100B000010E00FB6F8940F92F701968D878D981725
:100B100010F00230A9F4402FB601C701B7DEF7018B
:100B20009389992339F0C70143966BD5882321F027
:100B3000CEDD02C08111CBDD0F900FBE81E046C03B
:100B40008E819F81A885B985892B8A2B8B2B21F4D7
:100B50000F900FBE80E03AC0111104C0CE01019683
:100B600092D511E00F900FBE61D30FB6F8940F929B
:100B7000F70181A18F3F09F411A2F70182A18F3FF4
:100B800009F412A20F900FBEBE016A5F7F4FCE0123
:100B900001968AD5811116C0C7016ADE882371F0DB
:100BA0004E815F8168857985C701089613D5C70195
:100BB000E5DE11D48111A5CF8ADDA3CFC701DEDE2A
:100BC0000AD49FCFC701DADE06D480E029960FB69B
:100BD000F894DEBF0FBECDBFDF91CF911F910F9173
:100BE000FF90EF90DF90CF9008950F93009769F0FA
:100BF000FC011382128211821082168200E020E032
:100C000030E0A90160E070E065DF0F910895CF93B7
:100C1000DF93482F60E081E035DFEC01E6DFCE01B5
:100C2000DF91CF910895EF92FF920F931F93CF938F
:100C3000DF938A01FC01568D378D531710F0223057
:100C4000E1F4422F7801EC011AA120DE1F3F79F474
:100C50008B898823A1F0CE014396D3D4882389F0D1
:100C6000E114F10481F081E0F70180830DC0FF24DD
:100C7000F394F10EFAA281E007C080E005C081E0A4
:100C800003C081E001C081E0DF91CF911F910F91FE
:100C9000FF90EF9008958F929F92BF92CF92DF9234
:100CA000EF92FF920F931F93CF93DF93CDB7DEB7F1
:100CB00029970FB6F894DEBF0FBECDBF7C016B0144
:100CC0002E833F8348875987B02E00E00FB6F894F3
:100CD0000F92F701168D112361F186809780B6017E
:100CE000C70132DEB11016C01150F701168F808196
:100CF0009181892B21F4E0D5F70193838283F70159
:100D00008085882391F0C70108967BD4882369F0F9
:100D1000DEDC0BC0F701978286828389882329F065
:100D2000C70143966ED48111D2DC0F900FBE81E0D3
:100D300058C08E819F81A885B985892B8A2B8B2BE2
:100D400021F40F900FBE80E04CC0011104C0CE0111
:100D5000019699D401E00F900FBE68D20FB6F894B7
:100D60000F92F70181A18F3F09F411A2F70182A12F
:100D70008F3F09F412A20F900FBEBE016A5F7F4F32
:100D8000CE01019691D4811123C0C70164DD88236F
:100D9000D9F0F70180819181892B41F40FB6F89445
:100DA0000F9282819381EAD40F900FBE4E815F81B2
:100DB00068857985C70143960DD4C701DFDD0BD364
:100DC000811184CF84DC82CFC701D8DD04D37ECFEC
:100DD000C701D4DD00D3C7013EDD882309F476CFF7
:100DE00080E029960FB6F894DEBF0FBECDBFDF912D
:100DF000CF911F910F91FF90EF90DF90CF90BF9018
:100E00009F908F900895E091AA1AF091AB1A80817B
:100E100081110CC08FEF9FEFDC018093771A9093C4
:100E2000781AA093791AB0937A1A0895E091AA1AC1
:100E3000F091AB1A0780F085E02D0084F185E02D5C
:100E400082819381A481B5818093771A9093781AD7
:100E5000A093791AB0937A1A0895CF93DF93EC0197
:100E60008B8D9C8D4EDBCE014CDBDF91CF910895B5
:100E70006F927F928F929F92AF92BF92CF92DF92AA
:100E8000EF920F931F93CF93DF93CDB7DEB74C0153
:100E9000F501838D948D215031093C01620E731E42
:100EA00020E00FC0822F90E0FB01E80FF91F308196
:100EB000D501A80FB91F5D963C938081882319F056
:100EC0002F5F243178F3F50110AAF4E0FE1518F431
:100ED0006894EE24E2F8F501E28EE1AA12AAC501B7
:100EE000029674D9C5010E9671D9F501B386A28612
:100EF00085E090E0A0E0B0E08E199109A109B10968
:100F000086879787A08BB18BB78AA68A13AA14AA63
:100F100015AA16AA17AAA801B401C30134DBF5016A
:100F200091838083C114D10419F0F601B182A082AB
:100F3000DF91CF911F910F91EF90DF90CF90BF90F5
:100F4000AF909F908F907F906F900895CF93C0E067
:100F500008C02BE0C29FC00111248E53954E25D9A5
:100F6000CF5FC530B0F387EB9AE11FD98CEA9AE1E5
:100F70001CD98DE99AE119D982E99AE116D986E856
:100F80009AE113D987EB9AE19093AB1A8093AA1A4E
:100F90008CEA9AE19093A91A8093A81ACF910895A8
:100FA000CF93DF93EC010FB6F8940F928091851ADE
:100FB0008F5F8093851A8091F91A9091FA1A892B84
:100FC00051F4D093FA1AC093F91A8091851A81309E
:100FD00091F4BCDF10C080917F1A81110CC0E091A8
:100FE000F91AF091FA1A928D8A8D891720F0D09310
:100FF000FA1AC093F91A80917B1A8F5F80937B1A3B
:101000008A8D9091801A981710F48093801A2BE0A3
:10101000829FC0011124BE016E5F7F4F8E53954E9B
:10102000D9D80F900FBE80917F1A882349F0E091A4
:10103000F91AF091FA1A928D8A8D981708F447DB05
:10104000DF91CF9108958F929F92AF92BF92CF92EE
:10105000DF92EF92FF92CF936B017C01C42F8090BF
:10106000811A9090821AA090831AB090841A80916D
:10107000F91A9091FA1A02960BD98FEFC816D80672
:10108000E806F80661F4CC2351F06091F91A7091EA
:10109000FA1A6E5F7F4F86E89AE19CD83DC0C80C73
:1010A000D91CEA1CFB1CE091F91AF091FA1AC282D1
:1010B000D382E482F582C814D904EA04FB0460F404
:1010C0006091F91A7091FA1A8091A81A9091A91A50
:1010D0006E5F7F4FA0D820C06091F91A7091FA1A04
:1010E0008091AA1A9091AB1A6E5F7F4F94D880912D
:1010F000771A9091781AA091791AB0917A1AC81635
:10110000D906EA06FB0640F4C092771AD092781A04
:10111000E092791AF0927A1ACF91FF90EF90DF90D7
:10112000CF90BF90AF909F908F9008952F923F9255
:101130004F925F926F927F928F929F92AF92BF92E7
:10114000CF92DF92EF92FF920F931F93CF93DF9393
:101150003C011B015A012901CA0141D96C01892BAB
:1011600061F088E390E03BD9EC01892B19F0DC8E2B
:10117000CB8E05C0C601C5D902C0C0E0D0E0209723
:1011800081F0950140E050E0812C912C5E016701D7
:10119000E02E8201B101C3016BDECE0101DF81E0EF
:1011A00001C08FEFDF91CF911F910F91FF90EF90D2
:1011B000DF90CF90BF90AF909F908F907F906F9077
:1011C0005F904F903F902F900895EF92FF920F9372
:1011D0000F2EF5E7EF2EFAE1FF2EF02D00E020E0D4
:1011E00030E040E054E06AE072E089E99AE09EDF96
:1011F0008130C1F4F8948FEF9FEFDC018093771A70
:101200009093781AA093791AB0937A1A81E0809318
:101210007F1A1092811A1092821A1092831A1092D9
:10122000841A23DA0F91FF90EF9008958091741A39
:101230008F5F8093741A0895BF92CF92DF92EF92DE
:10124000FF920F931F93CF93DF938091741A8111B4
:10125000A8C0C090811AD090821AE090831AF090B2
:10126000841A2FEFC21AD20AE20AF20AC092811A35
:10127000D092821AE092831AF092841AC114D10497
:10128000E104F104B1F48091AA1A9091AB1A209173
:10129000A81A3091A91A3093AB1A2093AA1A9093E6
:1012A000A91A8093A81A80917C1A8F5F80937C1A68
:1012B000AADD8091771A9091781AA091791AB0914D
:1012C0007A1AC816D906EA06FB0628F4B12C5AC0C9
:1012D000BB24B39401C0B12CE091AA1AF091AB1ACF
:1012E000808181110CC08FEF9FEFDC018093771A12
:1012F0009093781AA093791AB0937A1A43C0E09128
:10130000AA1AF091AB1A0780F085E02DC085D1852F
:101310008A819B81AC81BD81C816D906EA06FB068D
:1013200048F48093771A9093781AA093791AB0931F
:101330007A1A28C08E010E5F1F4FC8010E94480113
:10134000888D998D892B21F0CE010E960E9448013F
:101350008A8D9091801A981710F48093801A2BE050
:10136000829FC0011124B8018E53954E0E94EA005D
:101370009A8DE091F91AF091FA1A828D981708F077
:10138000A7CFAACFE091F91AF091FA1AE28D8BE07B
:10139000E89FF0011124EE53F54E8081823040F435
:1013A00009C080917E1A8F5F80937E1AB12C02C093
:1013B000BB24B39480917D1A882311F0BB24B3948D
:1013C0008B2DDF91CF911F910F91FF90EF90DF90C8
:1013D000CF90BF9008950F931F93CF93DF930FB6D5
:1013E000F8940F928091741A81508093741A8091AE
:1013F000741A81114FC08091851A81112DC04DC082
:10140000E091A41AF091A51AC085D185CE010E965F
:101410000E9448018E010E5F1F4FC8010E944801C3
:101420008A8D9091801A981710F48093801A2BE07F
:10143000829FC0011124B8018E53954E0E94EA008C
:101440009A8DE091F91AF091FA1A828D981730F07E
:1014500081E080937D1A02C0C0E0D0E080919D1AA7
:101460008111CECFCD2B09F0CEDCC0917E1ACC23DA
:1014700051F0E2DE882319F081E080937D1AC1509B
:10148000C1F710927E1A80917D1A882329F01FD906
:1014900081E003C080E001C080E00F900FBEDF91CB
:1014A000CF911F910F910895CF92DF92EF92FF920B
:1014B0006B017C01672B682B692B39F0B7DE40E0AC
:1014C000C701B601C0DD87DF01C080E0811101C026
:1014D000FED8FF90EF90DF90CF900895CF93DF93E9
:1014E00021C0A4DEC091921A76DFCC23D9F00FB6CA
:1014F000F8940F92E091991AF0919A1AC085D185CB
:10150000CE0102960E9448018091851A81508093F5
:10151000851A8091911A81508093911A0F900FBE75
:10152000CE019BDC8091911A8111DBCFDF91CF91AD
:101530000895D4DF8091C21A8230D8F3C8D8F9CF89
:101540008091741A882321F081E080937D1A089598
:1015500010927D1A8091801A01C08150282F30E0AE
:101560009BE0929FF001939FF00D1124EE53F54EF6
:101570009081992391F39BE0929FA001939F500D3E
:101580001124DF010180F281E02D0480F581E02D3E
:101590001296FC93EE9311974B53554EE417F507B3
:1015A00029F444815581FD01528341839BE0929F40
:1015B000F001939FF00D1124EE53F54E0180F2815E
:1015C000E02D208531853093FA1A2093F91A809303
:1015D000801A0895CF92DF92EF92FF926A017B0109
:1015E0006091F91A7091FA1A625F7F4F0E940B01A5
:1015F00041E0C701B60127DDFF90EF90DF90CF906B
:1016000008950F931F93CF93DF93DC011796ED910D
:10161000FC911897C085D1858E01025F1F4FC801CC
:101620000E9448018091741A811116C00C50110952
:10163000C8010E9448018A8D9091801A981710F471
:101640008093801ABBE08B9FC0011124B8018E5398
:10165000954E0E94EA0005C0B8018DE99AE10E940A
:10166000EA009A8DE091F91AF091FA1A828D8917A1
:1016700020F481E080937D1A01C080E0DF91CF915A
:101680001F910F91089520917C1AFC0120834091B5
:10169000811A5091821A6091831A7091841A418341
:1016A00052836383748308958F929F92AF92BF9207
:1016B000CF92DF92EF92FF920F931F93CF93DF931E
:1016C000FB010FB6F8940F920091811A1091821AC3
:1016D0002091831A3091841A4081518162817381F3
:1016E0004F3FAFEF5A076A077A0781F1EC01B881E3
:1016F000A0917C1ABA1749F0C980DA80EB80FC808F
:101700000C151D052E053F0518F5DC011196CD9031
:10171000DD90ED90FC901497480159018C189D08BC
:10172000AE08BF0884169506A606B70698F4C01A38
:10173000D10AE20AF30A4C0D5D1D6E1D7F1D408328
:101740005183628373839FDF80E005C080E003C024
:1017500081E001C081E00F900FBEDF91CF911F911A
:101760000F91FF90EF90DF90CF90BF90AF909F9040
:101770008F90089581E080937D1A08950F931F93B1
:10178000CF93DF93FC01892B09F451C0828DA09186
:10179000F91AB091FA1A5A969C91891708F047C025
:1017A0004685578560897189772394F0A091F91A4D
:1017B000B091FA1A5A969C9145E050E060E070E0D2
:1017C000491B51096109710946875787608B718BE5
:1017D000248535854BE0849FC00111248E53954E9E
:1017E00028173907E9F48F01EF012296CE010E94F4
:1017F0004801E091F91AF091FA1A828DF801828F6E
:101800009091801A981710F48093801AFBE08F9FB4
:10181000C0011124BE018E53954E0E94EA0007C0FC
:10182000A091F91AB091FA1A5A968C91828FDF9191
:10183000CF911F910F9108950F931F93CF93DF9333
:10184000FC01892B79F182A9815082AB228D91A96B
:10185000291751F181112AC0EF018F010E5F1F4F2F
:10186000C8010E94480189A98A8F45E050E060E0E4
:1018700070E0481B5109610971094E875F87688BC9
:10188000798B9091801A981710F48093801A2BE02E
:10189000829FC0011124B8018E53954E0E94EA0028
:1018A00081E005C080E003C080E001C080E0DF91FE
:1018B000CF911F910F9108958091F91A9091FA1A82
:1018C000892B39F0E091F91AF091FA1A82A98F5F09
:1018D00082AB8091F91A9091FA1A0895789487E66C
:1018E00090E0EDD23ED081E092D99093FD1A8093A2
:1018F000FC1A40E061E08EE1C5D89093131B809301
:10190000121B40E061E08AE0BDD890930B1B8093EE
:101910000A1B40E064E08AE0B5D89093111B8093E5
:10192000101BE12CF12C02E020E030E048EC50E00C
:101930006FE072E080EB9EE0F9DB20E030E048EC05
:1019400050E060E372E08DE09FE0F0DB20E030E00B
:1019500044E650E065E572E088E79DE0E7DB35DCD2
:10196000FFCF87E084B981E58CBD85B1816085B901
:1019700008950F9300E02FEF3FEFA90160E070E0C2
:101980008091FC1A9091FD1A86D98091001B8111DB
:1019900006C081E08093001B8FE692E0B2D200E0A7
:1019A00020E030E0A90160E070E08091FC1A9091A5
:1019B000FD1A90D80F9108950F9300E02FEF3FEF9D
:1019C000A90160E070E08091FC1A9091FD1A63D942
:1019D0008091001B813031F482E08093001B89E705
:1019E00092E08FD200E020E030E0A90160E070E0FA
:1019F0008091FC1A9091FD1A6DD80F9108950F9364
:101A000000E02FEF3FEFA90160E070E08091FC1A49
:101A10009091FD1A40D98091001B823031F483E00F
:101A20008093001B82E892E06CD200E020E030E07E
:101A3000A90160E070E08091FC1A9091FD1A4AD8EB
:101A40000F9108950F9300E02FEF3FEFA90160E0A1
:101A500070E08091FC1A9091FD1A1DD98091001BB5
:101A6000833031F484E08093001B82E992E049D214
:101A700000E020E030E0A90160E070E08091FC1A15
:101A80009091FD1A27D80F910895EF92FF920F932E
:101A90001F9300E02FEF3FEFA90160E070E080911D
:101AA000FC1A9091FD1AF7D88091FF1A882379F0DB
:101AB0001092FF1AE12CF12C02E010E020E030E05F
:101AC00044E650E06AE972E08CEC9DE02FDB00E038
:101AD00020E030E0A90160E070E08091FC1A909174
:101AE000FD1A0E946A051F910F91FF90EF900895D3
:101AF000CF93DF931F92CDB7DEB7EEEFFAE181E02F
:101B00008183128200E02FEF3FEFA901BE016F5FDA
:101B10007F4F80910A1B90910B1BBDD8813091F7AC
:101B2000E981F0E0EE0FFF1FE050FE4F0190F081E1
:101B3000E02D1995E7CFCF939B01AC0160910C1B71
:101B400070910D1B80910E1B90910F1B84D2C1E0F0
:101B500020E030E040E050E4C4D318160CF0C0E0C0
:101B60008C2FCF910895CF939B01AC0160910C1BFA
:101B700070910D1B80910E1B90910F1B6CD29F7763
:101B8000C1E020E030E040E05FE3CAD288230CF0FF
:101B9000C0E08C2FCF910895CF93DF9300D01F9298
:101BA0001F92CDB7DEB710920C1B10920D1B109236
:101BB0000E1B10920F1B00E02FEF3FEFA901BE019B
:101BC0006F5F7F4F8091101B9091111B64D8813003
:101BD00009F0A1C02FEF3FEFA90160E070E0809114
:101BE000FC1A9091FD1A57D869817A818B819C816A
:101BF0000EEF1AE1F801678370878187928720E8EA
:101C000036EE45EC57E490D221E03EED42E45EE34F
:101C1000CFD39B01AC0160E070E080E89FE31BD272
:101C200020E03AE24DE257E460D3F8016383748325
:101C3000858396832281213091F47DDF882379F09A
:101C400081E08D8300E02FEF3FEFA901BE016B5FC4
:101C50007F4F80910A1B90910B1B0E946A05809117
:101C6000001B8230F1F46091011B7091021B809186
:101C7000031B9091041B20E030E04FE254E450D26B
:101C800088237CF482E08D8300E02FEF3FEFA901F1
:101C9000BE016B5F7F4F80910A1B90910B1B0E94CE
:101CA0006A058091001B8330D1F46091011B709113
:101CB000021B8091031B9091041B55DF882379F050
:101CC00083E08D8300E02FEF3FEFA901BE016B5F42
:101CD0007F4F80910A1B90910B1B0E946A05809197
:101CE000011B9091021BA091031BB091041B8093D8
:101CF0000C1B90930D1BA0930E1BB0930F1B00E0C9
:101D000020E030E0A90160E070E08091FC1A909141
:101D1000FD1A0E946A0560ED77E080E090E0C4DB88
:101D20004ACFAC0120E030E080E008C0FA013796ED
:101D3000E20FF31F908189272F5F3F4F2430310539
:101D4000A8F320E030E008C0FA013396E20FF31F59
:101D5000908189272F5F3F4F24303105A8F30895E4
:101D6000CF93DF931F921F92CDB7DEB78FEF89839A
:101D70008AE08A8300E02FEF3FEFA90160E070E086
:101D80008091FC1A9091FD1A0E944B068091FB1ADB
:101D900091E0980F9093FB1A0EEF1AE1F8018083FF
:101DA000C801BFDFF801838761E070E0CE010196D2
:101DB000B4D061E070E0C801B0D061E070E08FEFB6
:101DC0009AE1ABD061E070E080E09BE1A6D064E0F6
:101DD00070E081E09BE1A1D064E070E085E09BE1F0
:101DE0009CD061E070E089E09BE197D061E070E019
:101DF000CE01029692D000E020E030E0A90160E040
:101E000070E08091FC1A9091FD1A0E946A0560EDC5
:101E100077E080E090E048DBADCFCF93DF93CDB7A4
:101E2000DEB768970FB6F894DEBF0FBECDBFCE0108
:101E3000019686D08981823099F0833039F18130E2
:101E4000A9F51D8A00E02FEF3FEFA901BE016B5EEF
:101E50007F4F80910A1B90910B1B0E946A0529C03D
:101E60008A819B81AC81BD818D8B9E8BAF8BB88F1E
:101E700000E02FEF3FEFA901BE016B5E7F4F809125
:101E8000101B9091111B0E946A0513C084E08D8B7A
:101E900000E02FEF3FEFA901BE016B5E7F4F809105
:101EA0000A1B90910B1B0E946A0503C080EE92E012
:101EB00028D060ED77E080E090E0F6DAB8CF90933C
:101EC000C5008093C40028E12093C10026E0209340
:101ED000C2009093CD008093CC0088E98093C90024
:101EE0002093CA0008959091C00095FFFCCF809385
:101EF000C60008959091C80095FFFCCF8093CE0056
:101F00000895CF93DF93EC0102C0EDDF2196888125
:101F10008111FBCFDF91CF9108950F931F93CF9342
:101F2000DF93EC018C01060F171F02C08991E2DFDD
:101F3000C017D107D8F3DF91CF911F910F9108956A
:101F4000CF92DF92EF92FF920F93CF93DF931F9286
:101F5000CDB7DEB76C0100E02FEF3FEFA901BE0166
:101F60006F5F7F4F8091121B9091131B0E944B0655
:101F7000813089F789818F3F71F7E12CF12C00E0E6
:101F80002FEF3FEFA901BE016F5F7F4F8091121BC2
:101F90009091131B0E944B0689818A3039F0F6011B
:101FA000EE0DFF1D8083C70101967C0189818A3077
:101FB00031F7F601EE0DFF1D10820F90DF91CF91EA
:101FC0000F91FF90EF90DF90CF9008951F920F92A6
:101FD0000FB60F9211240BB60F922F933F934F938E
:101FE0005F936F937F938F939F93AF93BF93EF9381
:101FF000FF93CF93DF931F921F92CDB7DEB78091EF
:10200000CE0089831A8220E0AE014E5F5F4FBE0191
:102010006F5F7F4F8091121B9091131B0E941306DC
:102020008A8181110E9467030F900F90DF91CF91F9
:10203000FF91EF91BF91AF919F918F917F916F91A0
:102040005F914F913F912F910F900BBE0F900FBE5C
:102050000F901F9018955058BB27AA270ED007C184
:10206000F8D030F0FDD020F031F49F3F11F41EF491
:10207000EDC00EF4E095E7FBE3C0E92F09D180F352
:10208000BA17620773078407950718F071F49EF575
:1020900021C10EF4E0950B2EBA2FA02D0B01B90132
:1020A00090010C01CA01A0011124FF27591B99F0CE
:1020B000593F50F4503E68F11A16F040A22F232FDA
:1020C000342F4427585FF3CF469537952795A7952A
:1020D000F0405395C9F77EF41F16BA0B620B730BD1
:1020E000840BBAF09150A1F0FF0FBB1F661F771F42
:1020F000881FC2F70EC0BA0F621F731F841F48F4F7
:10210000879577956795B795F7959E3F08F0B3CF7C
:102110009395880F08F09927EE0F97958795089566
:102120006BD008F481E008950CD0A1C099D040F0A4
:1021300090D030F021F45F3F19F082C05111CBC034
:1021400085C0A6D098F39923C9F35523B1F3951B05
:10215000550BBB27AA2762177307840738F09F5FC8
:102160005F4F220F331F441FAA1FA9F333D00E2E37
:102170003AF0E0E830D091505040E695001CCAF7A4
:1021800029D0FE2F27D0660F771F881FBB1F261769
:1021900037074807AB07B0E809F0BB0B802DBF013C
:1021A000FF2793585F4F2AF09E3F510568F048C0C3
:1021B00092C05F3FECF3983EDCF386957795679588
:1021C000B795F7959F5FC9F7880F911D96958795ED
:1021D00097F90895E1E0660F771F881FBB1F62170C
:1021E00073078407BA0720F0621B730B840BBA0BCA
:1021F000EE1F88F7E0950895990F0008550FAA0B78
:10220000E0E8FEEF16161706E807F907C0F0121609
:102210001306E407F50798F0621B730B840B950B0C
:1022200039F40A2661F0232B242B252B21F4089561
:102230000A2609F4A140A6958FEF811D811D0895FE
:1022400097F99F6780E870E060E008959FEF80EC69
:10225000089500240A94161617061806090608950C
:1022600000240A9412161306140605060895092E72
:102270000394000C11F4882352F0BB0F40F4BF2BE1
:1022800011F460FF04C06F5F7F4F8F4F9F4F089521
:1022900057FD9058440F551F59F05F3F71F0479517
:1022A000880F97FB991F61F09F3F79F087950895FC
:1022B000121613061406551FF2CF4695F1DF08C01B
:1022C000161617061806991FF1CF86957105610538
:1022D00008940895E894BB2766277727CB0197F9E0
:1022E00008958ADF08F48FEF08950BD0C0CFB1DFD7
:1022F00028F0B6DF18F0952309F0A2CFA7CF11245C
:10230000EACFC6DFA0F3959FD1F3950F50E0551F9C
:10231000629FF001729FBB27F00DB11D639FAA273A
:10232000F00DB11DAA1F649F6627B00DA11D661F89
:10233000829F2227B00DA11D621F739FB00DA11DAA
:10234000621F839FA00D611D221F749F3327A00D64
:10235000611D231F849F600D211D822F762F6A2F00
:1023600011249F5750408AF0E1F088234AF0EE0F85
:10237000FF1FBB1F661F771F881F91505040A9F792
:102380009E3F510570F05CCFA6CF5F3FECF3983EC7
:10239000DCF3869577956795B795F795E7959F5FF9
:1023A000C1F7FE2B880F911D9695879597F9089593
:1023B000FA01EE0FFF1F30962105310599F16115E5
:1023C000710561F48038BFE39B0749F16894903848
:1023D000810561F08038BFEF9B0741F0992342F5FA
:1023E000FF3FE1053105210511F1E8940894E795D7
:1023F000D901AA2329F4AB2FBE2FF85FD0F310C068
:10240000FF5F70F4A695E0F7F73950F019F0FF3A46
:1024100038F49F779F930CD00F9007FC9058089545
:102420003EF014CF60E070E080E89FE308954FE74E
:102430009F775F934F933F932F939ED02F913F9120
:102440004F915F9152DF05C019F40EF0F9CE42CFE3
:10245000FDCE26DFC8F39638C0F707F80F92E89450
:102460002BE33AEA48EB5FE74EDF0F920F920F92B1
:102470004DB75EB70F92C0D0E4EEF0E016D04F91AA
:102480005F91EF91FF91E595EE1FFF1F49F0FE5719
:10249000E0684427EE0F441FFA95E1F74195550B8C
:1024A00032D00F9007FE26C00895DF93CF931F937D
:1024B0000F93FF92EF92DF927B018C01689405C02D
:1024C000DA2EEF011EDFFE01E894A59125913591EA
:1024D00045915591AEF3EF01D0DDFE019701A801C2
:1024E000DA9479F7DF90EF90FF900F911F91CF91E1
:1024F000DF9108959B01AC0160E070E080E89FE30C
:1025000013CE9ECEE9C0CCDEE8F39923D9F3940F25
:10251000511DBBF39150504094F059F0882332F094
:10252000660F771F881F91505040C1F79E3F51059D
:1025300044F7880F911D9695879597F908955F3F09
:10254000ACF0983E9CF0BB27869577956795B7953C
:1025500008F4B1609395C1F7BB0F58F711F460FF11
:10256000E8CF6F5F7F4F8F4F9F4FE3CFB4CE0EF01A
:10257000B3C06CCE689464CE93DEC8F39923D1F3D4
:10258000C6F3DF93CF931F930F93FF92C92FDD27DD
:1025900088232AF02197660F771F881FDAF720E03B
:1025A00030E040E85FEB9FE3883920F0803E30F078
:1025B00021968F7751DDECE0F1E003C04DDDE9E3DA
:1025C000F1E073DF8B01BE01EC01FB2E6F57710947
:1025D0007595771F880B990B44D028E132E741E3CA
:1025E0005FE38FDEAF2D9801AE01FF900F911F9139
:1025F000CF91DF9142DD3BCEFA01DC01AA0FBB1F78
:102600009B01AC01BF5728F4222733274427507879
:102610001FC0B75188F4AB2F0024469537952795F6
:10262000011CA395D2F3002069F0220F331F441F31
:10263000B395DAF30DD00FCD61307105A0E88A07AC
:10264000B94630F49B01AC0166277727882790783C
:10265000309621F020833183428353830895E89498
:1026600009C097FB3EF490958095709561957F4FDA
:102670008F4F9F4F9923A9F0F92F96E9BB27939588
:10268000F695879577956795B795F111F8CFFAF498
:10269000BB0F11F460FF1BC06F5F7F4F8F4F9F4FC9
:1026A00016C0882311F096E911C0772321F09EE827
:1026B000872F762F05C0662371F096E8862F70E08D
:1026C00060E02AF09A95660F771F881FDAF7880F67
:1026D0009695879597F908959F3F31F0915020F492
:1026E000879577956795B795880F911D96958795EE
:1026F00097F90895FB01DC0102C001900D92415051
:0A2700005040D8F70895F894FFCF79
:10270A00B90CDC0CFF0C220D450D49444C45005414
:10271A0061736B20746F2073656E642074656C65D9
:10272A006D6574727920746F2067726F756E6400BC
:10273A005461736B20746F207265636569766520D6
:10274A00636F6D6D616E64732066726F6D20677260
:10275A006F756E64005461736B20746F2068616ECC
:10276A00646C6520616C6C206576656E7473004CD0
:10277A0061756E63686564210046616C6C696E6799
:10278A00210050726F62652052656C6561736564E1
:10279A0021004C616E64656421005461736B20747E
:1027AA006F2073696D756C61746520726561646907
:1027BA006E6720646174612066726F6D20573235CE
:1027CA005133322C2077696C6C20696E636C7564A6
:1027DA0065206F746865722073656E736F7273001B
:1027EA00536F6D657468696E672077656E742077BC
:0827FA00726F6E67210D0A00E9
:00000001FF
