:10000000BDC00000DCC00000DAC00000D8C00000A5
:10001000D6C00000D4C00000D2C00000D0C0000094
:10002000CEC00000CCC00000CAC00000C8C00000A4
:10003000C6C00000C4C00000C2C00000C0C00000B4
:10004000BEC0000011C40000BAC00000B8C000006B
:10005000B6C00000B4C00000B2C00000B0C00000D4
:10006000AEC00000ACC00000AAC00000A8C00000E4
:10007000A6C00000A4C00000A2C00000A0C00000F4
:100080009EC000009CC000009AC0000098C0000004
:100090000C94D81A94C0000092C0000090C00000D8
:1000A0008EC000008CC000008AC0000088C0000024
:1000B00086C0000084C0000082C0000080C0000034
:1000C0007EC000007CC000007AC000000C941D1BA4
:1000D00076C0000074C0000072C0000070C0000054
:1000E0006EC00000D61972198419A119B419F41937
:1000F000F419F419C719E419ED1907634236B79BCF
:10010000D8A71A39685618AEBAAB558C1D3CB7CC77
:100110005763BD6DEDFD753EF6177231BF000000EF
:10012000803F08000000BE922449123EABAAAA2AD2
:10013000BECDCCCC4C3E00000080BEABAAAAAA3EED
:1001400000000000BF000000803F00000000000829
:100150004178D3BB4387D1133D190E3CC3BD4282C6
:10016000AD2B3E68EC8276BED98FE1A93E4C80EF84
:10017000FFBE01C4FF7F3F000000000011241FBE2E
:10018000CFEFD1E2DEBFCDBF00E00CBF14E0A0E0B6
:10019000B2E0E8E0F5E400E00BBF02C007900D928A
:1001A000A03DB107D9F72DE1A0EDB4E001C01D924B
:1001B000AF3EB207E1F70E94440D0C94822220CF9B
:1001C000FC010396928381834FEF5FEFBA01438373
:1001D0005483658376839087878392878187108293
:1001E0000895FC01138612860895CF93DF939C0136
:1001F000FB01DC011196CD91DC911297D583C4836C
:100200008E819F81978386838E819F81DC011596E5
:100210007C936E9314977F836E8333872287F901D3
:1002200080818F5F8083DF91CF9108950F931F931B
:10023000CF93DF93EB01088119812A813B810F3F26
:100240004FEF14072407340721F4FC01A185B28580
:1002500011C0DC01139601C0DF011496ED91FC91F1
:100260001597408151816281738104171507260714
:10027000370790F71496ED91FC911597FD83EC8369
:10028000D783C683BF83AE831596DC93CE93149732
:100290009B878A87FC0120812F5F2083DF91CF918C
:1002A0001F910F910895CF93DF93FC01A285B38531
:1002B000C481D581868197819F838E83C681D781B2
:1002C000848195819D838C8311968D919C91129749
:1002D000E817F90731F48681978112969C938E93E3
:1002E0001197138612868C9181508C93DF91CF9158
:1002F0000895CF93DF93ECEDF4E0A8EDB4E0119610
:10030000FC93EE9313961C921E921297CF010F2E20
:10031000000CAA0BBB0B8459984EAF4FBF4FEC019A
:100320009093D7048093D6041B821A821982188274
:100330009C012C5D344033832283918380833093EE
:10034000D3042093D2043093D5042093D40480E0C6
:1003500090E89093D1048093D004DF91CF910895D9
:10036000CF93DF93EC01A8EDB4E001C0DF01ED9184
:10037000FC911197EC17FD07C8F312968D919C9193
:1003800013979D01280F391FC217D30749F42A81FB
:100390003B81820F931F13969C938E931297ED01CE
:1003A0008A819B819E01280F391FE217F307C1F450
:1003B0002091D6043091D704E217F30771F022811F
:1003C0003381820F931F9B838A83ED91FC91119758
:1003D000808191819983888305C03983288302C0F5
:1003E000F983E883CA17DB0711F0CD93DC93DF9123
:1003F000CF910895EF92FF920F931F93CF93DF93C6
:100400008C016CD78091D6049091D704892B09F484
:1004100070DF8091D0049091D10480239123892BA7
:1004200009F066C00115110511F00C5F1F4F011591
:10043000110509F460C08091D4049091D50480170F
:10044000910708F45BC0C091D804D091D904E8EDBD
:10045000F4E002C0FE01EC018A819B8180179107C4
:1004600020F4888199810097A9F78091D604909112
:10047000D704C817D90709F444C0E080F18084E0AC
:10048000E80EF11C88819981918380832A813B81C8
:10049000201B310B2930310548F0CE01800F911F10
:1004A000FC01338322831B830A835ADF2A813B8129
:1004B0008091D4049091D504821B930B9093D50422
:1004C0008093D4044091D2045091D30484179507AB
:1004D00020F49093D3048093D2048091D00490911F
:1004E000D104282B392B3B832A83198218820BC015
:1004F000E12CF12C08C0E12CF12C05C0E12CF12CF1
:1005000002C0E12CF12CCDD7C701DF91CF911F9113
:100510000F91FF90EF9008950F931F93CF93DF9368
:10052000009739F1EC0124974A815B812091D00436
:100530003091D104BA0162237323672BD1F0688113
:100540007981672BB1F420953095242335233B83A3
:100550002A83C4D68A819B812091D4043091D5040A
:10056000820F931F9093D5048093D404CE01F8DEBC
:1005700098D7DF91CF911F910F9108951092890024
:1005800089EF80938800109280008BE08093810037
:10059000EFE6F0E0808182608083089531E1FC0124
:1005A0003083319722E220833197A3E3A0833197F0
:1005B0006083319770833197108231971082319721
:1005C00060E86083319710823197108231971082F2
:1005D000319762E06083319763E06083319764E034
:1005E0006083319765E06083319766E0608331977F
:1005F00067E06083319768E06083319769E06083EA
:10060000319760E1608331973083319732E13083F5
:10061000319733E13083319734E13083319735E1DD
:100620003083319736E13083319737E1308331972A
:1006300038E13083319739E13083319730E23083CC
:10064000319731E2308331972083319723E2208341
:100650003197408331975083319726E22083319739
:1006600027E22083319728E22083319729E22083F3
:10067000319720E32083319721E3208389970895E0
:100680007DDFA091D11CB091D21CCD91CDBFDD9169
:10069000DEBFFF91EF91DF91CF91BF91AF919F911D
:1006A0008F917F916F915F914F913F912F911F910A
:1006B0000F91FF90EF90DF90CF90BF90AF909F9001
:1006C0008F907F906F905F904F903F902F901F90F2
:1006D0000F900CBE0F900BBE0F900FBE0F900895A1
:1006E00081E008950F920FB6F8940F920BB60F9217
:1006F0000CB60F921F9211242F923F924F925F924D
:100700006F927F928F929F92AF92BF92CF92DF9221
:10071000EF92FF920F931F932F933F934F935F930B
:100720006F937F938F939F93AF93BF93CF93DF93F9
:10073000EF93FF93A091D11CB091D21C0DB60D92F6
:100740000EB60D9263D7A091D11CB091D21CCD9161
:10075000CDBFDD91DEBFFF91EF91DF91CF91BF91D2
:10076000AF919F918F917F916F915F914F913F9149
:100770002F911F910F91FF90EF90DF90CF90BF903E
:10078000AF909F908F907F906F905F904F903F9031
:100790002F901F900F900CBE0F900BBE0F900FBEAE
:1007A0000F9008950F920FB6F8940F920BB60F9218
:1007B0000CB60F921F9211242F923F924F925F928C
:1007C0006F927F928F929F92AF92BF92CF92DF9261
:1007D000EF92FF920F931F932F933F934F935F934B
:1007E0006F937F938F939F93AF93BF93CF93DF9339
:1007F000EF93FF93A091D11CB091D21C0DB60D9236
:100800000EB60D927FD5811101D7A091D11CB09168
:10081000D21CCD91CDBFDD91DEBFFF91EF91DF9175
:10082000CF91BF91AF919F918F917F916F915F9188
:100830004F913F912F911F910F91FF90EF90DF907B
:10084000CF90BF90AF909F908F907F906F905F9070
:100850004F903F902F901F900F900CBE0F900BBEAB
:100860000F900FBE0F9008959DDF18950FB6F89466
:100870000F92FC01868D811102C081E001C080E0F1
:100880000F900FBE08950FB6F8940F92FC01268DBD
:10089000878D281302C081E001C080E00F900FBE59
:1008A00008950F931F93CF93DF93EC01042F1E8DB8
:1008B00048A141110CC088819981892B09F042C05F
:1008C0008A819B810E94820C1B821A8242C0011184
:1008D00017C050E08C819D810E94891F28A18C81C6
:1008E0009D81820F911D9D838C832A813B8182177C
:1008F000930750F1888199819D838C8380E029C082
:1009000050E08E819F810E94891F88A190E091957F
:10091000819591092E813F81280F391F3F832E83B6
:10092000488159812417350730F42A813B81820F91
:10093000931F9F838E83023049F4112349F0115095
:1009400080E007C080E005C080E003C080E001C017
:1009500080E01F5F1E8FDF91CF911F910F9108954F
:10096000FC0140A14423A9F050E026813781240FE7
:10097000351F37832683828193812817390720F01A
:100980008081918197838683CB01668177810C94E6
:10099000891F08951F93CF93DF93EC010FB6F8944E
:1009A0000F921AA109C08B89882341F0CE0143968A
:1009B0008ED6811145D711501116ACF38FEF8AA353
:1009C0000F900FBE0FB6F8940F9219A109C0888539
:1009D000882341F0CE0108967AD6811131D7115083
:1009E0001116ACF38FEF89A30F900FBEDF91CF915B
:1009F0001F910895CF93DF93EC010FB6F8940F92F7
:100A0000E881F9818F8D90E028A130E0829FA001DC
:100A1000839F500D929F500D11244E0F5F1F5B83DB
:100A20004A831E8EFD83EC830197289FA001299F96
:100A3000500D389F500D1124CF01840F951F9F83B7
:100A40008E838FEF89A38AA361110AC088858823CA
:100A500069F0CE0108963BD6882341F043DE06C0FC
:100A6000CE010896ADDBCE014396AADB0F900FBEF8
:100A700081E0DF91CF9108950F931F93F8016111E9
:100A800003C01183008302C051834083878F60A31A
:100A900061E0CF01AFDF1F910F910895DF92EF92D8
:100AA000FF920F931F93CF93DF93E82EF62ED42E51
:100AB000662321F0869FC001112402C080E090E0EF
:100AC000839698DCEC01009741F08C012D2DAC0150
:100AD0004D5D5F4F6F2D8E2DCFDFCE01DF91CF911A
:100AE0001F910F91FF90EF90DF900895CF92DF92CA
:100AF000EF92FF920F931F93CF93DF93CDB7DEB7A3
:100B000029970FB6F894DEBF0FBECDBF7C016B01F5
:100B10002E833F834887598710E00FB6F8940F92D1
:100B2000F701968D878D981710F00230A9F4402FA9
:100B3000B601C701B6DEF7019389992339F0C701E1
:100B40004396C5D5882321F0CDDD02C08111CADDD1
:100B50000F900FBE81E046C08E819F81A885B98528
:100B6000892B8A2B8B2B21F40F900FBE80E03AC08B
:100B7000111104C0CE010196ECD511E00F900FBE0B
:100B8000ADD30FB6F8940F92F70181A18F3F09F40E
:100B900011A2F70182A18F3F09F412A20F900FBE9C
:100BA000BE016A5F7F4FCE010196E4D5811116C068
:100BB000C70169DE882371F04E815F816885798580
:100BC000C70108966DD5C701E5DE6BD48111A5CFAD
:100BD00089DDA3CFC701DEDE64D49FCFC701DADE93
:100BE00060D480E029960FB6F894DEBF0FBECDBF6B
:100BF000DF91CF911F910F91FF90EF90DF90CF90F9
:100C000008950F93009769F0FC01138212821182FC
:100C10001082168200E020E030E0A90160E070E080
:100C200065DF0F910895CF93DF93482F60E081E057
:100C300035DFEC01E6DFCE01DF91CF910895EF9231
:100C4000FF920F931F93CF93DF938A01FC01568D80
:100C5000378D531710F02230E1F4422F7801EC0168
:100C60001AA11FDE1F3F79F48B898823A1F0CE01E2
:100C700043962DD5882389F0E114F10481F081E0B9
:100C8000F70180830DC0FF24F394F10EFAA281E0F6
:100C900007C080E005C081E003C081E001C081E0C1
:100CA000DF91CF911F910F91FF90EF9008958F9258
:100CB0009F92BF92CF92DF92EF92FF920F931F937A
:100CC000CF93DF93CDB7DEB729970FB6F894DEBF89
:100CD0000FBECDBF7C016B012E833F8348875987B0
:100CE000B02E00E00FB6F8940F92F701168D112385
:100CF00061F186809780B601C70132DEB11016C05F
:100D00001150F701168F80819181892B21F43AD6F9
:100D1000F70193838283F7018085882391F0C701CF
:100D20000896D5D4882369F0DDDC0BC0F7019782E3
:100D300086828389882329F0C7014396C8D481110C
:100D4000D1DC0F900FBE81E058C08E819F81A885B5
:100D5000B985892B8A2B8B2B21F40F900FBE80E055
:100D60004CC0011104C0CE010196F3D401E00F90F4
:100D70000FBEB4D20FB6F8940F92F70181A18F3F46
:100D800009F411A2F70182A18F3F09F412A20F907A
:100D90000FBEBE016A5F7F4FCE010196EBD4811179
:100DA00023C0C70163DD8823D9F0F70180819181D9
:100DB000892B41F40FB6F8940F928281938144D528
:100DC0000F900FBE4E815F8168857985C70143967C
:100DD00067D4C701DFDD65D3811184CF83DC82CF87
:100DE000C701D8DD5ED37ECFC701D4DD5AD3C7019A
:100DF0003DDD882309F476CF80E029960FB6F8947C
:100E0000DEBF0FBECDBFDF91CF911F910F91FF903D
:100E1000EF90DF90CF90BF909F908F900895E091DA
:100E2000821CF091831C808181110CC08FEF9FEF99
:100E3000DC0180934F1C9093501CA093511CB093E5
:100E4000521C0895E091821CF091831C0780F0856C
:100E5000E02D0084F185E02D82819381A481B5810C
:100E600080934F1C9093501CA093511CB093521C24
:100E70000895CF93DF93EC018B8D9C8D4DDBCE01DC
:100E80004BDBDF91CF9108956F927F928F929F926B
:100E9000AF92BF92CF92DF92EF920F931F93CF93B7
:100EA000DF93CDB7DEB74C01F501838D948D2150D2
:100EB00031093C01620E731E20E00FC0822F90E0CA
:100EC000FB01E80FF91F3081D501A80FB91F5D960E
:100ED0003C938081882319F02F5F243178F3F5014A
:100EE00010AAF4E0FE1518F46894EE24E2F8F50177
:100EF000E28EE1AA12AAC501029673D9C5010E9627
:100F000070D9F501B386A28685E090E0A0E0B0E05C
:100F10008E199109A109B10986879787A08BB18B9A
:100F2000B78AA68A13AA14AA15AA16AA17AAA801EC
:100F3000B401C30133DBF50191838083C114D10473
:100F400019F0F601B182A082DF91CF911F910F912C
:100F5000EF90DF90CF90BF90AF909F908F907F9059
:100F60006F900895CF93C0E008C02BE0C29FC001EE
:100F700011248656934E24D9CF5FC530B0F38FE845
:100F80009CE11ED984E89CE11BD985E79CE118D936
:100F90008AE69CE115D98EE59CE112D98FE89CE1A7
:100FA0009093831C8093821C84E89CE19093811C25
:100FB0008093801CCF910895CF93DF93EC010FB6FF
:100FC000F8940F9280915D1C8F5F80935D1C8091DF
:100FD000D11C9091D21C892B51F4D093D21CC09378
:100FE000D11C80915D1C813091F4BCDF10C08091D8
:100FF000571C81110CC0E091D11CF091D21C928D34
:101000008A8D891720F0D093D21CC093D11C809177
:10101000531C8F5F8093531C8A8D9091581C981796
:1010200010F48093581C2BE0829FC0011124BE0154
:101030006E5F7F4F8656934ED8D80F900FBE80912B
:10104000571C882349F0E091D11CF091D21C928D5D
:101050008A8D981708F446DBDF91CF9108958F921F
:101060009F92AF92BF92CF92DF92EF92FF92CF9377
:101070006B017C01C42F8090591C90905A1CA09049
:101080005B1CB0905C1C8091D11C9091D21C02968C
:101090000AD98FEFC816D806E806F80661F4CC2303
:1010A00051F06091D11C7091D21C6E5F7F4F8EE524
:1010B0009CE19BD83DC0C80CD91CEA1CFB1CE091EC
:1010C000D11CF091D21CC282D382E482F582C81472
:1010D000D904EA04FB0460F46091D11C7091D21C25
:1010E0008091801C9091811C6E5F7F4F9FD820C0A3
:1010F0006091D11C7091D21C8091821C9091831CB4
:101100006E5F7F4F93D880914F1C9091501CA0919F
:10111000511CB091521CC816D906EA06FB0640F4D1
:10112000C0924F1CD092501CE092511CF092521C65
:10113000CF91FF90EF90DF90CF90BF90AF909F90B6
:101140008F9008952F923F924F925F926F927F926D
:101150008F929F92AF92BF92CF92DF92EF92FF92C7
:101160000F931F93CF93DF933C011B015A01290179
:10117000CA0140D96C01892B61F088E390E03AD92B
:10118000EC01892B19F0DC8ECB8E05C0C601C4D9C9
:1011900002C0C0E0D0E0209781F0950140E050E02F
:1011A000812C912C5E016701E02E8201B101C30107
:1011B0006BDECE0101DF81E001C08FEFDF91CF91C7
:1011C0001F910F91FF90EF90DF90CF90BF90AF9065
:1011D0009F908F907F906F905F904F903F902F9057
:1011E00008950F931F93CF93DF93EC010FB6F894FC
:1011F0000F92892B21F4C091D11CD091D21C8E0169
:101200000E5F1F4FC8014FD8888D998D892B19F01B
:10121000CE010E9648D88091531C8F5F8093531C4B
:101220008091D11C9091D21CC817D90759F4B801EC
:101230008AE69CE10E94F5008091691C8F5F809393
:10124000691C08C080915D1C815080935D1CCE019B
:1012500010DEE5DD0F900FBE8091571C882341F012
:101260008091D11C9091D21CC817D90709F43ADAA1
:10127000DF91CF911F910F910895EF92FF920F93FD
:101280000F2EFDE4EF2EFCE1FF2EF02D00E020E01C
:1012900030E040E054E06CE072E08FEF9AE052DF23
:1012A0008130C1F4F8948FEF9FEFDC0180934F1CE5
:1012B0009093501CA093511CB093521C81E08093DA
:1012C000571C1092591C10925A1C10925B1C1092C1
:1012D0005C1CD6D90F91FF90EF90089580914C1C23
:1012E0008F5F80934C1C08950FB6F8940F92609115
:1012F000591C70915A1C80915B1C90915C1C0F9042
:101300000FBE0895BF92CF92DF92EF92FF920F939C
:101310001F93CF93DF9380914C1C8111A8C0C09084
:10132000591CD0905A1CE0905B1CF0905C1C2FEF75
:10133000C21AD20AE20AF20AC092591CD0925A1C6E
:10134000E0925B1CF0925C1CC114D104E104F10436
:10135000B1F48091821C9091831C2091801C30916B
:10136000811C3093831C2093821C9093811C80935A
:10137000801C8091541C8F5F8093541C50DD8091A1
:101380004F1C9091501CA091511CB091521CC8163A
:10139000D906EA06FB0628F4B12C5AC0BB24B39444
:1013A00001C0B12CE091821CF091831C80818111DD
:1013B0000CC08FEF9FEFDC0180934F1C9093501C6B
:1013C000A093511CB093521C43C0E091821CF09139
:1013D000831C0780F085E02DC085D1858A819B81A3
:1013E000AC81BD81C816D906EA06FB0648F4809395
:1013F0004F1C9093501CA093511CB093521C28C0BA
:101400008E010E5F1F4FC8010E945301888D998D78
:10141000892B21F0CE010E960E9453018A8D909166
:10142000581C981710F48093581C2BE0829FC00121
:101430001124B8018656934E0E94F5009A8DE091D2
:10144000D11CF091D21C828D981708F0A7CFAACF9B
:10145000E091D11CF091D21CE28D8BE0E89FF0016D
:101460001124E656F34E8081823040F409C0809109
:10147000561C8F5F8093561CB12C02C0BB24B394C2
:101480008091551C882311F0BB24B3948B2DDF91E0
:10149000CF911F910F91FF90EF90DF90CF90BF9071
:1014A00008950F931F93CF93DF930FB6F8940F9285
:1014B00080914C1C815080934C1C80914C1C81115C
:1014C0004FC080915D1C81112DC04DC0E0917C1CEE
:1014D000F0917D1CC085D185CE010E960E945301EE
:1014E0008E010E5F1F4FC8010E9453018A8D90919B
:1014F000581C981710F48093581C2BE0829FC00151
:101500001124B8018656934E0E94F5009A8DE09101
:10151000D11CF091D21C828D981730F081E080931D
:10152000551C02C0C0E0D0E08091751C8111CECF67
:10153000CD2B09F074DCC091561CCC2351F0E2DEB7
:10154000882319F081E08093551CC150C1F7109297
:10155000561C8091551C882329F0C4D881E003C013
:1015600080E001C080E00F900FBEDF91CF911F910E
:101570000F910895CF92DF92EF92FF926B017C0161
:10158000672B682B692B39F0A9DE40E0C701B60153
:1015900066DD87DF01C080E0811101C0A3D8FF9024
:1015A000EF90DF90CF900895CF93DF9321C096DE28
:1015B000C0916A1C76DFCC23D9F00FB6F8940F9255
:1015C000E091711CF091721CC085D185CE0102960C
:1015D0000E94530180915D1C815080935D1C80911D
:1015E000691C81508093691C0F900FBECE0141DCB5
:1015F0008091691C8111DBCFDF91CF910895D4DFF9
:1016000080919A1C8230D8F36DD8F9CF80914C1C10
:10161000882321F081E08093551C08951092551C79
:101620008091581C01C08150282F30E09BE0929F90
:10163000F001939FF00D1124E656F34E908199230B
:1016400091F39BE0929FA001939F500D1124DF0125
:101650000180F281E02D0480F581E02D1296FC934B
:10166000EE9311974356534EE417F50729F444813E
:101670005581FD01528341839BE0929FF001939F2E
:10168000F00D1124E656F34E0180F281E02D208505
:1016900031853093D21C2093D11C8093581C08951F
:1016A000CF92DF92EF92FF926A017B016091D11C91
:1016B0007091D21C625F7F4F0E94160141E0C7010A
:1016C000B601CDDCFF90EF90DF90CF9008950F939F
:1016D0001F93CF93DF93DC011796ED91FC91189740
:1016E000C085D1858E01025F1F4FC8010E94530142
:1016F00080914C1C811116C00C501109C8010E9428
:1017000053018A8D9091581C981710F48093581C9F
:10171000BBE08B9FC0011124B8018656934E0E94F6
:10172000F50005C0B80185E79CE10E94F5009A8D9F
:10173000E091D11CF091D21C828D891720F481E0B8
:101740008093551C01C080E0DF91CF911F910F91D4
:1017500008952091541CFC0120834091591C509104
:101760005A1C60915B1C70915C1C418352836383A3
:10177000748308958F929F92AF92BF92CF92DF921F
:10178000EF92FF920F931F93CF93DF93FB010FB65E
:10179000F8940F920091591C10915A1C20915B1CD7
:1017A00030915C1C40815181628173814F3FAFEF6A
:1017B0005A076A077A0781F1EC01B881A091541C9D
:1017C000BA1749F0C980DA80EB80FC800C151D0542
:1017D0002E053F0518F5DC011196CD90DD90ED90BA
:1017E000FC901497480159018C189D08AE08BF0859
:1017F00084169506A606B70698F4C01AD10AE20A1E
:10180000F30A4C0D5D1D6E1D7F1D40835183628365
:1018100073839FDF80E005C080E003C081E001C0EA
:1018200081E00F900FBEDF91CF911F910F91FF903C
:10183000EF90DF90CF90BF90AF909F908F900895E2
:1018400081E08093551C08950F931F93CF93DF93EE
:10185000FC01892B09F451C0828DA091D11CB0915B
:10186000D21C5A969C91891708F047C04685578527
:1018700060897189772394F0A091D11CB091D21C1A
:101880005A969C9145E050E060E070E0491B510998
:101890006109710946875787608B718B248535856F
:1018A0004BE0849FC00111248656934E28173907B8
:1018B000E9F48F01EF012296CE010E945301E091DD
:1018C000D11CF091D21C828DF801828F9091581C0E
:1018D000981710F48093581CFBE08F9FC0011124CF
:1018E000BE018656934E0E94F50007C0A091D11C00
:1018F000B091D21C5A968C91828FDF91CF911F911B
:101900000F9108950F931F93CF93DF93FC01892BC1
:1019100079F182A9815082AB228D91A9291751F1C9
:1019200081112AC0EF018F010E5F1F4FC8010E9475
:10193000530189A98A8F45E050E060E070E0481BC0
:101940005109610971094E875F87688B798B909186
:10195000581C981710F48093581C2BE0829FC001EC
:101960001124B8018656934E0E94F50081E005C00F
:1019700080E003C080E001C080E0DF91CF911F9143
:101980000F9108958091D11C9091D21C892B39F030
:10199000E091D11CF091D21C82A98F5F82AB809123
:1019A000D11C9091D21C08950F931F93CF93DF9376
:1019B000CDB7DEB76E970FB6F894DEBF0FBECDBFC2
:1019C000789434D7AFD6FBD43DD581E192E00E9424
:1019D000451A84E292E00E94451A87E392E00E9451
:1019E000451A0E94731B1F928F9385E592E09F9387
:1019F0008F938E010F5F1F4F1F930F930E94921FB3
:101A0000C8010E94451A23D11F928F9382E692E06B
:101A10009F938F931F930F930E94921FC8010E9460
:101A2000451A1AD51F928F938FE692E09F938F935A
:101A30001F930F930E94921FC8010E94451A5CD603
:101A40002FEF89E698E1215080409040E1F700C0F7
:101A500000005DD6CDD62FEF89E698E12150804079
:101A60009040E1F700C000000FB6F894DEBF0FBE53
:101A7000CDBF6E960FB6F894DEBF0FBECDBFDF911F
:101A8000CF911F910F910895CF93DF93CDB7DEB71C
:101A900068970FB6F894DEBF0FBECDBF87E690E023
:101AA0000E94231A80E090E00E946D2269837A836D
:101AB0008B839C839F938F937F936F938CE792E0AC
:101AC0009F938F938E010B5F1F4F1F930F930E9465
:101AD000921FC8010E94451A67DF81E0A4D8909345
:101AE000AD1D8093AC1D40E061E08EE10E944E058B
:101AF0009093EE1D8093ED1D40E061E08AE00E942E
:101B00004E059093E61D8093E51D40E064E08AE079
:101B10000E944E059093EC1D8093EB1DE12CF12C5F
:101B200002E020E030E048EC50E068E872E08AEA49
:101B300098E108DB20E030E044EF51E069EA72E030
:101B40008DE499E1FFDA20E030E044E650E06EEC0D
:101B500072E088E695E1F6DA20E030E040E951E015
:101B600068EE72E08DEB95E1EDDA9E012F5F3F4F5D
:101B700044E650E067E073E08BE197E1E3DA20E0D0
:101B800030E044E650E06DE273E08EE697E1DADAA9
:101B900085E593E00E94451A70DB0FB6F894DEBF2E
:101BA0000FBECDBFFFCFCF92DF92EF92FF920F9388
:101BB0001F93CF93DF93C82F6B017A0184E040D647
:101BC0008C2F806854D680E052D6C0E0D0E008C0A8
:101BD00086010C0F1D1F80E04AD6F80180832196F4
:101BE000CE15DF05A8F384E037D6DF91CF911F91A2
:101BF0000F91FF90EF90DF90CF9008951F93CF93B8
:101C0000DF93182FEB0184E01BD6812F80682FD63D
:101C100080E02DD680E02BD6888384E01DD6DF912E
:101C2000CF911F910895CF93DF93D82FC62F84E0D3
:101C300007D68D2F8F771BD68C2F19D684E00CD624
:101C4000DF91CF910895BC0180E0D8CF0895CF9364
:101C5000DF931F92CDB7DEB7CE010196F4DF81E0AE
:101C60009981903609F080E00F90DF91CF9108952F
:101C7000EF92FF920F931F93CF93DF9300D000D08A
:101C8000CDB7DEB77C018B01BE016F5F7F4F86E071
:101C9000FB0111928A95E9F746E050E084E083DF8A
:101CA0008B8190E0A0E0B0E0BC01552744279A81E9
:101CB000892F90E0A0E0B0E0BA2FA92F982F8827B5
:101CC000842B952BA62BB72B2981822BF7018083A0
:101CD0009183A283B3838E8190E0A0E0B0E0BC0149
:101CE000552744279D81892F90E0A0E0B0E0BA2FCE
:101CF000A92F982F8827842B952BA62BB72B2C81C7
:101D0000822BF80180839183A283B38326960FB63A
:101D1000F894DEBF0FBECDBFDF91CF911F910F9121
:101D2000FF90EF9008958F929F92AF92BF92CF92C3
:101D3000DF92EF92FF920F931F93CF93DF938C016B
:101D400060915B1D70915C1D80915D1D90915E1D89
:101D50000E94DB1CC4E7DDE1288139814A815B8177
:101D60000E940A1C6B017C012C813D814E815F81A8
:101D70000E94911D4B015C01A7019601C701B601AC
:101D80000E94911D288539854A855B850E94911D99
:101D90009B01AC01C501B4010E940B1CF8016083DA
:101DA000718382839383DF91CF911F910F91FF9075
:101DB000EF90DF90CF90BF90AF909F908F9008955D
:101DC0004F925F926F927F928F929F92AF92BF924B
:101DD000CF92DF92EF92FF920F931F93CF93DF93F7
:101DE000CDB7DEB760970FB6F894DEBF0FBECDBF9C
:101DF0008C0149835A836B837C836091941D70911D
:101E0000951D8091961D9091971D29813A814B8156
:101E10005C810E94911D6D837E838F839887C09023
:101E2000981DD090991DE0909A1DF0909B1D2981DE
:101E30003A814B815C81CA01B9010E94911D2B013D
:101E40003C019B01AC01C701B6010E94911D69874D
:101E50007A878B879C8780909C1D90909D1DA09079
:101E60009E1DB0909F1DA301920169817A818B8193
:101E70009C810E94911D6B017C019B01AC01C501FD
:101E8000B4010E94911D4B015C012091901D309185
:101E9000911D4091921D5091931D6D817E818F8186
:101EA00098850E940B1C9B01AC0169857A858B8506
:101EB0009C850E940B1C9B01AC01C501B4010E94D2
:101EC0000B1C69877A878B879C872091841D3091B2
:101ED000851D4091861D5091871D69817A818B8176
:101EE0009C810E94911D4B015C012091881D3091C5
:101EF000891D40918A1D50918B1DC301B2010E9422
:101F0000911D2B013C0120918C1D30918D1D409124
:101F10008E1D50918F1DC701B6010E94911D6D87C6
:101F20007E878F87988BC090571DD090581DE0906A
:101F3000591DF0905A1DC701B6010E94DB1C6D832C
:101F40007E838F8398872091801D3091811D4091E1
:101F5000821D5091831DC501B4010E940B1C9B0181
:101F6000AC01C301B2010E940B1C9B01AC016D8549
:101F70007E858F8598890E940B1C9B01AC016D8129
:101F80007E818F8198850E94911D6D877E878F87C6
:101F9000988BA7019601C701B6010E94591F6D8356
:101FA0007E838F8398870E94DB1C4B015C014090ED
:101FB000A01D5090A11D6090A21D7090A31D2091A6
:101FC000A41D3091A51D4091A61D5091A71D6981AA
:101FD0007A818B819C810E94911D9B01AC01C30180
:101FE000B2010E940B1C9B01AC01C501B4010E940F
:101FF000911D4B015C01A70196016D817E818F814E
:1020000098850E94591FC090A81DD090A91DE090EE
:10201000AA1DF090AB1D0E94DB1CA70196010E9437
:10202000911D9B01AC01C501B4010E940B1C6B0109
:102030007C012D853E854F85588969857A858B85FC
:102040009C850E940B1C9B01AC01C701B6010E943C
:102050000B1C20E030E04CED53E40E940B1CF80117
:10206000608371838283938360960FB6F894DEBF9A
:102070000FBECDBFDF91CF911F910F91FF90EF90D9
:10208000DF90CF90BF90AF909F908F907F906F9098
:102090005F904F9008950F931F93CF93DF93EC01C0
:1020A0008B016BE57DE187E59DE1E2DDC8013BDE6B
:1020B000BC01CE0185DEDF91CF911F910F91089574
:1020C000EF92FF920F931F93CF93DF93EC016981FF
:1020D00070E0762F66278881682B0F2EFFE5EF2EA4
:1020E000FDE1FF2EF02DF7017183608380E090E029
:1020F0000E94DB1C20E030E040E853E40E94911D88
:1021000004E71DE1F80160837183828393836B810F
:1021100070E0762F66278A81682BF70173836283CC
:1021200080E090E00E94DB1C20E030E040E850E3DB
:102130000E94911DF80164837583868397836C8167
:10214000F7016483062E000C770B880B990B0E9415
:10215000DD1C20E030E040E857E20E94911DF801CC
:1021600060877187828793876E8170E0762F6627FC
:102170008D81682BF701768365837054072E000CE0
:10218000880B990B0E94DD1C20E030E040E855E30D
:102190000E94911DF80164877587868797876885F7
:1021A00070E0762F66278F81682BF7017087678331
:1021B0007054072E000C880B990B0E94DD1C20E048
:1021C00030E040E051E30E94911DF801608B718B7B
:1021D000828B938B6985F7016187062E000C770B44
:1021E000880B990B0E94DD1C20E030E040E85FE2A4
:1021F0000E94911DF801648B758B868B978B6A8585
:10220000F7016287062E000C770B880B990B0E9452
:10221000DD1C20E030E040E05DE20E94911DF8010D
:10222000608F718F828F938F6C8570E0762F662719
:102230008B85682BF7017487638780E090E00E94AC
:10224000DB1C20E030E040E051E40E94911DF801E9
:10225000648F758F868F978F6E8570E0762F6627D7
:102260008D85682BF7017687658780E090E00E9476
:10227000DB1C20E030E040E85CE30E94911DF801A7
:1022800060A371A382A393A36F85F7016787062ECE
:10229000000C770B880B990B0E94DD1C20E030E0CE
:1022A00040E85BE30E94911DF80164A375A386A337
:1022B00097A36889F701608B062E000C770B880BBB
:1022C000990B0E94DD1C20E030E040E058E30E94C2
:1022D000911DF80160A771A782A793A76A8970E092
:1022E000762F66278989682BF701728B618B072E01
:1022F000000C880B990B0E94DD1C20E030E040E8C8
:1023000057E20E94911DF80164A775A786A797A7B9
:102310006B89F701638B062E000C770B880B990BEA
:102320000E94DD1C20E030E040E857E20E94911D51
:10233000F80160AB71AB82AB93AB6C89F701648B36
:10234000062E000C770B880B990B0E94DD1C20E0F9
:1023500030E040E05FE10E94911DF80164AB75AB95
:1023600086AB97ABDF91CF911F910F91FF90EF90CC
:1023700008950F931F93CF93DF93CDB7DEB7659783
:102380000FB6F894DEBF0FBECDBF8E010F5F1F4F9B
:1023900085E1F80111928A95E9F745E150E0B8012D
:1023A00081E301DCC8018CDE65960FB6F894DEBFD0
:1023B0000FBECDBFDF91CF911F910F91089563E0C4
:1023C0008CE131DC62E08DE12EDC63E38BE12BDC20
:1023D000D0CF0895EF92FF920F931F93CF93DF9387
:1023E000C82F8B017A01A5D189E2AFD18C2FC6D13C
:1023F000A0D189E2B5D1C0E0D0E005C0C8018C0F02
:102400009D1FD2D12196C7010197C817D907B0F3F4
:10241000800F911FBDD195D1DF91CF911F910F9169
:10242000FF90EF900895CF93DF93D82FC62F81D1DF
:1024300089E28BD18D2FA2D18C2FA0D182D1DF91B7
:10244000CF9108956CE08DE3EECF089541E050E028
:10245000BC0186E3BFCF0895CF93DF931F92CDB722
:10246000DEB7CE010196F2DF99819F7081E09F3047
:1024700009F080E00F90DF91CF910895CF92DF9225
:10248000EF92FF920F931F93CF93DF9300D000D072
:10249000CDB7DEB78C0146E050E0BE016F5F7F4FE5
:1024A00088E098DF6A8170E0762F66278981682B43
:1024B0008C8190E0982F88272B816C01C22A8E8115
:1024C00090E0982F88272D817C01E22A072E000CAE
:1024D000880B990B0E94DD1C20E030E048EC52E4B0
:1024E0000E94731CF8016083718382839383B60119
:1024F000DD0C880B990B0E94DD1C20E030E048ECDD
:1025000052E40E94731CF801648375838683978369
:10251000B701FF0C880B990B0E94DD1C20E030E016
:1025200048EC52E40E94731CF8016087718782872F
:10253000938726960FB6F894DEBF0FBECDBFDF910E
:10254000CF911F910F91FF90EF90DF90CF90089562
:10255000CF92DF92EF92FF920F931F93CF93DF936F
:1025600000D000D0CDB7DEB78C0146E050E0BE0110
:102570006F5F7F4F8EE02EDF6A8170E0762F6627D7
:102580008981682B8C8190E0982F88272B816C01A2
:10259000C22A8E8190E0982F88272D817C01E22A23
:1025A000072E000C880B990B0E94DD1C20E030E008
:1025B00040E85DE30E94911DF8016083718382838E
:1025C0009383B601DD0C880B990B0E94DD1C20E083
:1025D00030E040E85DE30E94911DF801648375835B
:1025E00086839783B701FF0C880B990B0E94DD1C33
:1025F00020E030E040E85DE30E94911DF801608733
:1026000071878287938726960FB6F894DEBF0FBE38
:10261000CDBFDF91CF911F910F91FF90EF90DF9091
:10262000CF900895CF92DF92EF92FF920F931F9376
:10263000CF93DF9300D000D0CDB7DEB78C0146E05A
:1026400050E0BE016F5F7F4F84E1C4DE6A8170E0BD
:10265000762F66278981682B8C8190E0982F8827B8
:102660002B816C01C22A8E8190E0982F88272D81C2
:102670007C01E22A072E000C880B990B0E94DD1CBE
:1026800020E030E040E85DE30E94911DF8016083A6
:10269000718382839383B601DD0C880B990B0E94B2
:1026A000DD1C20E030E040E85DE30E94911DF80170
:1026B0006483758386839783B701FF0C880B990B1E
:1026C0000E94DD1C20E030E040E85DE30E94911DA7
:1026D000F801608771878287938726960FB6F894F2
:1026E000DEBF0FBECDBFDF91CF911F910F91FF9045
:1026F000EF90DF90CF900895EAE0F1E08081806272
:102700008083EBE0F1E08081806280830895EAE0DD
:10271000F1E080818F7D8083EBE0F1E080818F7D2F
:10272000808308958CE08093B80084E08093BC009F
:10273000089584EA8093BC008091BC008823E4F76C
:10274000089584E98093BC000895880F8093BB00AE
:1027500084E88093BC008091BC008823E4F708954E
:1027600090E0880F991F81608093BB0084E880937C
:10277000BC008091BC008823E4F708958093BB00DF
:1027800084E88093BC008091BC008823E4F708951E
:10279000FC0184E88093BC009091BC009923E4F78D
:1027A0008091BB0080830895FC0184EC8093BC0081
:1027B0009091BC009923E4F78091BB008083089539
:1027C000EAE0F1E080818061808382E280932001F1
:1027D0008BE18093210187E893E190932701809317
:1027E000260183E191E090932B0180932A010895C3
:1027F000EAE0F1E080818061808382E280932001C1
:102800008BE18093210187E893E1909327018093E6
:1028100026018BED91E090932B0180932A0108957E
:10282000EAE0F1E080818F7E8083089587E084B9BB
:1028300088E181B981E58CBD82B1886182B9089552
:1028400092B121E030E002C0220F331F8A95E2F7F7
:102850002095292322B9089592B121E030E002C0E9
:10286000220F331F8A95E2F7292B22B908958EBDD6
:102870000DB407FEFDCF8EB508950F9300E02FEF46
:102880003FEFA90160E070E08091AC1D9091AD1D1B
:102890000E9457068091B01D811106C081E080938F
:1028A000B01D83E693E0F1D500E020E030E0A9011F
:1028B00060E070E08091AC1D9091AD1D0E947605A6
:1028C0000F9108950F93CF93DF9300E02FEF3FEF29
:1028D000A90160E070E08091AC1D9091AD1D0E9457
:1028E00057068091B01D8130C9F4CEEADDE182E067
:1028F0008A8382E793E0C9D56B817C818D819E813B
:1029000020E030E040E45FE30E94911D6093D31C1F
:102910007093D41C8093D51C9093D61C00E020E0CB
:1029200030E0A90160E070E08091AC1D9091AD1D98
:102930000E947605DF91CF910F9108950F9300E0EB
:102940002FEF3FEFA90160E070E08091AC1D909106
:10295000AD1D0E9457068091B01D833081F484E044
:102960008093B01D82E893E090D5EAE0F1E08081A9
:1029700080628083EBE0F1E080818062808300E010
:1029800020E030E0A90160E070E08091AC1D909102
:10299000AD1D0E9476050F9108950F938CE893E08A
:1029A00074D500E02FEF3FEFA90160E070E0809167
:1029B000AC1D9091AD1D0E9457068091AF1D8111F5
:1029C0001092AF1D00E020E030E0A90160E070E06F
:1029D0008091AC1D9091AD1D0E9476050F910895D8
:1029E0000F9300E02FEF3FEFA90160E070E08091CE
:1029F000AC1D9091AD1D0E9457068091B01D823094
:102A000089F483E08093B01D8AEA93E03ED5D8DE56
:102A10002FE38DE093E0215080409040E1F700C02B
:102A20000000FEDE00E020E030E0A90160E070E0A0
:102A30008091AC1D9091AD1D0E9476050F91089577
:102A4000CF93DF93CDB7DEB728970FB6F894DEBFEC
:102A50000FBECDBF8CEB93E018D5BE016B5F7F4FEF
:102A6000CE01019618DB1092E71D1092E81D10921E
:102A7000E91D1092EA1D69817A818B819C8120E099
:102A800032E145EC57E42FD721E03EED42E45EE32E
:102A90000E94F41D9B01AC0160E070E080E89FE3C0
:102AA000B9D620E03AE24DE257E40E94911D6093CE
:102AB000D71C7093D81C8093D91C9093DA1C28964D
:102AC0000FB6F894DEBF0FBECDBFDF91CF91089552
:102AD000CF93DF931F92CDB7DEB7EEEAFDE181E041
:102AE0008183128200E02FEF3FEFA901BE016F5FEB
:102AF0007F4F8091E51D9091E61D0E945706813021
:102B000089F7E981F0E0EE0FFF1FE050FE4F0190E2
:102B1000F081E02D1995E6CFCF939B01AC01609138
:102B2000E71D7091E81D8091E91D9091EA1D72D614
:102B3000C1E020E030E040EA50E4EFD718160CF096
:102B4000C0E08C2FCF910895CF939B01AC01609191
:102B5000E71D7091E81D8091E91D9091EA1D5AD6FC
:102B60009F77C1E020E030E040E05FE3B8D6882303
:102B70000CF0C0E08C2FCF9108950F931F93CF934B
:102B8000DF93CDB7DEB7AD970FB6F894DEBF0FBEBB
:102B9000CDBF1092E71D1092E81D1092E91D109212
:102BA000EA1D00E02FEF3FEFA90160E070E08091A7
:102BB000AC1D9091AD1D0E94570687EA91E60197E2
:102BC000F1F700C00000BE016B5F7F4FCE010196A0
:102BD00062DA8091AF1D811125C020E030E0A901AB
:102BE00060E070E08091AC1D9091AD1D0E94760573
:102BF0002FEF3FEFA901BE016F5F7F4F8091EB1D6B
:102C00009091EC1D0E945706813009F009C12FEF09
:102C10003FEFA90160E070E08091AC1D9091AD1D87
:102C20000E94570669817A818B819C810EEA1DE1A1
:102C3000F801678370878187928720E032E145EC55
:102C400057E451D621E03EED42E45EE3CDD79B014F
:102C5000AC0160E070E080E89FE3DCD520E03AE280
:102C60004DE257E45ED72091D71C3091D81C40919B
:102C7000D91C5091DA1CCED5F80163837483858307
:102C800096838D819E81AF81B88583879487A58740
:102C9000B687CE010996F2DBCE01459659DCCE010E
:102CA0008196C0DC89859A85AB85BC85F8018787CC
:102CB000908BA18BB28B8D859E85AF85B889838BD8
:102CC000948BA58BB68B89899A89AB89BC89878BB4
:102CD000908FA18FB28F8D899E89AF89B88D838F98
:102CE000948FA58FB68F898D9A8DAB8DBC8D878F74
:102CF00090A3A1A3B2A38D8D9E8DAF8DB8A183A308
:102D000094A3A5A3B6A389A19AA1ABA1BCA187A3B3
:102D100090A7A1A7B2A78DA19EA1AFA1B8A583A797
:102D200094A7A5A7B6A789A59AA5ABA5BCA587A773
:102D300090ABA1ABB2AB6381748185819681ECDEEF
:102D4000882379F081E08DA700E02FEF3FEFA90104
:102D5000BE01635D7F4F8091E51D9091E61D0E944D
:102D600076056091B11D7091B21D8091B31D909157
:102D7000B41D2091D31C3091D41C4091D51C50918E
:102D8000D61CADD588237CF482E08DA700E02FEF20
:102D90003FEFA901BE01635D7F4F8091E51D9091DA
:102DA000E61D0E9476056091B11D7091B21D809163
:102DB000B31D9091B41DC8DE882379F083E08DA700
:102DC00000E02FEF3FEFA901BE01635D7F4F8091CF
:102DD000E51D9091E61D0E9476058091B11D9091B0
:102DE000B21DA091B31DB091B41D8093E71D9093C7
:102DF000E81DA093E91DB093EA1D00E020E030E05B
:102E0000A90160E070E08091AC1D9091AD1D0E9421
:102E1000760568EE73E080E090E00E94BA0AC1CEC9
:102E2000AD960FB6F894DEBF0FBECDBFDF91CF9148
:102E30001F910F910895CF93DF931F92CDB7DEB707
:102E4000FC0180809180A280B380C12CD12C7601BE
:102E500010E01FC0C114D104F1E0EF06F10458F0F6
:102E6000EBBEF6018791898361E070E0CE010196A7
:102E700063D0182709C0F6018491898361E070E06E
:102E8000CE01019659D01827FFEFCF1ADF0AEF0ABB
:102E9000FF0AC814D904EA04FB04E0F200E02FEFB3
:102EA0003FEFA90160E070E08091AC1D9091AD1DF5
:102EB0000E9457061093E21D20E030E0A90160E077
:102EC00070E08091AC1D9091AD1D0E94760568EE7A
:102ED00073E080E090E00E94BA0AB7CF0E947409C4
:102EE0006B017C0180913F1D813021F480E090E0F6
:102EF0000E94F1080E947409DC01CB018C199D0924
:102F0000AE09BF0981339547A105B10570F00FB631
:102F1000F8940F929CE088E10FB6F894A8958093FE
:102F200060000FBE90936000FFCF68EE73E080E01A
:102F300090E00E94BA0AD6CFAC0120E030E080E0F9
:102F400007C0FA01E20FF31F908189272F5F3F4FDF
:102F500026173707B0F308959C0140E050E080E069
:102F600007C0F901E40FF51F908189274F5F5F4F7C
:102F700041155105B1F340E050E008C0F901319628
:102F8000E40FF51F908189274F5F5F4F4115510571
:102F9000A9F340E050E008C0F9013296E40FF51FB4
:102FA000908189274F5F5F4F41155105A9F340E09C
:102FB00050E008C0F9013396E40FF51F908189278E
:102FC0004F5F5F4F44305105A8F340E050E008C028
:102FD000F9013796E40FF51F908189274F5F5F4F06
:102FE00044305105A8F340E050E008C0F9013B9699
:102FF000E40FF51F908189274F5F5F4F44305105E3
:10300000A8F340E050E008C0F9013F96E40FF51F37
:10301000908189274F5F5F4F44305105A8F340E00E
:1030200050E008C0F9017396E40FF51F90818927DD
:103030004F5F5F4F44305105A8F340E050E008C0B7
:10304000F9017796E40FF51F908189274F5F5F4F55
:1030500044305105A8F340E050E008C0F9017B96E8
:10306000E40FF51F908189274F5F5F4F4430510572
:10307000A8F340E050E008C0F9017F96E40FF51F87
:10308000908189274F5F5F4F44305105A8F340E09E
:1030900050E008C0F901B396E40FF51F908189272D
:1030A0004F5F5F4F44305105A8F340E050E008C047
:1030B000F901B796E40FF51F908189274F5F5F4FA5
:1030C00044305105A8F340E050E008C0F901BB9638
:1030D000E40FF51F908189274F5F5F4F4430510502
:1030E000A8F340E050E008C0F901BF96E40FF51FD7
:1030F000908189274F5F5F4F44305105A8F340E02E
:1031000050E008C0F901F396E40FF51F908189277C
:103110004F5F5F4F41155105A9F340E050E008C0F3
:10312000F901F496E40FF51F908189274F5F5F4FF7
:1031300041155105A9F340E050E008C0F901F596AA
:10314000E40FF51F908189274F5F5F4F41155105AF
:10315000A9F30895CF93DF931F921F92CDB7DEB7E7
:103160008FEF89838091421D811190C000E02FEF85
:103170003FEFA90160E070E08091AC1D9091AD1D22
:103180000E9457068091401D91E0980F9093401D3A
:103190000EEA1DE1F8018083C801DEDEF80186AB8E
:1031A00061E070E0CE0101967CD187E38A8361E023
:1031B00070E0CE01029675D161E070E0C80171D176
:1031C00061E070E08FEA9DE16CD161E070E080EB3E
:1031D0009DE167D164E070E081EB9DE162D164E044
:1031E00070E085EB9DE15DD164E070E089EB9DE1ED
:1031F00058D164E070E08DEB9DE153D164E070E064
:1032000081EC9DE14ED164E070E085EC9DE149D117
:1032100064E070E089EC9DE144D164E070E08DEC05
:103220009DE13FD164E070E081ED9DE13AD164E041
:1032300070E085ED9DE135D164E070E089ED9DE1C0
:1032400030D164E070E08DED9DE12BD161E070E064
:1032500081EE9DE126D161E070E082EE9DE121D119
:1032600061E070E083EE9DE11CD161E070E084EEEE
:103270009DE117D100E020E030E0A90160E070E0BE
:103280008091AC1D9091AD1D0E94760568EE73E0B3
:1032900080E090E00E94BA0A65CFCF93DF9300D020
:1032A0001F92CDB7DEB78BED9CE10ED1EBEDFCE1CB
:1032B0000081E02EF12C1181B7018CED9CE13CDE08
:1032C000F701E452F34E9081891398C0812F90E06A
:1032D0008B30910508F088C0FC018827EE58FF4F1D
:1032E0008F4FF6C586ED93E0D0D0198200E02FEF26
:1032F0003FEFA901BE016F5F7F4F8091E51D909167
:10330000E61D0E9476057DC08FED93E0BED08091D2
:10331000DD1C9091DE1CA091DF1CB091E01C898324
:103320009A83AB83BC8300E02FEF3FEFA901BE017E
:103330006F5F7F4F8091EB1D9091EC1D0E94760591
:1033400060C08EEE93E0A1D084E0898300E02FEF8F
:103350003FEFA901BE016F5F7F4F8091E51D909106
:10336000E61D0E9476054DC081E094E08ED085E098
:10337000898300E02FEF3FEFA901BE016F5F7F4F10
:103380008091E51D9091E61D0E9476053AC086E188
:1033900094E07BD015DA2FE38DE093E0215080405C
:1033A0009040E1F700C000003BDA2BC08EE194E0D2
:1033B0006CD09CE088E10FB6F894A89580936000EB
:1033C0000FBE90936000FFCF86E294E05ED06FEF77
:1033D000600F8DED9CE1CCD114C08BE294E055D010
:1033E00081E080933F1D0DC089E394E04ED064E1FD
:1033F00070E08BED9CE143D11FEF03C081E594E0C9
:1034000044D01F3FC9F000E02FEF3FEFA90160E07B
:1034100070E08091AC1D9091AD1D0E9457061093F5
:10342000E11D20E030E0A90160E070E08091AC1D7A
:103430009091AD1D0E9476056CE271E080E090E015
:103440000E94BA0A30CF9093C5008093C40028E14F
:103450002093C10026E02093C2009093CD0080937A
:10346000CC0088E98093C9002093CA000895909108
:10347000C00095FFFCCF8093C60008959091C800CE
:1034800095FFFCCF8093CE000895CF93DF93EC019E
:1034900002C0EDDF219688818111FBCFDF91CF91B2
:1034A00008950F931F93CF93DF93EC018C01060FC8
:1034B000171F02C08991E2DFC017D107D8F3DF914F
:1034C000CF911F910F910895CF92DF92EF92FF92CB
:1034D0000F93CF93DF931F92CDB7DEB76C0100E05F
:1034E0002FEF3FEFA901BE016F5F7F4F8091ED1D70
:1034F0009091EE1D0E945706813089F789818F3F98
:1035000071F72FEF3FEFA901B6018091ED1D90916A
:10351000EE1D0E945706E12CF12C10C08FEFE81A27
:10352000F80AB6016E0D7F1D00E02FEF3FEFA901F5
:103530008091ED1D9091EE1D0E945706F60180814D
:1035400090E00196E816F90648F30F90DF91CF91CD
:103550000F91FF90EF90DF90CF9008950F93CF934E
:10356000DF931F92CDB7DEB700E02FEF3FEFA90149
:10357000BE016F5F7F4F8091ED1D9091EE1D0E9407
:103580005706813049F489818F3441F08B3441F002
:103590008D3041F080E007C080E005C081E003C0CD
:1035A00081E001C081E00F90DF91CF910F910895EC
:1035B0001F920F920FB60F9211240BB60F922F93FA
:1035C0003F934F935F936F937F938F939F93AF93AB
:1035D000BF93EF93FF93CF93DF931F921F92CDB7CB
:1035E000DEB78091CE0089831A8220E0AE014E5F63
:1035F0005F4FBE016F5F7F4F8091ED1D9091EE1D7B
:103600000E941F068A8181110E9472030F900F9001
:10361000DF91CF91FF91EF91BF91AF919F918F91EA
:103620007F916F915F914F913F912F910F900BBEC2
:103630000F900FBE0F901F9018951F920F920FB60C
:103640000F9211240BB60F928F939F93EF93FF93DA
:103650008091D600E091411D91E09E0F9093411D15
:10366000F0E0ED5BF24E8083FF91EF919F918F919F
:103670000F900BBE0F900FBE0F901F9018950F93D9
:103680001F93CF93DF93EC018C01060F171F02C02D
:103690008991EDDEC017D107D8F3DF91CF911F914B
:1036A0000F910895EF92FF920F931F93CF93DF93A3
:1036B0007C018B01EA0183E0C3D88FE9D8D880E090
:1036C000D6D8F701808380E0D2D8F801808380E0EB
:1036D000CED8888383E0C0D8DF91CF911F910F911E
:1036E000FF90EF900895CF93DF9300D0CDB7DEB772
:1036F000AE014D5F5F4FBE016E5F7F4FCE01019601
:10370000D1DF81E099819F3E09F080E00F900F901A
:103710000F90DF91CF910895CF92DF92EF92FF92B9
:10372000CF930E9474096B017C0106C06AE070E0CF
:1037300080E090E00E94BA0A11DFC82F81110DC00D
:103740000E947409DC01CB018C199D09AE09BF09E7
:10375000803D9740A105B10548F3C11103C08EE635
:1037600094E093DECF91FF90EF90DF90CF9008959B
:10377000EF92FF921F93CF93DF931F92CDB7DEB7E7
:103780007C01162F81E08093421D6CE474E080E0A0
:1037900090E00E94BA0A63E070E086E894E081DE7F
:1037A000BBDF8AE894E071DE612F70E0C70179DE4B
:1037B0008DE0898361E070E0CE01019672DEACDFBE
:1037C0008AE894E062DE65E070E08FE894E069DE0C
:1037D000A3DF8AE894E059DE65E070E085E994E0D3
:1037E00060DE9ADF8AE894E050DE65E070E08BE905
:1037F00094E057DE91DF8AE894E047DE1092421DA4
:1038000081EA94E042DE0F90DF91CF911F91FF900B
:10381000EF9008955058BB27AA270ED044C135D148
:1038200030F03AD120F031F49F3F11F41EF42AC158
:103830000EF4E095E7FB20C1E92F46D180F3BA17DB
:10384000620773078407950718F071F49EF55EC14F
:103850000EF4E0950B2EBA2FA02D0B01B9019001AB
:103860000C01CA01A0011124FF27591B99F0593FEF
:1038700050F4503E68F11A16F040A22F232F342F37
:103880004427585FF3CF469537952795A795F04085
:103890005395C9F77EF41F16BA0B620B730B840B9A
:1038A000BAF09150A1F0FF0FBB1F661F771F881F52
:1038B000C2F70EC0BA0F621F731F841F48F48795AA
:1038C00077956795B795F7959E3F08F0B3CF939599
:1038D000880F08F09927EE0F979587950895A8D03F
:1038E00008F481E008950CD0DEC0D6D040F0CDD0F1
:1038F00030F021F45F3F19F0BFC0511108C1C2C0C0
:10390000E3D098F39923C9F35523B1F3951B550BD5
:10391000BB27AA2762177307840738F09F5F5F4FA2
:10392000220F331F441FAA1FA9F333D00E2E3AF0E3
:10393000E0E830D091505040E695001CCAF729D0FD
:10394000FE2F27D0660F771F881FBB1F261737074C
:103950004807AB07B0E809F0BB0B802DBF01FF277C
:1039600093585F4F2AF09E3F510568F085C0CFC045
:103970005F3FECF3983EDCF3869577956795B795B6
:10398000F7959F5FC9F7880F911D9695879597F9D1
:103990000895E1E0660F771F881FBB1F621773074A
:1039A0008407BA0720F0621B730B840BBA0BEE1F5F
:1039B00088F7E0950895E89409C097FB3EF4909548
:1039C0008095709561957F4F8F4F9F4F9923A9F0F8
:1039D000F92F96E9BB279395F69587957795679587
:1039E000B795F111F8CFFAF4BB0F11F460FF1BC0CB
:1039F0006F5F7F4F8F4F9F4F16C0882311F096E95E
:103A000011C0772321F09EE8872F762F05C066230B
:103A100071F096E8862F70E060E02AF09A95660FC4
:103A2000771F881FDAF7880F9695879597F908957D
:103A3000990F0008550FAA0BE0E8FEEF16161706BF
:103A4000E807F907C0F012161306E407F50798F027
:103A5000621B730B840B950B39F40A2661F0232B40
:103A6000242B252B21F408950A2609F4A140A695BC
:103A70008FEF811D811D089597F99F6780E870E0A1
:103A800060E008959FEF80EC089500240A941616D4
:103A9000170618060906089500240A94121613063C
:103AA000140605060895092E0394000C11F48823CA
:103AB00052F0BB0F40F4BF2B11F460FF04C06F5FE6
:103AC0007F4F8F4F9F4F089557FD9058440F551FBC
:103AD00059F05F3F71F04795880F97FB991F61F090
:103AE0009F3F79F087950895121613061406551F07
:103AF000F2CF4695F1DF08C0161617061806991F73
:103B0000F1CF86957105610508940895E894BB2767
:103B100066277727CB0197F908958ADF08F48FEF9E
:103B200008950BD0C0CFB1DF28F0B6DF18F0952391
:103B300009F0A2CFA7CF1124EACFC6DFA0F3959F4B
:103B4000D1F3950F50E0551F629FF001729FBB2784
:103B5000F00DB11D639FAA27F00DB11DAA1F649F30
:103B60006627B00DA11D661F829F2227B00DA11DE3
:103B7000621F739FB00DA11D621F839FA00D611D69
:103B8000221F749F3327A00D611D231F849F600D8A
:103B9000211D822F762F6A2F11249F5750408AF0C3
:103BA000E1F088234AF0EE0FFF1FBB1F661F771F4F
:103BB000881F91505040A9F79E3F510570F05CCF8F
:103BC000A6CF5F3FECF3983EDCF38695779567953B
:103BD000B795F795E7959F5FC1F7FE2B880F911D6D
:103BE0009695879597F90895FA01EE0FFF1F309685
:103BF0002105310599F16115710561F48038BFE344
:103C00009B0749F168949038810561F08038BFEFD7
:103C10009B0741F0992342F5FF3FE105310521055E
:103C200011F1E8940894E795D901AA2329F4AB2F60
:103C3000BE2FF85FD0F310C0FF5F70F4A695E0F7D9
:103C4000F73950F019F0FF3A38F49F779F930CD072
:103C50000F9007FC905808953EF014CF60E070E09C
:103C600080E89FE308954FE79F775F934F933F93DB
:103C70002F939ED02F913F914F915F9152DF05C0BE
:103C800019F40EF0F9CE42CFFDCE26DFC8F39638F8
:103C9000C0F707F80F92E8942BE33AEA48EB5FE7A6
:103CA0004EDF0F920F920F924DB75EB70F92C0D0BA
:103CB000EAEFF0E016D04F915F91EF91FF91E5951B
:103CC000EE1FFF1F49F0FE57E0684427EE0F441F28
:103CD000FA95E1F74195550B32D00F9007FE26C0BB
:103CE0000895DF93CF931F930F93FF92EF92DF928C
:103CF0007B018C01689405C0DA2EEF011EDFFE0106
:103D0000E894A5912591359145915591AEF3EF0138
:103D100093DDFE019701A801DA9479F7DF90EF9027
:103D2000FF900F911F91CF91DF9108959B01AC01FE
:103D300060E070E080E89FE3D6CD9ECEACC0CCDEE4
:103D4000E8F39923D9F3940F511DBBF391505040E0
:103D500094F059F0882332F0660F771F881F915036
:103D60005040C1F79E3F510544F7880F911D96952D
:103D7000879597F908955F3FACF0983E9CF0BB277C
:103D8000869577956795B79508F4B1609395C1F7D7
:103D9000BB0F58F711F460FFE8CF6F5F7F4F8F4F75
:103DA0009F4FE3CFB4CE0EF076C06CCE689464CE55
:103DB00093DEC8F39923D1F3C6F3DF93CF931F9318
:103DC0000F93FF92C92FDD2788232AF02197660FD2
:103DD000771F881FDAF720E030E040E85FEB9FE3D1
:103DE000883920F0803E30F021968F7714DDE2E2B2
:103DF000F1E003C010DDEFE4F1E073DF8B01BE0101
:103E0000EC01FB2E6F5771097595771F880B990B85
:103E1000D4DD28E132E741E35FE38FDEAF2D980187
:103E2000AE01FF900F911F91CF91DF9105DD3BCE49
:103E3000FA01DC01AA0FBB1F9B01AC01BF5728F49C
:103E400022273327442750781FC0B75188F4AB2F5F
:103E50000024469537952795011CA395D2F30020A1
:103E600069F0220F331F441FB395DAF30DD0D2CC83
:103E700061307105A0E88A07B94630F49B01AC01B6
:103E80006627772788279078309621F02083318322
:103E90004283538308959F3F31F0915020F48795DA
:103EA00077956795B795880F911D9695879597F9A2
:103EB0000895DB018F939F9313D0BF91AF91A29F81
:103EC000800D911DA39F900DB29F900D1124089518
:103ED000EE0FFF1F881F8BBF0790F691E02D1994FE
:103EE00009D0A59F900DB49F900DA49F800D911DAA
:103EF00011240895A29FB001B39FC001A39F700D2C
:103F0000811D1124911DB29F700D811D1124911DE1
:103F10000895FB01DC0102C001900D924150504018
:103F2000D8F708950F931F93CF93DF93CDB7DEB7E4
:103F30002E970FB6F894DEBF0FBECDBF0E891F8936
:103F400086E08C831A8309838FEF9FE79E838D839E
:103F5000AE01465E5F4F688D798DCE01019610D01F
:103F6000EF81F885E00FF11F10822E960FB6F894BE
:103F7000DEBF0FBECDBFDF91CF911F910F9108958E
:103F80002F923F924F925F926F927F928F929F9269
:103F9000AF92BF92CF92DF92EF92FF920F931F9357
:103FA000CF93DF93CDB7DEB72B970FB6F894DEBF74
:103FB0000FBECDBF6C017B018A01FC011782168206
:103FC000838181FFBFC1CE0101963C01F60193813F
:103FD000F70193FD859193FF81917F01882309F477
:103FE000ADC1853239F493FD859193FF81917F01B5
:103FF000853221F4B60190E0D6D1E8CF912C212C66
:10400000312CFFE1F315D8F08B3279F038F480329F
:1040100079F08332A1F4232D20611DC08D3261F02F
:10402000803369F4232D216016C0832D8260382EE1
:10403000E32DE4603E2E2AC0F32DF8601DC037FC4E
:104040002DC020ED280F2A3040F08E32B9F436FC16
:1040500075C1232D2064322E19C036FE06C08AE0B9
:10406000989E200D1124922E11C0EAE02E9E200D64
:104070001124222EF32DF0623F2E08C08C3621F43D
:10408000832D8068382E02C0883641F4F70193FDF5
:10409000859193FF81917F018111B3CF982F9F7DEF
:1040A0009554933028F40C5F1F4F9FE399830DC004
:1040B000833631F0833771F0833509F055C020C065
:1040C000F801808189830E5F1F4F88248394912C8F
:1040D000530112C02801F2E04F0E511CF801A080DC
:1040E000B18036FE03C0692D70E002C06FEF7FEF34
:1040F000C5014ED14C018201F32DFF773F2E15C033
:10410000280122E0420E511CF801A080B18036FE49
:1041100003C0692D70E002C06FEF7FEFC5012DD1A4
:104120004C01F32DF0683F2E820133FC19C0822D23
:1041300090E088169906A0F4B60180E290E033D1B1
:104140002A94F5CFF50137FC859137FE81915F0107
:10415000B60190E028D121102A9421E0821A91081A
:104160008114910479F7E1C0843611F0893639F56C
:10417000F80137FE07C060817181828193810C5FF5
:104180001F4F08C060817181072E000C880B990BAE
:104190000E5F1F4FF32DFF763F2E97FF09C09095BE
:1041A0008095709561957F4F8F4F9F4FF0683F2EA0
:1041B0002AE030E0A30133D1882E861844C0853729
:1041C00031F4232D2F7EB22E2AE030E025C0932D2E
:1041D000997FB92E8F36C1F018F4883579F0AEC0CA
:1041E000803719F0883721F0A9C0E92FE061BE2E91
:1041F000B4FE0DC0FB2DF460BF2E09C034FE0AC012
:10420000292F2660B22E06C028E030E005C020E14C
:1042100030E002C020E132E0F801B7FE07C0608163
:104220007181828193810C5F1F4F06C06081718113
:1042300080E090E00E5F1F4FA301F1D0882E86181A
:10424000FB2DFF773F2E36FE0DC0232D2E7FA22E95
:10425000891458F434FE0BC032FC09C0832D8E7EC5
:10426000A82E05C0B82CA32C03C0B82C01C0B92CB3
:10427000A4FE0FC0FE01E80DF11D8081803321F402
:104280009A2D997EA92E09C0A2FE06C0B394B394BC
:1042900004C08A2D867809F0B394A3FC10C0A0FE58
:1042A00006C0B21480F4280C922C9B180DC0B214D6
:1042B00058F4B60180E290E076D0B394F8CFB2140F
:1042C00018F42B1802C0982C212CA4FE0FC0B601A4
:1042D00080E390E068D0A2FE16C0A1FC03C088E78E
:1042E00090E002C088E590E0B6010CC08A2D867887
:1042F00051F0A1FE02C08BE201C080E2A7FC8DE27A
:10430000B60190E050D0891430F4B60180E390E01B
:104310004AD09A94F8CF8A94F301E80DF11D808178
:10432000B60190E040D08110F6CF222009F44ECEA5
:10433000B60180E290E037D02A94F7CFF60186816B
:10434000978102C08FEF9FEF2B960FB6F894DEBFD8
:104350000FBECDBFDF91CF911F910F91FF90EF90D6
:10436000DF90CF90BF90AF909F908F907F906F9095
:104370005F904F903F902F900895FC010590615001
:1043800070400110D8F7809590958E0F9F1F08956B
:10439000FC016150704001900110D8F78095909514
:1043A0008E0F9F1F08950F931F93CF93DF93FB01F1
:1043B000238121FD03C08FEF9FEF2CC022FF16C089
:1043C00046815781248135814217530744F4A081E7
:1043D000B1819D012F5F3F4F318320838C932681D4
:1043E00037812F5F3F4F3783268314C08B01EC0149
:1043F000FB010084F185E02D1995892BE1F6D801A8
:1044000016968D919C911797019617969C938E9373
:104410001697CE01DF91CF911F910F910895FA0168
:10442000AA27283051F1203181F1E8946F936E7FF3
:104430006E5F7F4F8F4F9F4FAF4FB1E03ED0B4E0E4
:104440003CD0670F781F891F9A1FA11D680F791F25
:104450008A1F911DA11D6A0F711D811D911DA11D36
:1044600020D009F468943F912AE0269F1124301946
:10447000305D3193DEF6CF010895462F4770405DE1
:104480004193B3E00FD0C9F7F6CF462F4F70405D90
:104490004A3318F0495D31FD4052419302D0A9F7EB
:1044A000EACFB4E0A6959795879577956795BA95E5
:1044B000C9F700976105710508959B01AC010A2EAB
:1044C00006945795479537952795BA95C9F7620F82
:1044D000731F841F951FA01D0895A6E1B0E044E05E
:1044E00050E002C0DC01CB01FC01F999FECF06C00F
:1044F000F2BDE1BDF89A319600B40D9241505040A2
:08450000B8F70895F894FFCF0D
:104508003D146214F0149E14CD14201549444C45F2
:104518000043617453617420373570657263656E4A
:10452800740D0A002D2D2D2D2D2D2D2D2D2D2D2DDC
:104538002D2D2D2D0D0A00496E697469616C697AFB
:10454800696E6720616E642054657374696E672EA6
:104558002E2E0D0A005732355133323A2025640D7C
:104568000A00424D503339303A2025640D0A004282
:104578004E4F3035353A2025640D0A0073697A6547
:104588003A20256C750D0A005461736B20746F20F6
:1045980073656E642074656C656D657472792074DA
:1045A8006F2067726F756E64005461736B20746F4F
:1045B800207265636569766520636F6D6D616E64F1
:1045C800732066726F6D2067726F756E6400546138
:1045D800736B20746F2068616E646C6520616C6C0D
:1045E800206576656E7473005461736B20746F2058
:1045F8007265616420646174612066726F6D2073F6
:10460800656E736F7273005461736B20746F2063EF
:10461800616C63756C61746520636865636B737541
:104628006D206F6620746865206170700054617336
:104638006B20746F20656E74657220626F6F746C86
:104648006F61646572206966206E6F207265737091
:104658006F6E7365005374617274696E672E2E2EC7
:104668000D0A00417363656E64696E672E2E2E0D08
:104678000A0044657363656E64696E672E2E2E0D9D
:104688000A004C616E6465642E0D0A00456E7465FF
:1046980072696E672053696D756C6174696F6E20FD
:1046A8004D6F64652E2E2E0D0A0052656C65617380
:1046B800696E672050726F62650D0A0043616C690C
:1046C80062726174696E6720416C7469747564659F
:1046D8002E2E2E0D0A004C41554E43480D0A00530C
:1046E80045545F50524553535552450D0A00454EA7
:1046F8005445525F53494D554C4154494F4E0D0A4C
:104708000043414C4942524154455F414C5449543D
:104718005544450D0A00534552564F0D0A0052455F
:104728005345540D0A0041540D0A00535441525444
:1047380055505F41434B0D0A00536F6D65746869AE
:104748006E672077656E742077726F6E67210D0A29
:104758000044726F7070656420616E20696E7661C6
:104768006C6964207061636B65742E0D0A00584291
:10477800454520646964206E6F7420726573706F9C
:104788006E642E0D0A002B2B2B004F4B0D0A004197
:104798005441430D00415457520D004154434E0DAE
:1047A80000415420636F6D6D616E6420736571758F
:1047B800656E636520636F6D706C657465642073E6
:1047C80075636365737366756C6C79210D0A0000F7
:00000001FF
